:040000030000C9DD53
:020000040000FA
:1000000000600020B5090000DD090000DF090000E4
:10001000E1090000E3090000E5090000000000001C
:10002000000000000000000000000000E7090000E0
:10003000E909000000000000EB090000ED090000E4
:10004000EF090000EF090000C90E0000EF090000F1
:10005000EF090000EF090000EF090000EF090000C0
:10006000EF090000EF090000EF090000B5020000F1
:10007000EF090000EF090000EF090000EF090000A0
:10008000EF090000450F0000EF090000EF09000034
:10009000EF090000EF090000EF090000EF09000080
:1000A000EF090000EF090000EF090000EF09000070
:1000B000EF090000EF090000000000000000000050
:1000C000EF090000EF090000EF090000EF09000050
:1000D000EF090000EF090000EF0900000000000038
:1000E0000000000000000000000000000000000010
:1000F0000000000000000000000000000000000000
:1001000000000000000000000000000000000000EF
:1001100000000000000000000000000000000000DF
:1001200000000000000000000000000000000000CF
:1001300000000000000000000000000000000000BF
:1001400000000000000000000000000000000000AF
:10015000000000000000000000000000000000009F
:10016000000000000000000000000000000000008F
:10017000000000000000000000000000000000007F
:10018000000000000000000000000000000000006F
:10019000000000000000000000000000000000005F
:1001A000000000000000000000000000000000004F
:1001B000000000000000000000000000000000003F
:1001C000000000000000000000000000000000002F
:1001D000000000000000000000000000000000001F
:1001E000000000000000000000000000000000000F
:1001F00000000000000000000000000000000000FF
:1002000010B5054C237833B9044B13B10448AFF350
:1002100000800123237010BD780000200000000042
:100220003C2C000008B5034B1BB103490348AFF356
:10023000008008BD000000007C0000203C2C000075
:10024000154B002B08BF134B9D46A3F5803A0021A8
:100250008B460F461348144A121A01F0B5FB0F4B98
:10026000002B00D098470E4B002B00D09847002061
:10027000002104000D000D48002802D00C48AFF307
:10028000008001F075FB2000290000F071FE01F0F4
:100290005BFB00BF000008000060002000000000C1
:1002A0000000000078000020540200200000000040
:1002B0000000000073B5134CD4F84061012E1FD12B
:1002C0000023C4F84031104BD4F80455186801F0ED
:1002D00093F90E4901F09CFA4FF08E4101F0E4F9D8
:1002E00001F05CF80A4B002200F0FAFE01F0AEF8D3
:1002F0002844C4F84005D4F840310193019B66605E
:1003000002B070BD00B000400000002000007A4440
:100310000000E03F70B506460825002433064CBFB8
:10032000012100210F2000F07DFE0E20012176002A
:1003300000F078FE64000D20F6B2E4B200F084FE16
:1003400008B144F0010400210E20013D00F06AFED6
:1003500015F0FF05E2D1204670BD10B5002104461E
:100360000C2000F05FFE2046FFF7D4FF01210C2097
:10037000BDE8104000F056BE70B506460C460C2095
:100380000021154600F04EFE5A20FFF7C3FF002063
:10039000FFF7C0FF300AFFF7BDFFF0B2FFF7BAFF6B
:1003A0000020FFF7B7FF2544AC4205D00020FFF73F
:1003B000B1FF04F8010BF7E701210C20BDE8704004
:1003C00000F030BE0C2008B5002100F02BFE052007
:1003D000FFF7A0FF0020FFF79DFFC307FAD401211C
:1003E0000C2000F01FFE012008BD70B506460C462B
:1003F0000C200021154600F015FE0320FFF78AFFB0
:10040000C6F30740FFF786FFC6F30720FFF782FF1A
:10041000F0B2FFF77FFF2544AC4205D00020FFF784
:1004200079FF04F8010BF7E701210C20BDE87040CB
:1004300000F0F8BD2DE9F341AB20FFF78EFF082255
:1004400069460020FFF798FF9DF80030532B0FD12D
:100450009DF80130462B0BD19DF80230442B07D17B
:100460009DF80330502B03D19DF80730FF2B34D07B
:100470006D4801F0CDFB00210C2000F0D3FD902051
:10048000FFF748FF0020FFF745FF0020FFF742FF7E
:100490000020FFF73FFF0020FFF73CFFC22809D1F3
:1004A000624B202200201A70FFF734FF052803D08A
:1004B00012280ED0002404E05D4B4FF480321A6005
:1004C000012401210C2000F0ADFD204602B0BDE862
:1004D000F081574B4FF40022F1E79DF805100129F8
:1004E00006D09DF80420534801F01EFB0024ECE7E1
:1004F0009DF80640FF2C08BFFE240025E8B201301D
:1005000008226946C000FFF737FF9DF80030002B36
:1005100040F083809DF80230012B7ED19DF803309E
:10052000082B7AD9444CBDF8040024222146FFF759
:1005300023FF237803F00302012A204604D03F481A
:1005400001F066FB3E4845E05A0701D43D48F7E715
:10055000A37813F0060F01D03B48F1E765786B1ED6
:10056000DBB2FD2B01D93948EAE7304BE2791D7047
:10057000130601D53648E3E77AB32D4B4FF400114B
:1005800019602B4B196854104900E2B2002CFAD1C3
:100590001960304A304992F800C091F800E01C27F9
:1005A0002346A046C4196478661EF6B2FD2E24D8F0
:1005B000C65D0F2E2ED0102E1CD00C2E1DD1A542A4
:1005C0001BD0B8F1000F01D081F800E00BB182F828
:1005D00000C0224801F01CFB88E7A2791AB1144B35
:1005E0004FF40051CCE7627912B1114B2021C7E7DB
:1005F0001B48A5E7A6464FF001080237242FD1D1AA
:10060000B8F1000F01D081F800E00BB182F800C012
:1006100001245AE7A4460123EFE70135EBB29C42DF
:10062000BFF46CAF8EE700BF8C290000980000205B
:1006300094000020A32900009B000020BF29000097
:10064000602A0000CF290000E8290000FC290000F2
:10065000182A0000990000209A000020452A000076
:100660002D2A00002DE9F04105460F4616468EB3AF
:100670005FFA85F8C8F58074A4B2B4424FF0060062
:1006800028BF3446FFF769FE00210C2000F0CAFCA9
:100690000220FFF73FFEC5F30740FFF73BFEC5F31F
:1006A0000720FFF737FE4046FFF734FE07EB04084C
:1006B000474504D017F8010BFFF72CFEF8E701219E
:1006C0000C2000F0AFFCFFF77DFE20B12544341B69
:1006D000A6B2CCE70120BDE8F08100001FB50C22D6
:1006E00001A94FF44030FFF780FE074B029A9A426F
:1006F00007D10398054BC31A5842584105B05DF81D
:1007000004FB0020FAE700BFBAABBAABEFBEADDE28
:100710001FB50C2201A94FF44030FFF766FE019887
:1007200005B05DF804FB00001A4B022230B5C3F897
:100730000425D3F80024002AFBD0C3F80805D3F819
:100740000024002AFBD00022C3F80425114B1A46CE
:10075000D3F80044002CFBD00124C3F80445D2F8A0
:100760000034002BFBD00B4A0B1F01F6FC74401A1F
:10077000114653F8045FC550D2F80054002DFBD049
:10078000A342F6D10023C2F80435D1F80034002B7F
:10079000FBD030BD00E001401FB504A9002341F8A3
:1007A0000C3D0C224FF44030CDE90233FFF75AFFE5
:1007B00005B05DF804FB08B50121102000F032FC03
:1007C0000121112000F02EFC0121122000F02AFC52
:1007D0000121102000F0FEFB0121112000F0FAFBA6
:1007E0000121122000F0F6FB02211C2000F0F2FB98
:1007F00002211D2000F0EEFB03210A2000F0EAFB9D
:1008000003210B2000F0E6FB00210D2000F0E2FBAD
:1008100001210E2000F0DEFB01210F2000F0DAFBA9
:1008200001210C2000F0FEFB01210C20BDE8084056
:1008300000F0D0BB80B400AF72B6074A4FF48043DB
:1008400093601B6883F3088844F204031B6862B654
:10085000BD4680BC184700BF00ED00E010B5002188
:10086000044600F0DFFB032000F05EFB2046012180
:10087000BDE8104000F0D6BBF8B5FFF749FF0F24E4
:1008800005461220FFF7EAFF013C462000F04CFB32
:1008900014F0FF04F5D1A5F50053B3F5283F0BD9AB
:1008A00014241020FFF7DAFF013C642000F03CFB29
:1008B00014F0FF04F5D1F8BD29461848184F01F08F
:1008C00033F94FF4805001F077F806464FF4805228
:1008D00020463146FFF789FD04F580403146FFF799
:1008E00023FF2146384601F01FF904F580541220F9
:1008F000FFF7B4FFA542E9D80A4801F089F90021C1
:10090000112000F08FFB4FF4FA7000F00DFB012175
:100910001120BDE8F84000F085BB00BF8F2A000021
:10092000B32A0000C92A00007047000008B54FF440
:10093000E1310E4800F084F94FF4967000F0F4FABB
:100940000B4801F065F9FFF736FFFFF773FDFFF77E
:10095000C5FE38B1FFF790FFFFF71EFFBDE8084066
:10096000FFF768BF1120FFF779FFF7E7DC010020F0
:10097000E22A000010B50348144600F005F82046AE
:1009800010BD00BFDC0100202DE9F04106460D46F8
:1009900001EB02080C464445A4EB050707D0336879
:1009A00014F8011B1B68304698470028F3D13846DD
:1009B000BDE8F0810649074A074B9B1A03DD043B5B
:1009C000C858D050FBDC00F039F8FFF739FC0000C4
:1009D000482C00000000002078000020FEE7FEE721
:1009E000FEE7FEE7FEE7FEE7FEE7FEE7FEE7FEE7DF
:1009F000074B1B78062B09D1064B1B68C3F3031367
:100A0000033B032B02D8044AD05C70470020704798
:100A1000E00F00F0E80F00F0F02A0000054B186826
:100A2000421C04BF044B187820F00800831F584272
:100A30005841704730010010E00F00F008B56C4BD2
:100A40001B685A1C04BF6B4B1B78062B05D16A4BE5
:100A50006A4A1B68C3F304231360FFF7C9FF10B190
:100A6000674B684A1A60FFF7D9FF28B1664B674A9F
:100A70001B68C3F342331360FFF7BAFF20B1644A27
:100A8000D36823F08073D360FFF7C8FF40B14FF005
:100A900080430022C3F80C21C3F81021C3F8382585
:100AA000FFF7A6FF10B15B4B03221A60FFF7A0FF10
:100AB00040B1594B05221A6001229A6700229A60C0
:100AC0003F225A604A4B1A68501C0BBF494B534B8C
:100AD0001A781B6802BF08331B68C3F30313062A86
:100AE0004ED1033B032B03D84D4AD35C002B49D096
:100AF0004FF080524B4BD2F80414C3F82015D2F8B3
:100B00000814C3F82415D2F80C14C3F82815D2F829
:100B10001014C3F82C15D2F81414C3F83015D2F8F9
:100B20001814C3F83415D2F81C14C3F84015D2F8C1
:100B30002014C3F84415D2F82414C3F84815D2F889
:100B40002814C3F84C15D2F82C14C3F85015D2F859
:100B50003014C3F85415D2F83414C3F86015D2F821
:100B60003814C3F86415D2F83C14C3F86815D2F8E9
:100B70004014C3F86C15D2F84424C3F8702501E082
:100B80000E2AB5D01A4B1B68591C04BF194B1B7891
:100B9000062B05D1244B254A1B6803F04F03136035
:100BA000FFF73CFF48B14FF08043D3F80024D20751
:100BB00044BF6FF00102C3F800240D4B1B68062BE5
:100BC00009D1164B1B68033B022B81BF184A1368DF
:100BD00043F480631360064B1B680E2B01BF134A5E
:100BE000136843F00F031360124B134A1A6008BDD9
:100BF00030010010E00F00F02403001040350140E8
:100C000074C007400DF0ADBA440200103C0500402E
:100C1000F0ED00E0A0050040105600403401001047
:100C2000EC2A000000C0004058020010E40E004012
:100C30003C170040040000200090D00301207047C2
:100C400003681322DB69184770470369C3F81C1552
:100C50000369D3F81C21002AFBD00022C3F81C2111
:100C60000120704710B490F95C30144C59090122EE
:100C7000203103F01F0302FA03F344F82130036923
:100C800010BC0421C3F8081303695A600369DA60D1
:100C900003690022C3F8002502694FF0FF33C2F850
:100CA0000C350269C2F814350269C2F808350269C8
:100CB0001430C2F8103500F0EDB900BF00E100E0DB
:100CC000143000F0F9B9143000F0FCB9143000F021
:100CD000E5B90000036990F85E2010B5C3F80C2553
:100CE000036990F85D20C3F8142590F8612003692A
:100CF000012A01BF90F85F40C3F81045036990F8DE
:100D0000604006BFC3F8084503690022B1F5966F3D
:100D1000C3F86C2569D9B1F5166F69D9B1F5965F3D
:100D200069D9B1F5165F68D9B1F5615F67D9B1F5D9
:100D3000964F66D9B1F5E14F65D9B1F5164F64D933
:100D4000B1F5614F64D9B1F5963F64D9B1F5E13F92
:100D500063D9B1F5613F63D9364B994263D9B1F597
:100D6000E12F63D9B1F5612F94BF4FF070634FF05D
:100D700080530269C2F8243503690422C3F80025B0
:100D800001690023C1F808310169C1F81C3101690A
:100D900001230B6001698B600169C1F8042390F99C
:100DA0005C20510902F01F0293406031224A42F850
:100DB000213090F95C30002BBDBF03F00F0302F629
:100DC000FC32D2189B18B5BF60236022137683F8DB
:100DD000002390F95C300122590903F01F0302FA45
:100DE00003F3154A42F8213010BD4FF49E23C0E7AB
:100DF0004FF41D23BDE7114BBBE7114BB9E7114B76
:100E0000B7E7114BB5E7114BB3E74FF41D03B0E75C
:100E10004FF46B03ADE70E4BABE74FF0EB73A8E776
:100E20004FF06C73A5E74FF08063A2E74FF0E863E3
:100E30009FE700BF90D0030000E100E000B0130086
:100E40000050270000F03A0000A04E0000C07500DE
:100E500000903A012DE9F0411E4600254FF47A73C7
:100E6000C0E901530D4B044640F8143B1746884631
:100E700000F0FCF80A4AC4F8108084F85C7052F85C
:100E8000263084F85D309DF8183052F8233084F80D
:100E90005E3084F861502046BDE8F081FC2A0000F5
:100EA000242B000010B50369D3F8082104464AB189
:100EB000D3F818151430C9B200F0E1F82369002204
:100EC000C3F8082110BD00000148FFF7EBBF00BFC9
:100ED000DC01002007B51923009302221A230349DD
:100EE0000348FFF7B7FF03B05DF804FB00200040A4
:100EF000DC0100200A4B19680A4B30B5D3F8040511
:100F00000C060D0A44EA00024FF47A712B46A2FB4C
:100F1000014501FB0355E00B40EA454030BD00BFF1
:100F2000400200200010014038B5044648B1FFF7E8
:100F3000E1FF054600F01AF8FFF7DCFF401BA04276
:100F4000F8D338BD074B0022C3F8042182B0D3F890
:100F50000431054A0193019B13680133DBB213602E
:100F600002B07047001001404002002070477047F7
:100F700008B500F011F8FFF7FAFF0120FFF7D4FFE2
:100F8000FFF7D4FC034CFFF7CFFC002CFBD0AFF3F2
:100F90000080F8E7000000000D4BE02283F81123E9
:100FA0004FF40032C3F880211A604FF080430021D3
:100FB0000122C3F818159A6003F58833C3F80815A1
:100FC0000221C3F80413C3F844131A60704700BF2A
:100FD00000E100E01F280FD8114B53F820300329FF
:100FE0000AD8DFE801F002160A1003F5E0734FF0AB
:100FF000A042002142F82310704703F5E0734FF040
:10100000A0420C21F6E703F5E0734FF0A042042163
:10101000F0E703F5E0734FF0A0420321EAE700BFD9
:10102000242B00001F280CD8064B53F82020012346
:1010300093404FF0A04211B9C2F80C357047C2F886
:1010400008357047242B00001F289FBF4FF0A04396
:10105000054AD3F8103552F820009ABF23FA00F061
:1010600000F0010000207047242B000008B540224A
:10107000002100F0A9FC0022C0E9102208BD026C8A
:1010800010B5531C446C03F03F039C421CBF8154B9
:10109000036410BD0023C0E910337047D0E910236A
:1010A00093421FBFC25C013303F03F03436414BF8C
:1010B00010464FF0FF307047D0E91030181A48BF83
:1010C00040307047D0E91023934214BFC05C4FF00A
:1010D000FF30704781F0004102E000BF83F0004321
:1010E00030B54FEA41044FEA430594EA050F08BFC3
:1010F00090EA020F1FBF54EA000C55EA020C7FEA87
:10110000645C7FEA655C00F0E2804FEA5454D4EB03
:101110005555B8BF6D420CDD2C4480EA020281EACD
:10112000030382EA000083EA010180EA020281EA05
:101130000303362D88BF30BD11F0004F4FEA013157
:101140004FF4801C4CEA113102D0404261EB410166
:1011500013F0004F4FEA03334CEA133302D05242EC
:1011600063EB430394EA050F00F0A780A4F10104A8
:10117000D5F1200E0DDB02FA0EFC22FA05F28018E2
:1011800041F1000103FA0EF2801843FA05F35941C8
:101190000EE0A5F120050EF1200E012A03FA0EFC47
:1011A00028BF4CF0020C43FA05F3C01851EBE37171
:1011B00001F0004507D54FF0000EDCF1000C7EEB8E
:1011C00000006EEB0101B1F5801F1BD3B1F5001FCC
:1011D0000CD349085FEA30004FEA3C0C04F10104EB
:1011E0004FEA445212F5800F80F09A80BCF1004F14
:1011F00008BF5FEA500C50F1000041EB045141EA96
:10120000050130BD5FEA4C0C404141EB010111F496
:10121000801FA4F10104E9D191F0000F04BF014641
:101220000020B1FA81F308BF2033A3F10B03B3F11F
:1012300020020CDA0C3208DD02F1140CC2F10C02AF
:1012400001FA0CF021FA02F10CE002F11402D8BF0D
:10125000C2F1200C01FA02F120FA0CFCDCBF41EAD9
:101260000C019040E41AA2BF01EB0451294330BDA8
:101270006FEA04041F3C1CDA0C340EDC04F1140485
:10128000C4F1200220FA04F001FA02F340EA03005C
:1012900021FA04F345EA030130BDC4F10C04C4F1A2
:1012A000200220FA02F001FA04F340EA0300294682
:1012B00030BD21FA04F0294630BD94F0000F83F4CC
:1012C000801306BF81F480110134013D4EE77FEAAF
:1012D000645C18BF7FEA655C29D094EA050F08BFFB
:1012E00090EA020F05D054EA000C04BF19461046DC
:1012F00030BD91EA030F1EBF0021002030BD5FEA20
:10130000545C05D14000494128BF41F0004130BD47
:1013100014F580043CBF01F5801130BD01F000459B
:1013200045F0FE4141F470014FF0000030BD7FEA0E
:10133000645C1ABF194610467FEA655C1CBF0B4609
:10134000024650EA013406BF52EA033591EA030F20
:1013500041F4002130BD00BF90F0000F04BF002118
:10136000704730B54FF4806404F132044FF000054B
:101370004FF0000150E700BF90F0000F04BF0021C4
:10138000704730B54FF4806404F1320410F000452A
:1013900048BF40424FF000013EE700BF42004FEA25
:1013A000E2014FEA31014FEA02701FBF12F07F43A2
:1013B00093F07F4F81F06051704732F07F4208BF59
:1013C000704793F07F4F04BF41F40021704730B560
:1013D0004FF4607401F0004521F000411CE700BFAC
:1013E00050EA010208BF704730B54FF000050AE02F
:1013F00050EA010208BF704730B511F0004502D530
:10140000404261EB41014FF4806404F132045FEA31
:10141000915C3FF4D8AE4FF003025FEADC0C18BFDA
:1014200003325FEADC0C18BF033202EBDC02C2F1CC
:10143000200300FA03FC20FA02F001FA03FE40EA5E
:101440000E0021FA02F11444BDE600BF4A0011D299
:1014500012F5001211D20DD56FF47873B3EB62520E
:101460000ED44FEAC12343F0004343EA505323FA1A
:1014700002F070474FF00000704750EA013002D18F
:101480004FF0FF3070474FF00000704780F0004091
:1014900002E000BF81F0004142001FBF5FEA41034C
:1014A00092EA030F7FEA226C7FEA236C6AD04FEA4C
:1014B0001262D2EB1363C1BFD21841404840414091
:1014C000B8BF5B42192B88BF704710F0004F40F443
:1014D000000020F07F4018BF404211F0004F41F45F
:1014E000000121F07F4118BF494292EA030F3FD02B
:1014F000A2F1010241FA03FC10EB0C00C3F120033E
:1015000001FA03F100F0004302D5494260EB4000CC
:10151000B0F5000F13D3B0F1807F06D340084FEA37
:10152000310102F10102FE2A51D2B1F1004F40EB2C
:10153000C25008BF20F0010040EA03007047490094
:1015400040EB000010F4000FA2F10102EDD1B0FA5F
:1015500080FCACF1080CB2EB0C0200FA0CF0AABF54
:1015600000EBC25052421843BCBFD04018437047F2
:1015700092F0000F81F4000106BF80F400000132F8
:10158000013BB5E74FEA41037FEA226C18BF7FEACF
:10159000236C21D092EA030F04D092F0000F08BF11
:1015A0000846704790EA010F1CBF0020704712F0F8
:1015B0007F4F04D1400028BF40F00040704712F137
:1015C00000723CBF00F50000704700F0004343F09C
:1015D000FE4040F4000070477FEA226216BF0846D2
:1015E0007FEA23630146420206BF5FEA412390EA95
:1015F000010F40F4800070474FF0000304E000BF8B
:1016000010F0004348BF40425FEA000C08BF70473B
:1016100043F0964301464FF000001CE050EA0102FF
:1016200008BF70474FF000030AE000BF50EA010214
:1016300008BF704711F0004302D5404261EB410101
:101640005FEA010C02BF84460146002043F0B64326
:1016500008BFA3F18053A3F50003BCFA8CF2083A4B
:10166000A3EBC25310DB01FA02FC634400FA02FC54
:10167000C2F12002BCF1004F20FA02F243EB02005B
:1016800008BF20F00100704702F1200201FA02FCBD
:10169000C2F1200250EA4C0021FA02F243EB0200B0
:1016A00008BF20EADC7070474FF0FF0C1CEAD052F4
:1016B0001EBF1CEAD15392EA0C0F93EA0C0F6FD0B5
:1016C0001A4480EA010C400218BF5FEA41211ED093
:1016D0004FF0006343EA501043EA5111A0FB01317F
:1016E0000CF00040B1F5000F3EBF490041EAD37154
:1016F0005B0040EA010062F17F02FD2A1DD8B3F1D0
:10170000004F40EBC25008BF20F00100704790F03E
:10171000000F0CF0004C08BF49024CEA502040EA90
:1017200051207F3AC2BFD2F1FF0340EAC250704756
:1017300040F400004FF00003013A5DDC12F1190F94
:10174000DCBF00F000407047C2F10002410021FA06
:1017500002F1C2F1200200FA02FC5FEA310040F11E
:10176000000053EA4C0308BF20EADC70704792F097
:10177000000F00F0004C02BF400010F4000F013ACF
:10178000F9D040EA0C0093F0000F01F0004C02BFCA
:10179000490011F4000F013BF9D041EA0C018FE739
:1017A0000CEAD15392EA0C0F18BF93EA0C0F0AD03F
:1017B00030F0004C18BF31F0004CD8D180EA010065
:1017C00000F00040704790F0000F17BF90F0004FFE
:1017D000084691F0000F91F0004F14D092EA0C0FE0
:1017E00001D142020FD193EA0C0F03D14B0218BF73
:1017F000084608D180EA010000F0004040F0FE40B9
:1018000040F40000704740F0FE4040F44000704754
:101810004FF0FF0C1CEAD0521EBF1CEAD15392EAD3
:101820000C0F93EA0C0F69D0A2EB030280EA010CC3
:1018300049024FEA402037D04FF0805343EA11115C
:1018400043EA10130CF000408B4238BF5B0042F1BA
:101850007D024FF4000C8B4224BF5B1A40EA0C005F
:10186000B3EB510F24BFA3EB510340EA5C00B3EB91
:10187000910F24BFA3EB910340EA9C00B3EBD10F7F
:1018800024BFA3EBD10340EADC001B0118BF5FEAD1
:101890001C1CE0D1FD2A3FF650AF8B4240EBC250FA
:1018A00008BF20F0010070470CF0004C4CEA5020BB
:1018B0007F32C2BFD2F1FF0340EAC250704740F40A
:1018C00000004FF00003013A37E792F0000F00F0FC
:1018D000004C02BF400010F4000F013AF9D040EA7A
:1018E0000C0093F0000F01F0004C02BF490011F40E
:1018F000000F013BF9D041EA0C0195E70CEAD15306
:1019000092EA0C0F08D142027FF47DAF93EA0C0FEC
:101910007FF470AF084676E793EA0C0F04D14B02D0
:101920003FF44CAF08466EE730F0004C18BF31F082
:10193000004CCAD130F000427FF45CAF31F000437C
:101940007FF43CAF5FE700BF08B5074B044613B117
:101950000021AFF30080054B1868836A03B19847F4
:10196000204601F005F800BF00000000A42B000095
:1019700070B50D4E0D4CA41BA4100025A54209D135
:101980000B4E0C4C00F0F6FFA41BA4100025A54242
:1019900005D170BD56F8253098470135EEE756F869
:1019A000253098470135F2E76C0000206C000020DC
:1019B0006C00002074000020024B0146186800F003
:1019C00059B800BF0800002002440346934200D1EA
:1019D000704703F8011BF9E738B50546002945D0E3
:1019E00051F8043C0C1F002BB8BFE41800F0C6FBF4
:1019F0001F4A1368104633B9636014602846BDE877
:101A0000384000F0BCBBA3420CD921686218934255
:101A100004BF1A685B68636004BF521822600460E8
:101A2000ECE713465A680AB1A242FAD91968581865
:101A3000A0420BD120680144581882421960DDD1C0
:101A4000106852685A6001441960D7E702D90C2324
:101A50002B60D3E7206821188A4204BF11685268BE
:101A6000626004BF091821605C60C7E738BD00BF31
:101A70004402002070B5CD1C25F0030508350C2D5F
:101A800038BF0C25002D064601DBA94203D90C23E3
:101A90003360002070BD00F071FB214A14682146BC
:101AA00091B9204C23681BB9304600F0B9F820608A
:101AB0002946304600F0B4F8431C24D10C2333608F
:101AC000304600F05CFBE4E70B685B1B18D40B2B83
:101AD0000FD90B60CD50CC18304600F050FB04F10C
:101AE0000B00231D20F00700C31AD3D05A42E25046
:101AF000D0E78C424B6816BF636013600C46EBE77F
:101B00000C464968CCE7C41C24F00304A04205D06D
:101B1000211A304600F084F80130CFD02560DBE791
:101B200044020020480200200FB40A4B13B51C6881
:101B300024B1A36913B9204600F032FA05AB049A28
:101B4000A1680193204600F043FB02B0BDE81040BD
:101B500004B070470800002070B50E46054618B165
:101B600083690BB900F01CFAAB69AC6813B928465D
:101B700000F016FA234B9C4217D16C68A3891B070F
:101B80001DD52369DBB1013EA36816F8011F013B97
:101B9000A360E9B9002B2EDA22460A21284600F07C
:101BA0004FF8013011D00A2011E0174B9C4201D1AF
:101BB000AC68E3E7154B9C4208BFEC68DEE72146C2
:101BC000284600F08FF80028DDD04FF0FF3070BDC0
:101BD000002B04DAA2699A4206DC0A2904D02368A1
:101BE0005A1C22601970CFE72246284600F028F8D8
:101BF0000130C9D1E9E723680A205A1C2260187015
:101C0000E5E700BFC82B0000E82B0000A82B000070
:101C1000024B01461868FFF79FBF00BF0800002075
:101C200038B5064C002305460846236000F092FEB6
:101C3000431C02D1236803B12B6038BD5002002041
:101C4000F8B50E461446054618B183690BB900F085
:101C5000A7F9214B9C422AD16C68A369A360A38990
:101C60001A072ED5236963B323692068C01A6369F4
:101C7000F6B28342374604DC2146284600F026F9B6
:101C800028BBA368013BA36023685A1C22601E7016
:101C900063690130834204D0A389DB0719D50A2E7A
:101CA00017D12146284600F011F990B10FE00B4BF7
:101CB0009C4201D1AC68D0E7094B9C4208BFEC685C
:101CC000CBE72146284600F00DF80028CCD04FF095
:101CD000FF373846F8BD00BFC82B0000E82B0000D6
:101CE000A82B0000324B70B51D6806460C4625B186
:101CF000AB6913B9284600F053F92E4B9C420FD123
:101D00006C68B4F90C309AB215072CD4D00611D4F3
:101D10000922326043F04003A3814FF0FF303EE0E0
:101D2000254B9C4201D1AC68EBE7244B9C4208BF99
:101D3000EC68E6E7510712D5616B41B104F1440349
:101D4000994202D03046FFF747FE00236363A38920
:101D500023F02403A3810023636023692360A38904
:101D600043F00803A38123694BB9A38903F42073CB
:101D7000B3F5007F03D02146304600F0BFF9A289B9
:101D800012F001030CD00023A36063695B42A361DE
:101D9000236953B9B4F90C3013F08000BAD170BD87
:101DA000920758BF6369A360F2E70020F7E700BF1E
:101DB00008000020C82B0000E82B0000A82B000022
:101DC0008A892DE9F041054610070C4658D44B6826
:101DD000002B05DC0B6C002B02DC0020BDE8F08141
:101DE000E66A002EF9D0002312F480522F68216A8F
:101DF0002B6032D0606DA3895A0705D56368C01A7D
:101E0000636B0BB1236CC01A00230246E66A216A99
:101E10002846B047431CA38906D129681D2948D804
:101E2000294ACA40D60744D500226260D9042269F3
:101E3000226004D5421C01D12B6803B96065616B37
:101E40002F600029C9D004F14403994202D02846EA
:101E5000FFF7C2FD00206063C0E701232846B047BA
:101E6000411CC8D12B68002BC5D01D2B01D0162BCF
:101E700001D12F60B1E7A38943F04003A381ADE70F
:101E80000F69002FA9D093070E6808BF4B690F6038
:101E900018BF0023A6EB07088B60B8F1000F9CDD8C
:101EA00043463A46216AA66A2846B047002806DC1F
:101EB000A38943F04003A3814FF0FF308EE707442E
:101EC000A8EB0008E9E700BF0100402038B50B6926
:101ED00005460C46DBB118B183690BB900F060F818
:101EE0000C4B9C4209D16C68B4F90C307BB1214693
:101EF0002846BDE83840FFF763BF074B9C4201D13D
:101F0000AC68F1E7054B9C4208BFEC68ECE70020A9
:101F100038BD00BFC82B0000E82B0000A82B000034
:101F2000002310B50446C0E9003383608181436615
:101F3000C281C0E904338361194608225C30FFF78F
:101F400043FD054B6362054BA362054BE362054B02
:101F50002462236310BD00BF092700002B27000067
:101F60006327000087270000014900F085B800BF03
:101F7000CD1E000070B54A1E682555430E4605F17A
:101F80007401FFF777FD044640B10021C0E9001657
:101F90000C30A06005F16802FFF716FD204670BD09
:101FA000836910B5044633BBC0E912330365124B95
:101FB000124A1B688262984204BF0123836100F0C9
:101FC0001FF86060204600F01BF8A060204600F07B
:101FD00017F80022E06004216068FFF7A1FF0122EA
:101FE0000921A068FFF79CFF02221221E068FFF799
:101FF00097FF0123A36110BDA42B0000691F0000FF
:10200000F8B51B4B1E68B369074613B93046FFF796
:10201000C7FF4836D6E90134013B03D5336833B1F5
:102020003668F7E7B4F90C506DB16834F4E7042171
:102030003846FFF79FFF30600028F1D10C233B604A
:1020400004462046F8BD0B4B6566C4E90055A56003
:10205000C4E90335C4E905550822294604F15C00AA
:10206000FFF7B2FCC4E90D55C4E91255E9E700BF1A
:10207000A42B00000100FFFF2DE9F84380468946AC
:1020800000F14804002614B93046BDE8F883D4E9CD
:102090000175013F01D52468F5E7AB89012B07D90C
:1020A000B5F90E30013303D029464046C8470643F0
:1020B0006835EEE770B50E46B1F90E10002996B0FE
:1020C00014461D4607DA00232B60B3891A0610D484
:1020D0004FF480630EE06A4600F07CFB0028F2DBE0
:1020E000019A02F47042A2F500535A425A412A6002
:1020F000EEE740230020236016B070BD8B8973B5D6
:102100009D0706460C4607D504F14703236023616B
:102110000123636102B070BD01AB6A46FFF7CAFFDD
:10212000009905463046FFF7A5FC48B9B4F90C30D4
:102130009A05EFD423F0030343F00203A381E3E7FE
:102140000D4BB362A389206043F08003A381009B01
:102150006361019B20615BB1B4F90E10304600F061
:102160004BFB28B1A38923F0030343F00103A381B0
:10217000A3891D43A581CDE7691F00007047704703
:102180009368013B002B10B4936007DA9469A34273
:1021900001DB0A2902D110BCFFF752BD1368581C9D
:1021A00010601970084610BC7047F8B506460F4617
:1021B0001446D518AC4201D1002007E03A4614F885
:1021C000011B3046FFF7DCFF431CF3D1F8BD0000D4
:1021D0002DE9F04F9DB00C4617460393064618B103
:1021E00083690BB9FFF7DCFE7B4B9C4257D17468C7
:1021F000A38918075DD52369002B5AD000230993C2
:1022000020238DF8293030238DF82A304FF0010B30
:10221000B846454615F8013B0BB1252B54D1B8EB18
:10222000070A0BD053463A4621463046FFF7BDFF1A
:10223000013000F0C280099B5344099398F80030A4
:10224000002B00F0BA8000234FF0FF32CDE90523C8
:10225000049307938DF853301A93A846052218F873
:10226000011B5E4800F0ECFA049B78BBD90644BF22
:1022700020228DF853201A0744BF2B228DF85320BB
:102280002A782A2A2AD0079AA84600200A254146F9
:1022900011F8013B303B092B69D960B324E0504B66
:1022A0009C4201D1B468A3E74E4B9C4208BFF4683E
:1022B0009EE721463046FFF715FD00289ED04FF0DF
:1022C000FF301DB0BDE8F08FA846A2E7434A801A50
:1022D0000BFA00F0184304904546BEE7039A111D1F
:1022E00012680391002A01DB079204E0524243F096
:1022F00002030792049398F800302E2B0ED198F821
:1023000001302A2B38D1039B1A1D1B680392002B26
:10231000B8BF4FF0FF3308F102080593324D98F82B
:1023200000100322284600F08BFA40B14023401BE6
:1023300003FA00F0049B034308F10108049398F8A2
:1023400000102A488DF82810062208F1010700F035
:1023500077FA002837D0264B1BBB039B073323F0AB
:10236000070308330393099B4B44099350E705FB8C
:102370000232012088468AE7002308F1010805930C
:1023800019460A25404610F8012B303A092A03D98C
:10239000002BC3D00591C1E705FB01210123804635
:1023A000F0E703AB00932246124B04A93046AFF38B
:1023B0000080B0F1FF3F8146D5D1A3895B063FF590
:1023C0007EAF09987DE703AB00932246094B04A931
:1023D000304600F087F8ECE7C82B0000082C00001E
:1023E000E82B0000A82B00000E2C0000122C00008F
:1023F00000000000AB2100002DE9F04791461F4688
:102400008A680B69DDF820809342B8BF1346C9F88B
:10241000003091F8432006460C4612B10133C9F84A
:1024200000302368990642BFD9F800300233C9F85A
:102430000030256815F0060507D104F1190AE36894
:10244000D9F800209B1AAB4228DC94F8433022686C
:10245000003318BF012392062DD404F143023946FC
:102460003046C047013020D02368E568D9F8002005
:1024700003F00603042B08BFAD1AA36822690CBF42
:1024800025EAE57500259342C4BF9B1AED184FF06D
:1024900000091A344D451AD1002008E001235246A4
:1024A00039463046C047013003D14FF0FF30BDE818
:1024B000F0870135C3E7E1185A1C302081F843004A
:1024C000224494F8451082F843100233C5E70123F3
:1024D000224639463046C0470130E6D009F10109AD
:1024E000D8E700002DE9F04301F1430C0C46097ECA
:1024F00085B06E291746064698460C9A00F0B380C0
:1025000022D8632936D00AD8002900F0B98058298A
:1025100000F0838004F1420584F8421032E064291F
:1025200001D06929F6D120681368050603F104017A
:102530002AD51B681160002B03DA2D225B4284F838
:1025400043206F480A2239E0732900F09D8008D8A3
:102550006F2920D07029DDD1236843F02003236048
:1025600003E0752917D07829D4D1782384F8453031
:10257000644855E01368191D1B68116004F1420599
:1025800084F8423001238CE01B68116010F0400F8A
:1025900018BF1BB2CFE713682568181D1060280606
:1025A00001D51B6802E06806FBD51B8854486F29DB
:1025B00014BF0A220822002184F843106568A56030
:1025C000002DC0F29580216821F004012160002BCC
:1025D0003DD1002D40F08E806546082A0BD123683E
:1025E000DB0708D5236962689A42DEBF302305F80D
:1025F000013C05F1FF35ACEB05032361CDF800800C
:102600003B4603AA21463046FFF7F6FE01304DD186
:102610004FF0FF3005B0BDE8F083394884F845102D
:10262000136821681D1D1B6815600A060BD5CA07B3
:1026300044BF41F0200121601BB9226822F0200232
:1026400022601022B7E74D0648BF9BB2EFE7654610
:10265000B3FBF2F102FB1133C35C05F8013D0B46FD
:102660000029F5D1B9E7136825686169181D106064
:1026700028061B6801D5196002E06A06FBD519809F
:10268000002323616546B9E71368191D11601D68B1
:1026900062680021284600F0D3F808B1401B606052
:1026A00063682361002384F84330A7E723692A463F
:1026B00039463046C0470130AAD023689B0713D45F
:1026C000E068039B9842B8BF1846A3E701234A4637
:1026D00039463046C04701309AD00135E368039A45
:1026E0009B1AAB42F2DCEBE7002504F11909F5E790
:1026F000002BACD1037884F8423004F142056CE73A
:10270000192C00002A2C000010B50C46B1F90E104F
:1027100000F0E6F80028ABBF636DA3891B1823F413
:102720008053ACBF6365A38110BD2DE9F0411F4606
:102730008B89DB0505460C46164605D5022300228B
:10274000B1F90E1000F068F8A389B4F90E1023F463
:102750008053A38132463B462846BDE8F04100F055
:1027600017B810B50C46B1F90E1000F055F8431C1F
:10277000A38915BF606523F4805343F48053A3817C
:1027800018BFA38110BDB1F90E1000F013B80000FE
:1027900038B5074C054608461146002222601A4605
:1027A000FEF7E8F8431C02D1236803B12B6038BD63
:1027B0005002002038B5064C002305460846236029
:1027C00000F0A0F8431C02D1236803B12B6038BD90
:1027D0005002002038B5074C002305460846114634
:1027E000236000F097F8431C02D1236803B12B60EB
:1027F00038BD00BF5002002038B5064C0023054606
:102800000846236000F08EF8431C02D1236803B110
:102810002B6038BD5002002038B5074C05460846ED
:102820001146002222601A4600F084F8431C02D1AF
:10283000236803B12B6038BD500200200000000067
:1028400001F0FF01102A2BDB10F0070F08D010F861
:10285000013B013A8B422DD010F0070F42B3F6D165
:10286000F0B441EA012141EA014122F007047FF07E
:1028700000070023F0E80256083C85EA010586EAD5
:10288000010685FA47F5A3FA87F586FA47F6A5FA11
:1028900087F68EB9EED1F0BC01F0FF0102F007021D
:1028A00032B110F8013B013A83EA010313B1F8D1C8
:1028B0000020704701387047002D06BF35460338A9
:1028C000073815F0010F07D1013015F4807F02BFE2
:1028D000013015F4C03F0130F0BC0138704700BF33
:1028E00038B5074C054608461146002222601A46B4
:1028F00000F028F8431C02D1236803B12B6038BDD7
:1029000050020020024B58221A604FF0FF307047EF
:1029100050020020024B58221A604FF0FF307047DF
:1029200050020020024B58221A600020704700BF5E
:1029300050020020024B58221A604FF0FF307047BF
:1029400050020020024B58221A604FF0FF307047AF
:1029500050020020044A05491368002B08BF0B46AB
:1029600018441060184670474C020020580200209E
:10297000FEE700BFF8B500BFF8BC08BC9E46704734
:10298000F8B500BFF8BC08BC9E467047534644509B
:102990003A20686561646572206E6F7420666F7599
:1029A0006E6400534644503A2076657273696F6EC8
:1029B0002077726F6E673A2025752E25640A0053C2
:1029C0004644503A206E6F20344B2045525A0053F3
:1029D0004644503A206E6F206C61726765207772B2
:1029E0006974652062756600534644503A206164FC
:1029F00064722E6C656E20213D2033005346445096
:102A00003A20344B2045525A206F70636F64652022
:102A1000696E76616C696400534644503A2064657F
:102A20007669636520746F6F20626967005346445E
:102A3000503A2064657669636520736F20736D6119
:102A40006C6C3F2100344B2045525A206F70636FED
:102A500064652064697361677265656D656E740095
:102A6000534644503A206E6F204A454445432074F3
:102A700061626C65206F662065787065637465645B
:102A80002076657273696F6E20666F756E6400469E
:102A90006C617368696E6720256C75206279746556
:102AA000732066726F6D2053504920454550524F38
:102AB0004D0A000D466C617368696E67207061672E
:102AC0006520256C752E2E2E000A416C6C20646FDB
:102AD0006E652C20626F6F74696E67204F45504C95
:102AE00021004F45504C2D424F4F54000000010132
:102AF0000100000000000000000000004B0C00007E
:102B000089090000C10C0000CD0C0000C70C0000BA
:102B1000490C0000410C0000D50C0000650C0000C1
:102B20003D0C000000000000010000000200000059
:102B30000300000004000000050000000600000083
:102B40000700000008000000090000000A00000063
:102B50000B0000000C0000000D0000000E00000043
:102B60000F00000010000000110000001200000023
:102B70001300000014000000150000001600000003
:102B80001700000018000000190000001A000000E3
:102B90001B0000001C0000001D0000001E000000C3
:102BA0001F0000000C0000200000000000000000DA
:102BB0000000000000000000000000000000000015
:102BC0000000000000000000000000000000000005
:102BD00000000000000000000000000000000000F5
:102BE00000000000000000000000000000000000E5
:102BF00000000000000000000000000000000000D5
:102C00000000000000000000232D302B2000686C25
:102C10004C006566674546470030313233343536FF
:102C20003738394142434445460030313233343538
:102C30003637383961626364656600000000000061
:102C400000D6FF7F01000000F40100000090D003D7
:102C50000C00002000000000C82B0000E82B000042
:102C6000A82B000000000000000000000000000091
:102C70000000000000000000000000000000000054
:102C80000000000000000000000000000000000044
:102C90000000000000000000000000000000000034
:102CA0000000000000000000000000000000000024
:102CB0000000000025020000D50E00000102000007
:1040000000600020DDC9000005CA000007CA0000EA
:1040100009CA00000BCA00000DCA00000000000021
:104020000000000000000000000000000FCA0000B7
:1040300011CA00000000000013CA000015CA0000E9
:1040400017CA0000D9550000F1CE000017CA0000C1
:10405000794F000017CA0000F5CF000017CA000012
:1040600017CA000017CA000017CA00007D4C0000E4
:1040700017CA000017CA000017CA000017CA0000BC
:1040800017CA0000A9D0000017CA000017CA000014
:1040900017CA000017CA000017CA000017CA00009C
:1040A00017CA000017CA000017CA000017CA00008C
:1040B00017CA000017CA000000000000000000003E
:1040C00017CA000017CA000017CA000017CA00006C
:1040D00017CA000017CA000017CA0000000000003D
:1040E00000000000000000000000000000000000D0
:1040F00000000000000000000000000000000000C0
:1041000000000000000000000000000000000000AF
:10411000000000000000000000000000000000009F
:10412000000000000000000000000000000000008F
:10413000000000000000000000000000000000007F
:10414000000000000000000000000000000000006F
:10415000000000000000000000000000000000005F
:10416000000000000000000000000000000000004F
:10417000000000000000000000000000000000003F
:10418000000000000000000000000000000000002F
:10419000000000000000000000000000000000001F
:1041A000000000000000000000000000000000000F
:1041B00000000000000000000000000000000000FF
:1041C00000000000000000000000000000000000EF
:1041D00000000000000000000000000000000000DF
:1041E00000000000000000000000000000000000CF
:1041F00000000000000000000000000000000000BF
:1042000010B5054C237833B9044B13B10448AFF310
:1042100000800123237010BD9000002000000000EA
:1042200084FB010008B5034B1BB103490348AFF3FE
:10423000008008BD000000009400002084FB010005
:10424000154B002B08BF134B9D46A3F5803A002168
:104250008B460F461348144A121A09F076FD0F4B8D
:10426000002B00D098470E4B002B00D09847002021
:10427000002104000D000D48002802D00C48AFF3C7
:10428000008009F0FBFC2000290008F023FF09F062
:10429000E1FC00BF000008000060002000000000FA
:1042A0000000000090000020240900200000000011
:1042B000000000004FF080430020D3F80C24B2F13E
:1042C000011F04BFC3F800010120704708B5FFF7C4
:1042D000F1FF58B94FF080430122C3F800011A6082
:1042E000FFF7E8FF0028FBD0002008BD4FF0FF30AB
:1042F000FBE70000124B134800210922C3F81815F0
:10430000C3F810250322C3F81415C3F8F0250122C1
:10431000C3F83026C3F82C06C3F8F815C3F80025F7
:10432000DA60D3F81021002AFBD00022C3F8102154
:10433000D3F80024012AFBD00022C3F800257047DF
:1043400000700040AC000020194B012210B5C3F8EA
:1043500000251A60D3F80021002AFBD00022C3F800
:104360000021134C01225A60D4F80431002BFBD0F9
:104370000023C4F804310F4B0F481A6842F2107141
:1043800051434BF2C712B1FBF2F119600B4B19808C
:1043900089B209F099FD0123A360054BD3F81421DC
:1043A000002AFBD00022C3F81421C3F8002510BD59
:1043B00000700040AC000020E8F10000B0000020D8
:1043C0004FF08052224BD2F80414C3F82015D2F8D3
:1043D0000814C3F82415D2F80C14C3F82815D2F821
:1043E0001014C3F82C15D2F81414C3F83015D2F8F1
:1043F0001814C3F83415D2F81C14C3F84015D2F8B9
:104400002014C3F84415D2F82414C3F84815D2F880
:104410002814C3F84C15D2F82C14C3F85015D2F850
:104420003014C3F85415D2F83414C3F86015D2F818
:104430003814C3F86415D2F83C14C3F86815D2F8E0
:104440004014C3F86C15D2F84424C3F870257047A3
:1044500000C000400B4B01221A60D3F80021002A53
:10446000FBD00022C3F80021D3F808250648192301
:104470005343642293FBF2F1017002FB11320348B3
:1044800009F022BD00C00040E4000020F6F1000069
:10449000144B1A7902709B881B1243704FF0102343
:1044A00030B5D3F880108170D3F88010090AC1703C
:1044B000D3F88010090C0171D3F880301B0E4371C2
:1044C00000238371C371411EC51D11F8014F634064
:1044D0008D4283EA1413F8D103F00F0313440370E1
:1044E00030BD00BFD80000200C4B0022C3F80C25C3
:1044F000C003C3F80C254FF47A7290FBF2F0C3F8B6
:104500000405D3F8082542F00102C3F8082501226A
:104510001A60034AC3F80026704700BF000001403C
:104520003546526E0D4B10B500241C600C4B040A2E
:1045300018705C70040C000ED870080A197158715C
:10454000080C090ED971110A1A725972110C120E47
:104550009C7098719972DA7210BD00BFB80000208B
:10456000BD000020054A064B11680B441360054B43
:1045700000221A60044B01221A707047D4000020F8
:10458000013665C4CC000020BC0000202DE9F041BC
:104590004509C0F3820400F0030600278846BBB239
:1045A000984540F22D82062D8CBF0021012110205C
:1045B00008F0EEFD062C8CBF00210121112008F02F
:1045C000E7FD022E8CBF00210121122008F0E0FD42
:1045D0006420013800BF00BF00BF00BF00BF00BFA4
:1045E00000BF00BF00BF00BF00BF00BF00BF00BFD3
:1045F00000BF00BF00BF00BF00BF00BF00BF00BFC3
:1046000000BF00BF00BF00BF00BF00BF00BF00BFB2
:1046100000BF00BF00BF00BF00BF00BF00BF00BFA2
:1046200000BF00BF00BF00BF00BF00BF00BF00BF92
:1046300000BF00BF00BF00BF00BF00BF00BF00BF82
:1046400000BF00BF00BF00BFC3D1B5FA85F1490963
:10465000102008F09DFDB4FA84F14909112008F0FA
:1046600097FD6420013800BF00BF00BF00BF00BF3E
:1046700000BF00BF00BF00BF00BF00BF00BF00BF42
:1046800000BF00BF00BF00BF00BF00BF00BF00BF32
:1046900000BF00BF00BF00BF00BF00BF00BF00BF22
:1046A00000BF00BF00BF00BF00BF00BF00BF00BF12
:1046B00000BF00BF00BF00BF00BF00BF00BF00BF02
:1046C00000BF00BF00BF00BF00BF00BF00BF00BFF2
:1046D00000BF00BF00BF00BF00BFC3D1052D8CBF0E
:1046E00000210121102008F053FD052C8CBF002172
:1046F0000121112008F04CFDB6FA86F1490912207B
:1047000008F046FD6420013800BF00BF00BF00BFB5
:1047100000BF00BF00BF00BF00BF00BF00BF00BFA1
:1047200000BF00BF00BF00BF00BF00BF00BF00BF91
:1047300000BF00BF00BF00BF00BF00BF00BF00BF81
:1047400000BF00BF00BF00BF00BF00BF00BF00BF71
:1047500000BF00BF00BF00BF00BF00BF00BF00BF61
:1047600000BF00BF00BF00BF00BF00BF00BF00BF51
:1047700000BF00BF00BF00BF00BF00BFC3D1012DFD
:104780008CBF00210121102008F002FD012C8CBFFC
:1047900000210121112008F0FBFC6420013800BF3A
:1047A00000BF00BF00BF00BF00BF00BF00BF00BF11
:1047B00000BF00BF00BF00BF00BF00BF00BF00BF01
:1047C00000BF00BF00BF00BF00BF00BF00BF00BFF1
:1047D00000BF00BF00BF00BF00BF00BF00BF00BFE1
:1047E00000BF00BF00BF00BF00BF00BF00BF00BFD1
:1047F00000BF00BF00BF00BF00BF00BF00BF00BFC1
:1048000000BF00BF00BF00BF00BF00BF00BF00BFB0
:1048100000BFC3D1042D8CBF00210121102008F05E
:10482000B7FC042C8CBF00210121112008F0B0FC42
:104830006420013800BF00BF00BF00BF00BF00BF41
:1048400000BF00BF00BF00BF00BF00BF00BF00BF70
:1048500000BF00BF00BF00BF00BF00BF00BF00BF60
:1048600000BF00BF00BF00BF00BF00BF00BF00BF50
:1048700000BF00BF00BF00BF00BF00BF00BF00BF40
:1048800000BF00BF00BF00BF00BF00BF00BF00BF30
:1048900000BF00BF00BF00BF00BF00BF00BF00BF20
:1048A00000BF00BF00BF00BFC3D1022D8CBF0021DD
:1048B0000121102008F06CFC022C8CBF002101218A
:1048C000112008F065FC012E8CBF0021012112206F
:1048D00008F05EFC6420013800BF00BF00BF00BFCD
:1048E00000BF00BF00BF00BF00BF00BF00BF00BFD0
:1048F00000BF00BF00BF00BF00BF00BF00BF00BFC0
:1049000000BF00BF00BF00BF00BF00BF00BF00BFAF
:1049100000BF00BF00BF00BF00BF00BF00BF00BF9F
:1049200000BF00BF00BF00BF00BF00BF00BF00BF8F
:1049300000BF00BF00BF00BF00BF00BF00BF00BF7F
:1049400000BF00BF00BF00BF00BF00BFC3D1032D29
:104950008CBF00210121102008F01AFC032C8CBF11
:1049600000210121112008F013FC6420013800BF50
:1049700000BF00BF00BF00BF00BF00BF00BF00BF3F
:1049800000BF00BF00BF00BF00BF00BF00BF00BF2F
:1049900000BF00BF00BF00BF00BF00BF00BF00BF1F
:1049A00000BF00BF00BF00BF00BF00BF00BF00BF0F
:1049B00000BF00BF00BF00BF00BF00BF00BF00BFFF
:1049C00000BF00BF00BF00BF00BF00BF00BF00BFEF
:1049D00000BF00BF00BF00BF00BF00BF00BF00BFDF
:1049E00000BFC3D10121102008F0D2FB012111200A
:1049F00008F0CEFB0121122008F0CAFB0137CEE5FA
:104A0000BDE8F081F8B5184D184C4FF40066E0236E
:104A1000C5F88060C5F8806185F80B330023C4F8C1
:104A200008354FF48033C4F80433C4F84433104BD2
:104A3000186008F049FF0F49D4F8047509F050F8E0
:104A40004FF08E4108F098FF08F010FE0A4B00224C
:104A500008F0AEFC08F062FE3844C4F840050123BB
:104A60002E602360F8BD00BF00E100E000B0004010
:104A70000400002000007A440000E03F38B50546FD
:104A800008F026FB08F0E8FA104A114C1278206072
:104A900072B110490023002203F5A27041F82020D2
:104AA00002F58072B2F5005FF8D10133082BF2D124
:104AB00008F0D2FA2368C01AA84206D22846FFF7A7
:104AC000A1FF20BF40BF20BFF2E738BDB2000020E9
:104AD000D4000020006000402DE9F04F01468DB069
:104AE00000F57A70FFF700FDB1F5FA6FC0F0B980FC
:104AF0005F4A147804F00F03012B40F0B2805D4B45
:104B000092F80280577992F8039092F806A092F8F2
:104B100009B000261E705378049308F00F0513792E
:104B200001950593D37906934FEA171C137A07F082
:104B30000F05977ABDF8042002954FEA181E180950
:104B400012FB0EF803F00F03BDF808200393642353
:104B500019FB03F91AFB03FA12FB0CF203FB02A286
:104B600003FB08989044BDF80C20424D1BFB03FB4F
:104B700012FB00F203FB02B218EB020208BF022292
:104B8000B1FBF2F207921EFB03F2013724090992EE
:104B9000DFF8E4801CFB03F210FB03F3FFB20134E7
:104BA00008920A93079B9E4252DAD8F800309F423F
:104BB00006D8FF2F1FBF2E4B00241C70C8F80040E2
:104BC0002B7893B9019A0B939A420BDD21460498F6
:104BD000FFF7DCFC0998FFF751FF2A7812B90B9B0D
:104BE0000133EFE74846FFF749FF2B7893B9029A64
:104BF0000B939A420BDD21460598FFF7C7FC0898F6
:104C0000FFF73CFF2A7812B90B9B0133EFE75046C0
:104C1000FFF734FF2B7893B9039A0B939A420BDD7D
:104C200021460698FFF7B2FC0A98FFF727FF2A787B
:104C300012B90B9B0133EFE75846FFF71FFF2B78A4
:104C400033B9D8F800300133C8F800300136A9E78D
:104C5000084B1B7813B1064B00221A700DB0BDE84B
:104C6000F08F08460DB0BDE8F04FFFF707BF00BF5B
:104C7000BD000020BC000020B800002073B5134C1C
:104C8000D4F84061012E1FD10023C4F84031104BED
:104C9000D4F80455186808F017FE0E4908F020FFF4
:104CA0004FF08E4108F068FE08F0E0FC0A4B00224D
:104CB00008F07EFB08F032FD2844C4F84005D4F823
:104CC00040310193019B666002B070BD00B00040AE
:104CD0000400002000007A440000E03F10B50446C4
:104CE000002000F0D5FC4FF08043D3F8102522F0CF
:104CF0000102C3F8102501225A60D3F80C2402F0F7
:104D00000112B2F1011FF8D0074807F0BFFF08F009
:104D1000DFF92046FFF7E0FE4FF4E1310248BDE83D
:104D2000104007F0A1BF00BF8008002070B51C4EE6
:104D30003278824205461FD01A4C10B300210D2054
:104D400008F0FEF9184A1378BBB1002313700E2245
:104D5000C4F808250F22C4F80C250D22C4F810252C
:104D60000122C4F800254FF00042C4F85435C4F8BD
:104D70002425C4F80831357070BD0123C4F800350E
:104D8000F9E7C4F8000501210C2008F001FA01211F
:104D90000D2008F0FDF901210D2008F0D1F9EAE716
:104DA000E50000200030004008000020064BC3F85A
:104DB0001C05D3F80821002AFBD0D3F818050022DF
:104DC000C3F80821C0B270470030004010B5094B4D
:104DD0000144002288420CD0C3F81C25D3F80841B6
:104DE000002CFBD0D3F8184500F8014BC3F808217C
:104DF000F0E710BD0030004010B5094B014400221F
:104E000088420CD010F8014BC3F81C45D3F8084178
:104E1000002CFBD0D3F81845C3F80821F0E710BDEB
:104E200000300040704708B50121042008F0B0F9B7
:104E30000C2008F02BF90021042008F0A9F9142017
:104E400008F024F90420012108F0A2F91420BDE89B
:104E5000084008F01BB9000038B5054608F0FCF81A
:104E600004461C48FFF740FB032210461A4908F08D
:104E700055F84FF0A043D3F80C2722F44032C3F882
:104E80000C27D3F80C2742F44032C3F80C2708F063
:104E9000E3F8001BA84210D26420FFF7B3FD20BF47
:104EA00040BF20BF032008F085F90028EFD147F26A
:104EB0003050BDE83840FFF717BB08F0CDF8011BB4
:104EC000064809F001F8032008F074F90028FAD127
:104ED000EDE700BFC0D40100254E00001AF200002B
:104EE00038B5054608F0B8F804461F48FFF7FCFA45
:104EF00004221E49032008F011F84FF0A043D3F814
:104F00000C2722F44032C3F80C27D3F80C2742F4C4
:104F10000032C3F80C2708F09FF8001BA84210D2FB
:104F20006420FFF76FFD20BF40BF20BF032008F0C3
:104F300041F90028EFD047F23050BDE83840FFF784
:104F4000D3BA08F089F8011B094808F0BDFF032017
:104F500008F030F90028FAD008F07EF8011B054867
:104F600008F0B2FFE7E700BFC0D40100254E000003
:104F70001AF2000006F200004FF040230F49002211
:104F8000C3F808210A68D3F8183512B1501C08601C
:104F900013700B4A1388013B9BB2138053B109492C
:104FA0000B684FF0402213B1581C1B780860C2F800
:104FB0001C357047044B01221A707047E80000202E
:104FC000F0000020EC000020F2000020024A1378DC
:104FD000002BFCD0704700BFF200002030B5194C08
:104FE0002278824224D040B317490A784FF04023F8
:104FF000FAB100220A701321C3F808151421C3F86E
:105000000C151821C3F810150121C3F800154FF035
:105010000041C3F85425C3F82415C3F808210B4AEE
:1050200010210425C2F88011C3F8045311602070C8
:1050300030BD0122C3F80025F9E74FF04023C3F843
:105040000005F4E7E60000200900002000E100E090
:1050500038B5494D2A78824204463CD0E0B301215C
:10506000072008F06DF80121072008F091F80121D0
:10507000042008F065F80121022008F061F8012100
:10508000062008F05DF80121052008F059F80021FC
:10509000032008F055F80121132008F051F80121F0
:1050A000142008F04DF80121172008F049F80021DC
:1050B000182008F045F80021022008F069F80121C5
:1050C000062008F065F81720012108F061F801209A
:1050D000FFF784FF2C7038BDFFF780FF01460720E3
:1050E00008F056F80121042008F02AF801210220D6
:1050F00008F026F80121062008F022F801210520F9
:1051000008F01EF80121032008F01AF801211320ED
:1051100008F016F80121142008F012F801211720D8
:1051200008F00EF80121182008F00AF821460420A2
:1051300008F02EF82146022008F02AF82146062021
:1051400008F026F82146052008F022F82146032021
:1051500008F01EF82146132008F01AF82146142002
:1051600008F016F82146172008F012F821461820FA
:1051700008F00EF8AEE700BFF3000020074A002356
:105180001370074A1180074A1360074B421C1A60CC
:105190004FF040230278C3F81C257047F20000202E
:1051A000F0000020E8000020EC000020074A002367
:1051B0001370074A1180074A1060074A13604FF0C6
:1051C0004022C2F81C35FFF701BF00BFF2000020EB
:1051D000F0000020E8000020EC00002007B50B4A9A
:1051E0008DF8070000231370094A01211180094A34
:1051F0001360094B02AA1A604FF04023C3F81C0544
:10520000FFF7E4FE03B05DF804FB00BFF2000020EE
:10521000F0000020E8000020EC00002038B501215B
:10522000022007F0B5FF0021132007F0B1FF012194
:10523000142007F0ADFF0021062007F0A9FF01218F
:10524000132007F0A5FF0021142007F079FF08259F
:10525000002413200021640007F09AFF1420E4B218
:1052600007F0A8FF08B144F0010401211320013D1B
:1052700007F08EFF15F0FF05EBD10121142007F098
:105280005FFF2946142007F083FF0121062007F065
:105290007FFF2946022007F07BFF204638BD10B56E
:1052A00000210446052007F073FF0021062007F0C7
:1052B0006FFF2046FFF792FF01210620BDE8104056
:1052C00007F066BF10B501210446052007F060FF16
:1052D0000021062007F05CFF2046FFF77FFF012139
:1052E0000620BDE8104007F053BF0EB433B505AB40
:1052F000044613F8045B01930021052007F048FFE2
:105300000021062007F044FF2046FFF767FF012138
:10531000062007F03DFF0121052007F039FF00249A
:10532000AC420FD00021062007F032FF019B1A1D6E
:1053300018780192FFF752FF0121062007F028FF9D
:105340000134EDE702B0BDE8304003B07047000023
:10535000044A026000220271C28102828274C27415
:10536000027570473CF200004FF010232DE9F74F13
:10537000D3F88850D3F88C20D3F88C606F4CDFF8CA
:10538000D4B12D0E45EA0225D3F88C20C6F30726AA
:10539000120C46EA0226D3F88820C2F30729D3F874
:1053A0009020D3F89070D3F894301B0C4FEA124839
:1053B000E371A9F10D03ADB2B6B25FFA88FA3F0E00
:1053C0000D2B13D8DFE803F04F5707675F07121262
:1053D000071212120757182007F090FE0190FFF7EE
:1053E000B7FF574A019B1A60CBF80030DBF800305A
:1053F000002218F0800FDA811A8218BF227883F811
:1054000004901CBF01322270F90748BF2278DD806A
:1054100044BF01322270FA0644BF0122A2701AF082
:10542000010F1CBF0122627006FB05F2921002F60A
:10543000FF7222F47F6222F00F021E815D81A26062
:10544000E2799E81462A53D02DD8412A39D0422A6A
:1054500041D0402A2ED14BF2D002A2800122DA7430
:105460003022A27126E0182007F048FE0190FFF7D5
:105470006FFF344AB6E7182007F040FE0190FFF7AF
:1054800067FF314AAEE7182007F038FE0190FFF7BA
:105490005FFF2E4AA6E7182007F030FE0190FFF7C5
:1054A00057FF2B4A9EE7482A31D029D34C2A33D0C4
:1054B000642A3BD09A7C0AB15E819D8103B0BDE82D
:1054C000F08F4BF29012A28001229A743122A271C5
:1054D0000822DA81EEE73322A2712278022A0CBF79
:1054E0004BF290224BF2DA22A28001229A74EFE76B
:1054F0004BF2D062A2803422A2710122DA74D9E781
:105500004BF2D072A28001229A742F22A9E74BF6A7
:105510009002A2803522A4E74BF69042A280362268
:10552000A2711D81DE805E819D81C3E74EF2D04273
:10553000A28001229A742E2293E700BFD800002097
:10554000B8F5000070F5000094F5000014F50000B7
:105550004CF50000B4000020124B1B78E3B1124B55
:10556000124A1B7803EB831302EB4302104BC3F880
:1055700004250022C3F80C21D3F80C11C3F808212C
:10558000D3F808110421C3F80413C3F85821C3F851
:105590001C2101225A607047054B0422C3F80823DE
:1055A000704700BFF5000020F7000020F800002041
:1055B00000100040074B4FF0FF32C3F808230022D1
:1055C000C3F8102101221A61D3F81021002AFBD060
:1055D000704700BF0010004030B41F4A1F491378C5
:1055E00003EB83135B00CC18C85C13461C4A1146BE
:1055F000D2F830511DB9D2F83451002DF8D0D1F87D
:105600000024D1F84825174922540A78013AD2B229
:105610000A701A780132D2B2082A1A7004BF002226
:105620001A70114A13780133DBB213700C4B00224D
:10563000C3F80C21D3F80C11C3F83021C3F834217E
:10564000C3F80821D3F80831084B0222C3F880219F
:1056500030BCFFF781BF00BFF7000020F80000203A
:1056600000100040F50000200805002000E100E0E7
:10567000A0F10B030F2B9FBF00EB8000034B3238D0
:10568000C3F8080594BF01200020704700100040B7
:1056900008B5074B197880F00102914203D11870C8
:1056A00018B1FFF759FF012008BDFFF783FFFAE7A4
:1056B000F4000020084A09480023022110B5C2F86E
:1056C00080100370064803700648082404700648DA
:1056D0000370116010BD00BF00E100E0F700002082
:1056E000F6000020F50000200805002070B5224CCF
:1056F0004FF47A750023C4F8FC3F013DD4F8FC2F29
:10570000F9D10126C4F8FC6FFFF754FFFEF7DEFD68
:1057100040F20223C4F83435184BC4F83835A723B7
:10572000C4F83C55C4F86036154BC4F814358023D2
:10573000C4F8183540F20123C4F85036C023C4F829
:1057400044350423C4F80C350F23C4F810350D4B31
:10575000C4F800320C4B1D70FFF7ACFF0B4B20223E
:1057600083F801230222C3F880211A600523C4F8BC
:105770000835304670BD00BF001000402110010008
:105780000800000611001000F400002000E100E015
:105790002DE9F0479A46304B91461A789846002AF0
:1057A00056D02E4D2E4E2A7882235343F45C2A780D
:1057B000E4B2012C88BF023C02EB8212A14206EB4C
:1057C00042070A4628BF2246791C08F09AFABAF125
:1057D000000F0BD02A788221631C01FB0262D35C8C
:1057E0009B00FF2B28BFFF238AF80030B9F1000F80
:1057F00008D02A788221A31C01FB0266F35C5B427D
:1058000089F800302B78174A17480133DBB2082B90
:105810002B704FF0020104BF00232B70C2F88010E0
:1058200003780133DBB2037098F80030013BDBB240
:1058300088F800300D4B11601B7833B10C4BD3F856
:1058400004335B0701D4FFF787FE2046BDE8F087ED
:105850004FF0FF30FAE700BF08050020F6000020F7
:10586000F800002000E100E0F5000020F400002036
:105870000010004008B5FFF79DFE0F4B0022C3F853
:105880000405C3F8102101221A60D3F81021002A60
:10589000FBD00022C3F81021C3F80C21D3F80C313F
:1058A000064B0222C3F88021054B1B780BB1FFF792
:1058B00053FE012008BD00BF0010004000E100E0E1
:1058C000F400002038B580220546002108F03DFA9A
:1058D0000B4B0C4A80212846FFF75AFF44B2002C9C
:1058E0000ADB08220849681D08F0FCF9002818BFE7
:1058F0006FF00104204638BD4FF0FF34FAE700BFD7
:10590000090500200A05002075080020FFF7B2BF36
:1059100010B50446006808B107F0F2FB204610BD40
:1059200010B5044606F0B6FE606807F01DF80028C2
:1059300004DA124808F050FB002010BD4FF48071CB
:1059400081408BB2B3F5005F04D919460C4808F0CA
:10595000BBFAF1E7236A23B94FF4005008F0B2F91B
:105960002062236A13B9074808F036FB6068216A91
:105970004FF4005206F08FFE0120DEE776F20000C1
:105980008EF20000EDF20000436810B5044623B922
:1059900040F2045007F0B2FB6060A36823B94FF4F3
:1059A000807008F08FF9A060D4E90123136003F53B
:1059B000807353600023A361236110BD70B504465A
:1059C0000E461546FFF7E0FF63680E4A9A60A3692A
:1059D000E66103F58073043DA36104F10C013046D8
:1059E0006561042201F04CF9E069A16804304FF4CC
:1059F000807201F045F9002323702046BDE8704015
:105A0000FFF78EBF7D5B000038B50446D0E9055036
:105A10002D1A002D16DDE369A168B5F5807FA8BFBA
:105A20004FF480751844AAB2043001F029F9D4E982
:105A30000123591C116059195160A2691544A561CF
:105A4000187838BD4FF0FF30FBE7F0B516461F461B
:105A5000CA18C3689A42C1B004460D463BD80369D0
:105A600099420DD2D0E901321A60002383610361AB
:105A7000FFF7CAFFD4E9013220461A60FFF750FF52
:105A800023699D4214D022696068954210D9AB1AEF
:105A9000B3F5807F28BF4FF480731A446B442261B2
:105AA000C0F818D0C0F814D0C36106F003FEEAE7CE
:105AB000D4E903355D1B6068BD4228BF3D46C0E99F
:105AC00005662E44C66106F0F5FD23692B4423616B
:105AD000284641B0F0BD0025FAE707B501230DF1D6
:105AE0000702FFF7B2FF9DF8070003B05DF804FB63
:105AF00008B5D0E90032D21A9210914202D302487E
:105B000007F0A6FB08BD00BF06F300002DE9F04733
:105B1000194D04460027A946D5E900A8FEB2A8EB16
:105B20000A03B6EBA30F17D228463146FFF7E0FF72
:105B30005AF82630A3420AEB86000BD1011D884596
:105B400003D0A8EB010208F0E7F8D9F80430043BD1
:105B5000C9F804300137DFE7206A08B108F0BAF865
:105B6000606808B107F0CCFAA06808B108F0B2F894
:105B70002046BDE8F08700BF0C0500202DE9F84362
:105B8000104CD4E90083A3EB080381469D10002646
:105B9000F7B2AF420ED220463946FFF7A9FF58F8B8
:105BA000270043684B4506F10106F1D1BDE8F843F3
:105BB000FFF72ABF044808F00FFA4FF0FF30BDE8A6
:105BC000F88300BF0C05002058F200002DE9F843CF
:105BD000D0E90034E41AA410914614BF22460122F1
:105BE000A41806460F46A1EB030834D2B4F1804F47
:105BF00031D294BB254615EB080F18BFD9F80030F9
:105C0000D6F8009018BF45F80830B945A7EB090849
:105C100004D042464946284608F07EF8726808F1EA
:105C20000403BA422B44A2EB070805D018464246AB
:105C3000394608F066F8034603EB0807B9F1000F90
:105C400002D0484607F05CFA05EB8404C6E9005729
:105C5000B460BDE8F8836FF04044A00007F04EFA4E
:105C60000546C8E713B50023C0E90133037003629A
:105C7000044601900848D0E901139942034606D032
:105C800001B10C6004315960204602B010BD01AA78
:105C9000FFF79CFFF8E700BF0C0500200448054A09
:105CA00005490023C0E90033836007F0C9BA00BF8B
:105CB0000C050020000000201159000011F0070120
:105CC00030B512D08AB1013A0244C1F108059042C0
:105CD00007D01378013A14780B41AC40234353703A
:105CE000F5E7037843FA01F1017030BD431003F08A
:105CF0005502430003F0AA03134398109B0000F0E1
:105D0000330023F033030343C3F3031040EA0310CB
:105D1000C0B27047F8B5C8B1C1B1441EA0EB51057F
:105D200043180D442246AB4209D1013901448C424B
:105D30000CD014F8010FFFF7D9FF2070F7E712F825
:105D4000016F13F8017D17701E70ECE7F8BD30B5D8
:105D500000789DF80C40022821444FF0000009D142
:105D6000C4B2A3420FD9155C0C5C24EA05040C54A0
:105D70000130F5E7C4B2A34205D90C5C155C2C4395
:105D80000C540130F6E730BD2DE9F04F04461846BB
:105D9000237885B00F461646052B00F2A080DFE879
:105DA00003F0030303758C33E379834229D1B4F9FB
:105DB0000400864225DBE389C218964221DAA27AE2
:105DC0004AB1657AA17C6269301A05B1181A00FBE4
:105DD0000120FFF79FFF0821B4F90400B4F9025035
:105DE00095FBF1F5617A6269A37C301AEDB209B1D5
:105DF000E689301A03FB0022009539462046FFF75A
:105E0000A6FF05B0BDE8F08FE379012B01D88342EE
:105E1000F7D1B4F904804645F3DBB4F80EB008EBD3
:105E20000B039E42EDDAA37C217C03930BFB00F075
:105E300003FB00151846D4F814A007F043FF627A5C
:105E4000039B8146A6EB08000AB1ABEB000000FB08
:105E500003514A465046FFF7F8FDA37A1BB1A17CD7
:105E60004846FFF757FFB4F90220A37C082192FBB4
:105E7000F1F2D2B2009220464A463946FFF767FF58
:105E8000484605B0BDE8F04F07F024BFE3798342F0
:105E9000B7D1164B1B689A7C1AB198890138801BC0
:105EA00086B25A896069D2082030394602FB060062
:105EB00005B0BDE8F04F00F0E3BE0C4B1D68AA7CB6
:105EC000AB8912B15A1E961BB6B26A8903FB0060F9
:105ED000D20850436369203039461844E8E7044843
:105EE00005B0BDE8F04F08F077B800BFB40000205F
:105EF000EFF300002DE9F74F0E460178044605291F
:105F000000F24F81DFE811F00600060070004D013D
:105F10004D01DA00E179994240F04381B4F9025031
:105F2000AA42C0F23E81A3892B449A4280F2398171
:105F3000521B92B2D04300F0070001254FEAD20C69
:105F400005FA00F000210827B4F80EE08BB29E4558
:105F500040F2278194F80980B8F1000F04D10EF1C6
:105F6000FF3EAEEB03039BB294F812E0D4F814901A
:105F700003FB0EFEA37A8BB3A389CE449B1A93FB3B
:105F8000F7F81EF808E0D3F1000808F0070803F05E
:105F9000070358BFC8F10003C3F107034EFA03F328
:105FA00013F0010F18D0B4F9043013FA81F3D3F1D0
:105FB000000808F0070893FBF7FE03F0070358BF3B
:105FC000C8F10003C3F1070316F80E8005FA03F3C6
:105FD00043EA080306F80E300131B5E709EB0C037C
:105FE00013F80E300342DDE7E179994240F0D980A1
:105FF000B4F90250AA42C0F2D480A3892B449A4239
:1060000080F2CF80521B92B2D04300F007000125EE
:106010004FEAD20C05FA00F000210827B4F80EE090
:106020008BB29E4540F2BD8094F80980B8F1000F14
:1060300004D10EF1FF3EAEEB03039BB294F812E0E5
:10604000D4F8149003FB0EFEA37A8BB3A389CE443D
:106050009B1A93FBF7F81EF808E0D3F1000808F04C
:10606000070803F0070358BFC8F10003C3F1070393
:106070004EFA03F313F0010F18D0B4F9043013FAF9
:1060800081F3D3F1000808F0070893FBF7FE03F053
:10609000070358BFC8F10003C3F1070316F80E80C9
:1060A00005FA03F328EA030306F80E300131B5E7D9
:1060B00009EB0C0313F80E300342DDE7E179012907
:1060C00001D899426DD1B4F90250AA4269DBA18985
:1060D00029448A4265DAE189277CD4F814A04B432D
:1060E000551BA17CADB201FB03776FEA050807EBF6
:1060F000D50308F007084FF00109009309FA08F3E7
:1061000001934FF0000B4FF00808E0891FFA8BF164
:10611000884246D9637A13B90138411A89B2A07C02
:106120004143A07AA8B3A089401B90FBF8F0384403
:1061300001445046FFF7D1FCA189491BD1F1000C65
:106140000CF0070C01F0070158BFCCF10001C1F1C0
:10615000070140FA01F111F0010F17D0B4F9041052
:1061600011FA8BF1D1F1000C0CF0070C91FBF8F057
:1061700001F0070158BFCCF10001C1F1070116F889
:1061800000C009FA01F141EA0C0131540BF1010B95
:10619000BBE7009B50461944FFF79FFC019B184248
:1061A000DBE703B0BDE8F08F10B4047A14B110BC83
:1061B000FFF7A0BE10BCFFF7E7BD00002DE9F041DE
:1061C000DFF8248005460E461746002458F82400C0
:1061D00020B13B4632462946FFF7E6FF0134182C32
:1061E000F4D1BDE8F08100BF180500208281C38191
:1061F000C2F3C703520718BF01338374416170476C
:10620000064A002352F8231019B942F8230001204E
:1062100070470133182BF5D1002070471805002076
:1062200038B5437C044653B103784569052B08D142
:106230002DB12846FFF76AFC284606F061FF20468C
:1062400038BD284607F046FDF9E70000F8B5002400
:10625000084E274656F824503DB12846FFF7E0FF88
:10626000284606F04DFF46F824700134182CF1D171
:10627000F8BD00BF180500200023C37103748374A8
:1062800083710372437283724361044B1B689B7C6E
:10629000012242740BB1027242727047B4000020B6
:1062A000F0B506468BB0084600F0CEFE202202A9CB
:1062B000304600F0E5FC32469DF818104B4807F0D8
:1062C00003FE9DF81830212B27D0302B39D0202BFE
:1062D0001ED1182006F012FF0446FFF7CDFF444BF5
:1062E00000251A68E57193896580A5805289314639
:1062F0002046FFF77BFF03232370637A25721BB1CF
:10630000A37A83F00103A37265742046FFF778FF38
:1063100003F030FC00F090FE3AE0182006F0EEFEAC
:106320000446FFF7A9FF324B00251A68E5719389EF
:106330006580A580528931462046FFF757FF042328
:10634000DAE72C4807F048FE182006F0D7FE04468E
:10635000FFF792FF242006F0D1FE05270546FFF740
:1063600081FC2770059A06F120012846FFF726FBDD
:1063700080B9214807F030FE2046FFF751FF204644
:1063800006F0BEFE2846FFF7C1FB284606F0B8FE21
:106390000BB0F0BD00212846FFF79FFB3B46207461
:1063A0006A4601212846FFF750FBBDF80230BDF8D0
:1063B000002029462046FFF719FF00236380A380B1
:1063C0002372637A1BB1A37A83F00103A3729DF851
:1063D000043003F00F03012B02D10023E37101E02D
:1063E000022BFBD0012363748FE700BF50F3000042
:1063F000B400002083F30000A2F30000FFF750BFB9
:106400000F4B1B689B7C13B101230372437202295B
:106410000CD0032906D0012903D1037A83F00103AC
:1064200003727047037A83F001030372437A83F0A7
:1064300001034372837A83F001038372704700BFC4
:10644000B40000202DE9F04F85B006461C46182008
:106450009DF83C3001928A460293DDF8388006F0C0
:106460004DFE0546FFF708FF21462846FFF7C8FF07
:10647000304A2B7A1268B8F80040927C9A421EBFCC
:1064800032465646924662074FEAD4074DD001374E
:106490002BB906F007031C44A4B2630747D0E408F5
:1064A0000134B8F8020010FB04F00230012180B280
:1064B00007F0BAFB06F0070300939DF80030039342
:1064C00083464FF00009B8F802301FFA89F2934270
:1064D00013D902FB04B302FB078104313A46184684
:1064E00007F00FFC2A7A2AB9009A1AB1E2B203998E
:1064F000FFF7E4FB09F10109E5E7E20092B2594632
:106500002846FFF773FE9DF80430EB71029B6E8006
:10651000A5F804A03BB1022328462B7005B0BDE8C6
:10652000F04FFFF76DBE0123F6E7002BB1D0E40872
:10653000B7E700BFB40000202DE9F74FD60812F0EE
:10654000070B18BF0136804606FB0330894604302E
:10655000012117461C469DF830A007F065FB054653
:10656000002854D07B1C01220380448094460430D0
:10657000BA42D1B21DD1C943012701F0070107FA80
:1065800001F1C9B2013C8023BE46A7421FDB0121B5
:1065900074438C468A422CD004EBD103CF43C65CB3
:1065A00007F007070CFA07F737430131C75489B2E0
:1065B000F0E7D308C94310F803E001F007010CFA33
:1065C00001F141EA0E010132C15492B2D0E707FB5A
:1065D00006FC00F80C30B4440CF1FF3CBBF1000F9A
:1065E00004D000F80C100137BFB2CEE700F80CE081
:1065F000F9E700234046CDE9005352464946FFF7EC
:1066000021FF284603B0BDE8F04F07F063BB03B09D
:10661000BDE8F08F2DE9F74F9A46D508530718BF0C
:10662000013507460AFB05F088460430012116466D
:106630009DF8309007F0F8FA044680B300230680F6
:10664000A0F802A09C464FF0010E1FFA8CF2924572
:1066500016D90021B1420FD003EBD1020432C84356
:1066600014F802B000F007000EFA00F040EA0B0048
:106670000131A05489B2EDE70CF1010C2B44E4E7A1
:106680000123CDE90043384600234A464146FFF73F
:10669000D9FE204603B0BDE8F04F07F01BBB03B0A6
:1066A000BDE8F08F2DE9F843074618200E469046C6
:1066B0009946089D06F022FD0446FFF7DDFD494698
:1066C0002046FFF79DFE0E4B227A1B689B7C2946D5
:1066D0009A4218BF3B4631F8042B1CBF37461E4672
:1066E0006B88FFF783FD0023637401236780A68016
:1066F00084F807802370BDE8F843FFF781BD00BF31
:10670000B40000202DE9F04FD3B002AF1E4607F5CC
:10671000B47307F140051446C7E9021053F8042B7F
:106720003B63FF21284607F0E7FC204605F05CF9B3
:10673000073020F00700ADEB000D0023224602A930
:10674000009507F1340005F069FE182006F0D6FC2C
:106750000546FFF791FD00212846FFF751FE97F807
:10676000350010FB06F44307C4F3C7041CBF013413
:10677000E4B2A3B2BB61B3B27B61BB8A10FB03F08E
:106780003B8B10FB03F0012180B2084407F04CFA68
:106790004FF000098346C7F8249097F82430FB6136
:1067A000FA6997F835309A424FD24FF0000AB24555
:1067B00044D009EB0A034FF00008DBB2C7E90A88AE
:1067C00013FB04F33B6197F828303B623A6A97F871
:1067D000353093422FD908F1FF3200237A60B3425B
:1067E0003B601CD0D7E9072107F1340005F02CFEEF
:1067F0003B6890B1F96A3869DAB21144C1F3C40157
:1068000001447868821A02F00702012000FA02F2BD
:106810001BF8010002430BF801200133DFE7BB6ADC
:106820000133BB62FB6A3344DBB2A8EB0608FB62B0
:106830005FFA88F8C7E70AF1010AB8E77B6AB14452
:1068400001337B625FFA89F9A7E7BA697969D200F7
:1068500092B24B4328465946FFF7C8FCBB896B8070
:106860003B89AB800023EB7101232B70FFF7C8FC41
:1068700007F5A277BD46BDE8F08FF0B50B449BB29B
:106880004FF0010C99420FD085888668CC0802FB36
:106890000545CC43775D04F007040CFA04F43C434F
:1068A0000131745589B2EDE7F0BD2DE9F041BDF835
:1068B000185006460F46984614461544AC4208DA6E
:1068C00022464346394630460134FFF7D6FFA4B28C
:1068D000F4E7BDE8F08103681A898A420AD858892A
:1068E000884207D3891A5B6889B2C1EBC101194498
:1068F0000879704700207047002282808260016022
:106900007047016070472DE9F04F91B082469DF8C5
:1069100068000390DAF8000005899D4200F2A68025
:1069200044899C42C0F0A2805B1B9DB24368BDF8C5
:106930000C60C5EBC5051D4403680C932B880493BC
:10694000AB780693EB780D9395F90530079395F99D
:1069500006300893039B012B82BFBDF91C300593C1
:10696000BDF9203092B29CBF0023059303FB0623A0
:1069700009921FFA83FBDDE906231FFA81F813440D
:106980000024434427460A940F930D9AE3B29A4297
:1069900068D9DDE908120A4422444FF0000992B296
:1069A0004B460E9206995FFA89F28A4233D23FB97A
:1069B00004990C9A525C0A920A460132049280278A
:1069C0000A9A3A400B9205D001339BB27F0809F135
:1069D0000109E7E7002BF9D0039A012A0BD1079AA6
:1069E00008EB02014944C91A0E9A89B25046FFF7D2
:1069F00044FF0B9BEAE7059900964944C91A11FB2D
:106A000006F113FB06F2414493B289B25A4650464E
:106A1000FFF74BFFEDE76BB1039A012A11D1DDE9D6
:106A200008120A440F992244C91A92B289B25046F8
:106A3000FFF723FF0BEB060301341FFA83FBA4B21D
:106A4000A3E7DDE905100144C91A11FB06F113FBA8
:106A500006F2414493B200965A4689B25046FFF777
:106A600024FFE7E7287911B0BDE8F08F0020FAE7AE
:106A70002DE9F04FC9B004461820934605930391C1
:106A800006F03CFB0546FFF7F7FB9DF8481128464A
:106A9000FFF7B6FC514B2A7A1B689B7C9A4208BFD1
:106AA0005B4608AE08BFDDF80CB0539A08BF0393ED
:106AB000FF2154AB3046079307F01EFB2B7A04935B
:106AC00082465FFA80F99BB90BF00703A3814FF070
:106AD00000085FFA88F39945A7890BD916F80810C2
:106AE0002046FFF7F8FE3844A08108F10108F0E7DE
:106AF0000023EBE70022904611460DF1200ED3B2A1
:106B00004B451FD2206812F80E300689B34217DBBE
:106B1000B0F80AC0634513DC9B1BDBB24668C3EBCD
:106B2000C303334493F90600DB78814240FA83F6CD
:106B3000A8BF01464645C4BF03EB00084FFA88F8DA
:106B40000132DCE7FB087A0718BF0133A38008F1A4
:106B50000106761AA78876B2012106FB07F007F036
:106B600063F8A06068B9324639461D4807F0ACF9B1
:106B70002846FFF755FB284606F0C2FA49B0BDE8A3
:106B8000F08F049BABB90BF007070DF11F0959FA01
:106B90008AFAA6EB0808CA450DD0012219F8013F70
:106BA0000092394642462046FFF7ADFE0744BFB289
:106BB000F1E70027E9E7B3B23A46A1682846FFF7B4
:106BC00015FBBDF80C30AB809DF81430EB71002341
:106BD000A5F802B02B70FFF713FBCFE7B40000203D
:106BE000B7F3000010B5002104460C2006F0D0FADF
:106BF0002046FEF7DBF801210C20BDE8104006F02E
:106C0000C7BA70B506460C460C200021154606F0A2
:106C1000BFFA5A20FEF7CAF80020FEF7C7F8300A7C
:106C2000FEF7C4F8F0B2FEF7C1F80020FEF7BEF898
:106C30002544AC4205D00020FEF7B8F804F8010B5B
:106C4000F7E701210C20BDE8704006F0A1BA0C2046
:106C500008B5002106F09CFA0520FEF7A7F80020F1
:106C6000FEF7A4F8C307FAD401210C2006F090FA2D
:106C7000012008BD014B1868704700BF780500204F
:106C800070B504460D460C200021164606F080FA29
:106C90000320FEF78BF8C4F30740FEF787F8C4F330
:106CA0000720FEF783F8E0B2FEF780F83146284669
:106CB000FEF78CF801210C20BDE8704006F068BAA0
:106CC000B920FFF78FBF00002DE9F341AB20FFF79C
:106CD00089FF012006F0DAF9AB20FFF783FF0822D5
:106CE00069460020FFF78DFF9DF80030532B0FD130
:106CF0009DF80130462B0BD19DF80230442B07D173
:106D00009DF80330502B03D19DF80730FF2B34D072
:106D10006D4807F061F900210C2006F039FA902047
:106D2000FEF744F80020FEF741F80020FEF73EF899
:106D30000020FEF73BF80020FEF738F8C22809D102
:106D4000624B202200201A70FEF730F8052803D08D
:106D500012280ED0002404E05D4B4FF480321A60FC
:106D6000012401210C2006F013FA204602B0BDE8F0
:106D7000F081574B4FF40022F1E79DF805100129EF
:106D800006D09DF80420534807F09EF80024ECE755
:106D90009DF80640FF2C08BFFE240025E8B2013014
:106DA00008226946C000FFF72CFF9DF80030002B39
:106DB00040F083809DF80230012B7ED19DF8033096
:106DC000082B7AD9444CBDF8040024222146FFF751
:106DD00018FF237803F00302012A204604D03F481D
:106DE00007F0FAF83E4845E05A0701D43D48F7E776
:106DF000A37813F0060F01D03B48F1E765786B1ECE
:106E0000DBB2FD2B01D93948EAE7304BE2791D703E
