:04000003000089FD73
:1000000000600020B5090000DD090000DF090000E4
:10001000E1090000E3090000E5090000000000001C
:10002000000000000000000000000000E7090000E0
:10003000E909000000000000EB090000ED090000E4
:10004000EF090000EF090000C90E0000EF090000F1
:10005000EF090000EF090000EF090000EF090000C0
:10006000EF090000EF090000EF090000B5020000F1
:10007000EF090000EF090000EF090000EF090000A0
:10008000EF090000450F0000EF090000EF09000034
:10009000EF090000EF090000EF090000EF09000080
:1000A000EF090000EF090000EF090000EF09000070
:1000B000EF090000EF090000000000000000000050
:1000C000EF090000EF090000EF090000EF09000050
:1000D000EF090000EF090000EF0900000000000038
:1000E0000000000000000000000000000000000010
:1000F0000000000000000000000000000000000000
:1001000000000000000000000000000000000000EF
:1001100000000000000000000000000000000000DF
:1001200000000000000000000000000000000000CF
:1001300000000000000000000000000000000000BF
:1001400000000000000000000000000000000000AF
:10015000000000000000000000000000000000009F
:10016000000000000000000000000000000000008F
:10017000000000000000000000000000000000007F
:10018000000000000000000000000000000000006F
:10019000000000000000000000000000000000005F
:1001A000000000000000000000000000000000004F
:1001B000000000000000000000000000000000003F
:1001C000000000000000000000000000000000002F
:1001D000000000000000000000000000000000001F
:1001E000000000000000000000000000000000000F
:1001F00000000000000000000000000000000000FF
:1002000010B5054C237833B9044B13B10448AFF350
:1002100000800123237010BD780000200000000042
:100220003C2C000008B5034B1BB103490348AFF356
:10023000008008BD000000007C0000203C2C000075
:10024000154B002B08BF134B9D46A3F5803A0021A8
:100250008B460F461348144A121A01F0B5FB0F4B98
:10026000002B00D098470E4B002B00D09847002061
:10027000002104000D000D48002802D00C48AFF307
:10028000008001F075FB2000290000F071FE01F0F4
:100290005BFB00BF000008000060002000000000C1
:1002A0000000000078000020540200200000000040
:1002B0000000000073B5134CD4F84061012E1FD12B
:1002C0000023C4F84031104BD4F80455186801F0ED
:1002D00093F90E4901F09CFA4FF08E4101F0E4F9D8
:1002E00001F05CF80A4B002200F0FAFE01F0AEF8D3
:1002F0002844C4F84005D4F840310193019B66605E
:1003000002B070BD00B000400000002000007A4440
:100310000000E03F70B506460825002433064CBFB8
:10032000012100210F2000F07DFE0E20012176002A
:1003300000F078FE64000D20F6B2E4B200F084FE16
:1003400008B144F0010400210E20013D00F06AFED6
:1003500015F0FF05E2D1204670BD10B5002104461E
:100360000C2000F05FFE2046FFF7D4FF01210C2097
:10037000BDE8104000F056BE70B506460C460C2095
:100380000021154600F04EFE5A20FFF7C3FF002063
:10039000FFF7C0FF300AFFF7BDFFF0B2FFF7BAFF6B
:1003A0000020FFF7B7FF2544AC4205D00020FFF73F
:1003B000B1FF04F8010BF7E701210C20BDE8704004
:1003C00000F030BE0C2008B5002100F02BFE052007
:1003D000FFF7A0FF0020FFF79DFFC307FAD401211C
:1003E0000C2000F01FFE012008BD70B506460C462B
:1003F0000C200021154600F015FE0320FFF78AFFB0
:10040000C6F30740FFF786FFC6F30720FFF782FF1A
:10041000F0B2FFF77FFF2544AC4205D00020FFF784
:1004200079FF04F8010BF7E701210C20BDE87040CB
:1004300000F0F8BD2DE9F341AB20FFF78EFF082255
:1004400069460020FFF798FF9DF80030532B0FD12D
:100450009DF80130462B0BD19DF80230442B07D17B
:100460009DF80330502B03D19DF80730FF2B34D07B
:100470006D4801F0CDFB00210C2000F0D3FD902051
:10048000FFF748FF0020FFF745FF0020FFF742FF7E
:100490000020FFF73FFF0020FFF73CFFC22809D1F3
:1004A000624B202200201A70FFF734FF052803D08A
:1004B00012280ED0002404E05D4B4FF480321A6005
:1004C000012401210C2000F0ADFD204602B0BDE862
:1004D000F081574B4FF40022F1E79DF805100129F8
:1004E00006D09DF80420534801F01EFB0024ECE7E1
:1004F0009DF80640FF2C08BFFE240025E8B201301D
:1005000008226946C000FFF737FF9DF80030002B36
:1005100040F083809DF80230012B7ED19DF803309E
:10052000082B7AD9444CBDF8040024222146FFF759
:1005300023FF237803F00302012A204604D03F481A
:1005400001F066FB3E4845E05A0701D43D48F7E715
:10055000A37813F0060F01D03B48F1E765786B1ED6
:10056000DBB2FD2B01D93948EAE7304BE2791D7047
:10057000130601D53648E3E77AB32D4B4FF400114B
:1005800019602B4B196854104900E2B2002CFAD1C3
:100590001960304A304992F800C091F800E01C27F9
:1005A0002346A046C4196478661EF6B2FD2E24D8F0
:1005B000C65D0F2E2ED0102E1CD00C2E1DD1A542A4
:1005C0001BD0B8F1000F01D081F800E00BB182F828
:1005D00000C0224801F01CFB88E7A2791AB1144B35
:1005E0004FF40051CCE7627912B1114B2021C7E7DB
:1005F0001B48A5E7A6464FF001080237242FD1D1AA
:10060000B8F1000F01D081F800E00BB182F800C012
:1006100001245AE7A4460123EFE70135EBB29C42DF
:10062000BFF46CAF8EE700BF8C290000980000205B
:1006300094000020A32900009B000020BF29000097
:10064000602A0000CF290000E8290000FC290000F2
:10065000182A0000990000209A000020452A000076
:100660002D2A00002DE9F04105460F4616468EB3AF
:100670005FFA85F8C8F58074A4B2B4424FF0060062
:1006800028BF3446FFF769FE00210C2000F0CAFCA9
:100690000220FFF73FFEC5F30740FFF73BFEC5F31F
:1006A0000720FFF737FE4046FFF734FE07EB04084C
:1006B000474504D017F8010BFFF72CFEF8E701219E
:1006C0000C2000F0AFFCFFF77DFE20B12544341B69
:1006D000A6B2CCE70120BDE8F08100001FB50C22D6
:1006E00001A94FF44030FFF780FE074B029A9A426F
:1006F00007D10398054BC31A5842584105B05DF81D
:1007000004FB0020FAE700BFBAABBAABEFBEADDE28
:100710001FB50C2201A94FF44030FFF766FE019887
:1007200005B05DF804FB00001A4B022230B5C3F897
:100730000425D3F80024002AFBD0C3F80805D3F819
:100740000024002AFBD00022C3F80425114B1A46CE
:10075000D3F80044002CFBD00124C3F80445D2F8A0
:100760000034002BFBD00B4A0B1F01F6FC74401A1F
:10077000114653F8045FC550D2F80054002DFBD049
:10078000A342F6D10023C2F80435D1F80034002B7F
:10079000FBD030BD00E001401FB504A9002341F8A3
:1007A0000C3D0C224FF44030CDE90233FFF75AFFE5
:1007B00005B05DF804FB08B50121102000F032FC03
:1007C0000121112000F02EFC0121122000F02AFC52
:1007D0000121102000F0FEFB0121112000F0FAFBA6
:1007E0000121122000F0F6FB02211C2000F0F2FB98
:1007F00002211D2000F0EEFB03210A2000F0EAFB9D
:1008000003210B2000F0E6FB00210D2000F0E2FBAD
:1008100001210E2000F0DEFB01210F2000F0DAFBA9
:1008200001210C2000F0FEFB01210C20BDE8084056
:1008300000F0D0BB80B400AF72B6074A4FF48043DB
:1008400093601B6883F3088844F204031B6862B654
:10085000BD4680BC184700BF00ED00E010B5002188
:10086000044600F0DFFB032000F05EFB2046012180
:10087000BDE8104000F0D6BBF8B5FFF749FF0F24E4
:1008800005461220FFF7EAFF013C462000F04CFB32
:1008900014F0FF04F5D1A5F50053B3F5283F0BD9AB
:1008A00014241020FFF7DAFF013C642000F03CFB29
:1008B00014F0FF04F5D1F8BD29461848184F01F08F
:1008C00033F94FF4805001F077F806464FF4805228
:1008D00020463146FFF789FD04F580403146FFF799
:1008E00023FF2146384601F01FF904F580541220F9
:1008F000FFF7B4FFA542E9D80A4801F089F90021C1
:10090000112000F08FFB4FF4FA7000F00DFB012175
:100910001120BDE8F84000F085BB00BF8F2A000021
:10092000B32A0000C92A00007047000008B54FF440
:10093000E1310E4800F084F94FF4967000F0F4FABB
:100940000B4801F065F9FFF736FFFFF773FDFFF77E
:10095000C5FE38B1FFF790FFFFF71EFFBDE8084066
:10096000FFF768BF1120FFF779FFF7E7DC010020F0
:10097000E22A000010B50348144600F005F82046AE
:1009800010BD00BFDC0100202DE9F04106460D46F8
:1009900001EB02080C464445A4EB050707D0336879
:1009A00014F8011B1B68304698470028F3D13846DD
:1009B000BDE8F0810649074A074B9B1A03DD043B5B
:1009C000C858D050FBDC00F039F8FFF739FC0000C4
:1009D000482C00000000002078000020FEE7FEE721
:1009E000FEE7FEE7FEE7FEE7FEE7FEE7FEE7FEE7DF
:1009F000074B1B78062B09D1064B1B68C3F3031367
:100A0000033B032B02D8044AD05C70470020704798
:100A1000E00F00F0E80F00F0F02A0000054B186826
:100A2000421C04BF044B187820F00800831F584272
:100A30005841704730010010E00F00F008B56C4BD2
:100A40001B685A1C04BF6B4B1B78062B05D16A4BE5
:100A50006A4A1B68C3F304231360FFF7C9FF10B190
:100A6000674B684A1A60FFF7D9FF28B1664B674A9F
:100A70001B68C3F342331360FFF7BAFF20B1644A27
:100A8000D36823F08073D360FFF7C8FF40B14FF005
:100A900080430022C3F80C21C3F81021C3F8382585
:100AA000FFF7A6FF10B15B4B03221A60FFF7A0FF10
:100AB00040B1594B05221A6001229A6700229A60C0
:100AC0003F225A604A4B1A68501C0BBF494B534B8C
:100AD0001A781B6802BF08331B68C3F30313062A86
:100AE0004ED1033B032B03D84D4AD35C002B49D096
:100AF0004FF080524B4BD2F80414C3F82015D2F8B3
:100B00000814C3F82415D2F80C14C3F82815D2F829
:100B10001014C3F82C15D2F81414C3F83015D2F8F9
:100B20001814C3F83415D2F81C14C3F84015D2F8C1
:100B30002014C3F84415D2F82414C3F84815D2F889
:100B40002814C3F84C15D2F82C14C3F85015D2F859
:100B50003014C3F85415D2F83414C3F86015D2F821
:100B60003814C3F86415D2F83C14C3F86815D2F8E9
:100B70004014C3F86C15D2F84424C3F8702501E082
:100B80000E2AB5D01A4B1B68591C04BF194B1B7891
:100B9000062B05D1244B254A1B6803F04F03136035
:100BA000FFF73CFF48B14FF08043D3F80024D20751
:100BB00044BF6FF00102C3F800240D4B1B68062BE5
:100BC00009D1164B1B68033B022B81BF184A1368DF
:100BD00043F480631360064B1B680E2B01BF134A5E
:100BE000136843F00F031360124B134A1A6008BDD9
:100BF00030010010E00F00F02403001040350140E8
:100C000074C007400DF0ADBA440200103C0500402E
:100C1000F0ED00E0A0050040105600403401001047
:100C2000EC2A000000C0004058020010E40E004012
:100C30003C170040040000200090D00301207047C2
:100C400003681322DB69184770470369C3F81C1552
:100C50000369D3F81C21002AFBD00022C3F81C2111
:100C60000120704710B490F95C30144C59090122EE
:100C7000203103F01F0302FA03F344F82130036923
:100C800010BC0421C3F8081303695A600369DA60D1
:100C900003690022C3F8002502694FF0FF33C2F850
:100CA0000C350269C2F814350269C2F808350269C8
:100CB0001430C2F8103500F0EDB900BF00E100E0DB
:100CC000143000F0F9B9143000F0FCB9143000F021
:100CD000E5B90000036990F85E2010B5C3F80C2553
:100CE000036990F85D20C3F8142590F8612003692A
:100CF000012A01BF90F85F40C3F81045036990F8DE
:100D0000604006BFC3F8084503690022B1F5966F3D
:100D1000C3F86C2569D9B1F5166F69D9B1F5965F3D
:100D200069D9B1F5165F68D9B1F5615F67D9B1F5D9
:100D3000964F66D9B1F5E14F65D9B1F5164F64D933
:100D4000B1F5614F64D9B1F5963F64D9B1F5E13F92
:100D500063D9B1F5613F63D9364B994263D9B1F597
:100D6000E12F63D9B1F5612F94BF4FF070634FF05D
:100D700080530269C2F8243503690422C3F80025B0
:100D800001690023C1F808310169C1F81C3101690A
:100D900001230B6001698B600169C1F8042390F99C
:100DA0005C20510902F01F0293406031224A42F850
:100DB000213090F95C30002BBDBF03F00F0302F629
:100DC000FC32D2189B18B5BF60236022137683F8DB
:100DD000002390F95C300122590903F01F0302FA45
:100DE00003F3154A42F8213010BD4FF49E23C0E7AB
:100DF0004FF41D23BDE7114BBBE7114BB9E7114B76
:100E0000B7E7114BB5E7114BB3E74FF41D03B0E75C
:100E10004FF46B03ADE70E4BABE74FF0EB73A8E776
:100E20004FF06C73A5E74FF08063A2E74FF0E863E3
:100E30009FE700BF90D0030000E100E000B0130086
:100E40000050270000F03A0000A04E0000C07500DE
:100E500000903A012DE9F0411E4600254FF47A73C7
:100E6000C0E901530D4B044640F8143B1746884631
:100E700000F0FCF80A4AC4F8108084F85C7052F85C
:100E8000263084F85D309DF8183052F8233084F80D
:100E90005E3084F861502046BDE8F081FC2A0000F5
:100EA000242B000010B50369D3F8082104464AB189
:100EB000D3F818151430C9B200F0E1F82369002204
:100EC000C3F8082110BD00000148FFF7EBBF00BFC9
:100ED000DC01002007B51923009302221A230349DD
:100EE0000348FFF7B7FF03B05DF804FB00200040A4
:100EF000DC0100200A4B19680A4B30B5D3F8040511
:100F00000C060D0A44EA00024FF47A712B46A2FB4C
:100F1000014501FB0355E00B40EA454030BD00BFF1
:100F2000400200200010014038B5044648B1FFF7E8
:100F3000E1FF054600F01AF8FFF7DCFF401BA04276
:100F4000F8D338BD074B0022C3F8042182B0D3F890
:100F50000431054A0193019B13680133DBB213602E
:100F600002B07047001001404002002070477047F7
:100F700008B500F011F8FFF7FAFF0120FFF7D4FFE2
:100F8000FFF7D4FC034CFFF7CFFC002CFBD0AFF3F2
:100F90000080F8E7000000000D4BE02283F81123E9
:100FA0004FF40032C3F880211A604FF080430021D3
:100FB0000122C3F818159A6003F58833C3F80815A1
:100FC0000221C3F80413C3F844131A60704700BF2A
:100FD00000E100E01F280FD8114B53F820300329FF
:100FE0000AD8DFE801F002160A1003F5E0734FF0AB
:100FF000A042002142F82310704703F5E0734FF040
:10100000A0420C21F6E703F5E0734FF0A042042163
:10101000F0E703F5E0734FF0A0420321EAE700BFD9
:10102000242B00001F280CD8064B53F82020012346
:1010300093404FF0A04211B9C2F80C357047C2F886
:1010400008357047242B00001F289FBF4FF0A04396
:10105000054AD3F8103552F820009ABF23FA00F061
:1010600000F0010000207047242B000008B540224A
:10107000002100F0A9FC0022C0E9102208BD026C8A
:1010800010B5531C446C03F03F039C421CBF8154B9
:10109000036410BD0023C0E910337047D0E910236A
:1010A00093421FBFC25C013303F03F03436414BF8C
:1010B00010464FF0FF307047D0E91030181A48BF83
:1010C00040307047D0E91023934214BFC05C4FF00A
:1010D000FF30704781F0004102E000BF83F0004321
:1010E00030B54FEA41044FEA430594EA050F08BFC3
:1010F00090EA020F1FBF54EA000C55EA020C7FEA87
:10110000645C7FEA655C00F0E2804FEA5454D4EB03
:101110005555B8BF6D420CDD2C4480EA020281EACD
:10112000030382EA000083EA010180EA020281EA05
:101130000303362D88BF30BD11F0004F4FEA013157
:101140004FF4801C4CEA113102D0404261EB410166
:1011500013F0004F4FEA03334CEA133302D05242EC
:1011600063EB430394EA050F00F0A780A4F10104A8
:10117000D5F1200E0DDB02FA0EFC22FA05F28018E2
:1011800041F1000103FA0EF2801843FA05F35941C8
:101190000EE0A5F120050EF1200E012A03FA0EFC47
:1011A00028BF4CF0020C43FA05F3C01851EBE37171
:1011B00001F0004507D54FF0000EDCF1000C7EEB8E
:1011C00000006EEB0101B1F5801F1BD3B1F5001FCC
:1011D0000CD349085FEA30004FEA3C0C04F10104EB
:1011E0004FEA445212F5800F80F09A80BCF1004F14
:1011F00008BF5FEA500C50F1000041EB045141EA96
:10120000050130BD5FEA4C0C404141EB010111F496
:10121000801FA4F10104E9D191F0000F04BF014641
:101220000020B1FA81F308BF2033A3F10B03B3F11F
:1012300020020CDA0C3208DD02F1140CC2F10C02AF
:1012400001FA0CF021FA02F10CE002F11402D8BF0D
:10125000C2F1200C01FA02F120FA0CFCDCBF41EAD9
:101260000C019040E41AA2BF01EB0451294330BDA8
:101270006FEA04041F3C1CDA0C340EDC04F1140485
:10128000C4F1200220FA04F001FA02F340EA03005C
:1012900021FA04F345EA030130BDC4F10C04C4F1A2
:1012A000200220FA02F001FA04F340EA0300294682
:1012B00030BD21FA04F0294630BD94F0000F83F4CC
:1012C000801306BF81F480110134013D4EE77FEAAF
:1012D000645C18BF7FEA655C29D094EA050F08BFFB
:1012E00090EA020F05D054EA000C04BF19461046DC
:1012F00030BD91EA030F1EBF0021002030BD5FEA20
:10130000545C05D14000494128BF41F0004130BD47
:1013100014F580043CBF01F5801130BD01F000459B
:1013200045F0FE4141F470014FF0000030BD7FEA0E
:10133000645C1ABF194610467FEA655C1CBF0B4609
:10134000024650EA013406BF52EA033591EA030F20
:1013500041F4002130BD00BF90F0000F04BF002118
:10136000704730B54FF4806404F132044FF000054B
:101370004FF0000150E700BF90F0000F04BF0021C4
:10138000704730B54FF4806404F1320410F000452A
:1013900048BF40424FF000013EE700BF42004FEA25
:1013A000E2014FEA31014FEA02701FBF12F07F43A2
:1013B00093F07F4F81F06051704732F07F4208BF59
:1013C000704793F07F4F04BF41F40021704730B560
:1013D0004FF4607401F0004521F000411CE700BFAC
:1013E00050EA010208BF704730B54FF000050AE02F
:1013F00050EA010208BF704730B511F0004502D530
:10140000404261EB41014FF4806404F132045FEA31
:10141000915C3FF4D8AE4FF003025FEADC0C18BFDA
:1014200003325FEADC0C18BF033202EBDC02C2F1CC
:10143000200300FA03FC20FA02F001FA03FE40EA5E
:101440000E0021FA02F11444BDE600BF4A0011D299
:1014500012F5001211D20DD56FF47873B3EB62520E
:101460000ED44FEAC12343F0004343EA505323FA1A
:1014700002F070474FF00000704750EA013002D18F
:101480004FF0FF3070474FF00000704780F0004091
:1014900002E000BF81F0004142001FBF5FEA41034C
:1014A00092EA030F7FEA226C7FEA236C6AD04FEA4C
:1014B0001262D2EB1363C1BFD21841404840414091
:1014C000B8BF5B42192B88BF704710F0004F40F443
:1014D000000020F07F4018BF404211F0004F41F45F
:1014E000000121F07F4118BF494292EA030F3FD02B
:1014F000A2F1010241FA03FC10EB0C00C3F120033E
:1015000001FA03F100F0004302D5494260EB4000CC
:10151000B0F5000F13D3B0F1807F06D340084FEA37
:10152000310102F10102FE2A51D2B1F1004F40EB2C
:10153000C25008BF20F0010040EA03007047490094
:1015400040EB000010F4000FA2F10102EDD1B0FA5F
:1015500080FCACF1080CB2EB0C0200FA0CF0AABF54
:1015600000EBC25052421843BCBFD04018437047F2
:1015700092F0000F81F4000106BF80F400000132F8
:10158000013BB5E74FEA41037FEA226C18BF7FEACF
:10159000236C21D092EA030F04D092F0000F08BF11
:1015A0000846704790EA010F1CBF0020704712F0F8
:1015B0007F4F04D1400028BF40F00040704712F137
:1015C00000723CBF00F50000704700F0004343F09C
:1015D000FE4040F4000070477FEA226216BF0846D2
:1015E0007FEA23630146420206BF5FEA412390EA95
:1015F000010F40F4800070474FF0000304E000BF8B
:1016000010F0004348BF40425FEA000C08BF70473B
:1016100043F0964301464FF000001CE050EA0102FF
:1016200008BF70474FF000030AE000BF50EA010214
:1016300008BF704711F0004302D5404261EB410101
:101640005FEA010C02BF84460146002043F0B64326
:1016500008BFA3F18053A3F50003BCFA8CF2083A4B
:10166000A3EBC25310DB01FA02FC634400FA02FC54
:10167000C2F12002BCF1004F20FA02F243EB02005B
:1016800008BF20F00100704702F1200201FA02FCBD
:10169000C2F1200250EA4C0021FA02F243EB0200B0
:1016A00008BF20EADC7070474FF0FF0C1CEAD052F4
:1016B0001EBF1CEAD15392EA0C0F93EA0C0F6FD0B5
:1016C0001A4480EA010C400218BF5FEA41211ED093
:1016D0004FF0006343EA501043EA5111A0FB01317F
:1016E0000CF00040B1F5000F3EBF490041EAD37154
:1016F0005B0040EA010062F17F02FD2A1DD8B3F1D0
:10170000004F40EBC25008BF20F00100704790F03E
:10171000000F0CF0004C08BF49024CEA502040EA90
:1017200051207F3AC2BFD2F1FF0340EAC250704756
:1017300040F400004FF00003013A5DDC12F1190F94
:10174000DCBF00F000407047C2F10002410021FA06
:1017500002F1C2F1200200FA02FC5FEA310040F11E
:10176000000053EA4C0308BF20EADC70704792F097
:10177000000F00F0004C02BF400010F4000F013ACF
:10178000F9D040EA0C0093F0000F01F0004C02BFCA
:10179000490011F4000F013BF9D041EA0C018FE739
:1017A0000CEAD15392EA0C0F18BF93EA0C0F0AD03F
:1017B00030F0004C18BF31F0004CD8D180EA010065
:1017C00000F00040704790F0000F17BF90F0004FFE
:1017D000084691F0000F91F0004F14D092EA0C0FE0
:1017E00001D142020FD193EA0C0F03D14B0218BF73
:1017F000084608D180EA010000F0004040F0FE40B9
:1018000040F40000704740F0FE4040F44000704754
:101810004FF0FF0C1CEAD0521EBF1CEAD15392EAD3
:101820000C0F93EA0C0F69D0A2EB030280EA010CC3
:1018300049024FEA402037D04FF0805343EA11115C
:1018400043EA10130CF000408B4238BF5B0042F1BA
:101850007D024FF4000C8B4224BF5B1A40EA0C005F
:10186000B3EB510F24BFA3EB510340EA5C00B3EB91
:10187000910F24BFA3EB910340EA9C00B3EBD10F7F
:1018800024BFA3EBD10340EADC001B0118BF5FEAD1
:101890001C1CE0D1FD2A3FF650AF8B4240EBC250FA
:1018A00008BF20F0010070470CF0004C4CEA5020BB
:1018B0007F32C2BFD2F1FF0340EAC250704740F40A
:1018C00000004FF00003013A37E792F0000F00F0FC
:1018D000004C02BF400010F4000F013AF9D040EA7A
:1018E0000C0093F0000F01F0004C02BF490011F40E
:1018F000000F013BF9D041EA0C0195E70CEAD15306
:1019000092EA0C0F08D142027FF47DAF93EA0C0FEC
:101910007FF470AF084676E793EA0C0F04D14B02D0
:101920003FF44CAF08466EE730F0004C18BF31F082
:10193000004CCAD130F000427FF45CAF31F000437C
:101940007FF43CAF5FE700BF08B5074B044613B117
:101950000021AFF30080054B1868836A03B19847F4
:10196000204601F005F800BF00000000A42B000095
:1019700070B50D4E0D4CA41BA4100025A54209D135
:101980000B4E0C4C00F0F6FFA41BA4100025A54242
:1019900005D170BD56F8253098470135EEE756F869
:1019A000253098470135F2E76C0000206C000020DC
:1019B0006C00002074000020024B0146186800F003
:1019C00059B800BF0800002002440346934200D1EA
:1019D000704703F8011BF9E738B50546002945D0E3
:1019E00051F8043C0C1F002BB8BFE41800F0C6FBF4
:1019F0001F4A1368104633B9636014602846BDE877
:101A0000384000F0BCBBA3420CD921686218934255
:101A100004BF1A685B68636004BF521822600460E8
:101A2000ECE713465A680AB1A242FAD91968581865
:101A3000A0420BD120680144581882421960DDD1C0
:101A4000106852685A6001441960D7E702D90C2324
:101A50002B60D3E7206821188A4204BF11685268BE
:101A6000626004BF091821605C60C7E738BD00BF31
:101A70004402002070B5CD1C25F0030508350C2D5F
:101A800038BF0C25002D064601DBA94203D90C23E3
:101A90003360002070BD00F071FB214A14682146BC
:101AA00091B9204C23681BB9304600F0B9F820608A
:101AB0002946304600F0B4F8431C24D10C2333608F
:101AC000304600F05CFBE4E70B685B1B18D40B2B83
:101AD0000FD90B60CD50CC18304600F050FB04F10C
:101AE0000B00231D20F00700C31AD3D05A42E25046
:101AF000D0E78C424B6816BF636013600C46EBE77F
:101B00000C464968CCE7C41C24F00304A04205D06D
:101B1000211A304600F084F80130CFD02560DBE791
:101B200044020020480200200FB40A4B13B51C6881
:101B300024B1A36913B9204600F032FA05AB049A28
:101B4000A1680193204600F043FB02B0BDE81040BD
:101B500004B070470800002070B50E46054618B165
:101B600083690BB900F01CFAAB69AC6813B928465D
:101B700000F016FA234B9C4217D16C68A3891B070F
:101B80001DD52369DBB1013EA36816F8011F013B97
:101B9000A360E9B9002B2EDA22460A21284600F07C
:101BA0004FF8013011D00A2011E0174B9C4201D1AF
:101BB000AC68E3E7154B9C4208BFEC68DEE72146C2
:101BC000284600F08FF80028DDD04FF0FF3070BDC0
:101BD000002B04DAA2699A4206DC0A2904D02368A1
:101BE0005A1C22601970CFE72246284600F028F8D8
:101BF0000130C9D1E9E723680A205A1C2260187015
:101C0000E5E700BFC82B0000E82B0000A82B000070
:101C1000024B01461868FFF79FBF00BF0800002075
:101C200038B5064C002305460846236000F092FEB6
:101C3000431C02D1236803B12B6038BD5002002041
:101C4000F8B50E461446054618B183690BB900F085
:101C5000A7F9214B9C422AD16C68A369A360A38990
:101C60001A072ED5236963B323692068C01A6369F4
:101C7000F6B28342374604DC2146284600F026F9B6
:101C800028BBA368013BA36023685A1C22601E7016
:101C900063690130834204D0A389DB0719D50A2E7A
:101CA00017D12146284600F011F990B10FE00B4BF7
:101CB0009C4201D1AC68D0E7094B9C4208BFEC685C
:101CC000CBE72146284600F00DF80028CCD04FF095
:101CD000FF373846F8BD00BFC82B0000E82B0000D6
:101CE000A82B0000324B70B51D6806460C4625B186
:101CF000AB6913B9284600F053F92E4B9C420FD123
:101D00006C68B4F90C309AB215072CD4D00611D4F3
:101D10000922326043F04003A3814FF0FF303EE0E0
:101D2000254B9C4201D1AC68EBE7244B9C4208BF99
:101D3000EC68E6E7510712D5616B41B104F1440349
:101D4000994202D03046FFF747FE00236363A38920
:101D500023F02403A3810023636023692360A38904
:101D600043F00803A38123694BB9A38903F42073CB
:101D7000B3F5007F03D02146304600F0BFF9A289B9
:101D800012F001030CD00023A36063695B42A361DE
:101D9000236953B9B4F90C3013F08000BAD170BD87
:101DA000920758BF6369A360F2E70020F7E700BF1E
:101DB00008000020C82B0000E82B0000A82B000022
:101DC0008A892DE9F041054610070C4658D44B6826
:101DD000002B05DC0B6C002B02DC0020BDE8F08141
:101DE000E66A002EF9D0002312F480522F68216A8F
:101DF0002B6032D0606DA3895A0705D56368C01A7D
:101E0000636B0BB1236CC01A00230246E66A216A99
:101E10002846B047431CA38906D129681D2948D804
:101E2000294ACA40D60744D500226260D9042269F3
:101E3000226004D5421C01D12B6803B96065616B37
:101E40002F600029C9D004F14403994202D02846EA
:101E5000FFF7C2FD00206063C0E701232846B047BA
:101E6000411CC8D12B68002BC5D01D2B01D0162BCF
:101E700001D12F60B1E7A38943F04003A381ADE70F
:101E80000F69002FA9D093070E6808BF4B690F6038
:101E900018BF0023A6EB07088B60B8F1000F9CDD8C
:101EA00043463A46216AA66A2846B047002806DC1F
:101EB000A38943F04003A3814FF0FF308EE707442E
:101EC000A8EB0008E9E700BF0100402038B50B6926
:101ED00005460C46DBB118B183690BB900F060F818
:101EE0000C4B9C4209D16C68B4F90C307BB1214693
:101EF0002846BDE83840FFF763BF074B9C4201D13D
:101F0000AC68F1E7054B9C4208BFEC68ECE70020A9
:101F100038BD00BFC82B0000E82B0000A82B000034
:101F2000002310B50446C0E9003383608181436615
:101F3000C281C0E904338361194608225C30FFF78F
:101F400043FD054B6362054BA362054BE362054B02
:101F50002462236310BD00BF092700002B27000067
:101F60006327000087270000014900F085B800BF03
:101F7000CD1E000070B54A1E682555430E4605F17A
:101F80007401FFF777FD044640B10021C0E9001657
:101F90000C30A06005F16802FFF716FD204670BD09
:101FA000836910B5044633BBC0E912330365124B95
:101FB000124A1B688262984204BF0123836100F0C9
:101FC0001FF86060204600F01BF8A060204600F07B
:101FD00017F80022E06004216068FFF7A1FF0122EA
:101FE0000921A068FFF79CFF02221221E068FFF799
:101FF00097FF0123A36110BDA42B0000691F0000FF
:10200000F8B51B4B1E68B369074613B93046FFF796
:10201000C7FF4836D6E90134013B03D5336833B1F5
:102020003668F7E7B4F90C506DB16834F4E7042171
:102030003846FFF79FFF30600028F1D10C233B604A
:1020400004462046F8BD0B4B6566C4E90055A56003
:10205000C4E90335C4E905550822294604F15C00AA
:10206000FFF7B2FCC4E90D55C4E91255E9E700BF1A
:10207000A42B00000100FFFF2DE9F84380468946AC
:1020800000F14804002614B93046BDE8F883D4E9CD
:102090000175013F01D52468F5E7AB89012B07D90C
:1020A000B5F90E30013303D029464046C8470643F0
:1020B0006835EEE770B50E46B1F90E10002996B0FE
:1020C00014461D4607DA00232B60B3891A0610D484
:1020D0004FF480630EE06A4600F07CFB0028F2DBE0
:1020E000019A02F47042A2F500535A425A412A6002
:1020F000EEE740230020236016B070BD8B8973B5D6
:102100009D0706460C4607D504F14703236023616B
:102110000123636102B070BD01AB6A46FFF7CAFFDD
:10212000009905463046FFF7A5FC48B9B4F90C30D4
:102130009A05EFD423F0030343F00203A381E3E7FE
:102140000D4BB362A389206043F08003A381009B01
:102150006361019B20615BB1B4F90E10304600F061
:102160004BFB28B1A38923F0030343F00103A381B0
:10217000A3891D43A581CDE7691F00007047704703
:102180009368013B002B10B4936007DA9469A34273
:1021900001DB0A2902D110BCFFF752BD1368581C9D
:1021A00010601970084610BC7047F8B506460F4617
:1021B0001446D518AC4201D1002007E03A4614F885
:1021C000011B3046FFF7DCFF431CF3D1F8BD0000D4
:1021D0002DE9F04F9DB00C4617460393064618B103
:1021E00083690BB9FFF7DCFE7B4B9C4257D17468C7
:1021F000A38918075DD52369002B5AD000230993C2
:1022000020238DF8293030238DF82A304FF0010B30
:10221000B846454615F8013B0BB1252B54D1B8EB18
:10222000070A0BD053463A4621463046FFF7BDFF1A
:10223000013000F0C280099B5344099398F80030A4
:10224000002B00F0BA8000234FF0FF32CDE90523C8
:10225000049307938DF853301A93A846052218F873
:10226000011B5E4800F0ECFA049B78BBD90644BF22
:1022700020228DF853201A0744BF2B228DF85320BB
:102280002A782A2A2AD0079AA84600200A254146F9
:1022900011F8013B303B092B69D960B324E0504B66
:1022A0009C4201D1B468A3E74E4B9C4208BFF4683E
:1022B0009EE721463046FFF715FD00289ED04FF0DF
:1022C000FF301DB0BDE8F08FA846A2E7434A801A50
:1022D0000BFA00F0184304904546BEE7039A111D1F
:1022E00012680391002A01DB079204E0524243F096
:1022F00002030792049398F800302E2B0ED198F821
:1023000001302A2B38D1039B1A1D1B680392002B26
:10231000B8BF4FF0FF3308F102080593324D98F82B
:1023200000100322284600F08BFA40B14023401BE6
:1023300003FA00F0049B034308F10108049398F8A2
:1023400000102A488DF82810062208F1010700F035
:1023500077FA002837D0264B1BBB039B073323F0AB
:10236000070308330393099B4B44099350E705FB8C
:102370000232012088468AE7002308F1010805930C
:1023800019460A25404610F8012B303A092A03D98C
:10239000002BC3D00591C1E705FB01210123804635
:1023A000F0E703AB00932246124B04A93046AFF38B
:1023B0000080B0F1FF3F8146D5D1A3895B063FF590
:1023C0007EAF09987DE703AB00932246094B04A931
:1023D000304600F087F8ECE7C82B0000082C00001E
:1023E000E82B0000A82B00000E2C0000122C00008F
:1023F00000000000AB2100002DE9F04791461F4688
:102400008A680B69DDF820809342B8BF1346C9F88B
:10241000003091F8432006460C4612B10133C9F84A
:1024200000302368990642BFD9F800300233C9F85A
:102430000030256815F0060507D104F1190AE36894
:10244000D9F800209B1AAB4228DC94F8433022686C
:10245000003318BF012392062DD404F143023946FC
:102460003046C047013020D02368E568D9F8002005
:1024700003F00603042B08BFAD1AA36822690CBF42
:1024800025EAE57500259342C4BF9B1AED184FF06D
:1024900000091A344D451AD1002008E001235246A4
:1024A00039463046C047013003D14FF0FF30BDE818
:1024B000F0870135C3E7E1185A1C302081F843004A
:1024C000224494F8451082F843100233C5E70123F3
:1024D000224639463046C0470130E6D009F10109AD
:1024E000D8E700002DE9F04301F1430C0C46097ECA
:1024F00085B06E291746064698460C9A00F0B380C0
:1025000022D8632936D00AD8002900F0B98058298A
:1025100000F0838004F1420584F8421032E064291F
:1025200001D06929F6D120681368050603F104017A
:102530002AD51B681160002B03DA2D225B4284F838
:1025400043206F480A2239E0732900F09D8008D8A3
:102550006F2920D07029DDD1236843F02003236048
:1025600003E0752917D07829D4D1782384F8453031
:10257000644855E01368191D1B68116004F1420599
:1025800084F8423001238CE01B68116010F0400F8A
:1025900018BF1BB2CFE713682568181D1060280606
:1025A00001D51B6802E06806FBD51B8854486F29DB
:1025B00014BF0A220822002184F843106568A56030
:1025C000002DC0F29580216821F004012160002BCC
:1025D0003DD1002D40F08E806546082A0BD123683E
:1025E000DB0708D5236962689A42DEBF302305F80D
:1025F000013C05F1FF35ACEB05032361CDF800800C
:102600003B4603AA21463046FFF7F6FE01304DD186
:102610004FF0FF3005B0BDE8F083394884F845102D
:10262000136821681D1D1B6815600A060BD5CA07B3
:1026300044BF41F0200121601BB9226822F0200232
:1026400022601022B7E74D0648BF9BB2EFE7654610
:10265000B3FBF2F102FB1133C35C05F8013D0B46FD
:102660000029F5D1B9E7136825686169181D106064
:1026700028061B6801D5196002E06A06FBD519809F
:10268000002323616546B9E71368191D11601D68B1
:1026900062680021284600F0D3F808B1401B606052
:1026A00063682361002384F84330A7E723692A463F
:1026B00039463046C0470130AAD023689B0713D45F
:1026C000E068039B9842B8BF1846A3E701234A4637
:1026D00039463046C04701309AD00135E368039A45
:1026E0009B1AAB42F2DCEBE7002504F11909F5E790
:1026F000002BACD1037884F8423004F142056CE73A
:10270000192C00002A2C000010B50C46B1F90E104F
:1027100000F0E6F80028ABBF636DA3891B1823F413
:102720008053ACBF6365A38110BD2DE9F0411F4606
:102730008B89DB0505460C46164605D5022300228B
:10274000B1F90E1000F068F8A389B4F90E1023F463
:102750008053A38132463B462846BDE8F04100F055
:1027600017B810B50C46B1F90E1000F055F8431C1F
:10277000A38915BF606523F4805343F48053A3817C
:1027800018BFA38110BDB1F90E1000F013B80000FE
:1027900038B5074C054608461146002222601A4605
:1027A000FEF7E8F8431C02D1236803B12B6038BD63
:1027B0005002002038B5064C002305460846236029
:1027C00000F0A0F8431C02D1236803B12B6038BD90
:1027D0005002002038B5074C002305460846114634
:1027E000236000F097F8431C02D1236803B12B60EB
:1027F00038BD00BF5002002038B5064C0023054606
:102800000846236000F08EF8431C02D1236803B110
:102810002B6038BD5002002038B5074C05460846ED
:102820001146002222601A4600F084F8431C02D1AF
:10283000236803B12B6038BD500200200000000067
:1028400001F0FF01102A2BDB10F0070F08D010F861
:10285000013B013A8B422DD010F0070F42B3F6D165
:10286000F0B441EA012141EA014122F007047FF07E
:1028700000070023F0E80256083C85EA010586EAD5
:10288000010685FA47F5A3FA87F586FA47F6A5FA11
:1028900087F68EB9EED1F0BC01F0FF0102F007021D
:1028A00032B110F8013B013A83EA010313B1F8D1C8
:1028B0000020704701387047002D06BF35460338A9
:1028C000073815F0010F07D1013015F4807F02BFE2
:1028D000013015F4C03F0130F0BC0138704700BF33
:1028E00038B5074C054608461146002222601A46B4
:1028F00000F028F8431C02D1236803B12B6038BDD7
:1029000050020020024B58221A604FF0FF307047EF
:1029100050020020024B58221A604FF0FF307047DF
:1029200050020020024B58221A600020704700BF5E
:1029300050020020024B58221A604FF0FF307047BF
:1029400050020020024B58221A604FF0FF307047AF
:1029500050020020044A05491368002B08BF0B46AB
:1029600018441060184670474C020020580200209E
:10297000FEE700BFF8B500BFF8BC08BC9E46704734
:10298000F8B500BFF8BC08BC9E467047534644509B
:102990003A20686561646572206E6F7420666F7599
:1029A0006E6400534644503A2076657273696F6EC8
:1029B0002077726F6E673A2025752E25640A0053C2
:1029C0004644503A206E6F20344B2045525A0053F3
:1029D0004644503A206E6F206C61726765207772B2
:1029E0006974652062756600534644503A206164FC
:1029F00064722E6C656E20213D2033005346445096
:102A00003A20344B2045525A206F70636F64652022
:102A1000696E76616C696400534644503A2064657F
:102A20007669636520746F6F20626967005346445E
:102A3000503A2064657669636520736F20736D6119
:102A40006C6C3F2100344B2045525A206F70636FED
:102A500064652064697361677265656D656E740095
:102A6000534644503A206E6F204A454445432074F3
:102A700061626C65206F662065787065637465645B
:102A80002076657273696F6E20666F756E6400469E
:102A90006C617368696E6720256C75206279746556
:102AA000732066726F6D2053504920454550524F38
:102AB0004D0A000D466C617368696E67207061672E
:102AC0006520256C752E2E2E000A416C6C20646FDB
:102AD0006E652C20626F6F74696E67204F45504C95
:102AE00021004F45504C2D424F4F54000000010132
:102AF0000100000000000000000000004B0C00007E
:102B000089090000C10C0000CD0C0000C70C0000BA
:102B1000490C0000410C0000D50C0000650C0000C1
:102B20003D0C000000000000010000000200000059
:102B30000300000004000000050000000600000083
:102B40000700000008000000090000000A00000063
:102B50000B0000000C0000000D0000000E00000043
:102B60000F00000010000000110000001200000023
:102B70001300000014000000150000001600000003
:102B80001700000018000000190000001A000000E3
:102B90001B0000001C0000001D0000001E000000C3
:102BA0001F0000000C0000200000000000000000DA
:102BB0000000000000000000000000000000000015
:102BC0000000000000000000000000000000000005
:102BD00000000000000000000000000000000000F5
:102BE00000000000000000000000000000000000E5
:102BF00000000000000000000000000000000000D5
:102C00000000000000000000232D302B2000686C25
:102C10004C006566674546470030313233343536FF
:102C20003738394142434445460030313233343538
:102C30003637383961626364656600000000000061
:102C400000D6FF7F01000000F40100000090D003D7
:102C50000C00002000000000C82B0000E82B000042
:102C6000A82B000000000000000000000000000091
:102C70000000000000000000000000000000000054
:102C80000000000000000000000000000000000044
:102C90000000000000000000000000000000000034
:102CA0000000000000000000000000000000000024
:102CB0000000000025020000D50E00000102000007
:1040000000600020FD890000258A0000278A00004A
:10401000298A00002B8A00002D8A00000000000081
:104020000000000000000000000000002F8A0000D7
:10403000318A000000000000338A0000358A000049
:10404000378A0000654C0000118F0000378A00009D
:10405000378A0000378A000015900000378A000078
:10406000378A0000378A0000378A0000754A00004E
:10407000378A0000378A0000378A0000378A00003C
:10408000378A0000C5900000378A0000378A000098
:10409000378A0000378A0000378A0000378A00001C
:1040A000378A0000378A0000378A0000378A00000C
:1040B000378A0000378A000000000000000000007E
:1040C000378A0000378A0000378A0000378A0000EC
:1040D000378A0000378A0000378A0000000000009D
:1040E00000000000000000000000000000000000D0
:1040F00000000000000000000000000000000000C0
:1041000000000000000000000000000000000000AF
:10411000000000000000000000000000000000009F
:10412000000000000000000000000000000000008F
:10413000000000000000000000000000000000007F
:10414000000000000000000000000000000000006F
:10415000000000000000000000000000000000005F
:10416000000000000000000000000000000000004F
:10417000000000000000000000000000000000003F
:10418000000000000000000000000000000000002F
:10419000000000000000000000000000000000001F
:1041A000000000000000000000000000000000000F
:1041B00000000000000000000000000000000000FF
:1041C00000000000000000000000000000000000EF
:1041D00000000000000000000000000000000000DF
:1041E00000000000000000000000000000000000CF
:1041F00000000000000000000000000000000000BF
:1042000010B5054C237833B9044B13B10448AFF310
:1042100000800123237010BD9C00002000000000DE
:1042200018D3000008B5034B1BB103490348AFF393
:10423000008008BD00000000A000002018D300008E
:10424000154B002B08BF134B9D46A3F5803A002168
:104250008B460F461348144A121A05F097FC0F4B71
:10426000002B00D098470E4B002B00D09847002021
:10427000002104000D000D48002802D00C48AFF3C7
:10428000008005F035FC2000290004F031FF05F026
:104290001BFC00BF000008000060002000000000C0
:1042A000000000009C000020A41900200000000075
:1042B000000000004FF080430020D3F80C24B2F13E
:1042C000011F04BFC3F800010120704708B5FFF7C4
:1042D000F1FF58B94FF080430122C3F800011A6082
:1042E000FFF7E8FF0028FBD0002008BD4FF0FF30AB
:1042F000FBE790230370B22343704FF0102310B5F7
:10430000D3F880208270D3F88020120AC270D3F8CC
:104310008020120C0271D3F880301B0E43710023F1
:104320008371C371421EC41D12F8011F4B40944299
:1043300083EA1113F8D103F00F03703B037010BD33
:104340000C4B0022C3F80C25C003C3F80C254FF416
:104350007A7290FBF2F0C3F80405D3F8082542F016
:104360000102C3F8082501221A60034AC3F8002697
:10437000704700BF000001403546526E0B4B10B530
:10438000040A18705C70040C000ED870080A1971C9
:104390005871080C090ED971110A1A725972110C50
:1043A000120E9C7098719972DA7210BD0000002094
:1043B000054A064B11680B441360054B00221A6036
:1043C000044B01221A707047C0000020013665C4FA
:1043D000BC000020B80000202DE9F0414509C0F3E1
:1043E000820400F0030600278846BBB2984540F2DD
:1043F0002D82062D8CBF00210121102004F0D2FE59
:10440000062C8CBF00210121112004F0CBFE022ECE
:104410008CBF00210121122004F0C4FE6420013869
:1044200000BF00BF00BF00BF00BF00BF00BF00BF94
:1044300000BF00BF00BF00BF00BF00BF00BF00BF84
:1044400000BF00BF00BF00BF00BF00BF00BF00BF74
:1044500000BF00BF00BF00BF00BF00BF00BF00BF64
:1044600000BF00BF00BF00BF00BF00BF00BF00BF54
:1044700000BF00BF00BF00BF00BF00BF00BF00BF44
:1044800000BF00BF00BF00BF00BF00BF00BF00BF34
:1044900000BF00BFC3D1B5FA85F14909102004F06F
:1044A00081FEB4FA84F14909112004F07BFE6420F6
:1044B000013800BF00BF00BF00BF00BF00BF00BF8A
:1044C00000BF00BF00BF00BF00BF00BF00BF00BFF4
:1044D00000BF00BF00BF00BF00BF00BF00BF00BFE4
:1044E00000BF00BF00BF00BF00BF00BF00BF00BFD4
:1044F00000BF00BF00BF00BF00BF00BF00BF00BFC4
:1045000000BF00BF00BF00BF00BF00BF00BF00BFB3
:1045100000BF00BF00BF00BF00BF00BF00BF00BFA3
:1045200000BF00BF00BFC3D1052D8CBF00210121FA
:10453000102004F037FE052C8CBF00210121112032
:1045400004F030FEB6FA86F14909122004F02AFE82
:104550006420013800BF00BF00BF00BF00BF00BF24
:1045600000BF00BF00BF00BF00BF00BF00BF00BF53
:1045700000BF00BF00BF00BF00BF00BF00BF00BF43
:1045800000BF00BF00BF00BF00BF00BF00BF00BF33
:1045900000BF00BF00BF00BF00BF00BF00BF00BF23
:1045A00000BF00BF00BF00BF00BF00BF00BF00BF13
:1045B00000BF00BF00BF00BF00BF00BF00BF00BF03
:1045C00000BF00BF00BF00BFC3D1012D8CBF0021C1
:1045D0000121102004F0E6FD012C8CBF00210121F7
:1045E000112004F0DFFD6420013800BF00BF00BFD0
:1045F00000BF00BF00BF00BF00BF00BF00BF00BFC3
:1046000000BF00BF00BF00BF00BF00BF00BF00BFB2
:1046100000BF00BF00BF00BF00BF00BF00BF00BFA2
:1046200000BF00BF00BF00BF00BF00BF00BF00BF92
:1046300000BF00BF00BF00BF00BF00BF00BF00BF82
:1046400000BF00BF00BF00BF00BF00BF00BF00BF72
:1046500000BF00BF00BF00BF00BF00BF00BFC3D18D
:10466000042D8CBF00210121102004F09BFD042C9F
:104670008CBF00210121112004F094FD6420013839
:1046800000BF00BF00BF00BF00BF00BF00BF00BF32
:1046900000BF00BF00BF00BF00BF00BF00BF00BF22
:1046A00000BF00BF00BF00BF00BF00BF00BF00BF12
:1046B00000BF00BF00BF00BF00BF00BF00BF00BF02
:1046C00000BF00BF00BF00BF00BF00BF00BF00BFF2
:1046D00000BF00BF00BF00BF00BF00BF00BF00BFE2
:1046E00000BF00BF00BF00BF00BF00BF00BF00BFD2
:1046F00000BF00BFC3D1022D8CBF002101211020BB
:1047000004F050FD022C8CBF00210121112004F087
:1047100049FD012E8CBF00210121122004F042FD31
:104720006420013800BF00BF00BF00BF00BF00BF52
:1047300000BF00BF00BF00BF00BF00BF00BF00BF81
:1047400000BF00BF00BF00BF00BF00BF00BF00BF71
:1047500000BF00BF00BF00BF00BF00BF00BF00BF61
:1047600000BF00BF00BF00BF00BF00BF00BF00BF51
:1047700000BF00BF00BF00BF00BF00BF00BF00BF41
:1047800000BF00BF00BF00BF00BF00BF00BF00BF31
:1047900000BF00BF00BF00BFC3D1032D8CBF0021ED
:1047A0000121102004F0FEFC032C8CBF002101210C
:1047B000112004F0F7FC6420013800BF00BF00BFE7
:1047C00000BF00BF00BF00BF00BF00BF00BF00BFF1
:1047D00000BF00BF00BF00BF00BF00BF00BF00BFE1
:1047E00000BF00BF00BF00BF00BF00BF00BF00BFD1
:1047F00000BF00BF00BF00BF00BF00BF00BF00BFC1
:1048000000BF00BF00BF00BF00BF00BF00BF00BFB0
:1048100000BF00BF00BF00BF00BF00BF00BF00BFA0
:1048200000BF00BF00BF00BF00BF00BF00BFC3D1BB
:104830000121102004F0B6FC0121112004F0B2FC8B
:104840000121122004F0AEFC0137CEE5BDE8F08175
:10485000F8B5184D184C4FF40066E023C5F8806099
:10486000C5F8806185F80B330023C4F808354FF490
:104870008033C4F80433C4F84433104B186004F098
:104880007BFF0F49D4F8047505F082F84FF08E4194
:1048900004F0CAFF04F042FE0A4B002204F0E0FCE0
:1048A00004F094FE3844C4F8400501232E602360D0
:1048B000F8BD00BF00E100E000B000400C000020A7
:1048C00000007A440000E03F38B5054604F00EFCD5
:1048D00004F0D0FB074C206004F0CCFB2368C01A26
:1048E000A84206D22846FFF7B3FF20BF40BF20BF33
:1048F000F2E738BDC00000202DE9F04F834689B0B3
:1049000000F57A70FFF71CFDBBF5FA6FC0F0A280CE
:10491000554B1D784FEA151A05F00F05012D22D1D0
:10492000DA7899785C78514E120402EB01621979B9
:104930005B7902EB01221344BBFBF3F272B93560E1
:1049400000253368AB4240F28B8051462046FFF78A
:1049500043FD5846FFF7B8FF0135F2E79B4532604B
:1049600028BF9B46ECE7002D74D19F785A7893F8C6
:10497000048093F8069003923809DA78049207F0DD
:104980000F075A7905924FEA181117FB00F408F047
:104990000F084FEA191208FB014409F00F096423BC
:1049A000334E09FB02445C4310FB03F0BBFBF4F401
:1049B00011FB03F114F0FF0412FB03F3357008BF81
:1049C0000124029006910193B346AC4248DD33784E
:1049D00093B99F4207930CDD51460398FFF7FCFC07
:1049E0000298FFF771FF9BF8002012B9079B013373
:1049F000EFE70020FFF768FF337893B998450793F6
:104A00000CDD51460498FFF7E7FC0698FFF75CFFC2
:104A10009BF8002012B9079B0133EFE70020FFF756
:104A200053FF337893B9994507930CDD51460598A8
:104A3000FFF7D2FC0198FFF747FF9BF8002012B95F
:104A4000079B0133EFE70020FFF73EFF33783BB9C8
:104A50000135BAE7584609B0BDE8F04FFFF734BF5B
:104A600009B0BDE8F08F00BF00000020BC000020AE
:104A7000B800002073B5134CD4F84061012E1FD14B
:104A80000023C4F84031104BD4F80455186804F0E2
:104A900073FE0E4904F07CFF4FF08E4104F0C4FE1B
:104AA00004F03CFD0A4B002204F0DAFB04F08EFD1A
:104AB0002844C4F84005D4F840310193019B666056
:104AC00002B070BD00B000400C00002000007A442D
:104AD0000000E03F10B50446002000F01FF94FF041
:104AE000804301225A60D3F80C2402F00112B2F183
:104AF000011FF8D0094804F0D9F804F0F7FA20466D
:104B0000FFF7FAFE4FF4E131044804F0BDF8044920
:104B10000248BDE8104003F067BF00BF0019002045
:104B2000ACAF00007047000038B5054604F0A2FAAB
:104B300004461C48FFF704FC032210461A4904F0FF
:104B4000FDF94FF0A043D3F80C2722F44032C3F80C
:104B50000C27D3F80C2742F44032C3F80C2704F09A
:104B600089FA001BA84210D26420FFF771FE20BF13
:104B700040BF20BF032004F027FB0028EFD147F2FD
:104B80003050BDE83840FFF7DBBB04F073FA011B7F
:104B9000064805F0ABF8032004F016FB0028FAD114
:104BA000EDE700BFC0D40100254B0000AFAF00000F
:104BB00038B5054608240021132004F0F3FA2B062B
:104BC0004CBF01210021142004F0ECFA013C01212A
:104BD00013206D0004F0E6FA14F0FF04EDB2EAD100
:104BE00038BD0000124B1B78E3B1124B124A1B7800
:104BF00003EB831302EB4302104BC3F8042500229E
:104C0000C3F80C21D3F80C11C3F80821D3F808110C
:104C10000421C3F80413C3F85821C3F81C2101224E
:104C20005A607047054B0422C3F80823704700BF41
:104C3000C5000020C7000020C80000200010004070
:104C4000074B4FF0FF32C3F808230022C3F81021AE
:104C500001221A61D3F81021002AFBD0704700BF4F
:104C60000010004030B41F4A1F49137803EB831330
:104C70005B00CC18C85C13461C4A1146D2F8305170
:104C80001DB9D2F83451002DF8D0D1F80024D1F854
:104C90004825174922540A78013AD2B20A701A7884
:104CA0000132D2B2082A1A7004BF00221A70114AC7
:104CB00013780133DBB213700C4B0022C3F80C21C4
:104CC000D3F80C11C3F83021C3F83421C3F80821FC
:104CD000D3F80831084B0222C3F8802130BCFFF71B
:104CE00081BF00BFC7000020C800002000100040A6
:104CF000C5000020D804002000E100E0A0F10B0373
:104D00000F2B9FBF00EB8000034B3238C3F8080520
:104D100094BF0120002070470010004008B5074BE9
:104D2000197880F00102914203D1187018B1FFF791
:104D300059FF012008BDFFF783FFFAE7C4000020F8
:104D4000084A09480023022110B5C2F880100370F8
:104D50000648037006480824047006480370116072
:104D600010BD00BF00E100E0C7000020C600002029
:104D7000C5000020D804002070B5224C4FF47A758D
:104D80000023C4F8FC3F013DD4F8FC2FF9D10126E3
:104D9000C4F8FC6FFFF754FFFFF798FA40F20223C4
:104DA000C4F83435184BC4F83835A723C4F83C553B
:104DB000C4F86036154BC4F814358023C4F8183590
:104DC00040F20123C4F85036C023C4F8443504230C
:104DD000C4F80C350F23C4F810350D4BC4F800325D
:104DE0000C4B1D70FFF7ACFF0B4B202283F8012307
:104DF0000222C3F880211A600523C4F80835304622
:104E000070BD00BF00100040211001000800000626
:104E100011001000C400002000E100E02DE9F0477F
:104E20009A46304B91461A789846002A56D02E4D15
:104E30002E4E2A7882235343F45C2A78E4B2012C64
:104E400088BF023C02EB8212A14206EB42070A46EF
:104E500028BF2246791C04F08EFEBAF1000F0BD059
:104E60002A788221631C01FB0262D35C9B00FF2B2A
:104E700028BFFF238AF80030B9F1000F08D02A7844
:104E80008221A31C01FB0266F35C5B4289F80030BF
:104E90002B78174A17480133DBB2082B2B704FF0E1
:104EA000020104BF00232B70C2F880100378013385
:104EB000DBB2037098F80030013BDBB288F80030B9
:104EC0000D4B11601B7833B10C4BD3F804335B07E7
:104ED00001D4FFF787FE2046BDE8F0874FF0FF3092
:104EE000FAE700BFD8040020C6000020C800002058
:104EF00000E100E0C5000020C400002000100040D8
:104F000008B5FFF79DFE0F4B0022C3F80405C3F858
:104F1000102101221A60D3F81021002AFBD00022B0
:104F2000C3F81021C3F80C21D3F80C31064B022230
:104F3000C3F88021054B1B780BB1FFF753FE01200E
:104F400008BD00BF0010004000E100E0C4000020E8
:104F500038B580220546002104F018FE0B4B0C4AA0
:104F600080212846FFF75AFF44B2002C0ADB0822B2
:104F70000849681D04F0F0FD002818BF6FF0010417
:104F8000204638BD4FF0FF34FAE700BFD9040020B7
:104F9000DA040020F5180020FFF7B2BF2DE9F04138
:104FA00005464FF400700E4604F0C6FD0446014667
:104FB0001822284600F01AF9217C202909D021293D
:104FC00044D04E4804F092FE2046BDE8F04104F083
:104FD000BBBD4B4804F012FF01F0B2F916B13046E8
:104FE00001F058FA01F0A4FB01F066FB002001F08B
:104FF000B7FB0021062004F0D5F800261835C6F3CB
:1050000008076FB90121062004F0CCF82146A81941
:105010004FF4007200F0EAF83946062004F0C2F8B6
:10502000E05D0136FFF7C4FDB6F5B95FE7D10121B8
:10503000062004F0B7F801F0A0FB204604F084FD40
:1050400002F040FDBDE8F04101F058BB2D4804F0EE
:10505000D5FE01F075F916B1304601F01BFA01F0EA
:1050600067FB002001F07CFB0021062004F09AF889
:10507000002605F11808C6F3080777B901210620B4
:1050800004F090F8214608EB06004FF4007200F09F
:10509000ADF83946062004F085F8E05D0136FFF7EB
:1050A00087FDB6F5B95FE6D10121062004F07AF854
:1050B00001F063FB012001F053FB0021062004F006
:1050C00071F805F5B95500261835C6F308076FB90C
:1050D0000121062004F066F82146A8194FF4007259
:1050E00000F084F83946062004F05CF8E05D0136F3
:1050F000FFF75EFDB6F5B95FE7D198E7E7AF0000CF
:10510000C9AF0000D8AF000070B5064608250024DE
:1051100033064CBF012100210F2004F043F80E207C
:105120000121760004F03EF864000D20F6B2E4B2EE
:1051300004F04AF808B144F0010400210E20013DBA
:1051400004F030F815F0FF05E2D1204670BD10B52F
:10515000002104460C2004F025F82046FFF7D4FF78
:1051600001210C20BDE8104004F01CB870B50646C3
:105170000C460C200021154604F014F85A20FFF7C5
:10518000C3FF0020FFF7C0FF300AFFF7BDFFF0B2FA
:10519000FFF7BAFF0020FFF7B7FF2544AC4205D068
:1051A0000020FFF7B1FF04F8010BF7E701210C2005
:1051B000BDE8704003F0F6BF0C2008B5002103F0F5
:1051C000F1FF0520FFF7A0FF0020FFF79DFFC307B9
:1051D000FAD401210C2003F0E5FF012008BD0000F6
:1051E000014B1868704700BFDC04002070B506460C
:1051F0000C460C200021154603F0D4FF0320FFF7D6
:1052000083FFC6F30740FFF77FFFC6F30720FFF7D2
:105210007BFFF0B2FFF778FF2544AC4205D00020B9
:10522000FFF772FF04F8010BF7E701210C20BDE83E
:10523000704003F0B7BFB920FFF789BF2DE9F341F4
:10524000AB20FFF784FF082269460020FFF78EFF9E
:105250009DF80030532B0FD19DF80130462B0BD118
:105260009DF80230442B07D19DF80330502B03D119
:105270009DF80730FF2B34D06D4804F0BFFD0021AE
:105280000C2003F08FFF9020FFF73EFF0020FFF778
:105290003BFF0020FFF738FF0020FFF735FF00201D
:1052A000FFF732FFC22809D1624B202200201A707A
:1052B000FFF72AFF052803D012280ED0002404E0AF
:1052C0005D4B4FF480321A60012401210C2003F061
:1052D00069FF204602B0BDE8F081574B4FF4002231
:1052E000F1E79DF80510012906D09DF804205348E8
:1052F00004F0FCFC0024ECE79DF80640FF2C08BFFE
:10530000FE240025E8B2013008226946C000FFF7FC
:105310002DFF9DF80030002B40F083809DF8023077
:10532000012B7ED19DF80330082B7AD9444CBDF86F
:10533000040024222146FFF719FF237803F003021B
:10534000012A204604D03F4804F058FD3E4845E07D
:105350005A0701D43D48F7E7A37813F0060F01D0B0
:105360003B48F1E765786B1EDBB2FD2B01D939486C
:10537000EAE7304BE2791D70130601D53648E3E7C2
:105380007AB32D4B4FF4001119602B4B1968541050
:105390004900E2B2002CFAD11960304A304992F843
:1053A00000C091F800E01C272346A046C419647889
:1053B000661EF6B2FD2E24D8C65D0F2E2ED0102EFE
:1053C0001CD00C2E1DD1A5421BD0B8F1000F01D06E
:1053D00081F800E00BB182F800C0224804F00EFD15
:1053E00088E7A2791AB1144B4FF40051CCE76279E7
:1053F00012B1114B2021C7E71B48A5E7A6464FF085
:1054000001080237242FD1D1B8F1000F01D081F863
:1054100000E00BB182F800C001245AE7A446012342
:10542000EFE70135EBB29C42BFF46CAF8EE700BFF3
:1054300042B00000E0040020DC04002059B000006D
:10544000E304002075B0000016B1000085B0000034
:105450009EB00000B2B00000CEB00000E104002019
:10546000E2040020FBB00000E3B000002DE9F041B1
:1054700005460F4616468EB35FFA85F8C8F5807468
:10548000A4B2B4424FF0060028BF3446FFF75FFED7
:1054900000210C2003F086FE0220FFF735FEC5F345
:1054A0000740FFF731FEC5F30720FFF72DFE40460A
:1054B000FFF72AFE07EB0408474504D017F8010B55
:1054C000FFF722FEF8E701210C2003F06BFEFFF747
:1054D00073FE20B12544341BA6B2CCE70120BDE801
:1054E000F08100002DE9F843C0F30B0304460E469B
:1054F000002B3ED1214FDFF88880DFF88890DEB3A3
:105500000620FFF724FE00210C2003F04BFE0F2E97
:105510001ED9A3B2F3B999F80000D8B1FFF7F4FD92
:105520001025C4F30740FFF7EFFDC4F30720FFF792
:10553000EBFDE0B2FFF7E8FD01210C2003F032FEA5
:10554000FFF73AFEA8B104EB0534751BAEB2D6E7FF
:10555000072E09D9C4F30E0333B998F8000018B127
:10556000FFF7D2FD0825DCE73878FFF7CDFD0125F0
:10557000D7E70020BDE8F8830120FBE7E004002026
:10558000E1040020E20400202DE9F3410023402043
:105590000093ADF804301D4FDFF87C8000F038FB3D
:1055A00004243E460025785D01F02CFD70B11DF805
:1055B000053098F80020715D15489342154B38BFAF
:1055C0000DF8052093F9003004F090FB0135062D0D
:1055D000E9D1631E13F0FF04E4D1234625461DF8EC
:1055E0000320A24288BFF55C03F1010388BF144683
:1055F000062BF4D1402000F0BDFA01F093F8064BE1
:1056000028461C7002B0BDE8F08100BF10000020E9
:1056100045B10000DA040020D90400202DE9FF4143
:10562000102200216846174EDFF85C8004F0AEFAC5
:10563000022537460024305D01F0E4FC38B198F8CB
:1056400000301DF804209A4238BF0DF804300134B0
:10565000062CF0D1012D12D1002318461A461DF850
:105660000310914288BFF85C03F1010388BF0A462A
:10567000102BF4D1044B1A7004B0BDE8F081012561
:10568000D8E700BF10000020D9040020F8B5102092
:10569000744C00F0BDFA42F21070FEF751FE237810
:1056A000002B00F08480704E704F3388B3F5967FE6
:1056B00003D86F4B1B78002B6FD06E4D2B88B3F542
:1056C000907F49D1402000F0A3FA822000F0A0FA98
:1056D000402000F04FFA00232B802B8801332B80D1
:1056E000654B1B7813B1654B1B7813B1644B1B786A
:1056F00083B1644D2B78FF2B32D00C2000F088FA58
:105700004EF66020FEF71CFE287801F0FFFD0C200D
:1057100000F030FA402000F07BFA01F0F5FC05467D
:10572000402000F027FA15BB00F00EFB00233B8061
:1057300000F028FB3388B0F5167F0344338004BFA4
:10574000002323703B88002B79D04EF6602058430D
:10575000BDE8F84000F04EBA022000F059FABCE76C
:10576000082000F055FA02F081FA0820D0E7404AFC
:1057700000233380137000F0E7FA002DD6D0EB7BC6
:105780002A7C43EA02233B806B7B002BD0D0284647
:1057900001F0C8FD0028C9D0CAE7402000F038FA5F
:1057A00001F048FD0546402000F0E4F9E3E7364DFE
:1057B0002B7863B1DA0701D5242B08D9402000F0FB
:1057C00027FA802000F024FA402000F0D3F940208E
:1057D00000F01EFAFFF722FF2070402000F0CAF907
:1057E000237813B9264B1B7843B1234B1B7813B195
:1057F000224B1B7813B12B78232B16D10820214E76
:1058000000F006FA4EF66020FEF79AFD3378FF2B83
:105810001AD0042000F0FCF9307801F077FD042064
:1058200000F0A8F9082000F0A5F92378ABB1002317
:105830002B700F4BFD2228201A7000F08FF900F01A
:10584000A1FA4FF47A7382E72B78222B02D902F067
:105850001BFBE7E702F0C8FAE4E7012000F05CFA7E
:10586000EFE700BFF01800207C0600208006002033
:1058700088060020860600207E060020FD180020F5
:10588000FE180020200000208206002009220821A6
:10589000014802F0EFBB00BF2406002037B54FF4EB
:1058A000E1316148614C03F0EFF94FF4967003F079
:1058B000FBFB00F0FFF8112000F0AAF95C4BFC2282
:1058C00042F210701A70FEF73BFD5848FEF711FDCA
:1058D00000252B5DFF2B58D10135082DF9D15548F6
:1058E00004F08CFA284600F093F902F023FB1C2008
:1058F00000F040F94FF0FF3000F07CF9BFF34F8F1C
:105900004D494E4BCA6802F4E0621343CB60BFF3CB
:105910004F8F00BFFDE72B7843F020032B7008204A
:1059200000F076F902F008F9082000F071F947F26A
:105930003050FEF705FDFFF727FE414C207042F284
:105940001070FEF7FDFC23788BB13E4804F056FA48
:1059500002F08CF9282000F001F9182000F00AF973
:1059600041F2883003B0BDE8304000F043B936481A
:1059700004F044FA02F038FA4FF4167000F0EEF832
:10598000182000F0F7F83148ECE7314B1D780A2277
:105990006420B5FBF2F3B5FBF0F102FB135300FBFF
:1059A00011502C4D00952C4DC0B2DBB2B0FBF2F281
:1059B0002A4804F09BF92B7862782178284863F014
:1059C0003F032B7004F092F9E278A178254804F0A7
:1059D0008DF962792179234804F088F9E279A17977
:1059E000214804F083F9402000F012F9822000F0F1
:1059F0000FF9402000F0BEF8042000F009F901F092
:105A0000D7FF042000F0B6F800F052F8012882D049
:105A1000022884D10D48FEF793FC082000F0F8F826
:105A200002F06CF8FEE700BF00190020F518002016
:105A3000880600207BB1000000ED00E00400FA05BC
:105A4000F018002064B100006EB10000C0D4010065
:105A5000A2D10000A3D100006606002092B1000090
:105A6000A7B10000ABB10000B4B1000010B503480D
:105A7000144602F089FF204610BD00BF0019002027
:105A8000024B04221A70FEF793BC00BF8806002068
:105A9000024B05221A70FEF78BBC00BF880600205F
:105AA000024B03221A70FEF783BC00BF8806002059
:105AB0000020704708B50121102003F073FB01217D
:105AC000112003F06FFB0121122003F06BFB012179
:105AD000102003F03FFB0121112003F03BFB0121CB
:105AE000122003F037FB02211C2003F033FB0221BC
:105AF0001D2003F02FFB03210A2003F02BFB0321C1
:105B00000B2003F027FB00210D2003F023FB0121D4
:105B10000E2003F01FFB01210F2003F01BFB0121CE
:105B20000C2003F03FFB01210C2003F013FB0322A8
:105B300007491C2003F002FA032206491D2003F046
:105B4000FDF9042204490B20BDE8084003F0F6B932
:105B5000815A0000915A0000A15A0000044B18809D
:105B600058809880D880188158819881D881704752
:105B700068060020410638B5044602D50020FFF72C
:105B8000CDF814F0040F174D0BD0FFF754FB012193
:105B90000C2003F007FB2B781BB101210C2003F034
:105BA00001FB220707D5012000F086FB00F0ACFBCB
:105BB000002000F081FB2B7823B90B4B1B780BB92D
:105BC0000A4A1370A3060CD5094C23784BB1002167
:105BD000082003F0BFFA0021092003F0BBFA0023DC
:105BE000237038BD7A060020AD0700208306002010
:105BF0007B06002010B501460446044804F076F800
:105C00002046BDE81040FEF765BF00BFBEB10000F2
:105C100070B5C607044603D547F23050FEF790FB37
:105C2000250706D5334B0120187000F045FB00F026
:105C300087FB200617D52F4D0120012600F03CFBE5
:105C40002E7000F0D1FB2C4B188040F69113984237
:105C50002A4B88BF00224FF0000094BF1E701A70BC
:105C6000287000F029FB610727D5224B01221A700A
:105C7000234B1B780BBBFFF7E1FAF0B9214804F086
:105C8000BDF84020FFF776FF0820FFF7C1FF02F0C4
:105C90001BF90C20FFF76EFF4FF0FF30FFF7AAFF54
:105CA000BFF34F8F1849194BCA6802F4E0621343DF
:105CB000CB60BFF34F8F00BFFDE762060AD5FFF749
:105CC0005BF8134B1878A0F10B03102B88BF0B2047
:105CD000FFF714F8A3060CD50E4C23784BB901211D
:105CE000092003F037FA0121082003F033FA0123D9
:105CF000237070BD83060020640600207E0600200D
:105D00007A060020D4B1000000ED00E00400FA059E
:105D1000F01800207B060020094A20B11378FF2BE1
:105D20001CBF013313701378172B05D9232B05489B
:105D300098BF4FF4E15070474FF46160704700BF67
:105D4000820600208051010010B50B4B0B491B78D7
:105D50000B4803EB8303C3EBC3031B010E229BB26F
:105D6000B3FBF2F30A7802F00704013228330A7019
:105D700020F8143010BD00BF7906002078060020FE
:105D80006806002000230549184631F81320013326
:105D90001044082B80B2F8D1C00870476806002074
:105DA00008B50121142003F0D5F901210620BDE832
:105DB000084003F0F7B910B500210446062003F0AF
:105DC000F1F90021052003F0EDF92046FEF7F0FE81
:105DD00001210620BDE8104003F0E4B938B50546BE
:105DE0000C460620002103F0DDF90021052003F018
:105DF000D9F92846FEF7DCFE0121052003F0D2F98F
:105E00002046FEF7D5FE01210620BDE8384003F00C
:105E1000C9B970B506460D4606200021144603F0A8
:105E2000C1F90021052003F0BDF93046FEF7C0FEA0
:105E30000121052003F0B6F92846FEF7B9FE2046F9
:105E4000FEF7B6FE01210620BDE8704003F0AAB9B6
:105E500010B500210446062003F0A4F90021052016
:105E600003F0A0F92046FEF7A3FE01210520BDE8BE
:105E7000104003F097B910B500210446062003F046
:105E800091F90021052003F08DF92046FEF790FEE0
:105E90000021142003F05EF901210520BDE8104027
:105EA00003F080B970B53220FFF7D2FF0A4E0B4DD8
:105EB00000243378E2B203EB8303B2EB430F04F127
:105EC000010403DAA85CFEF773FEF2E70121062065
:105ED000BDE8704003F066B9AC0700208C060020D6
:105EE00070B5114C667805461EB9BDE87040FEF7E6
:105EF0005FBE40FA06F320781843C0B22070FEF768
:105F000057FEA378E278C6F108000133DBB205FA48
:105F100000F0C0B29A422070A37004D1FEF748FE90
:105F200000232370A37070BD0C07002038B508252E
:105F300000240121132003F035F90120013800BFAE
:105F400000BF00BF00BF00BF00BF00BF00BF00BF59
:105F500000BF00BF00BF00BF00BF00BF00BF00BF49
:105F600000BF00BF00BF00BF00BF00BF00BF00BF39
:105F700000BF00BF00BF00BF00BF00BF00BF00BF29
:105F800000BF00BF00BF00BF00BF00BF00BF00BF19
:105F900000BF00BF00BF00BF00BF00BF00BF00BF09
:105FA00000BF00BF00BF00BF00BF00BF00BF00BFF9
:105FB00000BFC3D114206400E4B203F005F908B1B6
:105FC0000134E4B20021132003F0ECF80120013881
:105FD00000BF00BF00BF00BF00BF00BF00BF00BFC9
:105FE00000BF00BF00BF00BF00BF00BF00BF00BFB9
:105FF00000BF00BF00BF00BF00BF00BF00BF00BFA9
:1060000000BF00BF00BF00BF00BF00BF00BF00BF98
:1060100000BF00BF00BF00BF00BF00BF00BF00BF88
:1060200000BF00BF00BF00BF00BF00BF00BF00BF78
:1060300000BF00BF00BF00BF00BF00BF00BF00BF68
:1060400000BF00BFC3D1013D15F0FF057FF471AF64
:10605000204638BDF8B53E4D3E4E2C783288012C96
:10606000D3B237D1DB4303F0070304FA03F3DFF8BD
:10607000E8C05BB20024C4F1070741FA07F7FF0745
:1060800042BF14F80C701F4304F80C700134082C44
:10609000F1D1DFF8C4C0072140FA01F4E40741BFA1
:1060A000ACEB0107FC7B1C43FC7311F1FF31F3D215
:1060B00001323280348814F0070448D1264E2A7801
:1060C000E3B2B3EB021F04F1010439DAF05CFEF72E
:1060D0006FFDF4E703F00703C3F106030324DBB20B
:1060E00004FA03F31C4F5BB20024C4F1070C41FA1D
:1060F0000CFC1CF0010F0DD017F814C043EA0C0C77
:1061000007F814C007EB440E9EF801C043EA0C0CDC
:106110008EF801C00134082CE7D10F49072440FA5A
:1061200004F7FF0705D50F7C1F430F744F7C1F43F7
:106130004F74013C671C01F10201F0D10232B8E753
:10614000202200210448BDE8F84003F01FBDF8BD3F
:10615000170000208A0600200C0700202DE9F843D4
:10616000224B93F80080B8F1020F07460D4633D159
:1061700003260724002047FA04F3DA0704F0030992
:1061800041BF4FEA490306FA03F31843C0B2B9F11D
:10619000000F02D1FFF7A4FE484614F1FF34EAD203
:1061A000072445FA04F3DB0704F0030941BF4FEA73
:1061B000490306FA03F31843C0B2B9F1000F02D144
:1061C000FFF78EFE484614F1FF34EAD2B8F1010F12
:1061D00009D04FF00108CCE7FFF782FE2846BDE862
:1061E000F843FFF77DBEBDE8F88300BF170000202D
:1061F000084B1B78072B0CBF074B084B00EB8000AC
:106200001A680CBF233032301118002313500B7161
:10621000704700BFAC0700201C00002018000020C1
:106220000C4B1B78072B4FEA800309D10A4A1268EE
:106230000344134493F82720520883F8272070471B
:10624000064A12680344134493F83620520883F830
:1062500036207047AC0700201C00002018000020EA
:10626000124B1B78072B10D1114B00EB80001B68E1
:1062700000F122021A442633184412F8013F5B0849
:10628000013382421370F8D170470A4B00EB800053
:106290001B6800F131021A443533184412F8013FEB
:1062A0005B08013382421370F8D17047AC070020BD
:1062B0001C0000201800002038B5124C22788242C1
:1062C00005461DD0D8B10121042002F043FF012171
:1062D000022002F03FFF0121062002F03BFF0121D6
:1062E000052002F037FF0021032002F033FF0121D7
:1062F000132002F02FFF0121142002F02BFF257044
:1063000038BD00BFAD07002008B50021042002F011
:1063100049FF0A2002F0C8FE0121042002F042FFDA
:10632000322002F0C1FE1320FFF745FD0F20FEF7DB
:10633000FBFB03211020BDE80840FFF74FBD000024
:1063400008B50C2002F0B0FE0021042002F02AFF64
:10635000142002F0A9FE0121042002F023FF1420E2
:1063600002F0A2FE1220FFF726FD0A2002F09CFE9A
:106370001320FFF720FD0A2002F096FE542174201E
:10638000FFF72CFD3B217E20FFF728FD632204212F
:106390002B20FFF73EFD0120FFF75AFD2720FEF7D7
:1063A00007FC0120FEF704FC0020FEF701FC0121A0
:1063B000062002F0F7FE01213C20FFF70FFD8021AF
:1063C0001820FFF70BFDB1212220FFF707FD202049
:1063D000FFF7F1FC4FF47A70FEF7A6FB014B0022A9
:1063E0001A7008BD8906002038B5322002F05CFE24
:1063F0000021042002F0D6FE322002F055FE0121D9
:10640000042002F0CFFE322002F04EFE1220FFF7F1
:10641000D2FC1E20FEF788FB1320FFF7CCFC1E20C9
:10642000FEF782FBC0212220FFF7D8FC2020FFF7D7
:10643000C2FC6420FEF778FB032421461520FFF7F9
:10644000CDFC6420FEF770FB2F20FFF714FDFFF753
:106450006DFD0546FFF7A4FCEB0613D504EB8404A1
:1064600004EB8404A40004F23A74A4B21320FFF7EE
:10647000A2FC0F20FEF758FB03211020FFF7AEFC13
:10648000204638BD0134E4B2082CD6D140F6282489
:10649000ECE7000070B5614C1028054623782646CD
:1064A0000CD15F4B5F491A785F4802EB82025200C1
:1064B00003F061FBFFF7F6FC257070BD53B1B1210D
:1064C0002220FFF78BFC2020FFF775FC4FF47A7039
:1064D000FEF72AFB3570002DEFD03320FFF7CBFC01
:1064E000514E0024FFF722FD30550134802CF9D1A4
:1064F0004B4CFFF755FC237813BB4C4B7C2113F816
:10650000012D587890420AD19A78824207D1D878E2
:10651000904204D10139C9B21029F0D100210131D2
:106520000A23C9B24248B1FBF3F1217003F0DEFB4C
:1065300022783D493B4802EB8202520003F01BFBEC
:10654000022D4FF0000039D0032D49D0FFF750FE47
:106550000120FFF74DFE2378072B0BBF354A364A43
:10656000126812684FF000030CBF82F8313082F8D5
:1065700040300320FFF774FE0420FFF771FE042073
:10658000FFF74EFE0520FFF76BFE0520FFF748FEE4
:106590000620FFF72DFE23780A2B0BD10620FFF7EC
:1065A00027FE0720FFF724FE0820FFF721FE092021
:1065B000FFF71EFEBDE87040FFF774BCFFF718FE42
:1065C0000120FFF715FE2846FFF712FE0320FFF714
:1065D00047FE0520FFF70CFE0420FFF709FED7E772
:1065E000FFF706FE0120FFF703FE0220FFF700FE83
:1065F0002378072B0BBF0F4A0F4A126812684FF01F
:1066000001030CBF82F8363082F845300320FFF7D3
:1066100027FE0420FFF7ECFD0520DEE789060020B9
:10662000AC0700202C0700208C0600200907002062
:10663000E7B100001C00002018000020CA08013A41
:10664000C0F3C701D2B24420FFF7E3BB38B505461B
:1066500045200C46FFF7FCFBE8B2FEF7A9FA013C27
:10666000280AFEF7A5FAE0B2FEF7A2FAC4F3072063
:10667000FEF79EFA01210620BDE8384002F092BDE7
:1066800010B50C46C0F3C7014E20FFF7A7FB4F2003
:10669000FFF7DEFBE0B2FEF78BFA200AFEF788FA7E
:1066A00001210620BDE8104002F07CBD41EA001146
:1066B000C9B22120FFF792BB08B5A8210820FFF737
:1066C000BDFF4FF494710020FFF7C0FF0021084682
:1066D000FFF7D6FF03211120FFF780FB662147203B
:1066E000FFF77CFB6420FEF71FFA46206621FFF7C8
:1066F00075FB6420BDE80840FEF716BA08B5F7211F
:106700002220FFF76BFB2020FFF755FB0448FEF724
:106710000BFA01210C20BDE8084002F043BD00BF88
:10672000A08601000148FEF7FFB900BFC0D40100F8
:1067300008B508212120FFF751FBA8210820FFF709
:106740007DFF4FF494710020FFF780FF032111209B
:10675000FFF744FB00210846BDE80840FFF790BF63
:1067600008B540B12620FFF773FB01210620BDE8E4
:10677000084002F017BD2420F5E70121062002F0B1
:1067800011BD2DE9F0411746027845780831984649
:106790008EB253074FEAD20118BF013104464D4370
:1067A00006EBC10189B23046FFF748FF61783944F2
:1067B00089B23846FFF74AFF39463046FFF760FF97
:1067C00003211120FFF70AFBB8F1000F0CD026209F
:1067D000FFF73EFB0235A61C2C44A64206D016F855
:1067E000010BFEF7E5F9F8E72420F1E70121062087
:1067F000BDE8F04102F0D6BC704700002D4A00EB26
:10680000800170B502EB810100230124CD5C0133CE
:10681000002D18BF0024142BF8D1002C39D103FB14
:1068200000231D5D191925B9497811B90234E4B264
:10683000F7E71423142503FB0023591911F8016C01
:106840002EB911F8021C11B9023DEDB2F5E714267C
:1068500006FB0026184BA54219780ED93319325D74
:10686000587829B11146FFF779FC0234E4B2F1E718
:1068700001461046FFF7EEFBF7E729B10021084675
:10688000BDE87040FFF76ABC0846BDE87040FFF7FE
:10689000E1BB094D0824297841B100210846FFF7E2
:1068A0005DFC013C14F0FF04F5D170BD0846FFF714
:1068B000D1FBF6E7F6B10000160000202DE9F84301
:1068C0000F4631499DF820600A7001332F4900F1CD
:1068D0000804DBB28046A4B20B70894672B304F0A0
:1068E0000705A9B22A4A002029B35B005570107031
:1068F0009070D370082501213846FFF7A7FE99F85C
:106900000030022B0CBF08F1280808F11808A9B2C2
:10691000414489B22046FFF791FE39462046FFF7F1
:10692000AFFE01211120FFF759FA56B32620BDE82A
:10693000F843FFF78DBA51700D46DCE7022B05BF17
:1069400024F0010407F1200107F11001A4B2384638
:1069500089B2FFF77BFE39462046FFF791FE0D4BCB
:1069600004F10800A82180B21C80FFF767FE072110
:106970001120FFF733FA20220021054803F006F921
:10698000D3E72420D3E700BF160000201700002023
:106990000C0700208A0600200D4B70B51C7884B9C6
:1069A0000C4B1B885B070CD00B4E0C4D3278E3B2BE
:1069B000B3EB021F04F1010403DAE85CFEF7F8F818
:1069C000F4E701210620BDE8704002F0EBBB00BFF8
:1069D000160000208A060020170000200C07002067
:1069E0000FB410B5ADF5027D84AA02A852F8041BBD
:1069F000019203F059FA0DF1070414F8010F10B1D8
:106A0000FFF7FCFEF9E70DF5027DBDE8104004B08C
:106A100070470000BFF34F8F0549064BCA6802F468
:106A2000E0621343CB60BFF34F8F00BFFDE700BFB1
:106A300000ED00E00400FA0510B50849012200232A
:106A40008C180132A47D2344D4B2A042DBB2F7D823
:106A5000887DC31A5842584110BD00BFE507002089
:106A60000B4B187800F00702012A0FD15A7802F078
:106A7000CC02C82A03D1420608D4587C7047CC2ADD
:106A800004D110F0400002D0587D704700207047BC
:106A9000E50700202DE9F8430120FEF73FF9234CDC
:106AA000234E244F10251B2200212048DFF89C9004
:106AB00003F06CF8192323701F48204AEA23A375BA
:106AC00033680360736843603B6840F8083C7B6848
:106AD00040F8043C41236370CC23A370184B1B88FF
:106AE000A3801378E370591C0E381170FEF754FA26
:106AF00002F0C0FA804602F0BDFAA0EB08000528BB
:106B00000DD84846FEF724FA0128F4DDFFF7A8FF68
:106B1000EB28F0D10B48BDE8F84303F06FB9013D15
:106B200015F0FF05BFD10848F5E700BF6508002054
:106B3000F5180020AE07002073080020D2070020BF
:106B4000B6070020AFC80000B7C80000E507002066
:106B50002DE9F04FC64BC74CC74F85B00522B0F5A5
:106B6000805F1A70019304F10B0540F093802A2393
:106B70003B704FF0FF33C4F80B30AB80BF4BDFF8F6
:106B80003483009300221A70019B019A1D786B1EBA
:106B90001370002D00F09781617AB948DFF8E4B2F4
:106BA00003F0A4F84020FFF733F80120FEF7B6F811
:106BB000FEF7C6F84FF000090BF10E0A2A252A4607
:106BC0000021B04802F0E2FF009B8BF800501A78D9
:106BD000002A00F08280E722AB4B8BF816201A685F
:106BE000CAF80020A9485A68CAF80420A84A0168CF
:106BF0001160416851609BF80110A64801F0B8018E
:106C000041F041018BF801109BF8021041F0CC01DA
:106C10008BF8021001788BF803104D1C9E4905700B
:106C20000988ABF804109349113201F1100051F8B2
:106C3000045B42F8045B8142F9D1097811700021AC
:106C40000A460BEB01000131007E10290244D2B24A
:106C5000F7D18BF817205846FEF79EF902F00AFA92
:106C60000A268E4DB9FBF6F6073606448B48FEF72A
:106C70006FF9012840F38B80FFF7F2FEE928014607
:106C80002DD0EC2800F09180E8287DD10023EB7511
:106C90002B7629E06321031DB0FBF1F201FB12000A
:106CA00080B2B3FBF1F3DBB2A8B93B7000223E78AF
:106CB000C4F80B20AA800125D3B29E427FF65EAFB6
:106CC00004EBD30103F00703C87A05FA03F3034387
:106CD000CB720132F0E70133E7E7E4227CE70320DF
:106CE000FFF7AAFE002852D0B5F8170018B12228E5
:106CF00063D802F0D9F90120FEF710F802F0BAF9D2
:106D0000DFF8989100F5917B09F1190A02F0B2F9C8
:106D100083455CD94846FEF71BF90128F6DDFFF7ED
:106D20009FFEE828F2D1EA7D637A9A42EED12E7E68
:106D300006EB460303EB431341F202029342E5D80C
:106D40002A2EE3D840F6A172934283BFC3F5805246
:106D5000043292B263226620CDE90232FFF76CFE64
:106D6000DDE902320028D1D008EB0300514602F0E1
:106D700002FF04EBD602012306F00706B340D67AE1
:106D800026EA0306D672C1E7454802F0AFFF02F0DB
:106D900071F986423FF66AAF09F101095FFA89F994
:106DA000B9F11E0F3FF472AF08E73E4803F026F832
:106DB0000025284605B0BDE8F08F0A38FEF71AFF17
:106DC0005020FEF725FF0120FDF7A8FF93E70020E4
:106DD000FDF7A4FFFDF7B4FF4020FEF7CBFE3878A7
:106DE00000220125D3B298420CD904EBD30103F061
:106DF0000703C97A41FA03F313F0010F18BF002506
:106E00000132EFE7002D57D0274802F0F7FFB8F81E
:106E10000010B1F5805F13D9244802F0EFFF3D78F0
