:0400000300007A95EA
:1000000000600020B5090000DD090000DF090000E4
:10001000E1090000E3090000E5090000000000001C
:10002000000000000000000000000000E7090000E0
:10003000E909000000000000EB090000ED090000E4
:10004000EF090000EF090000C90E0000EF090000F1
:10005000EF090000EF090000EF090000EF090000C0
:10006000EF090000EF090000EF090000B5020000F1
:10007000EF090000EF090000EF090000EF090000A0
:10008000EF090000450F0000EF090000EF09000034
:10009000EF090000EF090000EF090000EF09000080
:1000A000EF090000EF090000EF090000EF09000070
:1000B000EF090000EF090000000000000000000050
:1000C000EF090000EF090000EF090000EF09000050
:1000D000EF090000EF090000EF0900000000000038
:1000E0000000000000000000000000000000000010
:1000F0000000000000000000000000000000000000
:1001000000000000000000000000000000000000EF
:1001100000000000000000000000000000000000DF
:1001200000000000000000000000000000000000CF
:1001300000000000000000000000000000000000BF
:1001400000000000000000000000000000000000AF
:10015000000000000000000000000000000000009F
:10016000000000000000000000000000000000008F
:10017000000000000000000000000000000000007F
:10018000000000000000000000000000000000006F
:10019000000000000000000000000000000000005F
:1001A000000000000000000000000000000000004F
:1001B000000000000000000000000000000000003F
:1001C000000000000000000000000000000000002F
:1001D000000000000000000000000000000000001F
:1001E000000000000000000000000000000000000F
:1001F00000000000000000000000000000000000FF
:1002000010B5054C237833B9044B13B10448AFF350
:1002100000800123237010BD780000200000000042
:100220003C2C000008B5034B1BB103490348AFF356
:10023000008008BD000000007C0000203C2C000075
:10024000154B002B08BF134B9D46A3F5803A0021A8
:100250008B460F461348144A121A01F0B5FB0F4B98
:10026000002B00D098470E4B002B00D09847002061
:10027000002104000D000D48002802D00C48AFF307
:10028000008001F075FB2000290000F071FE01F0F4
:100290005BFB00BF000008000060002000000000C1
:1002A0000000000078000020540200200000000040
:1002B0000000000073B5134CD4F84061012E1FD12B
:1002C0000023C4F84031104BD4F80455186801F0ED
:1002D00093F90E4901F09CFA4FF08E4101F0E4F9D8
:1002E00001F05CF80A4B002200F0FAFE01F0AEF8D3
:1002F0002844C4F84005D4F840310193019B66605E
:1003000002B070BD00B000400000002000007A4440
:100310000000E03F70B506460825002433064CBFB8
:10032000012100210F2000F07DFE0E20012176002A
:1003300000F078FE64000D20F6B2E4B200F084FE16
:1003400008B144F0010400210E20013D00F06AFED6
:1003500015F0FF05E2D1204670BD10B5002104461E
:100360000C2000F05FFE2046FFF7D4FF01210C2097
:10037000BDE8104000F056BE70B506460C460C2095
:100380000021154600F04EFE5A20FFF7C3FF002063
:10039000FFF7C0FF300AFFF7BDFFF0B2FFF7BAFF6B
:1003A0000020FFF7B7FF2544AC4205D00020FFF73F
:1003B000B1FF04F8010BF7E701210C20BDE8704004
:1003C00000F030BE0C2008B5002100F02BFE052007
:1003D000FFF7A0FF0020FFF79DFFC307FAD401211C
:1003E0000C2000F01FFE012008BD70B506460C462B
:1003F0000C200021154600F015FE0320FFF78AFFB0
:10040000C6F30740FFF786FFC6F30720FFF782FF1A
:10041000F0B2FFF77FFF2544AC4205D00020FFF784
:1004200079FF04F8010BF7E701210C20BDE87040CB
:1004300000F0F8BD2DE9F341AB20FFF78EFF082255
:1004400069460020FFF798FF9DF80030532B0FD12D
:100450009DF80130462B0BD19DF80230442B07D17B
:100460009DF80330502B03D19DF80730FF2B34D07B
:100470006D4801F0CDFB00210C2000F0D3FD902051
:10048000FFF748FF0020FFF745FF0020FFF742FF7E
:100490000020FFF73FFF0020FFF73CFFC22809D1F3
:1004A000624B202200201A70FFF734FF052803D08A
:1004B00012280ED0002404E05D4B4FF480321A6005
:1004C000012401210C2000F0ADFD204602B0BDE862
:1004D000F081574B4FF40022F1E79DF805100129F8
:1004E00006D09DF80420534801F01EFB0024ECE7E1
:1004F0009DF80640FF2C08BFFE240025E8B201301D
:1005000008226946C000FFF737FF9DF80030002B36
:1005100040F083809DF80230012B7ED19DF803309E
:10052000082B7AD9444CBDF8040024222146FFF759
:1005300023FF237803F00302012A204604D03F481A
:1005400001F066FB3E4845E05A0701D43D48F7E715
:10055000A37813F0060F01D03B48F1E765786B1ED6
:10056000DBB2FD2B01D93948EAE7304BE2791D7047
:10057000130601D53648E3E77AB32D4B4FF400114B
:1005800019602B4B196854104900E2B2002CFAD1C3
:100590001960304A304992F800C091F800E01C27F9
:1005A0002346A046C4196478661EF6B2FD2E24D8F0
:1005B000C65D0F2E2ED0102E1CD00C2E1DD1A542A4
:1005C0001BD0B8F1000F01D081F800E00BB182F828
:1005D00000C0224801F01CFB88E7A2791AB1144B35
:1005E0004FF40051CCE7627912B1114B2021C7E7DB
:1005F0001B48A5E7A6464FF001080237242FD1D1AA
:10060000B8F1000F01D081F800E00BB182F800C012
:1006100001245AE7A4460123EFE70135EBB29C42DF
:10062000BFF46CAF8EE700BF8C290000980000205B
:1006300094000020A32900009B000020BF29000097
:10064000602A0000CF290000E8290000FC290000F2
:10065000182A0000990000209A000020452A000076
:100660002D2A00002DE9F04105460F4616468EB3AF
:100670005FFA85F8C8F58074A4B2B4424FF0060062
:1006800028BF3446FFF769FE00210C2000F0CAFCA9
:100690000220FFF73FFEC5F30740FFF73BFEC5F31F
:1006A0000720FFF737FE4046FFF734FE07EB04084C
:1006B000474504D017F8010BFFF72CFEF8E701219E
:1006C0000C2000F0AFFCFFF77DFE20B12544341B69
:1006D000A6B2CCE70120BDE8F08100001FB50C22D6
:1006E00001A94FF44030FFF780FE074B029A9A426F
:1006F00007D10398054BC31A5842584105B05DF81D
:1007000004FB0020FAE700BFBAABBAABEFBEADDE28
:100710001FB50C2201A94FF44030FFF766FE019887
:1007200005B05DF804FB00001A4B022230B5C3F897
:100730000425D3F80024002AFBD0C3F80805D3F819
:100740000024002AFBD00022C3F80425114B1A46CE
:10075000D3F80044002CFBD00124C3F80445D2F8A0
:100760000034002BFBD00B4A0B1F01F6FC74401A1F
:10077000114653F8045FC550D2F80054002DFBD049
:10078000A342F6D10023C2F80435D1F80034002B7F
:10079000FBD030BD00E001401FB504A9002341F8A3
:1007A0000C3D0C224FF44030CDE90233FFF75AFFE5
:1007B00005B05DF804FB08B50121102000F032FC03
:1007C0000121112000F02EFC0121122000F02AFC52
:1007D0000121102000F0FEFB0121112000F0FAFBA6
:1007E0000121122000F0F6FB02211C2000F0F2FB98
:1007F00002211D2000F0EEFB03210A2000F0EAFB9D
:1008000003210B2000F0E6FB00210D2000F0E2FBAD
:1008100001210E2000F0DEFB01210F2000F0DAFBA9
:1008200001210C2000F0FEFB01210C20BDE8084056
:1008300000F0D0BB80B400AF72B6074A4FF48043DB
:1008400093601B6883F3088844F204031B6862B654
:10085000BD4680BC184700BF00ED00E010B5002188
:10086000044600F0DFFB032000F05EFB2046012180
:10087000BDE8104000F0D6BBF8B5FFF749FF0F24E4
:1008800005461220FFF7EAFF013C462000F04CFB32
:1008900014F0FF04F5D1A5F50053B3F5283F0BD9AB
:1008A00014241020FFF7DAFF013C642000F03CFB29
:1008B00014F0FF04F5D1F8BD29461848184F01F08F
:1008C00033F94FF4805001F077F806464FF4805228
:1008D00020463146FFF789FD04F580403146FFF799
:1008E00023FF2146384601F01FF904F580541220F9
:1008F000FFF7B4FFA542E9D80A4801F089F90021C1
:10090000112000F08FFB4FF4FA7000F00DFB012175
:100910001120BDE8F84000F085BB00BF8F2A000021
:10092000B32A0000C92A00007047000008B54FF440
:10093000E1310E4800F084F94FF4967000F0F4FABB
:100940000B4801F065F9FFF736FFFFF773FDFFF77E
:10095000C5FE38B1FFF790FFFFF71EFFBDE8084066
:10096000FFF768BF1120FFF779FFF7E7DC010020F0
:10097000E22A000010B50348144600F005F82046AE
:1009800010BD00BFDC0100202DE9F04106460D46F8
:1009900001EB02080C464445A4EB050707D0336879
:1009A00014F8011B1B68304698470028F3D13846DD
:1009B000BDE8F0810649074A074B9B1A03DD043B5B
:1009C000C858D050FBDC00F039F8FFF739FC0000C4
:1009D000482C00000000002078000020FEE7FEE721
:1009E000FEE7FEE7FEE7FEE7FEE7FEE7FEE7FEE7DF
:1009F000074B1B78062B09D1064B1B68C3F3031367
:100A0000033B032B02D8044AD05C70470020704798
:100A1000E00F00F0E80F00F0F02A0000054B186826
:100A2000421C04BF044B187820F00800831F584272
:100A30005841704730010010E00F00F008B56C4BD2
:100A40001B685A1C04BF6B4B1B78062B05D16A4BE5
:100A50006A4A1B68C3F304231360FFF7C9FF10B190
:100A6000674B684A1A60FFF7D9FF28B1664B674A9F
:100A70001B68C3F342331360FFF7BAFF20B1644A27
:100A8000D36823F08073D360FFF7C8FF40B14FF005
:100A900080430022C3F80C21C3F81021C3F8382585
:100AA000FFF7A6FF10B15B4B03221A60FFF7A0FF10
:100AB00040B1594B05221A6001229A6700229A60C0
:100AC0003F225A604A4B1A68501C0BBF494B534B8C
:100AD0001A781B6802BF08331B68C3F30313062A86
:100AE0004ED1033B032B03D84D4AD35C002B49D096
:100AF0004FF080524B4BD2F80414C3F82015D2F8B3
:100B00000814C3F82415D2F80C14C3F82815D2F829
:100B10001014C3F82C15D2F81414C3F83015D2F8F9
:100B20001814C3F83415D2F81C14C3F84015D2F8C1
:100B30002014C3F84415D2F82414C3F84815D2F889
:100B40002814C3F84C15D2F82C14C3F85015D2F859
:100B50003014C3F85415D2F83414C3F86015D2F821
:100B60003814C3F86415D2F83C14C3F86815D2F8E9
:100B70004014C3F86C15D2F84424C3F8702501E082
:100B80000E2AB5D01A4B1B68591C04BF194B1B7891
:100B9000062B05D1244B254A1B6803F04F03136035
:100BA000FFF73CFF48B14FF08043D3F80024D20751
:100BB00044BF6FF00102C3F800240D4B1B68062BE5
:100BC00009D1164B1B68033B022B81BF184A1368DF
:100BD00043F480631360064B1B680E2B01BF134A5E
:100BE000136843F00F031360124B134A1A6008BDD9
:100BF00030010010E00F00F02403001040350140E8
:100C000074C007400DF0ADBA440200103C0500402E
:100C1000F0ED00E0A0050040105600403401001047
:100C2000EC2A000000C0004058020010E40E004012
:100C30003C170040040000200090D00301207047C2
:100C400003681322DB69184770470369C3F81C1552
:100C50000369D3F81C21002AFBD00022C3F81C2111
:100C60000120704710B490F95C30144C59090122EE
:100C7000203103F01F0302FA03F344F82130036923
:100C800010BC0421C3F8081303695A600369DA60D1
:100C900003690022C3F8002502694FF0FF33C2F850
:100CA0000C350269C2F814350269C2F808350269C8
:100CB0001430C2F8103500F0EDB900BF00E100E0DB
:100CC000143000F0F9B9143000F0FCB9143000F021
:100CD000E5B90000036990F85E2010B5C3F80C2553
:100CE000036990F85D20C3F8142590F8612003692A
:100CF000012A01BF90F85F40C3F81045036990F8DE
:100D0000604006BFC3F8084503690022B1F5966F3D
:100D1000C3F86C2569D9B1F5166F69D9B1F5965F3D
:100D200069D9B1F5165F68D9B1F5615F67D9B1F5D9
:100D3000964F66D9B1F5E14F65D9B1F5164F64D933
:100D4000B1F5614F64D9B1F5963F64D9B1F5E13F92
:100D500063D9B1F5613F63D9364B994263D9B1F597
:100D6000E12F63D9B1F5612F94BF4FF070634FF05D
:100D700080530269C2F8243503690422C3F80025B0
:100D800001690023C1F808310169C1F81C3101690A
:100D900001230B6001698B600169C1F8042390F99C
:100DA0005C20510902F01F0293406031224A42F850
:100DB000213090F95C30002BBDBF03F00F0302F629
:100DC000FC32D2189B18B5BF60236022137683F8DB
:100DD000002390F95C300122590903F01F0302FA45
:100DE00003F3154A42F8213010BD4FF49E23C0E7AB
:100DF0004FF41D23BDE7114BBBE7114BB9E7114B76
:100E0000B7E7114BB5E7114BB3E74FF41D03B0E75C
:100E10004FF46B03ADE70E4BABE74FF0EB73A8E776
:100E20004FF06C73A5E74FF08063A2E74FF0E863E3
:100E30009FE700BF90D0030000E100E000B0130086
:100E40000050270000F03A0000A04E0000C07500DE
:100E500000903A012DE9F0411E4600254FF47A73C7
:100E6000C0E901530D4B044640F8143B1746884631
:100E700000F0FCF80A4AC4F8108084F85C7052F85C
:100E8000263084F85D309DF8183052F8233084F80D
:100E90005E3084F861502046BDE8F081FC2A0000F5
:100EA000242B000010B50369D3F8082104464AB189
:100EB000D3F818151430C9B200F0E1F82369002204
:100EC000C3F8082110BD00000148FFF7EBBF00BFC9
:100ED000DC01002007B51923009302221A230349DD
:100EE0000348FFF7B7FF03B05DF804FB00200040A4
:100EF000DC0100200A4B19680A4B30B5D3F8040511
:100F00000C060D0A44EA00024FF47A712B46A2FB4C
:100F1000014501FB0355E00B40EA454030BD00BFF1
:100F2000400200200010014038B5044648B1FFF7E8
:100F3000E1FF054600F01AF8FFF7DCFF401BA04276
:100F4000F8D338BD074B0022C3F8042182B0D3F890
:100F50000431054A0193019B13680133DBB213602E
:100F600002B07047001001404002002070477047F7
:100F700008B500F011F8FFF7FAFF0120FFF7D4FFE2
:100F8000FFF7D4FC034CFFF7CFFC002CFBD0AFF3F2
:100F90000080F8E7000000000D4BE02283F81123E9
:100FA0004FF40032C3F880211A604FF080430021D3
:100FB0000122C3F818159A6003F58833C3F80815A1
:100FC0000221C3F80413C3F844131A60704700BF2A
:100FD00000E100E01F280FD8114B53F820300329FF
:100FE0000AD8DFE801F002160A1003F5E0734FF0AB
:100FF000A042002142F82310704703F5E0734FF040
:10100000A0420C21F6E703F5E0734FF0A042042163
:10101000F0E703F5E0734FF0A0420321EAE700BFD9
:10102000242B00001F280CD8064B53F82020012346
:1010300093404FF0A04211B9C2F80C357047C2F886
:1010400008357047242B00001F289FBF4FF0A04396
:10105000054AD3F8103552F820009ABF23FA00F061
:1010600000F0010000207047242B000008B540224A
:10107000002100F0A9FC0022C0E9102208BD026C8A
:1010800010B5531C446C03F03F039C421CBF8154B9
:10109000036410BD0023C0E910337047D0E910236A
:1010A00093421FBFC25C013303F03F03436414BF8C
:1010B00010464FF0FF307047D0E91030181A48BF83
:1010C00040307047D0E91023934214BFC05C4FF00A
:1010D000FF30704781F0004102E000BF83F0004321
:1010E00030B54FEA41044FEA430594EA050F08BFC3
:1010F00090EA020F1FBF54EA000C55EA020C7FEA87
:10110000645C7FEA655C00F0E2804FEA5454D4EB03
:101110005555B8BF6D420CDD2C4480EA020281EACD
:10112000030382EA000083EA010180EA020281EA05
:101130000303362D88BF30BD11F0004F4FEA013157
:101140004FF4801C4CEA113102D0404261EB410166
:1011500013F0004F4FEA03334CEA133302D05242EC
:1011600063EB430394EA050F00F0A780A4F10104A8
:10117000D5F1200E0DDB02FA0EFC22FA05F28018E2
:1011800041F1000103FA0EF2801843FA05F35941C8
:101190000EE0A5F120050EF1200E012A03FA0EFC47
:1011A00028BF4CF0020C43FA05F3C01851EBE37171
:1011B00001F0004507D54FF0000EDCF1000C7EEB8E
:1011C00000006EEB0101B1F5801F1BD3B1F5001FCC
:1011D0000CD349085FEA30004FEA3C0C04F10104EB
:1011E0004FEA445212F5800F80F09A80BCF1004F14
:1011F00008BF5FEA500C50F1000041EB045141EA96
:10120000050130BD5FEA4C0C404141EB010111F496
:10121000801FA4F10104E9D191F0000F04BF014641
:101220000020B1FA81F308BF2033A3F10B03B3F11F
:1012300020020CDA0C3208DD02F1140CC2F10C02AF
:1012400001FA0CF021FA02F10CE002F11402D8BF0D
:10125000C2F1200C01FA02F120FA0CFCDCBF41EAD9
:101260000C019040E41AA2BF01EB0451294330BDA8
:101270006FEA04041F3C1CDA0C340EDC04F1140485
:10128000C4F1200220FA04F001FA02F340EA03005C
:1012900021FA04F345EA030130BDC4F10C04C4F1A2
:1012A000200220FA02F001FA04F340EA0300294682
:1012B00030BD21FA04F0294630BD94F0000F83F4CC
:1012C000801306BF81F480110134013D4EE77FEAAF
:1012D000645C18BF7FEA655C29D094EA050F08BFFB
:1012E00090EA020F05D054EA000C04BF19461046DC
:1012F00030BD91EA030F1EBF0021002030BD5FEA20
:10130000545C05D14000494128BF41F0004130BD47
:1013100014F580043CBF01F5801130BD01F000459B
:1013200045F0FE4141F470014FF0000030BD7FEA0E
:10133000645C1ABF194610467FEA655C1CBF0B4609
:10134000024650EA013406BF52EA033591EA030F20
:1013500041F4002130BD00BF90F0000F04BF002118
:10136000704730B54FF4806404F132044FF000054B
:101370004FF0000150E700BF90F0000F04BF0021C4
:10138000704730B54FF4806404F1320410F000452A
:1013900048BF40424FF000013EE700BF42004FEA25
:1013A000E2014FEA31014FEA02701FBF12F07F43A2
:1013B00093F07F4F81F06051704732F07F4208BF59
:1013C000704793F07F4F04BF41F40021704730B560
:1013D0004FF4607401F0004521F000411CE700BFAC
:1013E00050EA010208BF704730B54FF000050AE02F
:1013F00050EA010208BF704730B511F0004502D530
:10140000404261EB41014FF4806404F132045FEA31
:10141000915C3FF4D8AE4FF003025FEADC0C18BFDA
:1014200003325FEADC0C18BF033202EBDC02C2F1CC
:10143000200300FA03FC20FA02F001FA03FE40EA5E
:101440000E0021FA02F11444BDE600BF4A0011D299
:1014500012F5001211D20DD56FF47873B3EB62520E
:101460000ED44FEAC12343F0004343EA505323FA1A
:1014700002F070474FF00000704750EA013002D18F
:101480004FF0FF3070474FF00000704780F0004091
:1014900002E000BF81F0004142001FBF5FEA41034C
:1014A00092EA030F7FEA226C7FEA236C6AD04FEA4C
:1014B0001262D2EB1363C1BFD21841404840414091
:1014C000B8BF5B42192B88BF704710F0004F40F443
:1014D000000020F07F4018BF404211F0004F41F45F
:1014E000000121F07F4118BF494292EA030F3FD02B
:1014F000A2F1010241FA03FC10EB0C00C3F120033E
:1015000001FA03F100F0004302D5494260EB4000CC
:10151000B0F5000F13D3B0F1807F06D340084FEA37
:10152000310102F10102FE2A51D2B1F1004F40EB2C
:10153000C25008BF20F0010040EA03007047490094
:1015400040EB000010F4000FA2F10102EDD1B0FA5F
:1015500080FCACF1080CB2EB0C0200FA0CF0AABF54
:1015600000EBC25052421843BCBFD04018437047F2
:1015700092F0000F81F4000106BF80F400000132F8
:10158000013BB5E74FEA41037FEA226C18BF7FEACF
:10159000236C21D092EA030F04D092F0000F08BF11
:1015A0000846704790EA010F1CBF0020704712F0F8
:1015B0007F4F04D1400028BF40F00040704712F137
:1015C00000723CBF00F50000704700F0004343F09C
:1015D000FE4040F4000070477FEA226216BF0846D2
:1015E0007FEA23630146420206BF5FEA412390EA95
:1015F000010F40F4800070474FF0000304E000BF8B
:1016000010F0004348BF40425FEA000C08BF70473B
:1016100043F0964301464FF000001CE050EA0102FF
:1016200008BF70474FF000030AE000BF50EA010214
:1016300008BF704711F0004302D5404261EB410101
:101640005FEA010C02BF84460146002043F0B64326
:1016500008BFA3F18053A3F50003BCFA8CF2083A4B
:10166000A3EBC25310DB01FA02FC634400FA02FC54
:10167000C2F12002BCF1004F20FA02F243EB02005B
:1016800008BF20F00100704702F1200201FA02FCBD
:10169000C2F1200250EA4C0021FA02F243EB0200B0
:1016A00008BF20EADC7070474FF0FF0C1CEAD052F4
:1016B0001EBF1CEAD15392EA0C0F93EA0C0F6FD0B5
:1016C0001A4480EA010C400218BF5FEA41211ED093
:1016D0004FF0006343EA501043EA5111A0FB01317F
:1016E0000CF00040B1F5000F3EBF490041EAD37154
:1016F0005B0040EA010062F17F02FD2A1DD8B3F1D0
:10170000004F40EBC25008BF20F00100704790F03E
:10171000000F0CF0004C08BF49024CEA502040EA90
:1017200051207F3AC2BFD2F1FF0340EAC250704756
:1017300040F400004FF00003013A5DDC12F1190F94
:10174000DCBF00F000407047C2F10002410021FA06
:1017500002F1C2F1200200FA02FC5FEA310040F11E
:10176000000053EA4C0308BF20EADC70704792F097
:10177000000F00F0004C02BF400010F4000F013ACF
:10178000F9D040EA0C0093F0000F01F0004C02BFCA
:10179000490011F4000F013BF9D041EA0C018FE739
:1017A0000CEAD15392EA0C0F18BF93EA0C0F0AD03F
:1017B00030F0004C18BF31F0004CD8D180EA010065
:1017C00000F00040704790F0000F17BF90F0004FFE
:1017D000084691F0000F91F0004F14D092EA0C0FE0
:1017E00001D142020FD193EA0C0F03D14B0218BF73
:1017F000084608D180EA010000F0004040F0FE40B9
:1018000040F40000704740F0FE4040F44000704754
:101810004FF0FF0C1CEAD0521EBF1CEAD15392EAD3
:101820000C0F93EA0C0F69D0A2EB030280EA010CC3
:1018300049024FEA402037D04FF0805343EA11115C
:1018400043EA10130CF000408B4238BF5B0042F1BA
:101850007D024FF4000C8B4224BF5B1A40EA0C005F
:10186000B3EB510F24BFA3EB510340EA5C00B3EB91
:10187000910F24BFA3EB910340EA9C00B3EBD10F7F
:1018800024BFA3EBD10340EADC001B0118BF5FEAD1
:101890001C1CE0D1FD2A3FF650AF8B4240EBC250FA
:1018A00008BF20F0010070470CF0004C4CEA5020BB
:1018B0007F32C2BFD2F1FF0340EAC250704740F40A
:1018C00000004FF00003013A37E792F0000F00F0FC
:1018D000004C02BF400010F4000F013AF9D040EA7A
:1018E0000C0093F0000F01F0004C02BF490011F40E
:1018F000000F013BF9D041EA0C0195E70CEAD15306
:1019000092EA0C0F08D142027FF47DAF93EA0C0FEC
:101910007FF470AF084676E793EA0C0F04D14B02D0
:101920003FF44CAF08466EE730F0004C18BF31F082
:10193000004CCAD130F000427FF45CAF31F000437C
:101940007FF43CAF5FE700BF08B5074B044613B117
:101950000021AFF30080054B1868836A03B19847F4
:10196000204601F005F800BF00000000A42B000095
:1019700070B50D4E0D4CA41BA4100025A54209D135
:101980000B4E0C4C00F0F6FFA41BA4100025A54242
:1019900005D170BD56F8253098470135EEE756F869
:1019A000253098470135F2E76C0000206C000020DC
:1019B0006C00002074000020024B0146186800F003
:1019C00059B800BF0800002002440346934200D1EA
:1019D000704703F8011BF9E738B50546002945D0E3
:1019E00051F8043C0C1F002BB8BFE41800F0C6FBF4
:1019F0001F4A1368104633B9636014602846BDE877
:101A0000384000F0BCBBA3420CD921686218934255
:101A100004BF1A685B68636004BF521822600460E8
:101A2000ECE713465A680AB1A242FAD91968581865
:101A3000A0420BD120680144581882421960DDD1C0
:101A4000106852685A6001441960D7E702D90C2324
:101A50002B60D3E7206821188A4204BF11685268BE
:101A6000626004BF091821605C60C7E738BD00BF31
:101A70004402002070B5CD1C25F0030508350C2D5F
:101A800038BF0C25002D064601DBA94203D90C23E3
:101A90003360002070BD00F071FB214A14682146BC
:101AA00091B9204C23681BB9304600F0B9F820608A
:101AB0002946304600F0B4F8431C24D10C2333608F
:101AC000304600F05CFBE4E70B685B1B18D40B2B83
:101AD0000FD90B60CD50CC18304600F050FB04F10C
:101AE0000B00231D20F00700C31AD3D05A42E25046
:101AF000D0E78C424B6816BF636013600C46EBE77F
:101B00000C464968CCE7C41C24F00304A04205D06D
:101B1000211A304600F084F80130CFD02560DBE791
:101B200044020020480200200FB40A4B13B51C6881
:101B300024B1A36913B9204600F032FA05AB049A28
:101B4000A1680193204600F043FB02B0BDE81040BD
:101B500004B070470800002070B50E46054618B165
:101B600083690BB900F01CFAAB69AC6813B928465D
:101B700000F016FA234B9C4217D16C68A3891B070F
:101B80001DD52369DBB1013EA36816F8011F013B97
:101B9000A360E9B9002B2EDA22460A21284600F07C
:101BA0004FF8013011D00A2011E0174B9C4201D1AF
:101BB000AC68E3E7154B9C4208BFEC68DEE72146C2
:101BC000284600F08FF80028DDD04FF0FF3070BDC0
:101BD000002B04DAA2699A4206DC0A2904D02368A1
:101BE0005A1C22601970CFE72246284600F028F8D8
:101BF0000130C9D1E9E723680A205A1C2260187015
:101C0000E5E700BFC82B0000E82B0000A82B000070
:101C1000024B01461868FFF79FBF00BF0800002075
:101C200038B5064C002305460846236000F092FEB6
:101C3000431C02D1236803B12B6038BD5002002041
:101C4000F8B50E461446054618B183690BB900F085
:101C5000A7F9214B9C422AD16C68A369A360A38990
:101C60001A072ED5236963B323692068C01A6369F4
:101C7000F6B28342374604DC2146284600F026F9B6
:101C800028BBA368013BA36023685A1C22601E7016
:101C900063690130834204D0A389DB0719D50A2E7A
:101CA00017D12146284600F011F990B10FE00B4BF7
:101CB0009C4201D1AC68D0E7094B9C4208BFEC685C
:101CC000CBE72146284600F00DF80028CCD04FF095
:101CD000FF373846F8BD00BFC82B0000E82B0000D6
:101CE000A82B0000324B70B51D6806460C4625B186
:101CF000AB6913B9284600F053F92E4B9C420FD123
:101D00006C68B4F90C309AB215072CD4D00611D4F3
:101D10000922326043F04003A3814FF0FF303EE0E0
:101D2000254B9C4201D1AC68EBE7244B9C4208BF99
:101D3000EC68E6E7510712D5616B41B104F1440349
:101D4000994202D03046FFF747FE00236363A38920
:101D500023F02403A3810023636023692360A38904
:101D600043F00803A38123694BB9A38903F42073CB
:101D7000B3F5007F03D02146304600F0BFF9A289B9
:101D800012F001030CD00023A36063695B42A361DE
:101D9000236953B9B4F90C3013F08000BAD170BD87
:101DA000920758BF6369A360F2E70020F7E700BF1E
:101DB00008000020C82B0000E82B0000A82B000022
:101DC0008A892DE9F041054610070C4658D44B6826
:101DD000002B05DC0B6C002B02DC0020BDE8F08141
:101DE000E66A002EF9D0002312F480522F68216A8F
:101DF0002B6032D0606DA3895A0705D56368C01A7D
:101E0000636B0BB1236CC01A00230246E66A216A99
:101E10002846B047431CA38906D129681D2948D804
:101E2000294ACA40D60744D500226260D9042269F3
:101E3000226004D5421C01D12B6803B96065616B37
:101E40002F600029C9D004F14403994202D02846EA
:101E5000FFF7C2FD00206063C0E701232846B047BA
:101E6000411CC8D12B68002BC5D01D2B01D0162BCF
:101E700001D12F60B1E7A38943F04003A381ADE70F
:101E80000F69002FA9D093070E6808BF4B690F6038
:101E900018BF0023A6EB07088B60B8F1000F9CDD8C
:101EA00043463A46216AA66A2846B047002806DC1F
:101EB000A38943F04003A3814FF0FF308EE707442E
:101EC000A8EB0008E9E700BF0100402038B50B6926
:101ED00005460C46DBB118B183690BB900F060F818
:101EE0000C4B9C4209D16C68B4F90C307BB1214693
:101EF0002846BDE83840FFF763BF074B9C4201D13D
:101F0000AC68F1E7054B9C4208BFEC68ECE70020A9
:101F100038BD00BFC82B0000E82B0000A82B000034
:101F2000002310B50446C0E9003383608181436615
:101F3000C281C0E904338361194608225C30FFF78F
:101F400043FD054B6362054BA362054BE362054B02
:101F50002462236310BD00BF092700002B27000067
:101F60006327000087270000014900F085B800BF03
:101F7000CD1E000070B54A1E682555430E4605F17A
:101F80007401FFF777FD044640B10021C0E9001657
:101F90000C30A06005F16802FFF716FD204670BD09
:101FA000836910B5044633BBC0E912330365124B95
:101FB000124A1B688262984204BF0123836100F0C9
:101FC0001FF86060204600F01BF8A060204600F07B
:101FD00017F80022E06004216068FFF7A1FF0122EA
:101FE0000921A068FFF79CFF02221221E068FFF799
:101FF00097FF0123A36110BDA42B0000691F0000FF
:10200000F8B51B4B1E68B369074613B93046FFF796
:10201000C7FF4836D6E90134013B03D5336833B1F5
:102020003668F7E7B4F90C506DB16834F4E7042171
:102030003846FFF79FFF30600028F1D10C233B604A
:1020400004462046F8BD0B4B6566C4E90055A56003
:10205000C4E90335C4E905550822294604F15C00AA
:10206000FFF7B2FCC4E90D55C4E91255E9E700BF1A
:10207000A42B00000100FFFF2DE9F84380468946AC
:1020800000F14804002614B93046BDE8F883D4E9CD
:102090000175013F01D52468F5E7AB89012B07D90C
:1020A000B5F90E30013303D029464046C8470643F0
:1020B0006835EEE770B50E46B1F90E10002996B0FE
:1020C00014461D4607DA00232B60B3891A0610D484
:1020D0004FF480630EE06A4600F07CFB0028F2DBE0
:1020E000019A02F47042A2F500535A425A412A6002
:1020F000EEE740230020236016B070BD8B8973B5D6
:102100009D0706460C4607D504F14703236023616B
:102110000123636102B070BD01AB6A46FFF7CAFFDD
:10212000009905463046FFF7A5FC48B9B4F90C30D4
:102130009A05EFD423F0030343F00203A381E3E7FE
:102140000D4BB362A389206043F08003A381009B01
:102150006361019B20615BB1B4F90E10304600F061
:102160004BFB28B1A38923F0030343F00103A381B0
:10217000A3891D43A581CDE7691F00007047704703
:102180009368013B002B10B4936007DA9469A34273
:1021900001DB0A2902D110BCFFF752BD1368581C9D
:1021A00010601970084610BC7047F8B506460F4617
:1021B0001446D518AC4201D1002007E03A4614F885
:1021C000011B3046FFF7DCFF431CF3D1F8BD0000D4
:1021D0002DE9F04F9DB00C4617460393064618B103
:1021E00083690BB9FFF7DCFE7B4B9C4257D17468C7
:1021F000A38918075DD52369002B5AD000230993C2
:1022000020238DF8293030238DF82A304FF0010B30
:10221000B846454615F8013B0BB1252B54D1B8EB18
:10222000070A0BD053463A4621463046FFF7BDFF1A
:10223000013000F0C280099B5344099398F80030A4
:10224000002B00F0BA8000234FF0FF32CDE90523C8
:10225000049307938DF853301A93A846052218F873
:10226000011B5E4800F0ECFA049B78BBD90644BF22
:1022700020228DF853201A0744BF2B228DF85320BB
:102280002A782A2A2AD0079AA84600200A254146F9
:1022900011F8013B303B092B69D960B324E0504B66
:1022A0009C4201D1B468A3E74E4B9C4208BFF4683E
:1022B0009EE721463046FFF715FD00289ED04FF0DF
:1022C000FF301DB0BDE8F08FA846A2E7434A801A50
:1022D0000BFA00F0184304904546BEE7039A111D1F
:1022E00012680391002A01DB079204E0524243F096
:1022F00002030792049398F800302E2B0ED198F821
:1023000001302A2B38D1039B1A1D1B680392002B26
:10231000B8BF4FF0FF3308F102080593324D98F82B
:1023200000100322284600F08BFA40B14023401BE6
:1023300003FA00F0049B034308F10108049398F8A2
:1023400000102A488DF82810062208F1010700F035
:1023500077FA002837D0264B1BBB039B073323F0AB
:10236000070308330393099B4B44099350E705FB8C
:102370000232012088468AE7002308F1010805930C
:1023800019460A25404610F8012B303A092A03D98C
:10239000002BC3D00591C1E705FB01210123804635
:1023A000F0E703AB00932246124B04A93046AFF38B
:1023B0000080B0F1FF3F8146D5D1A3895B063FF590
:1023C0007EAF09987DE703AB00932246094B04A931
:1023D000304600F087F8ECE7C82B0000082C00001E
:1023E000E82B0000A82B00000E2C0000122C00008F
:1023F00000000000AB2100002DE9F04791461F4688
:102400008A680B69DDF820809342B8BF1346C9F88B
:10241000003091F8432006460C4612B10133C9F84A
:1024200000302368990642BFD9F800300233C9F85A
:102430000030256815F0060507D104F1190AE36894
:10244000D9F800209B1AAB4228DC94F8433022686C
:10245000003318BF012392062DD404F143023946FC
:102460003046C047013020D02368E568D9F8002005
:1024700003F00603042B08BFAD1AA36822690CBF42
:1024800025EAE57500259342C4BF9B1AED184FF06D
:1024900000091A344D451AD1002008E001235246A4
:1024A00039463046C047013003D14FF0FF30BDE818
:1024B000F0870135C3E7E1185A1C302081F843004A
:1024C000224494F8451082F843100233C5E70123F3
:1024D000224639463046C0470130E6D009F10109AD
:1024E000D8E700002DE9F04301F1430C0C46097ECA
:1024F00085B06E291746064698460C9A00F0B380C0
:1025000022D8632936D00AD8002900F0B98058298A
:1025100000F0838004F1420584F8421032E064291F
:1025200001D06929F6D120681368050603F104017A
:102530002AD51B681160002B03DA2D225B4284F838
:1025400043206F480A2239E0732900F09D8008D8A3
:102550006F2920D07029DDD1236843F02003236048
:1025600003E0752917D07829D4D1782384F8453031
:10257000644855E01368191D1B68116004F1420599
:1025800084F8423001238CE01B68116010F0400F8A
:1025900018BF1BB2CFE713682568181D1060280606
:1025A00001D51B6802E06806FBD51B8854486F29DB
:1025B00014BF0A220822002184F843106568A56030
:1025C000002DC0F29580216821F004012160002BCC
:1025D0003DD1002D40F08E806546082A0BD123683E
:1025E000DB0708D5236962689A42DEBF302305F80D
:1025F000013C05F1FF35ACEB05032361CDF800800C
:102600003B4603AA21463046FFF7F6FE01304DD186
:102610004FF0FF3005B0BDE8F083394884F845102D
:10262000136821681D1D1B6815600A060BD5CA07B3
:1026300044BF41F0200121601BB9226822F0200232
:1026400022601022B7E74D0648BF9BB2EFE7654610
:10265000B3FBF2F102FB1133C35C05F8013D0B46FD
:102660000029F5D1B9E7136825686169181D106064
:1026700028061B6801D5196002E06A06FBD519809F
:10268000002323616546B9E71368191D11601D68B1
:1026900062680021284600F0D3F808B1401B606052
:1026A00063682361002384F84330A7E723692A463F
:1026B00039463046C0470130AAD023689B0713D45F
:1026C000E068039B9842B8BF1846A3E701234A4637
:1026D00039463046C04701309AD00135E368039A45
:1026E0009B1AAB42F2DCEBE7002504F11909F5E790
:1026F000002BACD1037884F8423004F142056CE73A
:10270000192C00002A2C000010B50C46B1F90E104F
:1027100000F0E6F80028ABBF636DA3891B1823F413
:102720008053ACBF6365A38110BD2DE9F0411F4606
:102730008B89DB0505460C46164605D5022300228B
:10274000B1F90E1000F068F8A389B4F90E1023F463
:102750008053A38132463B462846BDE8F04100F055
:1027600017B810B50C46B1F90E1000F055F8431C1F
:10277000A38915BF606523F4805343F48053A3817C
:1027800018BFA38110BDB1F90E1000F013B80000FE
:1027900038B5074C054608461146002222601A4605
:1027A000FEF7E8F8431C02D1236803B12B6038BD63
:1027B0005002002038B5064C002305460846236029
:1027C00000F0A0F8431C02D1236803B12B6038BD90
:1027D0005002002038B5074C002305460846114634
:1027E000236000F097F8431C02D1236803B12B60EB
:1027F00038BD00BF5002002038B5064C0023054606
:102800000846236000F08EF8431C02D1236803B110
:102810002B6038BD5002002038B5074C05460846ED
:102820001146002222601A4600F084F8431C02D1AF
:10283000236803B12B6038BD500200200000000067
:1028400001F0FF01102A2BDB10F0070F08D010F861
:10285000013B013A8B422DD010F0070F42B3F6D165
:10286000F0B441EA012141EA014122F007047FF07E
:1028700000070023F0E80256083C85EA010586EAD5
:10288000010685FA47F5A3FA87F586FA47F6A5FA11
:1028900087F68EB9EED1F0BC01F0FF0102F007021D
:1028A00032B110F8013B013A83EA010313B1F8D1C8
:1028B0000020704701387047002D06BF35460338A9
:1028C000073815F0010F07D1013015F4807F02BFE2
:1028D000013015F4C03F0130F0BC0138704700BF33
:1028E00038B5074C054608461146002222601A46B4
:1028F00000F028F8431C02D1236803B12B6038BDD7
:1029000050020020024B58221A604FF0FF307047EF
:1029100050020020024B58221A604FF0FF307047DF
:1029200050020020024B58221A600020704700BF5E
:1029300050020020024B58221A604FF0FF307047BF
:1029400050020020024B58221A604FF0FF307047AF
:1029500050020020044A05491368002B08BF0B46AB
:1029600018441060184670474C020020580200209E
:10297000FEE700BFF8B500BFF8BC08BC9E46704734
:10298000F8B500BFF8BC08BC9E467047534644509B
:102990003A20686561646572206E6F7420666F7599
:1029A0006E6400534644503A2076657273696F6EC8
:1029B0002077726F6E673A2025752E25640A0053C2
:1029C0004644503A206E6F20344B2045525A0053F3
:1029D0004644503A206E6F206C61726765207772B2
:1029E0006974652062756600534644503A206164FC
:1029F00064722E6C656E20213D2033005346445096
:102A00003A20344B2045525A206F70636F64652022
:102A1000696E76616C696400534644503A2064657F
:102A20007669636520746F6F20626967005346445E
:102A3000503A2064657669636520736F20736D6119
:102A40006C6C3F2100344B2045525A206F70636FED
:102A500064652064697361677265656D656E740095
:102A6000534644503A206E6F204A454445432074F3
:102A700061626C65206F662065787065637465645B
:102A80002076657273696F6E20666F756E6400469E
:102A90006C617368696E6720256C75206279746556
:102AA000732066726F6D2053504920454550524F38
:102AB0004D0A000D466C617368696E67207061672E
:102AC0006520256C752E2E2E000A416C6C20646FDB
:102AD0006E652C20626F6F74696E67204F45504C95
:102AE00021004F45504C2D424F4F54000000010132
:102AF0000100000000000000000000004B0C00007E
:102B000089090000C10C0000CD0C0000C70C0000BA
:102B1000490C0000410C0000D50C0000650C0000C1
:102B20003D0C000000000000010000000200000059
:102B30000300000004000000050000000600000083
:102B40000700000008000000090000000A00000063
:102B50000B0000000C0000000D0000000E00000043
:102B60000F00000010000000110000001200000023
:102B70001300000014000000150000001600000003
:102B80001700000018000000190000001A000000E3
:102B90001B0000001C0000001D0000001E000000C3
:102BA0001F0000000C0000200000000000000000DA
:102BB0000000000000000000000000000000000015
:102BC0000000000000000000000000000000000005
:102BD00000000000000000000000000000000000F5
:102BE00000000000000000000000000000000000E5
:102BF00000000000000000000000000000000000D5
:102C00000000000000000000232D302B2000686C25
:102C10004C006566674546470030313233343536FF
:102C20003738394142434445460030313233343538
:102C30003637383961626364656600000000000061
:102C400000D6FF7F01000000F40100000090D003D7
:102C50000C00002000000000C82B0000E82B000042
:102C6000A82B000000000000000000000000000091
:102C70000000000000000000000000000000000054
:102C80000000000000000000000000000000000044
:102C90000000000000000000000000000000000034
:102CA0000000000000000000000000000000000024
:102CB0000000000025020000D50E00000102000007
:1040000000600020957A0000BD7A0000BF7A0000B1
:10401000C17A0000C37A0000C57A000000000000E9
:10402000000000000000000000000000C77A00004F
:10403000C97A000000000000CB7A0000CD7A0000B1
:10404000CF7A0000654C0000A97F0000CF7A000005
:10405000CF7A0000CF7A0000AD800000CF7A000058
:10406000CF7A0000CF7A0000CF7A0000754A0000B6
:10407000CF7A0000CF7A0000CF7A0000CF7A00001C
:10408000CF7A00005D810000CF7A0000CF7A000077
:10409000CF7A0000CF7A0000CF7A0000CF7A0000FC
:1040A000CF7A0000CF7A0000CF7A0000CF7A0000EC
:1040B000CF7A0000CF7A000000000000000000006E
:1040C000CF7A0000CF7A0000CF7A0000CF7A0000CC
:1040D000CF7A0000CF7A0000CF7A00000000000005
:1040E00000000000000000000000000000000000D0
:1040F00000000000000000000000000000000000C0
:1041000000000000000000000000000000000000AF
:10411000000000000000000000000000000000009F
:10412000000000000000000000000000000000008F
:10413000000000000000000000000000000000007F
:10414000000000000000000000000000000000006F
:10415000000000000000000000000000000000005F
:10416000000000000000000000000000000000004F
:10417000000000000000000000000000000000003F
:10418000000000000000000000000000000000002F
:10419000000000000000000000000000000000001F
:1041A000000000000000000000000000000000000F
:1041B00000000000000000000000000000000000FF
:1041C00000000000000000000000000000000000EF
:1041D00000000000000000000000000000000000DF
:1041E00000000000000000000000000000000000CF
:1041F00000000000000000000000000000000000BF
:1042000010B5054C237833B9044B13B10448AFF310
:1042100000800123237010BD9400002000000000E6
:10422000D0C2000008B5034B1BB103490348AFF3EC
:10423000008008BD0000000098000020D0C20000EF
:10424000154B002B08BF134B9D46A3F5803A002168
:104250008B460F461348144A121A04F0E3FC0F4B26
:10426000002B00D098470E4B002B00D09847002021
:10427000002104000D000D48002802D00C48AFF3C7
:10428000008004F081FC2000290003F07DFF04F091
:1042900067FC00BF00000800006000200000000074
:1042A00000000000940000209C1800200000000086
:1042B000000000004FF080430020D3F80C24B2F13E
:1042C000011F04BFC3F800010120704708B5FFF7C4
:1042D000F1FF58B94FF080430122C3F800011A6082
:1042E000FFF7E8FF0028FBD0002008BD4FF0FF30AB
:1042F000FBE790230370B22343704FF0102310B5F7
:10430000D3F880208270D3F88020120AC270D3F8CC
:104310008020120C0271D3F880301B0E43710023F1
:104320008371C371421EC41D12F8011F4B40944299
:1043300083EA1113F8D103F00F03703B037010BD33
:104340000C4B0022C3F80C25C003C3F80C254FF416
:104350007A7290FBF2F0C3F80405D3F8082542F016
:104360000102C3F8082501221A60034AC3F8002697
:10437000704700BF000001403546526E0B4B10B530
:10438000040A18705C70040C000ED870080A1971C9
:104390005871080C090ED971110A1A725972110C50
:1043A000120E9C7098719972DA7210BD0000002094
:1043B000054A064B11680B441360054B00221A6036
:1043C000044B01221A707047B8000020013665C402
:1043D000B4000020B00000202DE9F0414509C0F3F1
:1043E000820400F0030600278846BBB2984540F2DD
:1043F0002D82062D8CBF00210121102003F01EFF0D
:10440000062C8CBF00210121112003F017FF022E82
:104410008CBF00210121122003F010FF642001381D
:1044200000BF00BF00BF00BF00BF00BF00BF00BF94
:1044300000BF00BF00BF00BF00BF00BF00BF00BF84
:1044400000BF00BF00BF00BF00BF00BF00BF00BF74
:1044500000BF00BF00BF00BF00BF00BF00BF00BF64
:1044600000BF00BF00BF00BF00BF00BF00BF00BF54
:1044700000BF00BF00BF00BF00BF00BF00BF00BF44
:1044800000BF00BF00BF00BF00BF00BF00BF00BF34
:1044900000BF00BFC3D1B5FA85F14909102003F070
:1044A000CDFEB4FA84F14909112003F0C7FE64205F
:1044B000013800BF00BF00BF00BF00BF00BF00BF8A
:1044C00000BF00BF00BF00BF00BF00BF00BF00BFF4
:1044D00000BF00BF00BF00BF00BF00BF00BF00BFE4
:1044E00000BF00BF00BF00BF00BF00BF00BF00BFD4
:1044F00000BF00BF00BF00BF00BF00BF00BF00BFC4
:1045000000BF00BF00BF00BF00BF00BF00BF00BFB3
:1045100000BF00BF00BF00BF00BF00BF00BF00BFA3
:1045200000BF00BF00BFC3D1052D8CBF00210121FA
:10453000102003F083FE052C8CBF002101211120E7
:1045400003F07CFEB6FA86F14909122003F076FEEC
:104550006420013800BF00BF00BF00BF00BF00BF24
:1045600000BF00BF00BF00BF00BF00BF00BF00BF53
:1045700000BF00BF00BF00BF00BF00BF00BF00BF43
:1045800000BF00BF00BF00BF00BF00BF00BF00BF33
:1045900000BF00BF00BF00BF00BF00BF00BF00BF23
:1045A00000BF00BF00BF00BF00BF00BF00BF00BF13
:1045B00000BF00BF00BF00BF00BF00BF00BF00BF03
:1045C00000BF00BF00BF00BFC3D1012D8CBF0021C1
:1045D0000121102003F032FE012C8CBF00210121AB
:1045E000112003F02BFE6420013800BF00BF00BF84
:1045F00000BF00BF00BF00BF00BF00BF00BF00BFC3
:1046000000BF00BF00BF00BF00BF00BF00BF00BFB2
:1046100000BF00BF00BF00BF00BF00BF00BF00BFA2
:1046200000BF00BF00BF00BF00BF00BF00BF00BF92
:1046300000BF00BF00BF00BF00BF00BF00BF00BF82
:1046400000BF00BF00BF00BF00BF00BF00BF00BF72
:1046500000BF00BF00BF00BF00BF00BF00BFC3D18D
:10466000042D8CBF00210121102003F0E7FD042C54
:104670008CBF00210121112003F0E0FD64200138EE
:1046800000BF00BF00BF00BF00BF00BF00BF00BF32
:1046900000BF00BF00BF00BF00BF00BF00BF00BF22
:1046A00000BF00BF00BF00BF00BF00BF00BF00BF12
:1046B00000BF00BF00BF00BF00BF00BF00BF00BF02
:1046C00000BF00BF00BF00BF00BF00BF00BF00BFF2
:1046D00000BF00BF00BF00BF00BF00BF00BF00BFE2
:1046E00000BF00BF00BF00BF00BF00BF00BF00BFD2
:1046F00000BF00BFC3D1022D8CBF002101211020BB
:1047000003F09CFD022C8CBF00210121112003F03D
:1047100095FD012E8CBF00210121122003F08EFD9A
:104720006420013800BF00BF00BF00BF00BF00BF52
:1047300000BF00BF00BF00BF00BF00BF00BF00BF81
:1047400000BF00BF00BF00BF00BF00BF00BF00BF71
:1047500000BF00BF00BF00BF00BF00BF00BF00BF61
:1047600000BF00BF00BF00BF00BF00BF00BF00BF51
:1047700000BF00BF00BF00BF00BF00BF00BF00BF41
:1047800000BF00BF00BF00BF00BF00BF00BF00BF31
:1047900000BF00BF00BF00BFC3D1032D8CBF0021ED
:1047A0000121102003F04AFD032C8CBF00210121C0
:1047B000112003F043FD6420013800BF00BF00BF9B
:1047C00000BF00BF00BF00BF00BF00BF00BF00BFF1
:1047D00000BF00BF00BF00BF00BF00BF00BF00BFE1
:1047E00000BF00BF00BF00BF00BF00BF00BF00BFD1
:1047F00000BF00BF00BF00BF00BF00BF00BF00BFC1
:1048000000BF00BF00BF00BF00BF00BF00BF00BFB0
:1048100000BF00BF00BF00BF00BF00BF00BF00BFA0
:1048200000BF00BF00BF00BF00BF00BF00BFC3D1BB
:104830000121102003F002FD0121112003F0FEFCF4
:104840000121122003F0FAFC0137CEE5BDE8F0812A
:10485000F8B5184D184C4FF40066E023C5F8806099
:10486000C5F8806185F80B330023C4F808354FF490
:104870008033C4F80433C4F84433104B186003F099
:10488000C7FF0F49D4F8047504F0CEF84FF08E41FD
:1048900004F016F803F08EFE0A4B002203F02CFD04
:1048A00003F0E0FE3844C4F8400501232E60236085
:1048B000F8BD00BF00E100E000B000400C000020A7
:1048C00000007A440000E03F38B5054603F05AFC8A
:1048D00003F01CFC074C206003F018FC2368C01A8E
:1048E000A84206D22846FFF7B3FF20BF40BF20BF33
:1048F000F2E738BDB80000202DE9F04F834689B0BB
:1049000000F57A70FFF71CFDBBF5FA6FC0F0A280CE
:10491000554B1D784FEA151A05F00F05012D22D1D0
:10492000DA7899785C78514E120402EB01621979B9
:104930005B7902EB01221344BBFBF3F272B93560E1
:1049400000253368AB4240F28B8051462046FFF78A
:1049500043FD5846FFF7B8FF0135F2E79B4532604B
:1049600028BF9B46ECE7002D74D19F785A7893F8C6
:10497000048093F8069003923809DA78049207F0DD
:104980000F075A7905924FEA181117FB00F408F047
:104990000F084FEA191208FB014409F00F096423BC
:1049A000334E09FB02445C4310FB03F0BBFBF4F401
:1049B00011FB03F114F0FF0412FB03F3357008BF81
:1049C0000124029006910193B346AC4248DD33784E
:1049D00093B99F4207930CDD51460398FFF7FCFC07
:1049E0000298FFF771FF9BF8002012B9079B013373
:1049F000EFE70020FFF768FF337893B998450793F6
:104A00000CDD51460498FFF7E7FC0698FFF75CFFC2
:104A10009BF8002012B9079B0133EFE70020FFF756
:104A200053FF337893B9994507930CDD51460598A8
:104A3000FFF7D2FC0198FFF747FF9BF8002012B95F
:104A4000079B0133EFE70020FFF73EFF33783BB9C8
:104A50000135BAE7584609B0BDE8F04FFFF734BF5B
:104A600009B0BDE8F08F00BF00000020B4000020B6
:104A7000B000002073B5134CD4F84061012E1FD153
:104A80000023C4F84031104BD4F80455186803F0E3
:104A9000BFFE0E4903F0C8FF4FF08E4103F010FF38
:104AA00003F088FD0A4B002203F026FC03F0DAFD38
:104AB0002844C4F84005D4F840310193019B666056
:104AC00002B070BD00B000400C00002000007A442D
:104AD0000000E03F10B50446002000F01FF94FF041
:104AE000804301225A60D3F80C2402F00112B2F183
:104AF000011FF8D0094803F025F903F043FB2046D5
:104B0000FFF7FAFE4FF4E131044803F009F90449D4
:104B10000248BDE8104002F0B3BF00BFF817002004
:104B2000AC9F00007047000038B5054603F0EEFA70
:104B300004461C48FFF704FC032210461A4903F000
:104B400049FA4FF0A043D3F80C2722F44032C3F8BF
:104B50000C27D3F80C2742F44032C3F80C2703F09B
:104B6000D5FA001BA84210D26420FFF771FE20BFC7
:104B700040BF20BF032003F073FB0028EFD147F2B2
:104B80003050BDE83840FFF7DBBB03F0BFFA011B34
:104B9000064804F0F7F8032003F062FB0028FAD17E
:104BA000EDE700BFC0D40100254B0000AF9F00001F
:104BB00038B5054608240021132003F03FFB2B06DF
:104BC0004CBF01210021142003F038FB013C0121DE
:104BD00013206D0003F032FB14F0FF04EDB2EAD1B4
:104BE00038BD0000124B1B78E3B1124B124A1B7800
:104BF00003EB831302EB4302104BC3F8042500229E
:104C0000C3F80C21D3F80C11C3F80821D3F808110C
:104C10000421C3F80413C3F85821C3F81C2101224E
:104C20005A607047054B0422C3F80823704700BF41
:104C3000BD000020BF000020C00000200010004088
:104C4000074B4FF0FF32C3F808230022C3F81021AE
:104C500001221A61D3F81021002AFBD0704700BF4F
:104C60000010004030B41F4A1F49137803EB831330
:104C70005B00CC18C85C13461C4A1146D2F8305170
:104C80001DB9D2F83451002DF8D0D1F80024D1F854
:104C90004825174922540A78013AD2B20A701A7884
:104CA0000132D2B2082A1A7004BF00221A70114AC7
:104CB00013780133DBB213700C4B0022C3F80C21C4
:104CC000D3F80C11C3F83021C3F83421C3F80821FC
:104CD000D3F80831084B0222C3F8802130BCFFF71B
:104CE00081BF00BFBF000020C000002000100040B6
:104CF000BD000020D004002000E100E0A0F10B0383
:104D00000F2B9FBF00EB8000034B3238C3F8080520
:104D100094BF0120002070470010004008B5074BE9
:104D2000197880F00102914203D1187018B1FFF791
:104D300059FF012008BDFFF783FFFAE7BC00002000
:104D4000084A09480023022110B5C2F880100370F8
:104D50000648037006480824047006480370116072
:104D600010BD00BF00E100E0BF000020BE00002039
:104D7000BD000020D004002070B5224C4FF47A759D
:104D80000023C4F8FC3F013DD4F8FC2FF9D10126E3
:104D9000C4F8FC6FFFF754FFFFF798FA40F20223C4
:104DA000C4F83435184BC4F83835A723C4F83C553B
:104DB000C4F86036154BC4F814358023C4F8183590
:104DC00040F20123C4F85036C023C4F8443504230C
:104DD000C4F80C350F23C4F810350D4BC4F800325D
:104DE0000C4B1D70FFF7ACFF0B4B202283F8012307
:104DF0000222C3F880211A600523C4F80835304622
:104E000070BD00BF00100040211001000800000626
:104E100011001000BC00002000E100E02DE9F04787
:104E20009A46304B91461A789846002A56D02E4D15
:104E30002E4E2A7882235343F45C2A78E4B2012C64
:104E400088BF023C02EB8212A14206EB42070A46EF
:104E500028BF2246791C03F0DAFEBAF1000F0BD00E
:104E60002A788221631C01FB0262D35C9B00FF2B2A
:104E700028BFFF238AF80030B9F1000F08D02A7844
:104E80008221A31C01FB0266F35C5B4289F80030BF
:104E90002B78174A17480133DBB2082B2B704FF0E1
:104EA000020104BF00232B70C2F880100378013385
:104EB000DBB2037098F80030013BDBB288F80030B9
:104EC0000D4B11601B7833B10C4BD3F804335B07E7
:104ED00001D4FFF787FE2046BDE8F0874FF0FF3092
:104EE000FAE700BFD0040020BE000020C000002070
:104EF00000E100E0BD000020BC00002000100040E8
:104F000008B5FFF79DFE0F4B0022C3F80405C3F858
:104F1000102101221A60D3F81021002AFBD00022B0
:104F2000C3F81021C3F80C21D3F80C31064B022230
:104F3000C3F88021054B1B780BB1FFF753FE01200E
:104F400008BD00BF0010004000E100E0BC000020F0
:104F500038B580220546002103F064FE0B4B0C4A55
:104F600080212846FFF75AFF44B2002C0ADB0822B2
:104F70000849681D03F03CFE002818BF6FF00104CB
:104F8000204638BD4FF0FF34FAE700BFD1040020BF
:104F9000D2040020C9170020FFF7B2BF2DE9F0416D
:104FA00005464FF400700E4603F012FE044601461B
:104FB0001822284600F01EF9217C202909D0212939
:104FC00045D0504803F0DEFE2046BDE8F04103F036
:104FD00007BE4D4803F04AFF02F004F816B1304610
:104FE00001F0B6FF02F064F802F03AF8002002F097
:104FF00068F80021062003F021F900261835C6F3D1
:1050000008076FB90121062003F018F92146A819F5
:105010004FF4007200F0EEF83946062003F00EF966
:10502000E05DFFF7C5FD01364BF680339E42E6D1C9
:105030000121062003F002F902F050F8204603F0A7
:10504000CFFD02F0C7F9BDE8F04101F0B9BF2F482C
:1050500003F00CFF01F0C6FF16B1304601F078FFF7
:1050600002F026F8002002F02CF80021062003F0C0
:10507000E5F8002605F11808C6F3080777B90121FD
:10508000062003F0DBF8214608EB06004FF400721F
:1050900000F0B0F83946062003F0D0F8E05DFFF7E5
:1050A00087FD01364BF680339E42E5D10121062073
:1050B00003F0C4F802F012F8012002F002F8002117
:1050C000062003F0BBF805F53B4500269835C6F3EE
:1050D00008076FB90121062003F0B0F82146A8198E
:1050E0004FF4007200F086F83946062003F0A6F867
:1050F000E05DFFF75DFD01364BF680339E42E6D161
:1051000096E700BFE79F0000C99F0000D89F0000FE
:1051100070B506460825002433064CBF0121002146
:105120000F2003F08BF80E200121760003F086F8A3
:1051300064000D20F6B2E4B203F092F808B144F036
:10514000010400210E20013D03F078F815F0FF0561
:10515000E2D1204670BD10B5002104460C2003F0BA
:105160006DF82046FFF7D4FF01210C20BDE8104068
:1051700003F064B870B506460C460C2000211546B5
:1051800003F05CF85A20FFF7C3FF0020FFF7C0FFD1
:10519000300AFFF7BDFFF0B2FFF7BAFF0020FFF7BC
:1051A000B7FF2544AC4205D00020FFF7B1FF04F85B
:1051B000010BF7E701210C20BDE8704003F03EB879
:1051C0000C2008B5002103F039F80520FFF7A0FFF7
:1051D0000020FFF79DFFC307FAD401210C2003F044
:1051E0002DF8012008BD0000014B1868704700BF72
:1051F000D404002070B506460C460C20002115464C
:1052000003F01CF80320FFF783FFC6F30740FFF706
:105210007FFFC6F30720FFF77BFFF0B2FFF778FFB1
:105220002544AC4205D00020FFF772FF04F8010BC3
:10523000F7E701210C20BDE8704002F0FFBFB92064
:10524000FFF789BF2DE9F341AB20FFF784FF082268
:1052500069460020FFF78EFF9DF80030532B0FD1D9
:105260009DF80130462B0BD19DF80230442B07D11D
:105270009DF80330502B03D19DF80730FF2B34D01D
:105280006D4803F0F3FD00210C2002F0D7FF9020C1
:10529000FFF73EFF0020FFF73BFF0020FFF738FF3E
:1052A0000020FFF735FF0020FFF732FFC22809D1A9
:1052B000624B202200201A70FFF72AFF052803D036
:1052C00012280ED0002404E05D4B4FF480321A60A7
:1052D000012401210C2002F0B1FF204602B0BDE8FC
:1052E000F081574B4FF40022F1E79DF8051001299A
:1052F00006D09DF80420534803F044FD0024ECE759
:105300009DF80640FF2C08BFFE240025E8B20130BE
:1053100008226946C000FFF72DFF9DF80030002BE2
:1053200040F083809DF80230012B7ED19DF8033040
:10533000082B7AD9444CBDF8040024222146FFF7FB
:1053400019FF237803F00302012A204604D03F48C6
:1053500003F08CFD3E4845E05A0701D43D48F7E78D
:10536000A37813F0060F01D03B48F1E765786B1E78
:10537000DBB2FD2B01D93948EAE7304BE2791D70E9
:10538000130601D53648E3E77AB32D4B4FF40011ED
:1053900019602B4B196854104900E2B2002CFAD165
:1053A0001960304A304992F800C091F800E01C279B
:1053B0002346A046C4196478661EF6B2FD2E24D892
:1053C000C65D0F2E2ED0102E1CD00C2E1DD1A54246
:1053D0001BD0B8F1000F01D081F800E00BB182F8CA
:1053E00000C0224803F042FD88E7A2791AB1144BAD
:1053F0004FF40051CCE7627912B1114B2021C7E77D
:105400001B48A5E7A6464FF001080237242FD1D14B
:10541000B8F1000F01D081F800E00BB182F800C0B4
:1054200001245AE7A4460123EFE70135EBB29C4281
:10543000BFF46CAF8EE700BF42A00000D80400208C
:10544000D404002059A00000DB04002075A0000057
:1054500016A1000085A000009EA00000B2A00000E0
:10546000CEA00000D9040020DA040020FBA0000038
:10547000E3A000002DE9F04105460F4616468EB325
:105480005FFA85F8C8F58074A4B2B4424FF0060004
:1054900028BF3446FFF75FFE00210C2002F0CEFE4D
:1054A0000220FFF735FEC5F30740FFF731FEC5F3D5
:1054B0000720FFF72DFE4046FFF72AFE07EB040802
:1054C000474504D017F8010BFFF722FEF8E701214A
:1054D0000C2002F0B3FEFFF773FE20B12544341B0D
:1054E000A6B2CCE70120BDE8F08100002DE9F84329
:1054F000C0F30B0304460E46002B3ED1214FDFF8CC
:105500008880DFF88890DEB30620FFF724FE0021B4
:105510000C2002F093FE0F2E1ED9A3B2F3B999F816
:105520000000D8B1FFF7F4FD1025C4F30740FFF7E2
:10553000EFFDC4F30720FFF7EBFDE0B2FFF7E8FD56
:1055400001210C2002F07AFEFFF73AFEA8B104EB2D
:105550000534751BAEB2D6E7072E09D9C4F30E0386
:1055600033B998F8000018B1FFF7D2FD0825DCE741
:105570003878FFF7CDFD0125D7E70020BDE8F88397
:105580000120FBE7D8040020D9040020DA04002021
:105590002DE9F341002340200093ADF804301D4F66
:1055A000DFF87C8000F038FB04243E460025785D5F
:1055B00000F05CFE70B11DF8053098F80020715DB8
:1055C00015489342154B38BF0DF8052093F900306C
:1055D00003F0D8FB0135062DE9D1631E13F0FF045B
:1055E000E4D1234625461DF80320A24288BFF55C7E
:1055F00003F1010388BF1446062BF4D1402000F0CC
:10560000BDFA01F0E9FC064B28461C7002B0BDE86B
:10561000F08100BF1000002045A10000D20400204E
:10562000D10400202DE9FF41102200216846174EC9
:10563000DFF85C8003F0F6FA022537460024305D7F
:1056400000F014FE38B198F800301DF804209A429A
:1056500038BF0DF804300134062CF0D1012D12D1E1
:10566000002318461A461DF80310914288BFF85CC3
:1056700003F1010388BF0A46102BF4D1044B1A70C2
:1056800004B0BDE8F0810125D8E700BF100000207C
:10569000D1040020F8B51020744C00F0BDFA42F29D
:1056A0001070FEF74DFE2378002B00F08480704EC2
:1056B000704F3388B3F5967F03D86F4B1B78002B60
:1056C0006FD06E4D2B88B3F5907F49D1402000F00C
:1056D000A3FA822000F0A0FA402000F04FFA002345
:1056E0002B802B8801332B80654B1B7813B1654BC6
:1056F0001B7813B1644B1B7883B1644D2B78FF2B5F
:1057000032D00C2000F088FA4EF66020FEF718FE2A
:10571000287800F02FFF0C2000F030FA402000F035
:105720007BFA00F025FE0546402000F027FA15BB65
:1057300000F00EFB00233B8000F028FB3388B0F51F
:10574000167F0344338004BF002323703B88002B63
:1057500079D04EF660205843BDE8F84000F04EBACC
:10576000022000F059FABCE7082000F055FA01F0D9
:1057700021FF0820D0E7404A00233380137000F057
:10578000E7FA002DD6D0EB7B2A7C43EA02233B804C
:105790006B7B002BD0D0284600F0FCFE0028C9D03F
:1057A000CAE7402000F038FA00F078FE05464020B5
:1057B00000F0E4F9E3E7364D2B7863B1DA0701D561
:1057C000242B08D9402000F027FA802000F024FA8A
:1057D000402000F0D3F9402000F01EFAFFF722FF2E
:1057E0002070402000F0CAF9237813B9264B1B78AB
:1057F00043B1234B1B7813B1224B1B7813B12B7889
:10580000232B16D10820214E00F006FA4EF6602018
:10581000FEF796FD3378FF2B1AD0042000F0FCF938
:10582000307800F0A7FE042000F0A8F9082000F06E
:10583000A5F92378ABB100232B700F4BFD22282054
:105840001A7000F08FF900F0A1FA4FF47A7382E732
:105850002B78222B02D901F0BBFFE7E701F068FFAC
:10586000E4E7012000F05CFAEFE700BFC417002076
:105870007406002078060020800600207E060020A6
:1058800076060020F6170020F717002016000020EB
:105890007A06002009220821014802F08FB800BFD3
:1058A0001C06002037B54FF4E1316148614C02F02D
:1058B00037FA4FF4967002F043FC00F0FFF8112025
:1058C00000F0AAF95C4BFC2242F210701A70FEF74D
:1058D00037FD5848FEF70DFD00252B5DFF2B58D1F5
:1058E0000135082DF9D1554803F0C0FA284600F0DB
:1058F00093F901F0C3FF1C2000F040F94FF0FF3096
:1059000000F07CF9BFF34F8F4D494E4BCA6802F44B
:10591000E0621343CB60BFF34F8F00BFFDE72B78EE
:1059200043F020032B70082000F076F901F0A8FD69
:10593000082000F071F947F23050FEF701FDFFF743
:1059400027FE414C207042F21070FEF7F9FC2378DC
:105950008BB13E4803F08AFA01F02CFE282000F0BB
:1059600001F9182000F00AF941F2883003B0BDE8CF
:10597000304000F043B9364803F078FA01F0D8FE21
:105980004FF4167000F0EEF8182000F0F7F83148E8
:10599000ECE7314B1D780A226420B5FBF2F3B5FB2E
:1059A000F0F102FB135300FB11502C4D00952C4DD0
:1059B000C0B2DBB2B0FBF2F22A4803F0E3F92B7875
:1059C00062782178284863F03F032B7003F0DAF9FE
:1059D000E278A178254803F0D5F962792179234846
:1059E00003F0D0F9E279A179214803F0CBF9402006
:1059F00000F012F9822000F00FF9402000F0BEF80C
:105A0000042000F009F901F08FF8042000F0B6F846
:105A100000F052F8012882D0022884D10D48FEF708
:105A20008FFC082000F0F8F801F00CFDFEE700BF45
:105A3000F8170020C9170020800600207BA1000075
:105A400000ED00E00400FA05C417002064A1000086
:105A50006EA10000C0D4010058C1000059C100006F
:105A60005E06002092A10000A7A10000ABA10000EB
:105A7000B4A1000010B50348144601F0D1FF204640
:105A800010BD00BFF8170020024B04221A70FEF769
:105A90008FBC00BF80060020024B05221A70FEF763
:105AA00087BC00BF80060020024B03221A70FEF75D
:105AB0007FBC00BF800600200020704708B5012190
:105AC000102002F0BBFB0121112002F0B7FB0121E5
:105AD000122002F0B3FB0121102002F087FB01210C
:105AE000112002F083FB0121122002F07FFB022132
:105AF0001C2002F07BFB02211D2002F077FB03211A
:105B00000A2002F073FB03210B2002F06FFB00213F
:105B10000D2002F06BFB01210E2002F067FB01213A
:105B20000F2002F063FB01210C2002F087FB012112
:105B30000C2002F05BFB032207491C2002F04AFA0A
:105B4000032206491D2002F045FA042204490B20D5
:105B5000BDE8084002F03EBA895A0000995A000098
:105B6000A95A0000044B188058809880D88018816A
:105B700058819881D881704760060020410638B569
:105B8000044602D50020FFF7C9F814F0040F174DA2
:105B90000BD0FFF754FB01210C2002F04FFB2B78B8
:105BA0001BB101210C2002F049FB220707D501207F
:105BB00001F086F901F0BAF9002001F081F92B78A3
:105BC00023B90B4B1B780BB90A4A1370A3060CD5EB
:105BD000094C23784BB10021082002F007FB00217B
:105BE000092002F003FB0023237038BD7206002059
:105BF000F51700207B0600207306002010B5014633
:105C00000446044803F0BEF82046BDE81040FEF705
:105C100061BF00BFBEA1000070B5C607044603D532
:105C200047F23050FEF78CFB250706D5334B012099
:105C3000187001F045F901F0D5F9200617D52F4D60
:105C40000120012601F03CF92E7001F07EF92C4B69
:105C5000188040F6911398422A4B88BF00224FF0DB
:105C6000000094BF1E701A70287001F029F96107B6
:105C700027D5224B01221A70234B1B780BBBFFF751
:105C8000E1FAF0B9214803F0F1F84020FFF776FF80
:105C90000820FFF7C1FF01F0BBFD0C20FFF76EFFEE
:105CA0004FF0FF30FFF7AAFFBFF34F8F1849194B92
:105CB000CA6802F4E0621343CB60BFF34F8F00BFAA
:105CC000FDE762060AD5FFF757F8134B1878A0F1E5
:105CD0000B03102B88BF0B20FFF710F8A3060CD581
:105CE0000E4C23784BB90121092002F07FFA0121E3
:105CF000082002F07BFA0123237070BD7B06002090
:105D00005C0600207606002072060020D4A1000068
:105D100000ED00E00400FA05C4170020730600201F
:105D2000094A20B11378FF2B1CBF0133137013787D
:105D3000172B05D9232B054898BF4FF4E150704726
:105D40004FF46160704700BF7A0600208051010067
:105D500010B50B4B0B491B780B4803EB8303C3EBCC
:105D6000C3031B010E229BB2B3FBF2F30A7802F0CD
:105D70000704013228330A7020F8143010BD00BF28
:105D800071060020700600206006002000230549EF
:105D9000184631F8132001331044082B80B2F8D193
:105DA000C008704760060020BFF34F8F0549064BBF
:105DB000CA6802F4E0621343CB60BFF34F8F00BFA9
:105DC000FDE700BF00ED00E00400FA0510B508494A
:105DD000012200238C180132A47D2344D4B2A042B6
:105DE000DBB2F7D8887DC31A5842584110BD00BFB6
:105DF000B90600200B4B187800F00702012A0FD1DA
:105E00005A7802F0CC02C82A03D1420608D4587C42
:105E10007047CC2A04D110F0400002D0587D704762
:105E200000207047B90600202DE9F8430120FEF755
:105E300075FF234C234E244F10251B2200212048A0
:105E4000DFF89C9002F0EEFE192323701F48204AD1
:105E5000EA23A37533680360736843603B6840F8C6
:105E6000083C7B6840F8043C41236370CC23A3705A
:105E7000184B1B88A3801378E370591C0E381170DF
:105E8000FFF78AF802F042F9804602F03FF9A0EBF2
:105E9000080005280DD84846FFF75AF80128F4DD18
:105EA000FFF7A8FFEB28F0D10B48BDE8F84302F05C
:105EB000DDBF013D15F0FF05BFD10848F5E700BF84
:105EC00039070020C917002081060020470700205D
:105ED000A60600208A06002064A400006CA400002E
:105EE000B90600202DE9F04FC64BC74CC74F85B00F
:105EF0000522B0F5805F1A70019304F10B0540F0A4
:105F000093802A233B704FF0FF33C4F80B30AB80F3
:105F1000BF4BDFF83483009300221A70019B019A73
:105F20001D786B1E1370002D00F09781617AB948BF
:105F3000DFF8E4B202F026FF4020FFF76DFE0120FB
:105F4000FEF7ECFEFEF7FCFE4FF000090BF10E0A27
:105F50002A252A460021B04802F064FE009B8BF8F7
:105F600000501A78002A00F08280E722AB4B8BF8B1
:105F700016201A68CAF80020A9485A68CAF80420EE
:105F8000A84A01681160416851609BF80110A64859
:105F900001F0B80141F041018BF801109BF80210AB
:105FA00041F0CC018BF8021001788BF803104D1CE6
:105FB0009E4905700988ABF804109349113201F12C
:105FC000100051F8045B42F8045B8142F9D1097872
:105FD000117000210A460BEB01000131007E1029EF
:105FE0000244D2B2F7D18BF817205846FEF7D4FFFF
:105FF00002F08CF80A268E4DB9FBF6F607360644F9
:106000008B48FEF7A5FF012840F38B80FFF7F2FED7
:10601000E92801462DD0EC2800F09180E8287DD1B8
:106020000023EB752B7629E06321031DB0FBF1F211
:1060300001FB120080B2B3FBF1F3DBB2A8B93B70F5
:1060400000223E78C4F80B20AA800125D3B29E42DC
:106050007FF65EAF04EBD30103F00703C87A05FABD
:1060600003F30343CB720132F0E70133E7E7E422A5
:106070007CE70320FFF7AAFE002852D0B5F81700EE
:1060800018B1222863D802F05BF80120FEF746FE23
:1060900002F03CF8DFF8989100F5917B09F1190ABC
:1060A00002F034F883455CD94846FEF751FF0128D9
:1060B000F6DDFFF79FFEE828F2D1EA7D637A9A4287
:1060C000EED12E7E06EB460303EB431341F20202B0
:1060D0009342E5D82A2EE3D840F6A172934283BFBB
:1060E000C3F58052043292B263226620CDE90232B7
:1060F000FFF76CFEDDE902320028D1D008EB030087
:10610000514602F084FD04EBD602012306F0070697
:10611000B340D67A26EA0306D672C1E7454802F0B4
:1061200031FE01F0F3FF86423FF66AAF09F1010943
:106130005FFA89F9B9F11E0F3FF472AF08E73E48E4
:1061400002F094FE0025284605B0BDE8F08F0A381D
:10615000FFF754FD5020FFF75FFD0120FEF7DEFD45
:1061600093E70020FEF7DAFDFEF7EAFD4020FFF797
:1061700005FD387800220125D3B298420CD904EBF2
:10618000D30103F00703C97A41FA03F313F0010FB7
:1061900018BF00250132EFE7002D57D0274802F045
:1061A00065FEB8F80010B1F5805F13D9244802F0FD
:1061B0005DFE3D7800220120D3B29D421BD904EB45
:1061C000D30103F00703CE7A00FA03F33343CB7213
:1061D0000132F1E70022134690B2884206D208EB62
:1061E00002000132007903449BB2F5E7B8F80220BF
:1061F0009A42DED1A7E7009A12480023137002F0FA
:1062000035FE8BE69E060020A7060020A40600208F
:10621000A5060020D1A3000039070020C9170020DF
:10622000810600203F070020A60600208A060020E5
:10623000B9060020D9A30000EAA30000FCA30000D7
:1062400007A400002BA40000B9070020054802F0B5
:106250000DFE009A0123137060E6034802F006FE6B
:1062600071E700BF42A400004FA400002DE9F041F7
:1062700007460020FEF752FD3846FEF73FFDFEF7C9
:106280005FFD0120FEF74AFD314C324E01251722F9
:1062900000212F4802F0C6FC2F4A304814232370F7
:1062A000ED23A374136803605368436021232C4AD1
:1062B0006370C823A3701378E370591C11704423D2
:1062C00047224FF0FF310A3822716371A171E171E9
:1062D00022726372FEF760FE01F018FF00F10508FC
:1062E00001F014FF40452CD23046FEF731FE012864
:1062F00023DDB37DBB4220D1FFF77CFDEE281CD10E
:10630000327802F00703012B17D1737803F0CC0326
:10631000C82B12D0CC2B10D153060ED51149124ADE
:106320000B6813604B6853603279F37843EA0223B9
:106330000E4A13802846BDE8F081012001F000FFDD
:10634000CEE70135EDB2152DA1D10025F2E700BF52
:1063500039070020B9060020C91700204307002094
:10636000A6060020C6060020810600208A0600201E
:10637000F8B50120FEF7D2FC394C3A4E00252C220C
:106380000021374802F04EFC3749384A2A2323704F
:10639000E523A3740B6813604B6853602123344AD0
:1063A0006370C823A3701378E370591C442363718E
:1063B0006372362363762F4B11701B78A3762E4BB6
:1063C0001B7863752D4B1B7823752D4B1B78A3759C
:1063D0002C4B1B88A4F817302B4B47224FF0FF3172
:1063E0001B78227122720022E376A171E1711346BB
:1063F000A1180132097D142A0B44DBB2F8D12046E2
:10640000E374FEF7C9FD01F081FE471D01F07EFE39
:10641000B8421DD23046FEF79BFD0128F6DDFFF79E
:10642000E9FCE628F2D11120FFF7D0FC0028EDD0DE
:106430001648174A03681360436853603279F3784B
:1064400043EA0223134A1380134B09301D70F8BD31
:106450000135EDB20E2D92D10F4B00201D70F6E7E5
:1064600039070020B9060020C91700204307002083
:10647000A606002080060020D2040020D1040020BF
:106480007C0600205C0600205E060020C606002078
:10649000810600208A060020710600202DE9F843BD
:1064A0000120FEF73BFC2A4C2A4E00254FF0140831
:1064B000294884F80080E323A37433680360736879
:1064C0004360264A264F21236370C823A3701378A4
:1064D000E370591C1170442347224FF0FF310A38F2
:1064E00022716371A171E17122726372FEF754FD32
:1064F00001F00CFE00F1050901F008FE48451ED22E
:106500001748FEF725FD0128F6DDFFF773FCE628A6
:10651000F2D11120FFF75AFC0028EDD01148124AA1
:1065200003681360436853603A79FB7843EA0223B7
:106530000E4A13800E4B09301D70BDE8F8830135FB
:10654000EDB20E2DB4D10A4B00201D70F5E700BF4F
:1065500039070020C917002043070020A6060020A5
:10656000B9060020C6060020810600208A06002009
:106570007106002010B54FF4C033054C5843217804
:1065800000F5A030FEF70AFD0023237010BD00BF08
:10659000C81700202DE9F04F437B212B85B004461E
:1065A00018D8202B06D2032B00F0AE81102B01D07F
:1065B000022B17D1BD49D1F80930671C0E46DBB953
:1065C00008220131384602F013FBA8B9B84802F09E
:1065D0004DFC01E2AF2B00F0528205D8A03B012B0D
:1065E00040F2F6810124D4E1B02BFBD1B14B1B78F2
:1065F000580700F1CD81EFE10420DFF804A3DFF8B4
:10660000F4B2FFF709FBAC4B01930025D0469AF892
:1066100000305FFA85F94B4518D94FF4C03000FBC4
:1066200009F01822594600F5A030FEF7E3FD0422D8
:106630000DEB0201A14802F0DBFA28B90822394625
:10664000584602F0D5FA18B10135E0E74FF0FF09DE
:106650009B4D042085F80090FFF790FA2B78FF2BD4
:106660002DD04020FFF7D8FAFFF7DEFB4020FFF7E0
:1066700085FA2978934802F085FB8C4A234604F179
:10668000100153F8040B42F8040B8B42F9D11B782C
:1066900013700023F37233737372B3728A4BA27B4D
:1066A0001A704EF66020FDF74BFE0C20FFF7B4FA8F
:1066B0002878FFF75FFF0C20FFF760FA92E7834826
:1066C000DFF804A2DFF83C9202F0D0FBA37B8AF84B
:1066D00000300420FFF7A0FA08227D49384602F076
:1066E00087FA002852D1D6F80930002B4ED07948CD
:1066F00002F048FB99F800302B70774FDFF8EC81FF
:10670000D6F80930002B00F09D8042F21070FDF7A2
:1067100017FED6F80930B3F5805F88BF4FF4805379
:106720003B803888FFF7DEFB04460420002C00F095
:10673000A381FFF771FA98F809002B780003C0F5E0
:10674000BF3202F5F4724FF4C031B2F5805F01FB45
:10675000030028BF4FF4805200F5A03092B25F4989
:106760001830FEF787FE10B95D4802F07FFB042069
:10677000FFF704FA98F809303A88013388F80930AD
:10678000D6F809309B1AC6F80930B9E799F80030F5
:1067900098F8002053480133DBB29A4289F8003060
:1067A0009CBF002389F8003099F80010297002F08E
:1067B000E9FAA37B8AF800300420FFF72DFA4FF0A6
:1067C00006084FF4C03908F1FF3818F0FF0828D048
:1067D000287809FB00F0182100F5A030FEF786FEAE
:1067E0000028F0D02978404802F0CCFA3F4B002234
:1067F0005A723A68C3F801207A68C3F80520627BB0
:106800009A722A4B04F1100254F8041B43F8041B3B
:106810009442F9D122781A70354BD6F809201A60C3
:106820006BE74020FFF7AAF90820FFF7F5F900F021
:10683000EFFF0C20FFF7A2F94FF0FF30FFF7DEF972
:10684000FFF7B2FA224A2B4C136823605368636047
:10685000212323724723284A63724D23A3724923BD
:10686000E3721368013313606361214B1B68E360BB
:10687000737B23740420FFF7CFF92B784FF4C030DB
:1068800058431822214600F5A030FEF7F3FD0420FE
:10689000FFF774F9194802F0E9FA4020FFF7BCF954
:1068A000FFF7C2FA4020FFF769F9FAE68C060020EC
:1068B00066A200005E06002021474D49C107002066
:1068C0001600002086A20000C8170020B1A2000018
:1068D0008D060020D3A20000C6170020BD070020AF
:1068E00028A30000EDA2000006A30000A7060020D8
:1068F000C0170020B9070020A00600203CA300001C
:10690000B80600209D060020784D0420661CFFF785
:1069100083F90822691C304602F06AF910B9D5F8EB
:106920000930F3B9724B00225A723268C3F8012061
:106930007268C3F80520627B9A726C4A234604F1A0
:10694000100153F8040B42F8040B8B42F9D11B7869
:106950001370684BD4F809201A6031210020FEF72B
:10696000C5FD654C624ED5F80930002B00F09A80C9
:1069700042F21070FDF7E4FCD5F80930B3F5805F02
:1069800088BF4FF4805323802088FFF7ABFA20B9EB
:106990000024204605B0BDE8F08F0420FFF73CF945
:1069A000707A56494FF480520003FEF763FD10B928
:1069B000534802F05BFA0420FFF7E0F8737A22886C
:1069C00001337372D5F809309B1AC5F80930CAE74C
:1069D0004C4B1B785D0606D44020FFF71DF9FFF7EE
:1069E00023FA402068E6484802F040FA3F49D1F8CF
:1069F0000930661C0D463BB908220131304602F0D1
:106A0000F7F808B94148E2E5394B00225A7232687A
:106A1000C3F801207268C3F80520627B9A72334A7A
:106A2000234604F1100153F8040B42F8040B8B4287
:106A3000F9D11B78137042F21070FDF781FCD4F885
:106A4000090080B2FFF74EFA04460028A0D00023C8
:106A500020206B72AB72EB722B73FFF7DDF843F201
:106A6000124001F06DFB2020FFF788F84020FFF76F
:106A7000D3F8FFF7D9F94020FFF780F889E72448D9
:106A800002F0F4F9A37B042BA6D12249224800F09E
:106A9000F7FFD4F80920D4F80100D4F80510FDF769
:106AA0006DFC99E71D4802F0E1F90820FFF7B4F802
:106AB0004020FFF7B1F8FFF7B7F94020FFF75EF885
:106AC0000420FFF7A9F84EF66020FDF739FC1449C1
:106AD000144A084BCDE9021204A91B6841F80C3D89
:106AE0000C224FF44030FEF7C5FCA9E68C060020CE
:106AF000A7060020C0170020C6170020BD070020F1
:106B000028A300005E0600204FA3000060A3000041
:106B100092A300009FA30000F8170020A7A3000085
:106B2000BAABBAABEFBEADDE2DE9F347FEF75CFBC7
:106B3000B0F5A03F044607D3A0F5A0334FF4C072D0
:106B4000B3FBF2F31B0A03D1214802F08FF9FEE7F1
:106B50001A0A204E03D0204802F088F9FE23337031
:106B6000214632781D48DFF87C80DFF87CA002F0F7
:106B700009F900251A4B01932C4608F108093378CE
:106B8000EFB2BB4218D94FF4C030784318221549F0
:106B900000F5A030FEF72EFB04220DEB0201484663
:106BA00002F026F830B9D8F81430A34284BF8AF82E
:106BB00000701C460135E2E70B4B0C481A78214661
:106BC00002F0E0F80A4B1C6002B0BDE8F08700BF9D
:106BD000E7A10000B8060020FBA1000022A20000EF
:106BE00021474D49B90700209D06002048A200001A
:106BF000A006002038B505460C460620002101F00D
:106C00001DFB0021052001F019FB2846FDF7D0FFF0
:106C10000121052001F012FB2046FDF7C9FF0121EB
:106C20000620BDE8384001F009BB70B506460D46A8
:106C300006200021144601F001FB0021052001F08F
:106C4000FDFA3046FDF7B4FF0121052001F0F6FA08
:106C50002846FDF7ADFF2046FDF7AAFF01210620DB
:106C6000BDE8704001F0EABA10B5002104460620E4
:106C700001F0E4FA0021052001F0E0FA2046FDF7DA
:106C800097FF01210520BDE8104001F0D7BA10B5EB
:106C900000210446062001F0D1FA0021052001F070
:106CA000CDFA2046FDF784FF01210620BDE8104003
:106CB00001F0C4BA70B5114C667805461EB9BDE83E
:106CC0007040FDF775BF40FA06F320781843C0B254
:106CD0002070FDF76DFFA378E278C6F1080001335C
:106CE000DBB205FA00F0C0B29A422070A37004D162
:106CF000FDF75EFF00232370A37070BDD517002041
:106D0000F8B53E4D3E4E2C783288012CD3B237D1A7
:106D1000DB4303F0070304FA03F3DFF8E8C05BB2D8
:106D20000024C4F1070741FA07F7FF0742BF14F830
:106D30000C701F4304F80C700134082CF1D1DFF8FB
:106D4000C4C0072140FA01F4E40741BFACEB0107DE
:106D5000FC7B1C43FC7311F1FF31F3D20132328012
:106D6000348814F0070448D1264E2A78E3B2B3EBF6
:106D7000021F04F1010439DAF05CFDF719FFF4E7B2
:106D800003F00703C3F106030324DBB204FA03F3A1
:106D90001C4F5BB20024C4F1070C41FA0CFC1CF040
:106DA000010F0DD017F814C043EA0C0C07F814C0FB
:106DB00007EB440E9EF801C043EA0C0C8EF801C0AC
:106DC0000134082CE7D10F49072440FA04F7FF07E4
:106DD00005D50F7C1F430F744F7C1F434F74013C3C
:106DE000671C01F10201F0D10232B8E72022002134
:106DF0000448BDE8F84001F015BFF8BD18000020B8
:106E0000D2170020D5170020074B1A78824209D0EC
:106E100000284FF00002187014BFC721CF21104680
