:1000000000600020553400007D3400007F34000083
:1000100081340000833400008534000000000000BB
:100020000000000000000000000000008734000015
:1000300089340000000000008B3400008D34000083
:100040008F3400003D310000693900008F3400001A
:100050008F3400008F3400006D3A00008F340000B0
:100060008F3400008F3400008F340000ED29000031
:100070008F3400008F3400008F3400008F34000074
:100080008F3400001D3B00008F3400008F340000CF
:100090008F3400008F3400008F3400008F34000054
:1000A0008F3400008F3400008F3400008F34000044
:1000B0008F3400008F3400000000000000000000BA
:1000C0008F3400008F3400008F3400008F34000024
:1000D0008F3400008F3400008F34000000000000D7
:1000E0000000000000000000000000000000000010
:1000F0000000000000000000000000000000000000
:1001000000000000000000000000000000000000EF
:1001100000000000000000000000000000000000DF
:1001200000000000000000000000000000000000CF
:1001300000000000000000000000000000000000BF
:1001400000000000000000000000000000000000AF
:10015000000000000000000000000000000000009F
:10016000000000000000000000000000000000008F
:10017000000000000000000000000000000000007F
:10018000000000000000000000000000000000006F
:10019000000000000000000000000000000000005F
:1001A000000000000000000000000000000000004F
:1001B000000000000000000000000000000000003F
:1001C000000000000000000000000000000000002F
:1001D000000000000000000000000000000000001F
:1001E000000000000000000000000000000000000F
:1001F00000000000000000000000000000000000FF
:1002000010B5054C237833B9044B13B10448AFF350
:1002100000800123237010BD840000200000000036
:100220002C7C000008B5034B1BB103490348AFF316
:10023000008008BD00000000880000202C7C000029
:10024000154B002B08BF134B9D46A3F5803A0021A8
:100250008B460F461348144A121A04F0B3F90F4B99
:10026000002B00D098470E4B002B00D09847002061
:10027000002104000D000D48002802D00C48AFF307
:10028000008004F061F92000290003F05DFC04F017
:1002900047F900BF000008000060002000000000D7
:1002A0000000000084000020481900200000000029
:1002B0000000000038B580220546002104F082F9D4
:1002C0000B4B0C4A8021284603F014F844B2002C52
:1002D0000ADB08220849681D04F05AF9002818BFF3
:1002E0006FF00104204638BD4FF0FF34FAE700BF3D
:1002F000A0000020A10000208014002003F06CB8B2
:100300002DE9F0415C4E8EB00D4618223146044670
:1003100000F046F9317C202911D021294DD0022945
:1003200040F0A680554804F055F904F11800382231
:10033000694600F035F9524804F04CF93AE051486A
:1003400004F0BCF901F097F915B1284601F038FA2C
:1003500001F0CCFA01F073FA002001F0DFFA00217D
:10036000062003F04BFCDFF81081002515F0FF0795
:100370000FD10121062003F041FC04F11800414691
:1003800028444FF4807200F00BF93946062003F040
:1003900035FCF05D013500F0D1FAB5F5FC5FE5D133
:1003A0000121062003F02AFC01F0C5FA02F078FBD7
:1003B00001F082FA0EB0BDE8F081334804F07EF916
:1003C00001F059F915B1284601F0FAF901F08EFA59
:1003D000002001F0A3FA0021062003F00FFCDFF853
:1003E0009880002515F0FF070FD10121062003F0AA
:1003F00005FC04F11800414628444FF4807200F0D7
:10040000CFF83946062003F0F9FBF05D013500F026
:1004100095FAB5F5FC5FE5D10121062003F0EEFB6E
:1004200001F089FA012001F079FA0021062003F099
:10043000E5FB04F5FC54DFF840800025183415F086
:10044000FF070DD10121062003F0D8FB41466019BA
:100450004FF4807200F0A4F83946062003F0CEFB7A
:10046000F05D013500F06AFAB5F5FC5FE7D197E77A
:10047000064804F0AFF89DE7A20000205E59000096
:1004800074590000405900004F590000A259000063
:1004900070B506460825002433064CBF0121002113
:1004A0000F2003F0ABFB0E200121760003F0A6FB2A
:1004B00064000D20F6B2E4B203F0B2FB08B144F0E0
:1004C000010400210E20013D03F098FB15F0FF050B
:1004D000E2D1204670BD10B5002104460C2003F087
:1004E0008DFB2046FFF7D4FF01210C20BDE8104012
:1004F00003F084BB70B506460C460C20002115465F
:1005000003F07CFB5A20FFF7C3FF0020FFF7C0FF7A
:10051000300AFFF7BDFFF0B2FFF7BAFF0020FFF788
:10052000B7FF2544AC4205D00020FFF7B1FF04F827
:10053000010BF7E701210C20BDE8704003F05EBB22
:100540000C2008B5002103F059FB0520FFF7A0FFA0
:100550000020FFF79DFFC307FAD401210C2003F010
:100560004DFB012008BD0000014B1868704700BF1B
:10057000A401002010B5002104460C2003F03EFB2E
:100580000320FFF785FFC4F30740FFF781FFC4F3A3
:100590000720FFF77DFFE0B2BDE81040FFF778BF0E
:1005A00070B506460C460C200021154603F026FBCC
:1005B0000320FFF76DFFC6F30740FFF769FFC6F39F
:1005C0000720FFF765FFF0B2FFF762FF2544AC425A
:1005D00005D00020FFF75CFF04F8010BF7E70121CD
:1005E0000C20BDE8704003F009BBB920FFF773BFD2
:1005F0002DE9F341AB20FFF76EFF0822694600208A
:10060000FFF778FF9DF80030532B0FD19DF8013094
:10061000462B0BD19DF80230442B07D19DF80330B7
:10062000502B03D19DF80730FF2B34D06D4804F0D8
:1006300045F800210C2003F0E1FA9020FFF728FF95
:100640000020FFF725FF0020FFF722FF0020FFF723
:100650001FFF0020FFF71CFFC22809D1624B202298
:1006600000201A70FFF714FF052803D012280ED0BF
:10067000002404E05D4B4FF480321A600124012114
:100680000C2003F0BBFA204602B0BDE8F081574BC6
:100690004FF40022F1E79DF80510012906D09DF8DE
:1006A0000420534803F096FF0024ECE79DF8064031
:1006B000FF2C08BFFE240025E8B20130082269465D
:1006C000C000FFF717FF9DF80030002B40F083803B
:1006D0009DF80230012B7ED19DF80330082B7AD98A
:1006E000444CBDF8040024222146FFF703FF237881
:1006F00003F00302012A204604D03F4803F0DEFF46
:100700003E4845E05A0701D43D48F7E7A37813F087
:10071000060F01D03B48F1E765786B1EDBB2FD2B7D
:1007200001D93948EAE7304BE2791D70130601D54B
:100730003648E3E77AB32D4B4FF4001119602B4B89
:10074000196854104900E2B2002CFAD11960304AFD
:10075000304992F800C091F800E01C272346A046DB
:10076000C4196478661EF6B2FD2E24D8C65D0F2E1D
:100770002ED0102E1CD00C2E1DD1A5421BD0B8F1AE
:10078000000F01D081F800E00BB182F800C02248D0
:1007900003F094FF88E7A2791AB1144B4FF400518B
:1007A000CCE7627912B1114B2021C7E71B48A5E7BE
:1007B000A6464FF001080237242FD1D1B8F1000F1F
:1007C00001D081F800E00BB182F800C001245AE7A3
:1007D000A4460123EFE70135EBB29C42BFF46CAFB6
:1007E0008EE700BFFD590000A8010020A4010020F1
:1007F000145A0000AB010020305A0000D15A00000A
:10080000405A0000595A00006D5A0000895A0000F1
:10081000A9010020AA010020B65A00009E5A00003B
:100820002DE9F04105460F4616468EB35FFA85F86E
:10083000C8F58074A4B2B4424FF0060028BF344615
:10084000FFF749FE00210C2003F0D8F90220FFF742
:100850001FFEC5F30740FFF71BFEC5F30720FFF798
:1008600017FE4046FFF714FE07EB0408474504D087
:1008700017F8010BFFF70CFEF8E701210C2003F03D
:10088000BDF9FFF75DFE20B12544341BA6B2CCE7CD
:100890000120BDE8F08100002DE9F843C0F30B030F
:1008A00004460E46002B3ED1214FDFF88880DFF84A
:1008B0008890DEB30620FFF70EFE00210C2003F027
:1008C0009DF90F2E1ED9A3B2F3B999F80000D8B143
:1008D000FFF7DEFD1025C4F30740FFF7D9FDC4F391
:1008E0000720FFF7D5FDE0B2FFF7D2FD01210C2074
:1008F00003F084F9FFF724FEA8B104EB0534751B5F
:10090000AEB2D6E7072E09D9C4F30E0333B998F86F
:10091000000018B1FFF7BCFD0825DCE73878FFF7C9
:10092000B7FD0125D7E70020BDE8F8830120FBE7EC
:10093000A8010020A9010020AA01002038B5054621
:1009400008240021132003F059F92B064CBF012184
:100950000021142003F052F9013C012113206D0005
:1009600003F04CF914F0FF04EDB2EAD138BD0000F9
:100970002DE9F34100230093ADF8043002F07CF937
:1009800000F090FF40201D4FDFF87C8000F0EEFA71
:1009900004243E460025785D01F058FB70B11DF837
:1009A000053098F80020715D15489342154B38BF0B
:1009B0000DF8052093F9003003F00CFE0135062DEB
:1009C000E9D1631E13F0FF04E4D1234625461DF848
:1009D0000320A24288BFF55C03F1010388BF1446DF
:1009E000062BF4D1402000F07BFA00F079FF064B93
:1009F00028461C7002B0BDE8F08100BF080000204E
:100A0000005B0000A1000020A00000202DE9FF41B4
:100A1000102200216846174EDFF85C8003F0D2FDFB
:100A2000022537460024305D01F010FB38B198F8FC
:100A300000301DF804209A4238BF0DF8043001340C
:100A4000062CF0D1012D12D1002318461A461DF8AC
:100A50000310914288BFF85C03F1010388BF0A4686
:100A6000102BF4D1044B1A7004B0BDE8F0810125BD
:100A7000D8E700BF08000020A0000020F8B5102033
:100A8000744C00F073FA42F2107002F0F9FA237815
:100A9000002B00F08480704E704F3388B3F5967F42
:100AA00003D86F4B1B78002B6FD06E4D2B88B3F59E
:100AB000907F49D1402000F059FA822000F056FA88
:100AC000402000F00DFA00232B802B8801332B806F
:100AD000654B1B7813B1654B1B7813B1644B1B78C6
:100AE00083B1644D2B78FF2B32D00C2000F03EFAFE
:100AF0004EF6602002F0C4FA287801F02BFC0C209E
:100B000000F0EEF9402000F031FA01F021FB05463B
:100B1000402000F0E5F915BB00F0BCFA00233B8053
:100B200000F0D6FA3388B0F5167F0344338004BF53
:100B3000002323703B88002B79D04EF66020584369
:100B4000BDE8F84000F004BA022000F00FFABCE75C
:100B5000082000F00BFA02F0BDF80820D0E7404A68
:100B600000233380137000F095FA002DD6D0EB7B74
:100B70002A7C43EA02233B806B7B002BD0D02846A3
:100B800001F0F6FB0028C9D0CAE7402000F0EEF9DA
:100B900001F074FB0546402000F0A2F9E3E7364D72
:100BA0002B7863B1DA0701D5242B08D9402000F057
:100BB000DDF9802000F0DAF9402000F091F94020C2
:100BC00000F0D4F9FFF722FF2070402000F088F9F0
:100BD000237813B9264B1B7843B1234B1B7813B1F1
:100BE000224B1B7813B12B78232B16D10820214ED2
:100BF00000F0BCF94EF6602002F042FA3378FF2B89
:100C00001AD0042000F0B2F9307801F0A3FB0420E0
:100C100000F066F9082000F063F92378ABB10023F7
:100C20002B700F4BFD2228201A7000F04DF900F0B8
:100C30004FFA4FF47A7382E72B78222B02D902F015
:100C400057F9E7E702F004F9E4E7012000F00AFAB7
:100C5000EFE700BF79140020040300200803002000
:100C6000100300200E03002006030020891400203A
:100C70008A140020020000200A03002037B54FF438
:100C8000E1315E485E4C02F02BFD00F0E5F81120EA
:100C900000F06CF95B4BFC2242F210701A7002F00B
:100CA000EFF9574802F0CFF900252B5DFF2B59D102
:100CB0000135082DF9D1544803F000FD284600F015
:100CC00055F902F06BF91C2000F00AF94FF0FF30E3
:100CD00000F03EF9BFF34F8F4C494D4BCA6802F408
:100CE000E0621343CB60BFF34F8F00BFFDE7494A7B
:100CF000137843F020031370082000F037F901F057
:100D000021FF082000F032F947F2305002F0B8F924
:100D1000FFF72EFE404C207042F2107002F0B0F946
:100D200023788BB13D4803F0C9FC01F0D3FF2820A4
:100D300000F0CAF8182000F0D3F841F2883003B070
:100D4000BDE8304000F004B9354803F0B7FC02F0CC
:100D50007FF84FF4167000F0B7F8182000F0C0F8D4
:100D60003048ECE7304B1D780A226420B5FBF2F3E3
:100D7000B5FBF0F102FB135300FB11502B4D009516
:100D8000DBB2C0B2B0FBF2F2294803F023FC202012
:100D900000F0ECF862782178264803F01BFCE2783A
:100DA000A178254803F016FC62792179224803F0E6
:100DB00011FCE279A179214803F00CFC402000F0FD
:100DC000D5F8822000F0D2F8402000F089F8042005
:100DD00000F0CCF801F06AFD042000F081F800F08A
:100DE00039F8012883D0022886D10E4802F048F94C
:100DF000082000F0BBF801F087FEFEE7A4180020F1
:100E00008014002010030020365B000000ED00E09D
:100E10000400FA05EE020020791400201F5B000098
:100E2000295B0000C0D40100D27A0000D37A000010
:100E30004D5B0000625B0000665B00006F5B0000C2
:100E400010B50348144602F0EFFA204610BD00BF6B
:100E5000A41800200020704708B50121102002F0DE
:100E6000CDFE0121112002F0C9FE0121122002F065
:100E7000C5FE0121102002F099FE0121112002F08F
:100E800095FE0121122002F091FE02211C2002F0A9
:100E90008DFE02211D2002F089FE00210D2002F0AE
:100EA00085FE01210E2002F081FE01210F2002F0BB
:100EB0007DFE01210C2002F0A1FE01210C20BDE8E5
:100EC000084002F073BE0000044B188058809880E0
:100ED000D880188158819881D8817047F00200200D
:100EE000410638B5044602D5002002F083F914F01B
:100EF000040F134D0BD0FFF778FB01210C2002F0FB
:100F00007DFE2B781BB101210C2002F077FE220719
:100F100007D5012000F06CFB00F092FB002000F0F0
:100F200067FB2B7823B9074B1B780BB9064A137064
:100F3000A30604D5054B1A780AB100221A7038BDF1
:100F4000020300203A0300200B03002003030020CB
:100F500010B501460446044803F03CFB2046BDE8BA
:100F6000104000F0C3B800BF795B000070B5C60741
:100F7000044603D547F2305002F082F8250706D523
:100F80002F4B0120187000F033FB00F074FB20069B
:100F900017D52B4D0120012600F02AFB2E7000F002
:100FA000BAFB284B188040F691139842264B88BF15
:100FB00000224FF0000094BF1E701A70287000F0DD
:100FC00017FB610727D51E4B01221A701F4B1B7898
:100FD0000BBBFFF70DFBF0B91D4803F06FFB402082
:100FE000FFF77EFF0820FFF7C1FF01F0A1FF0C20F3
:100FF000FFF776FF4FF0FF30FFF7AAFFBFF34F8FE9
:101000001449154BCA6802F4E0621343CB60BFF386
:101010004F8F00BFFDE762060AD502F019F90F4BAA
:101020001878A0F10B03102B88BF0B2002F0D2F828
:10103000A30604D50A4B1A780AB901221A7070BDAA
:101040000B030020EC020020060300200203002016
:101050008F5B000000ED00E00400FA057914002029
:1010600003030020094A20B11378FF2B1CBF013372
:1010700013701378172B05D9232B054898BF4FF40D
:10108000E15070474FF46160704700BF0A030020D1
:101090008051010010B50B4B0B491B780B4803EB3B
:1010A0008303C3EBC3031B010E229BB2B3FBF2F31A
:1010B0000A7802F00704013228330A7020F814304D
:1010C00010BD00BF0103002000030020F00200203B
:1010D00000230549184631F8132001331044082B2A
:1010E00080B2F8D1C0087047F002002038B505463C
:1010F000002002F07FF84FF0804301225A60D3F8BD
:101100000C2402F00112B2F1011FF8D00E480F4C6E
:1011100002F0F8FA02F016FD284601F021FC02F078
:10112000D5FC206002F0D2FC2368C01AA84203D28A
:1011300020BF40BF20BFF5E74FF4E1310248BDE8D2
:10114000384002F0CDBA00BFA418002014030020DC
:10115000704708B50121142002F028FD0121062066
:10116000BDE8084002F04ABD10B500210446062043
:1011700002F044FD0021052002F040FD2046FFF76B
:10118000DDFB01210620BDE8104002F037BD38B577
:1011900005460C460620002102F030FD0021052006
:1011A00002F02CFD2846FFF7C9FB0121052002F0C3
:1011B00025FD2046FFF7C2FB01210620BDE838408F
:1011C00002F01CBD70B506460D46062000211446EF
:1011D00002F014FD0021052002F010FD3046FFF75B
:1011E000ADFB0121052002F009FD2846FFF7A6FB13
:1011F0002046FFF7A3FB01210620BDE8704002F066
:10120000FDBC10B500210446062002F0F7FC0021C9
:10121000052002F0F3FC2046FFF790FB012105209A
:10122000BDE8104002F0EABC10B5002104460620DB
:1012300002F0E4FC0021052002F0E0FC2046FFF76C
:101240007DFB0021142002F0B1FC01210520BDE846
:10125000104002F0D3BC000070B5114C6678054612
:101260001EB9BDE87040FFF769BB40FA06F320786D
:101270001843C0B22070FFF761FBA378E278C6F193
:1012800008000133DBB205FA00F0C0B29A422070C8
:10129000A37004D1FFF752FB00232370A37070BD2D
:1012A0001A03002038B5082500240121132002F07C
:1012B000A5FC0120013800BF00BF00BF00BF00BF78
:1012C00000BF00BF00BF00BF00BF00BF00BF00BF26
:1012D00000BF00BF00BF00BF00BF00BF00BF00BF16
:1012E00000BF00BF00BF00BF00BF00BF00BF00BF06
:1012F00000BF00BF00BF00BF00BF00BF00BF00BFF6
:1013000000BF00BF00BF00BF00BF00BF00BF00BFE5
:1013100000BF00BF00BF00BF00BF00BF00BF00BFD5
:1013200000BF00BF00BF00BF00BFC3D114206400D6
:10133000E4B202F075FC08B10134E4B200211320DC
:1013400002F05CFC0120013800BF00BF00BF00BFFD
:1013500000BF00BF00BF00BF00BF00BF00BF00BF95
:1013600000BF00BF00BF00BF00BF00BF00BF00BF85
:1013700000BF00BF00BF00BF00BF00BF00BF00BF75
:1013800000BF00BF00BF00BF00BF00BF00BF00BF65
:1013900000BF00BF00BF00BF00BF00BF00BF00BF55
:1013A00000BF00BF00BF00BF00BF00BF00BF00BF45
:1013B00000BF00BF00BF00BF00BF00BFC3D1013DE1
:1013C00015F0FF057FF471AF204638BD38B50546EE
:1013D00002F07CFB04461C4801F052FE032210463A
:1013E0001A4902F0D7FA4FF0A043D3F80C2722F4A1
:1013F0004032C3F80C27D3F80C2742F44032C3F82C
:101400000C2702F063FB001BA84210D2642001F0FD
:10141000A7FA20BF40BF20BF032002F001FC002834
:10142000EFD147F23050BDE8384001F029BE02F05C
:101430004DFB011B064803F0CDF8032002F0F0FB42
:101440000028FAD1EDE700BFC0D40100511100001F
:10145000A25B0000F8B53E4D3E4E2C783288012C40
:10146000D3B237D1DB4303F0070304FA03F3DFF809
:10147000E8C05BB20024C4F1070741FA07F7FF0791
:1014800042BF14F80C701F4304F80C700134082C90
:10149000F1D1DFF8C4C0072140FA01F4E40741BFED
:1014A000ACEB0107FC7B1C43FC7311F1FF31F3D261
:1014B00001323280348814F0070448D1264E2A784D
:1014C000E3B2B3EB021F04F1010439DAF05CFFF779
:1014D00035FAF4E703F00703C3F106030324DBB294
:1014E00004FA03F31C4F5BB20024C4F1070C41FA69
:1014F0000CFC1CF0010F0DD017F814C043EA0C0CC3
:1015000007F814C007EB440E9EF801C043EA0C0C28
:101510008EF801C00134082CE7D10F49072440FAA6
:1015200004F7FF0705D50F7C1F430F744F7C1F4343
:101530004F74013C671C01F10201F0D10232B8E79F
:10154000202200210448BDE8F84003F03BB8F8BD74
:1015500001000020180300201A0300202DE9F843A1
:10156000224B93F80080B8F1020F07460D4633D1A5
:1015700003260724002047FA04F3DA0704F00309DE
:1015800041BF4FEA490306FA03F31843C0B2B9F169
:10159000000F02D1FFF760FE484614F1FF34EAD293
:1015A000072445FA04F3DB0704F0030941BF4FEABF
:1015B000490306FA03F31843C0B2B9F1000F02D190
:1015C000FFF74AFE484614F1FF34EAD2B8F1010FA2
:1015D00009D04FF00108CCE7FFF73EFE2846BDE8F2
:1015E000F843FFF739BEBDE8F88300BF01000020D3
:1015F00038B5124C2278824205461DD0D8B101215F
:10160000042002F0D3FA0121022002F0CFFA0121D6
:10161000062002F0CBFA0121052002F0C7FA0021D2
:10162000032002F0C3FA0121132002F0BFFA0121C6
:10163000142002F0BBFA257038BD00BF3A03002029
:1016400008B50021042002F0D9FA0A2002F058FA65
:101650000121042002F0D2FA322002F051FA1320C4
:10166000FFF782FD0F20FFF7B1FE03211020BDE838
:101670000840FFF78CBD08B50C2002F041FA0021AC
:10168000042002F0BBFA142002F03AFA01210420EF
:1016900002F0B4FA142002F033FA1220FFF764FDCE
:1016A0000A2002F02DFA1320FFF75EFD0A2002F057
:1016B00027FA54217420FFF76AFD3B217E20FFF7B3
:1016C00066FD632204212B20FFF77CFD0120FFF73C
:1016D00098FD7F20FFF732F90120FFF72FF9002056
:1016E000FFF72CF90121062002F088FA01213C20A5
:1016F000FFF74DFD80211820FFF749FDB121222081
:10170000FFF745FD2020FFF72FFD4FF47A70BDE86D
:101710000840FFF75BBE38B5322002F0F1F9002136
:10172000042002F06BFA322002F0EAF901210420D1
:1017300002F064FA322002F0E3F91220FFF714FD00
:101740001E20FFF743FE1320FFF70EFD1E20FFF7BC
:101750003DFEC0212220FFF71AFD2020FFF704FDE7
:101760006420FFF733FE032421461520FFF70FFD09
:101770006420FFF72BFE2F20FFF756FDFFF792FDA9
:101780000546FFF7E6FCEB0613D504EB840404EBF7
:101790008404A40004F23A74A4B21320FFF7E4FC1A
:1017A0000F20FFF713FE03211020FFF7F0FC204667
:1017B00038BD0134E4B2082CD6D140F62824ECE739
:1017C0007047CA08013AC0F3C701D2B24420FFF7FC
:1017D000F9BC38B5054645200C46FFF712FDE8B2C6
:1017E000FFF7ACF8013C280AFFF7A8F8E0B2FFF7D2
:1017F000A5F8C4F30720FFF7A1F801210620BDE8F2
:10180000384002F0FBB910B50C46C0F3C7014E20BA
:10181000FFF7BDFC4F20FFF7F4FCE0B2FFF78EF8B6
:10182000200AFFF78BF801210620BDE8104002F0E6
:10183000E5B941EA0011C9B22120FFF7A8BC08B5FB
:10184000A8210020FFF7BDFF4FF4C0710020FFF773
:10185000C0FF00210846FFF7D6FF03211120FFF744
:1018600096FC66214720FFF792FC6420FFF7AEFD4F
:1018700046206621FFF78BFC6420BDE80840FFF797
:10188000A5BD000008B5F7212220FFF780FC20202D
:10189000FFF76AFC0248BDE80840FFF797BD00BFAC
:1018A000C0D4010008B52220F721FFF770FC2020EA
:1018B000BDE80840FFF758BC08B5F7212220FFF724
:1018C00066FC2020FFF750FC0448FFF77FFD012154
:1018D0000C20BDE8084002F091B900BFA0860100CD
:1018E0000148FFF773BD00BFC0D4010008B508214F
:1018F0002120FFF74CFCA8210020FFF762FF4FF4E6
:10190000C0710020FFF765FF03211120FFF73FFCA6
:1019100000210846BDE80840FFF775BF08B540B193
:101920002620FFF76EFC01210620BDE8084002F0EA
:1019300065B92420F5E70121062002F05FB92DE901
:10194000F04117460278457898460E4653074FEA0D
:10195000D20118BF013104464D4306EBC10189B2E3
:101960003046FFF72EFF6178394489B23846FFF7D9
:1019700030FF39463046FFF746FF03211120FFF7BD
:1019800006FCB8F1000F0CD02620FFF73AFC023518
:10199000A61C2C44A64206D016F8010BFEF7CEFF7B
:1019A000F8E72420F1E701210620BDE8F04102F02C
:1019B00025B970472D4A00EB800170B502EB81011B
:1019C00000230124CD5C0133002D18BF0024142B0B
:1019D000F8D1002C39D103FB00231D5D191925B95D
:1019E000497811B90234E4B2F7E71423142503FB54
:1019F0000023591911F8016C2EB911F8021C11B904
:101A0000023DEDB2F5E7142606FB0026184BA54271
:101A100019780ED93319325D587829B11146FFF77C
:101A20009DFD0234E4B2F1E701461046FFF712FDD6
:101A3000F7E729B100210846BDE87040FFF78EBDE9
:101A40000846BDE87040FFF705BD094D0824297818
:101A500041B100210846FFF781FD013C14F0FF046D
:101A6000F5D170BD0846FFF7F5FCF6E7BC5B00005A
:101A7000000000202DE9F0410E462E499DF8187017
:101A80000A7001332C49DBB204460B70884672B3EE
:101A900000F00705A9B2294A002029B35B00557060
:101AA00010709070D370082501213046FFF791FE29
:101AB00098F80030022BA9B20CBF04F1200504F104
:101AC0001005294489B22046FFF77BFE31462046A7
:101AD000FFF799FE01211120FFF759FB47B326209C
:101AE000BDE8F041FFF78DBB51700D46DCE7022BDE
:101AF00005BF20F0010406F1200106F11001A4B297
:101B0000304689B2FFF765FE31462046FFF77BFE7F
:101B10000B4B2046A8211C80FFF753FE0721112004
:101B2000FFF735FB20220021044802F04BFDD5E7EA
:101B30002420D5E700000020010000201A03002027
:101B4000180300200D4B70B51C7884B90C4B1B8812
:101B50005B070CD00B4E0C4D3278E3B2B3EB021F97
:101B600004F1010403DAE85CFEF7E8FEF4E7012182
:101B70000620BDE8704002F041B800BF0000002020
:101B800018030020010000201A0300200FB410B534
:101B9000ADF5027D84AA02A852F8041B019202F05E
:101BA000CBFD0DF1070414F8010F10B1FFF702FF90
:101BB000F9E70DF5027DBDE8104004B07047000064
:101BC00010B50849012200238C180132A47D23445A
:101BD000D4B2A042DBB2F7D8887DC31A584258412C
:101BE00010BD00BF750300200B4B187800F00702F2
:101BF000012A0FD15A7802F0CC02C82A03D142063A
:101C000008D4587C7047CC2A04D110F0400002D090
:101C1000587D704700207047750300202DE9F84378
:101C2000012001F0E7FA234C234E244F10251B22FC
:101C300000212048DFF89C9002F0C4FC1923237097
:101C40001F48204AEA23A375336803607368436022
:101C50003B6840F8083C7B6840F8043C41236370D3
:101C6000CC23A370184B1B88A3801378E370591CF6
:101C70000E381170FEF742FB01F028FF804601F09C
:101C800025FFA0EB080005280DD84846FEF712FBFB
:101C90000128F4DDFFF7A8FFEB28F0D10B48BDE8E1
:101CA000F84302F00BBD013D15F0FF05BFD1084818
:101CB000F5E700BFF5030020801400203B0300205F
:101CC000030400206203002044030020CF710000C1
:101CD000D7710000750300202DE9F04FC84BC94CA7
:101CE000C94F85B00522B0F5805F1A70019304F1E9
:101CF0000B0540F093802A233B704FF0FF33C4F86C
:101D00000B30AB80C14BDFF84083009300221A7088
:101D1000019B019A1D786B1E1370002D00F06B81E2
:101D2000617ABB48DFF8ECB202F054FC4020FFF7C8
:101D30001DF9012001F05EFA01F06EFA4FF0000982
:101D40000BF10E0A2A252A460021B24802F03AFC7D
:101D5000009B8BF800501A78002A00F08280E7225E
:101D6000AD4B8BF816201A68CAF80020AB485A68A9
:101D7000CAF80420AA4A01681160416851609BF8C2
:101D80000110A84801F0B80141F041018BF80110A1
:101D90009BF8021041F0CC018BF8021001788BF80F
:101DA00003104D1CA04905700988ABF80410954933
:101DB000113201F1100051F8045B42F8045B8142DA
:101DC000F9D10978117000210A460BEB01000131AD
:101DD000007E10290244D2B2F7D18BF81720584662
:101DE000FEF78CFA01F072FE0A26904DB9FBF6F66A
:101DF000073606448D48FEF75DFA012840F38B80D4
:101E0000FFF7F2FEE92801462DD0EC2800F0918082
:101E1000E8287DD10023EB752B7629E06321031D93
:101E2000B0FBF1F201FB120080B2B3FBF1F3DBB2C5
:101E3000A8B93B7000223E78C4F80B20AA80012587
:101E4000D3B29E427FF65EAF04EBD30103F00703EB
:101E5000C87A05FA03F30343CB720132F0E701338A
:101E6000E7E7E4227CE70320FFF7AAFE002852D030
:101E7000B5F8170018B1222863D801F041FE0120FF
:101E800001F0B8F901F022FEDFF8A09100F5917B96
:101E900009F1190A01F01AFE83455CD94846FEF79C
:101EA00009FA0128F6DDFFF79FFEE828F2D1EA7D66
:101EB000637A9A42EED12E7E06EB460303EB431380
:101EC00041F202029342E5D82A2EE3D840F6A172ED
:101ED000934283BFC3F58052043292B263226620DC
:101EE000CDE90232FFF76CFEDDE902320028D1D0E5
:101EF00008EB0300514602F05AFB04EBD602012323
:101F000006F00706B340D67A26EA0306D672C1E782
:101F1000474802F05FFB01F0D9FD86423FF66AAF09
:101F200009F101095FFA89F9B9F11E0F3FF472AFA7
:101F300008E7404802F0C2FB0025284605B0BDE88E
:101F4000F08F0A38FFF704F85020FFF70FF8012050
:101F500001F050F993E7002001F04CF901F05CF931
:101F60004020FEF7BDFF387800220125D3B2984209
:101F70000CD904EBD30103F00703C97A41FA03F348
:101F800013F0010F18BF00250132EFE765B32A48AF
:101F900002F094FB0022B8F80000134691B281428F
:101FA00006D208EB0201013209790B449BB2F5E736
:101FB000B8F802209A42C0D03D7800220120D3B266
:101FC0009D420AD904EBD30103F00703CE7A00FA4D
:101FD00003F33343CB720132F1E7009A1748002331
:101FE000137002F06BFB93E6154802F067FB009A52
:101FF000012313708CE6134802F060FB9DE700BFDD
:1020000058030020630300206003002061030020C8
:1020100060710000F5030020801400203B030020C5
:10202000FB0300206203002044030020750300200E
:1020300068710000797100008B71000096710000DA
:10204000AD710000BA710000750400202DE9F04167
:102050000746002001F0CEF8384601F0BBF801F049
:10206000DBF8012001F0C6F8314C324E0125172271
:1020700000212F4802F0A6FA2F4A3048142323707B
:10208000ED23A374136803605368436021232C4A33
:102090006370C823A3701378E370591C1170442334
:1020A00047224FF0FF310A3822716371A171E1714B
:1020B00022726372FEF722F901F008FD00F10508B3
:1020C00001F004FD40452CD23046FEF7F3F801281C
:1020D00023DDB37DBB4220D1FFF786FDEE281CD166
:1020E000327802F00703012B17D1737803F0CC0389
:1020F000C82B12D0CC2B10D153060ED51149124A41
:102100000B6813604B6853603279F37843EA02231B
:102110000E4A13802846BDE8F081012001F0F0FC52
:10212000CEE70135EDB2152DA1D10025F2E700BFB4
:10213000F50300207503002080140020FF03002019
:1021400062030020820300203B03002044030020A0
:10215000F8B5012001F04EF8394C3A4E00252C22FA
:102160000021374802F02EFA3749384A2A232370D3
:10217000E523A3740B6813604B6853602123344A32
:102180006370C823A3701378E370591C44236371F0
:102190006372332363762F4B11701B78A3762E4B1B
:1021A0001B7863752D4B1B7823752D4B1B78A375FE
:1021B0002C4B1B88A4F817302B4B47224FF0FF31D4
:1021C0001B78227122720022E376A171E17113461D
:1021D000A1180132097D142A0B44DBB2F8D1204644
:1021E000E374FEF78BF801F071FC471D01F06EFC03
:1021F000B8421DD23046FEF75DF80128F6DDFFF744
:10220000F3FCE628F2D11120FFF7DAFC0028EDD02C
:102210001648174A03681360436853603279F378AD
:1022200043EA0223134A1380134B09301D70F8BD93
:102230000135EDB20E2D92D10F4B00201D70F6E747
:10224000F50300207503002080140020FF03002008
:102250006203002010030020A1000020A000002045
:102260000C030020EC020020EE020020820300207C
:102270003B03002044030020010300202DE9F84324
:10228000012000F0B7FF2A4C2A4E00254FF0140819
:10229000294884F80080E323A374336803607368DB
:1022A0004360264A264F21236370C823A370137806
:1022B000E370591C1170442347224FF0FF310A3854
:1022C00022716371A171E17122726372FEF716F8D7
:1022D00001F0FCFB00F1050901F0F8FB48451ED2B6
:1022E0001748FDF7E7FF0128F6DDFFF77DFCE6283C
:1022F000F2D11120FFF764FC0028EDD01148124AFA
:1023000003681360436853603A79FB7843EA022319
:102310000E4A13800E4B09301D70BDE8F88301355D
:10232000EDB20E2DB4D10A4B00201D70F5E700BFB1
:10233000F503002080140020FF030020620300202A
:1023400075030020820300203B030020440300208B
:102350000103002010B5054CC003217800F5A03022
:10236000FDF7CEFF0023237010BD00BF7C140020BA
:102370002DE9F74F437B212B044618D8202B06D29A
:10238000032B00F0A981102B01D0022B17D1BA49E1
:10239000D1F80930671C0E469BB908220131384636
:1023A00002F0F6F868B9B54802F088F9F9E1A02B17
:1023B00005D3A12B40F2F181B02B00F0458201241E
:1023C000CBE10420DFF808A3DFF8F8B2FEF7CEFD7A
:1023D000AB4B01930025D0469AF800305FFA85F99F
:1023E0004B4516D94FEAC9301822594600F5A0309E
:1023F000FEF7D6F804220DEB0201A24802F0C8F85D
:1024000028B908223946584602F0C2F818B10135F9
:10241000E2E74FF0FF099C4D042085F80090FEF79D
:102420005FFD2B78FF2B2DD04020FEF79FFDFFF79F
:10243000F5FB4020FEF754FD2978944802F0CAF8D5
:102440008D4A234604F1100153F8040B42F8040BA3
:102450008B42F9D11B7813700023F37233737372BC
:10246000B3728B4BA27B1A704EF6602000F008FE10
:102470000C20FEF77BFD2878FFF76CFF0C20FEF7A1
:102480002FFD9CE78348DFF808A2DFF8489202F0AE
:1024900015F9A37B8AF800300420FEF767FD0822B7
:1024A0007D49384602F074F800284FD1D6F809303B
:1024B000002B4BD0794802F08DF899F800302B7042
:1024C000774FDFF8F081D6F80930002B00F0A280BA
:1024D00042F2107000F0D4FDD6F80930B3F5805FF9
:1024E00088BF4FF480533B803888FFF7F5FB0446E4
:1024F0000420002C00F0A581FEF738FD98F80900B3
:102500002B7868490003C0F5FF42683292B200EBB5
:10251000C330B2F5805F00F5A03028BF4FF4805281
:102520001830FEF77DF910B95F4802F0C7F80420B3
:10253000FEF7D6FC98F809303A88013388F809305C
:10254000D6F809309B1AC6F80930BCE799F8003074
:1025500098F8002055480133DBB29A4289F80030E0
:102560009CBF002389F8003099F80010297002F010
:1025700031F8A37B8AF800300420FEF7F7FC4FF017
:10258000060808F1FF3818F0FF0827D02878C003A4
:10259000082100F5A030FEF77FF90028F1D0297856
:1025A000434802F017F8434B00225A723A68C3F8C6
:1025B00001207A68C3F80520627B9A722E4B04F1E1
:1025C000100254F8041B43F8041B9442F9D12278FA
:1025D0001A70394BD6F809201A8071E74020FEF7AF
:1025E0007FFC0820FEF7C2FC00F0A2FC0C20FEF7E6
:1025F00077FC4FF0FF30FEF7ABFCBFF34F8F2F4956
:102600002F4BCA6802F4E0621343CB60BFF34F8FD5
:1026100000BFFDE7204A2B4C1368236053686360BA
:10262000212323724723284A63724D23A37249232F
:10263000E37213680133136063611F4B1B88E3600F
:10264000737B23740420FEF791FC2878C0031822C2
:10265000214600F5A030FEF7E3F80420FEF740FC29
:102660001A4802F02BF84020FEF780FCFFF7D6FA5C
:102670004020FEF735FCF7E6460300201570000009
:1026800021474D497D0400200200002035700000E4
:102690007C14002060700000470300207770000069
:1026A0007A14002079040020CC70000091700000A2
:1026B000AA700000630300207E14002000ED00E0FB
:1026C0000400FA05750400205C030020E07000009F
:1026D00074030020570300206B4D0420661CFEF796
:1026E00045FC0822691C304601F052FF10B9D5F8AC
:1026F0000930D3B9654B00225A723268C3F8012001
:102700007268C3F80520627B9A725F4B04F1100275
:1027100054F8041B43F8041B9442F9D122781A7030
:1027200010214FF48040FEF7B7F8594C574ED5F8BA
:102730000930002B00F08D8042F2107000F0A0FCF8
:10274000D5F80930B3F5805F88BF4FF480532380FC
:102750002088FFF7C1FA20B90024204603B0BDE865
:10276000F08F0420FEF702FC707A4A4904304FF4DF
:1027700080520003FEF754F810B9474801F09EFF5D
:102780000420FEF7ADFB737A228801337372D5F80B
:1027900009309B1AC5F80930C9E7404B1B785A0627
:1027A00006D44020FEF7E2FBFFF738FA402066E649
:1027B0003B4801F083FF3449D1F80930661C0D46CF
:1027C0003BB908220131304601F0E2FE08B9354834
:1027D000EAE52E4B00225A723268C3F80120726873
:1027E000C3F80520627B9A72274A234604F1100140
:1027F00053F8040B42F8040B8B42F9D11B78137089
:1028000042F2107000F03CFCD4F8090080B2FFF7EF
:1028100063FA044600289FD0002320206B72AB721D
:10282000EB722B73FEF7A2FB43F2124001F068F942
:102830002020FEF755FB4020FEF798FBFFF7EEF94E
:102840004020FEF74DFB88E7144B1B785B0783D4D1
:10285000A7E7154801F032FF0820FEF787FB40206C
:10286000FEF784FBFFF7DAF94020FEF739FB04207E
:10287000FEF77CFB4EF6602000F002FC4FF4804037
:10288000FDF778FE9BE500BF4603002063030020B0
:102890007A14002079040020CC700000EE020020A1
:1028A000F370000004710000367100002DE9F34759
:1028B000FDF75AFEB0F5A03FA0F5A03302D3DB0B25
:1028C0009AB21AB91E4801F0F9FEFEE713F47F4FE1
:1028D0001C4E03D01C4801F0F1FEFE23DFF870808F
:1028E00033700025194BDFF86CA001932C4608F1DA
:1028F00008093378EFB2BB4216D9F80318221449FD
:1029000000F5A030FDF74CFE04220DEB0201484615
:1029100001F03EFE30B9D8F81430A34284BF8AF8E3
:1029200000701C460135E4E70A4B0B481A78214633
:1029300001F050FE094B1C6002B0BDE8F08700BFFB
:10294000BC6F000074030020D06F000021474D4988
:102950007504002057030020F76F00005C0300207F
:10296000F8B51C4B1A789AB9012119701A4B4FF41B
:102970000061E024C3F8801183F80B431960174B02
:10298000C3F808254FF48032C3F80423C3F8442366
:10299000134B114E114C4FF40067C6F8807018604D
:1029A00001F016FC0F49D4F8045501F01DFD4FF05D
:1029B0008E4101F065FC01F0DDFA0B4B002201F0C5
:1029C0007BF901F02FFB2844C4F840050123376050
:1029D0002360F8BD8814002000E100E000B0004052
:1029E0000400002000007A440000E03F73B5134C5F
:1029F000D4F84061012E1FD10023C4F84031104BA0
:102A0000D4F80455186801F0E3FB0E4901F0ECFC22
:102A10004FF08E4101F034FC01F0ACFA0A4B002279
:102A200001F04AF901F0FEFA2844C4F84005D4F850
:102A300040310193019B666002B070BD00B0004060
:102A40000400002000007A440000E03F10B50E4C66
:102A5000237813B10D48FFF799F823785A060AD561
:102A60000B48FFF793F894F90030002BB4BF0948E6
:102A70000948FFF78BF823789B0604D50748BDE883
:102A80001040FFF783B810BDEE0200207072000006
:102A90007A7200007F720000FC7B000085720000EB
:102AA00038B5124B124D1C78F4B923462246214604
:102AB0001048FEF744FF0123224608210E48FEF786
:102AC0003EFF01232B700D4B0D4C1A8840F6282336
:102AD0009A424FF0000305D01A4670210948FEF7CC
:102AE0002EFF0123237038BD0023EBE7791400206B
:102AF0008A1400202073000064760000EC0200209D
:102B0000891400203279000007B50020FEF758FE36
:102B1000FEF795FE08210020FEF78BFE00231846E5
:102B20000093012240F22711FEF7A4FF0448FFF7AB
:102B30002DF8FFF707F803B05DF804EBFEF7BCBE15
:102B4000CF720000F0B5012089B0FEF739FEFEF724
:102B500076FE082100200025FEF76BFE01231A46B1
:102B600040F27F1128460095FEF784FF39483A4C21
:102B70003A4EFFF70BF8FEF7E5FF2B46012240F235
:102B8000271140200095FEF775FFFFF75FFFFEF766
:102B9000D9FF2B460095012240F227115020FEF765
:102BA00069FF2F4B009329460127052301222D4859
:102BB000FEF7ECFFFEF7C6FF2B463A4600974FF4B0
:102BC00087716920FEF756FFA279E1792648FEF762
:102BD000DDFF227961793046FEF7D8FFA278E178EF
:102BE0003046FEF7D3FF3046204E22786178FEF75C
:102BF000CDFFFEF7A7FFA379E279314603A801F0E4
:102C000065FD23796279314604A801F05FFDA37860
:102C1000E278314605A801F059FD23786278314603
:102C200006A801F053FD03A84FF48E727821FEF739
:102C3000C0FE2B4629460C220D48FEF780FE3B467F
:102C40002A4629460B48FEF77AFEFEF735FE09B004
:102C5000F0BD00BF9272000080140020B07200002E
:102C6000D37A00009B72000010720000665B0000C7
:102C70006E7600004273000013B508210020FEF7B5
:102C8000D8FD0220FEF79CFD0024FEF7D8FD0123AD
:102C90001A464FF4BB7100940220FEF7EBFE0A487F
:102CA000FEF774FFFEF74EFF234618222421074843
:102CB000FEF745FEFEF7E6FD0320FEF781FD044B1F
:102CC0001C7002B010BD00BFBE7200004879000049
:102CD0008B14002070B588B0FEF7B1FD08210020EC
:102CE000FEF7A7FD01200025FEF76AFD01231A4625
:102CF0004FF4BB7128460095FEF7BCFE4748484C90
:102D0000484EFEF743FFFEF71DFF2B4601224FF40E
:102D10008B7100953020FEF7ADFE4348FEF736FF7D
:102D2000FEF710FF2B460095012240F225114020AE
:102D3000FEF7A0FEA279E1793C48FEF727FF227951
:102D400061793046FEF722FFA278E1783046FEF73F
:102D50001DFF22786178364C3046FEF717FFFEF7EC
:102D6000F1FE2B460095012240F225115020FEF77E
:102D700081FE304B304A31491B7892F900200978A6
:102D80002F48FEF703FFFEF7DDFE2B4600950122DC
:102D90004FF481716720FEF76DFEA279E179294831
:102DA000FEF7F4FE227961793046FEF7EFFEA27855
:102DB000E1783046FEF7EAFE3046234E227861780D
:102DC000FEF7E4FEFEF7BEFEA379E279314603A8E2
:102DD00001F07CFC23796279314604A801F076FC8D
:102DE000A378E278314605A801F070FC2378627878
:102DF000314606A801F06AFC03A8FD227821FEF7FF
:102E0000D8FD2B460E2224211048FEF798FDFFF72F
:102E100047FEFEF751FD08B070BD00BFE171000034
:102E20003B030020B0720000F57100000D7200003D
:102E300080140020A0000020A100002079140020B0
:102E40001F72000037720000665B000048790000C6
:102E500013B50120FEF7B4FC082100200024FEF782
:102E6000E8FCFEF7ECFC01231A464FF4BB71204648
:102E70000094FEF7FFFD1948FEF788FEFEF762FE9C
:102E80002346012240F21D1100943020FEF7F2FD8E
:102E90001348FEF77BFEFEF755FE2346012240F263
:102EA0001D1100944020FEF7E5FD0E48FEF76EFE72
:102EB000FEF748FE2346182224210B48FEF73FFD6B
:102EC00001231A222A210948FEF739FDFFF7E8FD00
:102ED00002B0BDE81040FEF7EFBC00BFDE7200009C
:102EE000ED720000027300004879000010780000C5
:102EF00007B50120FEF764FC08210020FEF799FCCD
:102F0000FEF79DFC002300931A464FF4B87102208F
:102F1000FEF7B0FD0548FEF739FEFEF713FEFFF79A
:102F2000BFFD03B05DF804EBFEF7C6BCBB7200004A
:102F300013B50120FEF744FCFEF781FC08210020B8
:102F4000FEF777FC002401231A464FF4BB7120469C
:102F50000094FEF78FFD0E48FEF718FEFEF7F2FD17
:102F60002346012240F21D1100944020FEF782FD0D
:102F70000848FEF70BFEFEF7E5FD01231A222A2181
:102F80000548FEF7DCFC02B0BDE81040FEF794BC3B
:102F90004A7200005B7200001078000013B5012037
:102FA000FEF70EFCFEF74BFC08210020FEF741FC6B
:102FB000002401231A464FF4BB7120460094FEF70B
:102FC00059FD0E48FEF7E2FDFEF7BCFD2346012247
:102FD00040F21D1100944020FEF74CFD0848FEF71A
:102FE000D5FDFEF7AFFD01231A222A210548FEF781
:102FF000A6FC02B0BDE81040FEF75EBC12730000F4
:103000005B720000107800004FF080430020D3F87E
:103010000C24B2F1011F04BFC3F800010120704766
:1030200008B5FFF7F1FF58B94FF080430122C3F80C
:1030300000011A60FFF7E8FF0028FBD0002008BD60
:103040004FF0FF30FBE74FF08053D3F8A42002701D
:10305000D3F8A420120A4270D3F8A420120C827074
:10306000D3F8A420120EC270D3F8A8200271D3F8AE
:10307000A8301B0A437100238371C371704700009D
:103080000C4B0022C3F80C25C003C3F80C254FF4E9
:103090007A7290FBF2F0C3F80405D3F8082542F0E9
:1030A0000102C3F8082501221A60034AC3F800266A
:1030B000704700BF000001403546526E124B1B782E
:1030C000E3B1124B124A1B7803EB831302EB43026A
:1030D000104BC3F804250022C3F80C21D3F80C11BF
:1030E000C3F80821D3F808110421C3F80413C3F866
:1030F0005821C3F81C2101225A607047054B042255
:10310000C3F80823704700BF8D1400208F140020DF
:103110009014002000100040074B4FF0FF32C3F81E
:1031200008230022C3F8102101221A61D3F81021CC
:10313000002AFBD0704700BF0010004030B41F4A87
:103140001F49137803EB83135B00CC18C85C13464C
:103150001C4A1146D2F830511DB9D2F83451002D15
:10316000F8D0D1F80024D1F84825174922540A781C
:10317000013AD2B20A701A780132D2B2082A1A7011
:1031800004BF00221A70114A13780133DBB21370A6
:103190000C4B0022C3F80C21D3F80C11C3F83021DA
:1031A000C3F83421C3F80821D3F80831084B0222B0
:1031B000C3F8802130BCFFF781BF00BF8F1400200F
:1031C00090140020001000408D140020A018002052
:1031D00000E100E0A0F10B030F2B9FBF00EB80008C
:1031E000034B3238C3F8080594BF01200020704714
:1031F0000010004008B5074B197880F00102914299
:1032000003D1187018B1FFF759FF012008BDFFF76F
:1032100083FFFAE78C140020084A094800230221A2
:1032200010B5C2F8801003700648037006480824E1
:10323000047006480370116010BD00BF00E100E09B
:103240008F1400208E1400208D140020A018002060
:1032500070B5224C4FF47A750023C4F8FC3F013D51
:10326000D4F8FC2FF9D10126C4F8FC6FFFF754FF06
:10327000FFF7D6FE40F20223C4F83435184BC4F8E9
:103280003835A723C4F83C55C4F86036154BC4F84C
:1032900014358023C4F8183540F20123C4F85036A1
:1032A000C023C4F844350423C4F80C350F23C4F8F4
:1032B00010350D4BC4F800320C4B1D70FFF7ACFFFE
:1032C0000B4B202283F801230222C3F880211A60CD
:1032D0000523C4F80835304670BD00BF001000401B
:1032E0002110010008000006110010008C140020BD
:1032F00000E100E02DE9F0479A46304B91461A78FC
:103300009846002A56D02E4D2E4E2A7882235343BB
:10331000F45C2A78E4B2012C88BF023C02EB8212F2
:10332000A14206EB42070A4628BF2246791C01F05B
:103330003EF9BAF1000F0BD02A788221631C01FB01
:103340000262D35C9B00FF2B28BFFF238AF800306A
:10335000B9F1000F08D02A788221A31C01FB026674
:10336000F35C5B4289F800302B78174A1748013329
:10337000DBB2082B2B704FF0020104BF00232B702F
:10338000C2F8801003780133DBB2037098F8003084
:10339000013BDBB288F800300D4B11601B7833B174
:1033A0000C4BD3F804335B0701D4FFF787FE2046AC
:1033B000BDE8F0874FF0FF30FAE700BFA01800200B
:1033C0008E1400209014002000E100E08D140020F5
:1033D0008C1400200010004008B5FFF79DFE0F4B35
:1033E0000022C3F80405C3F8102101221A60D3F8A3
:1033F0001021002AFBD00022C3F81021C3F80C21B1
:10340000D3F80C31064B0222C3F88021054B1B7800
:103410000BB1FFF753FE012008BD00BF00100040B4
:1034200000E100E08C1400202DE9F04106460D4635
:1034300001EB02080C464445A4EB050707D03368AE
:1034400014F8011B1B68304698470028F3D1384612
:10345000BDE8F0810649074A074B9B1A03DD043B90
:10346000C858D050FBDC00F039F8FCF7E9FE00004A
:10347000387C00000000002084000020FEE7FEE70A
:10348000FEE7FEE7FEE7FEE7FEE7FEE7FEE7FEE714
:10349000074B1B78062B09D1064B1B68C3F303139C
:1034A000033B032B02D8044AD05C704700207047CE
:1034B000E00F00F0E80F00F0DD7A0000054B18681F
:1034C000421C04BF044B187820F00800831F5842A8
:1034D0005841704730010010E00F00F008B56C4B08
:1034E0001B685A1C04BF6B4B1B78062B05D16A4B1B
:1034F0006A4A1B68C3F304231360FFF7C9FF10B1C6
:10350000674B684A1A60FFF7D9FF28B1664B674AD4
:103510001B68C3F342331360FFF7BAFF20B1644A5C
:10352000D36823F08073D360FFF7C8FF40B14FF03A
:1035300080430022C3F80C21C3F81021C3F83825BA
:10354000FFF7A6FF10B15B4B03221A60FFF7A0FF45
:1035500040B1594B05221A6001229A6700229A60F5
:103560003F225A604A4B1A68501C0BBF494B534BC1
:103570001A781B6802BF08331B68C3F30313062ABB
:103580004ED1033B032B03D84D4AD35C002B49D0CB
:103590004FF080524B4BD2F80414C3F82015D2F8E8
:1035A0000814C3F82415D2F80C14C3F82815D2F85F
:1035B0001014C3F82C15D2F81414C3F83015D2F82F
:1035C0001814C3F83415D2F81C14C3F84015D2F8F7
:1035D0002014C3F84415D2F82414C3F84815D2F8BF
:1035E0002814C3F84C15D2F82C14C3F85015D2F88F
:1035F0003014C3F85415D2F83414C3F86015D2F857
:103600003814C3F86415D2F83C14C3F86815D2F81E
:103610004014C3F86C15D2F84424C3F8702501E0B7
:103620000E2AB5D01A4B1B68591C04BF194B1B78C6
:10363000062B05D1244B254A1B6803F04F0313606A
:10364000FFF73CFF48B14FF08043D3F80024D20786
:1036500044BF6FF00102C3F800240D4B1B68062B1A
:1036600009D1164B1B68033B022B81BF184A136814
:1036700043F480631360064B1B680E2B01BF134A93
:10368000136843F00F031360124B134A1A6008BD0E
:1036900030010010E00F00F024030010403501401D
:1036A00074C007400DF0ADBA440200103C05004064
:1036B000F0ED00E0A005004010560040340100107D
:1036C000D97A000000C0004058020010E40E00400B
:1036D0003C170040100000200090D00301207047EC
:1036E00003681322DB69184770470369C3F81C1588
:1036F0000369D3F81C21002AFBD00022C3F81C2147
:103700000120704710B490F95C30144C5909012223
:10371000203103F01F0302FA03F344F82130036958
:1037200010BC0421C3F8081303695A600369DA6006
:1037300003690022C3F8002502694FF0FF33C2F885
:103740000C350269C2F814350269C2F808350269FD
:103750001430C2F8103500F089BA00BF00E100E073
:10376000143000F095BA143000F098BA143000F01C
:1037700081BA0000036990F85E2010B5C3F80C25EB
:10378000036990F85D20C3F8142590F8612003695F
:10379000012A01BF90F85F40C3F81045036990F813
:1037A000604006BFC3F8084503690022B1F5966F73
:1037B000C3F86C2569D9B1F5166F69D9B1F5965F73
:1037C00069D9B1F5165F68D9B1F5615F67D9B1F50F
:1037D000964F66D9B1F5E14F65D9B1F5164F64D969
:1037E000B1F5614F64D9B1F5963F64D9B1F5E13FC8
:1037F00063D9B1F5613F63D9364B994263D9B1F5CD
:10380000E12F63D9B1F5612F94BF4FF070634FF092
:1038100080530269C2F8243503690422C3F80025E5
:1038200001690023C1F808310169C1F81C3101693F
:1038300001230B6001698B600169C1F8042390F9D1
:103840005C20510902F01F0293406031224A42F885
:10385000213090F95C30002BBDBF03F00F0302F65E
:10386000FC32D2189B18B5BF60236022137683F810
:10387000002390F95C300122590903F01F0302FA7A
:1038800003F3154A42F8213010BD4FF49E23C0E7E0
:103890004FF41D23BDE7114BBBE7114BB9E7114BAB
:1038A000B7E7114BB5E7114BB3E74FF41D03B0E792
:1038B0004FF46B03ADE70E4BABE74FF0EB73A8E7AC
:1038C0004FF06C73A5E74FF08063A2E74FF0E86319
:1038D0009FE700BF90D0030000E100E000B01300BC
:1038E0000050270000F03A0000A04E0000C0750014
:1038F00000903A012DE9F0411E4600254FF47A73FD
:10390000C0E901530D4B044640F8143B1746884666
:1039100000F098F90A4AC4F8108084F85C7052F8F4
:10392000263084F85D309DF8183052F8233084F842
:103930005E3084F861502046BDE8F081EC7A0000EA
:10394000147B000010B50369D3F8082104464AB17E
:10395000D3F818151430C9B200F07DF9236900229C
:10396000C3F8082110BD00000148FFF7EBBF00BFFE
:10397000A418002007B51923009302221A23034933
:103980000348FFF7B7FF03B05DF804FB00200040D9
:10399000A4180020F8B52F4F0D4639680646144686
:1039A00099B920222C4800F00DFE2C4B4FF0FF322D
:1039B0001A605A602A4B4022C3F88020C3F8802145
:1039C00083F806231A6001233B601F2E38D8032C8E
:1039D00005D0042C35D0022C32D1032400E002247F
:1039E000204B1E4A53F82630002116468856471CA5
:1039F00029D1194A735442F821508A0002F18042B9
:103A000002F5C0421B02D2F8100520F4473020F422
:103A10004070C2F81005D2F8100503F4F85343EAD9
:103A200004430343C2F81035D2F8103543F00103C4
:103A3000C2F81035012303FA01F10B4BC3F804134C
:103A4000F8BD0124CCE79842D3D001310829CDD16B
:103A5000F6E700BF301900200819002028190020BF
:103A600000E100E0147B0000006000402DE9F3411C
:103A7000134E144FDFF85080002505F1805404F5F3
:103A8000C254A4002368012B14D1D6F80423AB4000
:103A900013420FD0EB57013307D004F14043A3F595
:103AA000C24353F8083003B19847002323602368CA
:103AB0000193019B0135082DDFD102B0BDE8F081F3
:103AC0000060004028190020081900200A4B1968DE
:103AD0000A4B30B5D3F804050C060D0A44EA00027F
:103AE0004FF47A712B46A2FB014501FB0355E00B15
:103AF00040EA454030BD00BF3419002000100140AD
:103B000038B5044648B1FFF7E1FF054600F01AF862
:103B1000FFF7DCFF401BA042F8D338BD074B002263
:103B2000C3F8042182B0D3F80431054A0193019B04
:103B300013680133DBB2136002B07047001001401C
:103B4000341900207047704708B500F011F8FFF7EE
:103B5000FAFF0120FFF7D4FFFDF790F8034CFCF7C4
:103B60008DFF002CFBD0AFF30080F8E700000000D1
:103B70000D4BE02283F811234FF40032C3F880216B
:103B80001A604FF0804300210122C3F818159A6093
:103B900003F58833C3F808150221C3F80413C3F8EA
:103BA00044131A60704700BF00E100E01F280FD8DF
:103BB000114B53F8203003290AD8DFE801F0021630
:103BC0000A1003F5E0734FF0A042002142F82310E1
:103BD000704703F5E0734FF0A0420C21F6E703F5C0
:103BE000E0734FF0A0420421F0E703F5E0734FF0DB
:103BF000A0420321EAE700BF147B00001F280CD875
:103C0000064B53F82020012393404FF0A04211B9F6
:103C1000C2F80C357047C2F808357047147B0000B5
:103C20001F289FBF4FF0A043054AD3F8103552F824
:103C300020009ABF23FA00F000F001000020704736
:103C4000147B000008B54022002100F0BBFC0022DC
:103C5000C0E9102208BD026C10B5531C446C03F07F
:103C60003F039C421CBF8154036410BD0023C0E984
:103C700010337047D0E9102393421FBFC25C013359
:103C800003F03F03436414BF10464FF0FF3070470A
:103C9000D0E91030181A48BF40307047D0E91023DF
:103CA000934214BFC05C4FF0FF30704781F0004179
:103CB00002E000BF83F0004330B54FEA41044FEA11
:103CC000430594EA050F08BF90EA020F1FBF54EAAC
:103CD000000C55EA020C7FEA645C7FEA655C00F048
:103CE000E2804FEA5454D4EB5555B8BF6D420CDD19
:103CF0002C4480EA020281EA030382EA000083EA9C
:103D0000010180EA020281EA0303362D88BF30BD3B
:103D100011F0004F4FEA01314FF4801C4CEA113191
:103D200002D0404261EB410113F0004F4FEA0333F0
:103D30004CEA133302D0524263EB430394EA050F7B
:103D400000F0A780A4F10104D5F1200E0DDB02FAEA
:103D50000EFC22FA05F2801841F1000103FA0EF27E
:103D6000801843FA05F359410EE0A5F120050EF144
:103D7000200E012A03FA0EFC28BF4CF0020C43FA75
:103D800005F3C01851EBE37101F0004507D54FF082
:103D9000000EDCF1000C7EEB00006EEB0101B1F5D2
:103DA000801F1BD3B1F5001F0CD349085FEA300018
:103DB0004FEA3C0C04F101044FEA445212F5800F23
:103DC00080F09A80BCF1004F08BF5FEA500C50F1C0
:103DD000000041EB045141EA050130BD5FEA4C0CA3
:103DE000404141EB010111F4801FA4F10104E9D12C
:103DF00091F0000F04BF01460020B1FA81F308BF23
:103E00002033A3F10B03B3F120020CDA0C3208DDEE
:103E100002F1140CC2F10C0201FA0CF021FA02F1C9
:103E20000CE002F11402D8BFC2F1200C01FA02F139
:103E300020FA0CFCDCBF41EA0C019040E41AA2BF5E
:103E400001EB0451294330BD6FEA04041F3C1CDA26
:103E50000C340EDC04F11404C4F1200220FA04F046
:103E600001FA02F340EA030021FA04F345EA0301F0
:103E700030BDC4F10C04C4F1200220FA02F001FAB2
:103E800004F340EA0300294630BD21FA04F0294634
:103E900030BD94F0000F83F4801306BF81F48011CD
:103EA0000134013D4EE77FEA645C18BF7FEA655C40
:103EB00029D094EA050F08BF90EA020F05D054EA12
:103EC000000C04BF1946104630BD91EA030F1EBF17
:103ED0000021002030BD5FEA545C05D1400049411B
:103EE00028BF41F0004130BD14F580043CBF01F50E
:103EF000801130BD01F0004545F0FE4141F47001F4
:103F00004FF0000030BD7FEA645C1ABF19461046CE
:103F10007FEA655C1CBF0B46024650EA013406BFCF
:103F200052EA033591EA030F41F4002130BD00BF8E
:103F300090F0000F04BF0021704730B54FF480644B
:103F400004F132044FF000054FF0000150E700BFCC
:103F500090F0000F04BF0021704730B54FF480642B
:103F600004F1320410F0004548BF40424FF0000118
:103F70003EE700BF42004FEAE2014FEA31014FEA5B
:103F800002701FBF12F07F4393F07F4F81F06051AA
:103F9000704732F07F4208BF704793F07F4F04BFF5
:103FA00041F40021704730B54FF4607401F00045D2
:103FB00021F000411CE700BF50EA010208BF704732
:103FC00030B54FF000050AE050EA010208BF704723
:103FD00030B511F0004502D5404261EB41014FF48C
:103FE000806404F132045FEA915C3FF4D8AE4FF094
:103FF00003025FEADC0C18BF03325FEADC0C18BF77
:10400000033202EBDC02C2F1200300FA03FC20FAC7
:1040100002F001FA03FE40EA0E0021FA02F1144414
:10402000BDE600BF4A0011D212F5001211D20DD523
:104030006FF47873B3EB62520ED44FEAC12343F0AE
:10404000004343EA505323FA02F070474FF0000058
:10405000704750EA013002D14FF0FF3070474FF007
:104060000000704780F0004002E000BF81F0004196
:1040700042001FBF5FEA410392EA030F7FEA226C0E
:104080007FEA236C6AD04FEA1262D2EB1363C1BF9E
:10409000D218414048404140B8BF5B42192B88BF0D
:1040A000704710F0004F40F4000020F07F4018BF30
:1040B000404211F0004F41F4000121F07F4118BF50
:1040C000494292EA030F3FD0A2F1010241FA03FCF8
:1040D00010EB0C00C3F1200301FA03F100F00043E0
:1040E00002D5494260EB4000B0F5000F13D3B0F1A8
:1040F000807F06D340084FEA310102F10102FE2A17
:1041000051D2B1F1004F40EBC25008BF20F0010086
:1041100040EA03007047490040EB000010F4000F34
:10412000A2F10102EDD1B0FA80FCACF1080CB2EBC7
:104130000C0200FA0CF0AABF00EBC2505242184326
:10414000BCBFD0401843704792F0000F81F40001CB
:1041500006BF80F400000132013BB5E74FEA41039E
:104160007FEA226C18BF7FEA236C21D092EA030F0A
:1041700004D092F0000F08BF0846704790EA010F84
:104180001CBF0020704712F07F4F04D1400028BFB1
:1041900040F00040704712F100723CBF00F5000093
:1041A000704700F0004343F0FE4040F400007047C9
:1041B0007FEA226216BF08467FEA23630146420275
:1041C00006BF5FEA412390EA010F40F48000704788
:1041D0004FF0000304E000BF10F0004348BF40422E
:1041E0005FEA000C08BF704743F0964301464FF06A
:1041F00000001CE050EA010208BF70474FF00003C6
:104200000AE000BF50EA010208BF704711F0004306
:1042100002D5404261EB41015FEA010C02BF8446D6
:104220000146002043F0B64308BFA3F18053A3F535
:104230000003BCFA8CF2083AA3EBC25310DB01FA7C
:1042400002FC634400FA02FCC2F12002BCF1004F00
:1042500020FA02F243EB020008BF20F00100704791
:1042600002F1200201FA02FCC2F1200250EA4C00E5
:1042700021FA02F243EB020008BF20EADC7070472B
:104280004FF0FF0C1CEAD0521EBF1CEAD15392EA39
:104290000C0F93EA0C0F6FD01A4480EA010C400215
:1042A00018BF5FEA41211ED04FF0006343EA50106F
:1042B00043EA5111A0FB01310CF00040B1F5000FB1
:1042C0003EBF490041EAD3715B0040EA010062F160
:1042D0007F02FD2A1DD8B3F1004F40EBC25008BF4A
:1042E00020F00100704790F0000F0CF0004C08BF68
:1042F00049024CEA502040EA51207F3AC2BFD2F135
:10430000FF0340EAC250704740F400004FF0000342
:10431000013A5DDC12F1190FDCBF00F0004070477C
:10432000C2F10002410021FA02F1C2F1200200FABA
:1043300002FC5FEA310040F1000053EA4C0308BF81
:1043400020EADC70704792F0000F00F0004C02BFD2
:10435000400010F4000F013AF9D040EA0C0093F04D
:10436000000F01F0004C02BF490011F4000F013BA7
:10437000F9D041EA0C018FE70CEAD15392EA0C0F15
:1043800018BF93EA0C0F0AD030F0004C18BF31F080
:10439000004CD8D180EA010000F00040704790F056
:1043A000000F17BF90F0004F084691F0000F91F0FA
:1043B000004F14D092EA0C0F01D142020FD193EAC0
:1043C0000C0F03D14B0218BF084608D180EA010048
:1043D00000F0004040F0FE4040F40000704740F024
:1043E000FE4040F4400070474FF0FF0C1CEAD052F2
:1043F0001EBF1CEAD15392EA0C0F93EA0C0F69D04E
:10440000A2EB030280EA010C49024FEA402037D0B8
:104410004FF0805343EA111143EA10130CF00040AF
:104420008B4238BF5B0042F17D024FF4000C8B429F
:1044300024BF5B1A40EA0C00B3EB510F24BFA3EB7F
:10444000510340EA5C00B3EB910F24BFA3EB91034F
:1044500040EA9C00B3EBD10F24BFA3EBD10340EAA9
:10446000DC001B0118BF5FEA1C1CE0D1FD2A3FF6EF
:1044700050AF8B4240EBC25008BF20F001007047A4
:104480000CF0004C4CEA50207F32C2BFD2F1FF0347
:1044900040EAC250704740F400004FF00003013A78
:1044A00037E792F0000F00F0004C02BF400010F41C
:1044B000000F013AF9D040EA0C0093F0000F01F030
:1044C000004C02BF490011F4000F013BF9D041EA52
:1044D0000C0195E70CEAD15392EA0C0F08D1420285
:1044E0007FF47DAF93EA0C0F7FF470AF084676E758
:1044F00093EA0C0F04D14B023FF44CAF08466EE731
:1045000030F0004C18BF31F0004CCAD130F00042FE
:104510007FF45CAF31F000437FF43CAF5FE700BF56
:1045200008B5074B044613B10021AFF30080054BDB
:104530001868836A03B19847204601F0F3F900BF79
:1045400000000000947B000070B50D4E0D4CA41BC4
:10455000A4100025A54209D10B4E0C4C01F0E4F942
:10456000A41BA4100025A54205D170BD56F8253026
:1045700098470135EEE756F8253098470135F2E7C0
:1045800078000020780000207800002080000020C3
:1045900030B50024A24201D1002007E0035D0134C0
:1045A0000D1915F8015CAB42F4D0581B30BD10B5A5
:1045B000431E0A44914200D110BD11F8014B03F88B
:1045C000014FF7E702440346934200D1704703F8D6
:1045D000011BF9E70FB40A4B13B51C6824B1A3699A
:1045E00013B9204600F062FA05AB049AA168019362
:1045F000204600F069FD02B0BDE8104004B07047ED
:104600001400002070B50E46054618B183690BB939
:1046100000F04CFAAB69AC6813B9284600F046FAD2
:10462000234B9C4217D16C68A3891B071DD52369B6
:10463000DBB1013EA36816F8011F013BA360E9B995
:10464000002B2EDA22460A21284600F07FF801309E
:1046500011D00A2011E0174B9C4201D1AC68E3E76E
:10466000154B9C4208BFEC68DEE72146284600F067
:10467000BFF80028DDD04FF0FF3070BD002B04DA0A
:10468000A2699A4206DC0A2904D023685A1C2260D7
:104690001970CFE72246284600F058F80130C9D1FA
:1046A000E9E723680A205A1C22601870E5E700BF7A
:1046B000B87B0000D87B0000987B0000024B0146CD
:1046C0001868FFF79FBF00BF140000200EB400B5AC
:1046D0009CB01DAB029006906FF000410948079115
:1046E0000491094953F8042B05910068019302A92C
:1046F00000F0CCFB029B00221A701CB05DF804EBAA
:1047000003B07047140000200802FFFF00B59BB003
:10471000009104916FF000410591029105490391C8
:10472000694600F0B3FB009B00221A701BB05DF8D5
:1047300004FB00BF0802FFFF13460A460146024879
:104740000068FFF7E3BF00BF14000020F8B50E4675
:104750001446054618B183690BB900F0A7F9214B3F
:104760009C422AD16C68A369A360A3891A072ED53D
:10477000236963B323692068C01A6369F6B2834270
:10478000374604DC2146284600F026F928BBA368FA
:10479000013BA36023685A1C22601E7063690130CC
:1047A000834204D0A389DB0719D50A2E17D12146ED
:1047B000284600F011F990B10FE00B4B9C4201D15B
:1047C000AC68D0E7094B9C4208BFEC68CBE72146B8
:1047D000284600F00DF80028CCD04FF0FF373846BF
:1047E000F8BD00BFB87B0000D87B0000987B0000BC
:1047F000324B70B51D6806460C4625B1AB6913B93E
:10480000284600F053F92E4B9C420FD16C68B4F946
:104810000C309AB215072CD4D00611D4092232607C
:1048200043F04003A3814FF0FF303EE0254B9C4214
:1048300001D1AC68EBE7244B9C4208BFEC68E6E78B
:10484000510712D5616B41B104F14403994202D082
:10485000304600F019FA00236363A38923F0240390
:10486000A3810023636023692360A38943F00803C5
:10487000A38123694BB9A38903F42073B3F5007FA7
:1048800003D02146304600F0BFF9A28912F001039F
:104890000CD00023A36063695B42A361236953B911
:1048A000B4F90C3013F08000BAD170BD920758BF34
:1048B0006369A360F2E70020F7E700BF140000205F
:1048C000B87B0000D87B0000987B00008A892DE926
:1048D000F041054610070C4658D44B68002B05DC08
:1048E0000B6C002B02DC0020BDE8F081E66A002E94
:1048F000F9D0002312F480522F68216A2B6032D045
:10490000606DA3895A0705D56368C01A636B0BB144
:10491000236CC01A00230246E66A216A2846B04783
:10492000431CA38906D129681D2948D8294ACA40B1
:10493000D60744D500226260D9042269226004D5DA
:10494000421C01D12B6803B96065616B2F6000299F
:10495000C9D004F14403994202D0284600F094F9EA
:1049600000206063C0E701232846B047411CC8D13E
:104970002B68002BC5D01D2B01D0162B01D12F6029
:10498000B1E7A38943F04003A381ADE70F69002F8E
:10499000A9D093070E6808BF4B690F6018BF0023AA
:1049A000A6EB07088B60B8F1000F9CDD43463A4642
:1049B000216AA66A2846B047002806DCA38943F08E
:1049C0004003A3814FF0FF308EE70744A8EB0008B7
:1049D000E9E700BF0100402038B50B6905460C46E9
:1049E000DBB118B183690BB900F060F80C4B9C4245
:1049F00009D16C68B4F90C307BB121462846BDE87A
:104A00003840FFF763BF074B9C4201D1AC68F1E728
:104A1000054B9C4208BFEC68ECE7002038BD00BFA6
:104A2000B87B0000D87B0000987B0000002310B505
:104A30000446C0E90033836081814366C281C0E9D6
:104A400004338361194608225C30FFF7BBFD054B38
:104A50006362054BA362054BE362054B246223634B
:104A600010BD00BF21560000435600007B560000D9
:104A70009F560000014900F085B800BFD9490000E9
:104A800070B54A1E682555430E4605F1740100F0C5
:104A900049F9044640B10021C0E900160C30A0607D
:104AA00005F16802FFF78EFD204670BD836910B5E1
:104AB000044633BBC0E912330365124B124A1B682C
:104AC0008262984204BF0123836100F01FF8606096
:104AD000204600F01BF8A060204600F017F80022E6
:104AE000E06004216068FFF7A1FF01220921A068AE
:104AF000FFF79CFF02221221E068FFF797FF0123D6
:104B0000A36110BD947B0000754A0000F8B51B4BF3
:104B10001E68B369074613B93046FFF7C7FF48362A
:104B2000D6E90134013B03D5336833B13668F7E782
:104B3000B4F90C506DB16834F4E704213846FFF73E
:104B40009FFF30600028F1D10C233B6004462046D3
:104B5000F8BD0B4B6566C4E90055A560C4E9033593
:104B6000C4E905550822294604F15C00FFF72AFD37
:104B7000C4E90D55C4E91255E9E700BF947B000074
:104B80000100FFFF2DE9F8438046894600F1480403
:104B9000002614B93046BDE8F883D4E90175013F19
:104BA00001D52468F5E7AB89012B07D9B5F90E309B
:104BB000013303D029464046C84706436835EEE72F
:104BC00070B50E46B1F90E10002996B014461D4678
:104BD00007DA00232B60B3891A0610D44FF48063E0
:104BE0000EE06A4600F082FD0028F2DB019A02F432
:104BF0007042A2F500535A425A412A60EEE7402320
:104C00000020236016B070BD8B8973B59D070646E2
:104C10000C4607D504F14703236023610123636138
:104C200002B070BD01AB6A46FFF7CAFF00990546A6
:104C3000304600F077F848B9B4F90C309A05EFD453
:104C400023F0030343F00203A381E3E70D4BB362B8
:104C5000A389206043F08003A381009B6361019BD3
:104C600020615BB1B4F90E10304600F051FD28B15F
:104C7000A38923F0030343F00103A381A3891D4308
:104C8000A581CDE7754A000038B50546002945D015
:104C900051F8043C0C1F002BB8BFE41800F0C9FD0C
:104CA0001F4A1368104633B9636014602846BDE894
:104CB000384000F0BFBDA3420CD92168621893426E
:104CC00004BF1A685B68636004BF52182260046006
:104CD000ECE713465A680AB1A242FAD91968581883
:104CE000A0420BD120680144581882421960DDD1DE
:104CF000106852685A6001441960D7E702D90C2342
:104D00002B60D3E7206821188A4204BF11685268DB
:104D1000626004BF091821605C60C7E738BD00BF4E
:104D20003819002070B5CD1C25F0030508350C2D71
:104D300038BF0C25002D064601DBA94203D90C2300
:104D40003360002070BD00F074FD214A14682146D4
:104D500091B9204C23681BB9304600F051FC20600B
:104D60002946304600F04CFC431C24D10C23336010
:104D7000304600F05FFDE4E70B685B1B18D40B2B9B
:104D80000FD90B60CD50CC18304600F053FD04F124
:104D90000B00231D20F00700C31AD3D05A42E25063
:104DA000D0E78C424B6816BF636013600C46EBE79C
:104DB0000C464968CCE7C41C24F00304A04205D08B
:104DC000211A304600F01CFC0130CFD02560DBE713
:104DD000381900203C1900202DE9F0478E689E42CA
:104DE00082460C469046994637D88A8912F4906FCD
:104DF00031D0256809696F1A6569022305EB4505FD
:104E000095FBF3F509F101033B449D4238BF1D4674
:104E1000530530D52946FFF785FF064650B90C23C8
:104E2000CAF80030A38943F04003A3814FF0FF305C
:104E3000BDE8F0873A462169FFF7B9FBA38923F45F
:104E4000906343F08003A381266165613E44ED1BBE
:104E50002660A5604E464E4500D94E463246414634
:104E6000206800F0CDFCA3689B1BA36023681E4450
:104E700026600020DCE72A4600F0DDFC064600281C
:104E8000E2D121695046FFF7FFFEC8E72DE9F04F58
:104E90009DB0804603938B891D060C4616460FD5A0
:104EA0000B696BB94021FFF73DFF2060206128B9F5
:104EB0000C23C8F800304FF0FF30C7E04023636197
:104EC0000023099320238DF8293030238DF82A30D0
:104ED0004FF0010B37463D4615F8013B0BB1252B32
:104EE0003ED1B7EB060A0BD0534632462146404628
:104EF000FFF772FF013000F0A480099B534409932F
:104F00003B78002B00F09D8000234FF0FF32CDE96D
:104F10000523049307938DF853301A932F460522E7
:104F200017F8011B4F4800F01BFC049BD0B9D906B1
:104F300044BF20228DF853201A0744BF2B228DF83E
:104F400053202A782A2A15D0079A2F4600200A25AE
:104F5000394611F8013B303B092B4DD9B8B10FE070
:104F60002F46B8E73F4A801A0BFA00F01843049026
:104F70003D46D3E7039A111D12680391002A01DB15
:104F8000079204E0524243F00203079204933B78F5
:104F90002E2B0CD17B782A2B33D1039B1A1D1B6837
:104FA0000392002BB8BF4FF0FF33023705932E4D0D
:104FB00039780322284600F0D3FB38B14023401B48
:104FC00003FA00F0049B0343013704933978274820
:104FD0008DF8281006227E1C00F0C2FB002838D075
:104FE000234B13BB039B073323F0070308330393BF
:104FF000099B4B4409936DE705FB023201200F46E4
:10500000A6E700230137059319460A25384610F80C
:10501000012B303A092A03D9002BC8D00591C6E7E5
:1050200005FB012101230746F0E703AB009322466D
:10503000104B04A94046AFF30080B0F1FF3F81461A
:10504000D6D1A3895B063FF536AF09981DB0BDE800
:10505000F08F03AB00932246064B04A9404600F0B4
:10506000BDF9EAE7F87B0000FE7B0000027C00004F
:1050700000000000D94D00009368013B002B10B4E4
:10508000936007DA9469A34201DB0A2902D110BCBC
:10509000FFF75CBB1368581C10601970084610BC01
:1050A0007047F8B506460F461446D518AC4201D1F4
:1050B000002007E03A4614F8011B3046FFF7DCFFFA
:1050C000431CF3D1F8BD00002DE9F04F9DB00C4614
:1050D00017460393064618B183690BB9FFF7E6FC40
:1050E0007B4B9C4257D17468A38918075DD523690F
:1050F000002B5AD00023099320238DF82930302328
:105100008DF82A304FF0010BB846454615F8013BA3
:105110000BB1252B54D1B8EB070A0BD053463A46B6
:1051200021463046FFF7BDFF013000F0C280099BE9
:105130005344099398F80030002B00F0BA80002304
:105140004FF0FF32CDE90523049307938DF85330D8
:105150001A93A846052218F8011B5E4800F000FBD0
:10516000049B78BBD90644BF20228DF853201A0730
:1051700044BF2B228DF853202A782A2A2AD0079A56
:10518000A84600200A25414611F8013B303B092B77
:1051900069D960B324E0504B9C4201D1B468A3E7C5
:1051A0004E4B9C4208BFF4689EE721463046FFF70D
:1051B0001FFB00289ED04FF0FF301DB0BDE8F08FE0
:1051C000A846A2E7434A801A0BFA00F0184304905D
:1051D0004546BEE7039A111D12680391002A01DBC0
:1051E000079204E0524243F002030792049398F8B6
:1051F00000302E2B0ED198F801302A2B38D1039B8A
:105200001A1D1B680392002BB8BF4FF0FF3308F143
:1052100002080593324D98F800100322284600F04A
:105220009FFA40B14023401B03FA00F0049B034364
:1052300008F10108049398F800102A488DF8281006
:10524000062208F1010700F08BFA002837D0264B20
:105250001BBB039B073323F0070308330393099B0E
:105260004B44099350E705FB0232012088468AE748
:10527000002308F10108059319460A25404610F855
:10528000012B303A092A03D9002BC3D00591C1E77D
:1052900005FB012101238046F0E703AB0093224682
:1052A000124B04A93046AFF30080B0F1FF3F8146B6
:1052B000D5D1A3895B063FF57EAF09987DE703ABA7
:1052C00000932246094B04A9304600F087F8ECE72A
:1052D000B87B0000F87B0000D87B0000987B0000C2
:1052E000FE7B0000027C000000000000A3500000D4
:1052F0002DE9F04791461F468A680B69DDF820804A
:105300009342B8BF1346C9F8003091F843200646CF
:105310000C4612B10133C9F800302368990642BF28
:10532000D9F800300233C9F80030256815F00605B9
:1053300007D104F1190AE368D9F800209B1AAB429F
:1053400028DC94F843302268003318BF012392060A
:105350002DD404F1430239463046C047013020D0F5
:105360002368E568D9F8002003F00603042B08BF82
:10537000AD1AA36822690CBF25EAE57500259342A2
:10538000C4BF9B1AED184FF000091A344D451AD1CD
:10539000002008E00123524639463046C04701301C
:1053A00003D14FF0FF30BDE8F0870135C3E7E118C6
:1053B0005A1C302081F84300224494F8451082F8AA
:1053C00043100233C5E70123224639463046C04721
:1053D0000130E6D009F10109D8E700002DE9F043DA
:1053E00001F1430C0C46097E85B06E29174606462E
:1053F00098460C9A00F0B38022D8632936D00AD898
:10540000002900F0B980582900F0838004F142059A
:1054100084F8421032E0642901D06929F6D120686D
:105420001368050603F104012AD51B681160002BDF
:1054300003DA2D225B4284F843206F480A2239E0C8
:10544000732900F09D8008D86F2920D07029DDD104
:10545000236843F02003236003E0752917D07829DF
:10546000D4D1782384F84530644855E01368191D79
:105470001B68116004F1420584F8423001238CE07E
:105480001B68116010F0400F18BF1BB2CFE7136804
:105490002568181D1060280601D51B6802E0680603
:1054A000FBD51B8854486F2914BF0A22082200210B
:1054B00084F843106568A560002DC0F295802168CE
:1054C00021F004012160002B3DD1002D40F08E80A1
:1054D0006546082A0BD12368DB0708D52369626873
:1054E0009A42DEBF302305F8013C05F1FF35ACEBF5
:1054F00005032361CDF800803B4603AA21463046D0
:10550000FFF7F6FE01304DD14FF0FF3005B0BDE89A
:10551000F083394884F84510136821681D1D1B6805
:1055200015600A060BD5CA0744BF41F0200121606F
:105530001BB9226822F0200222601022B7E74D0634
:1055400048BF9BB2EFE76546B3FBF2F102FB1133B4
:10555000C35C05F8013D0B460029F5D1B9E7136896
:1055600025686169181D106028061B6801D519603F
:1055700002E06A06FBD51980002323616546B9E77E
:105580001368191D11601D6862680021284600F02B
:10559000E7F808B1401B606063682361002384F86A
:1055A0004330A7E723692A4639463046C0470130D1
:1055B000AAD023689B0713D4E068039B9842B8BF26
:1055C0001846A3E701234A4639463046C047013012
:1055D0009AD00135E368039A9B1AAB42F2DCEBE701
:1055E000002504F11909F5E7002BACD1037884F804
:1055F000423004F142056CE7097C00001A7C00008F
:1056000038B5064C002305460846236000F07CF9B7
:10561000431C02D1236803B12B6038BD441900201C
:1056200010B50C46B1F90E1000F02CF90028ABBFF4
:10563000636DA3891B1823F48053ACBF6365A381FA
:1056400010BD2DE9F0411F468B89DB0505460C4650
:10565000164605D502230022B1F90E1000F068F8B5
:10566000A389B4F90E1023F48053A38132463B463C
:105670002846BDE8F04100F017B810B50C46B1F966
:105680000E1000F055F8431CA38915BF606523F484
:10569000805343F48053A38118BFA38110BDB1F997
:1056A0000E1000F013B8000038B5074C0546084648
:1056B0001146002222601A46FBF7C2FB431C02D1AE
:1056C000236803B12B6038BD4419002038B5064C5F
:1056D000002305460846236000F0EEF8431C02D183
:1056E000236803B12B6038BD4419002038B5074C3E
:1056F0000023054608461146236000F0E5F8431CE8
:1057000002D1236803B12B6038BD00BF44190020CB
:1057100038B5064C002305460846236000F0DCF847
:10572000431C02D1236803B12B6038BD441900200B
:1057300038B5074C054608461146002222601A4635
:1057400000F0D2F8431C02D1236803B12B6038BDAE
:1057500044190020000000000000000000000000CC
:1057600001F0FF01102A2BDB10F0070F08D010F812
:10577000013B013A8B422DD010F0070F42B3F6D116
:10578000F0B441EA012141EA014122F007047FF02F
:1057900000070023F0E80256083C85EA010586EA86
:1057A000010685FA47F5A3FA87F586FA47F6A5FAC2
:1057B00087F68EB9EED1F0BC01F0FF0102F00702CE
:1057C00032B110F8013B013A83EA010313B1F8D179
:1057D0000020704701387047002D06BF354603385A
:1057E000073815F0010F07D1013015F4807F02BF93
:1057F000013015F4C03F0130F0BC0138704700BFE4
:10580000884210B501EB020307D8421E99420AD024
:1058100011F8014B02F8014FF8E78342F5D98118DE
:10582000D21AD34200D110BD13F8014D01F8014D39
:10583000F7E770477047F8B5074614460E4621B99A
:105840001146BDE8F840FFF76DBA22B9FFF71CFA20
:1058500025462846F8BD00F027F8A0420FD2214681
:105860003846FFF75FFA05460028F2D03146224657
:10587000FEF79DFE31463846FFF706FAE9E7354662
:10588000E7E7000038B5074C0546084611460022F8
:1058900022601A4600F030F8431C02D1236803B19D
:1058A0002B6038BD4419002051F8043C181F002B10
:1058B000BCBF0B58C0187047024B58221A604FF0FB
:1058C000FF30704744190020024B58221A604FF0F5
:1058D000FF30704744190020024B58221A60002004
:1058E000704700BF44190020024B58221A604FF045
:1058F000FF30704744190020024B58221A604FF0C5
:10590000FF30704744190020044A05491368002BF2
:1059100008BF0B4618441060184670474019002015
:1059200048190020FEE700BFF8B500BFF8BC08BC6E
:105930009E467047F8B500BFF8BC08BC9E4670474D
:10594000446F696E67207261772031627070004425
:105950006F696E67207261772032627070007365C4
:105960006E64696E6720424D5020746F204550442C
:10597000202D2000547269656420746F207061725C
:1059800073652074686520626D7020686561646568
:10599000722C206469646E277420776F726B2E2ED0
:1059A0002E00496D6167652077697468207479708D
:1059B0006520307825303258207761732072657108
:1059C0007565737465642C20627574207765206436
:1059D0006F6E2774206B6E6F772077686174207408
:1059E0006F20646F20776974682074686174206325
:1059F000757272656E746C792E2E2E0A00534644B1
:105A0000503A20686561646572206E6F7420666F1D
:105A1000756E6400534644503A2076657273696F20
:105A20006E2077726F6E673A2025752E25640A0006
:105A3000534644503A206E6F20344B2045525A0052
:105A4000534644503A206E6F206C61726765207730
:105A5000726974652062756600534644503A20614D
:105A60006464722E6C656E20213D203300534644E1
:105A7000503A20344B2045525A206F70636F646552
:105A800020696E76616C696400534644503A206424
:105A9000657669636520746F6F206269670053469D
:105AA00044503A2064657669636520736F20736D96
:105AB000616C6C3F2100344B2045525A206F70635B
:105AC0006F64652064697361677265656D656E7486
:105AD00000534644503A206E6F204A4544454320C7
