:040000000200833245
:01000B0032C2
:0100130032BA
:01001B0032B2
:0100230032AA
:03002B00024DCCB7
:01003300329A
:01003B003292
:0300430002538ED7
:03004B00024CE97B
:01005300327A
:01005B003272
:01006300326A
:01006B003262
:01007300325A
:03007B00025EAB77
:0301D30002007EA9
:03007E000205DF99
:2001D600E58620E0FB225390FD00225380FB0022E58620E0FB004390020022E58620E0FBCC
:2001F600004380040022AF8290F0D0E4F090F0D1F08F061FEE60767E0090F998E0FDBD02B7
:200216000BEE9066B893FDBDC800405990F998E0FDBD010BEE9066B893FDBDC8005046EE77
:2002360024B8FCE43466FD8C828D83E493F582C007C006C005C004121EEDE582D004D00506
:20025600D006D007601F90F0D0E0FB90F0FDE0FAC3EB9A501090F0D0EAF08C828D83E49373
:20027600FC90F0D1F00EBE0C005086808C90F0D1E0FFE06013BFC800400890F9987402F098
:20029600800690F9987401F090F0D1E0F5822290F12BE0FEA3E0FFC3742C9E74019F400908
:2002B60090F121E0700330015E30090920020690F104E0700930031E90F105E0601890FCA1
:2002D600A1E0FFBFFF02800B782BE4F28F82122A0E800312403E1220B9AD82AE83AFF090DC
:2002F600F0D2EDF0EEA3F0EFA3F0ED4E602D90F12BE4F0A3F010010090F121E06002D201A3
:2003160090F121E4F080141221A4AD82AE83AFF090F0D2EDF0EEA3F0EFA3F0121B4D90F0BB
:20033600D2E0FDA3E0FEA3E0FFED4E700990F11FE4F0A3F08059740F2DFAE43EFB8F048A7D
:20035600828B838CF0126698FAA3126698FB90F11FEAF0EBA3F0740D2DFAE43EFB8F048AE9
:20037600828B838CF012669860168D828E838FF01233E3E582701890F11FE4F0A3F0800F89
:2003960074C9C0E07466C0E0125DA515811581121B98AE82AF8390F12BE0FCA3E0FD90F100
:2003B6002BEE2CF0EF3DA3F0BE580CBF020990F103E06003C2002290FA99E0600E90FA9908
:2003D600E4F0900064E4F5F0021A9890F11FE0FEA3E0FF4E603BEF30E71F8E048F05530536
:2003F6007F78B7ECF2ED08F2E408F208F29003E8E4F5F012634A021A9878B7EEF2EF08F2ED
:20041600E408F208F290EA60E4F5F012634A021A98121B98AE82AF8378B7EEF2EF08F2E4D5
:2004360008F208F29003E8E4F5F012634A021A9890F10CE0FF600D8F82121EEDE58290F904
:2004560097F0800C7582021201FCE58290F997F090F997E0700920030690F105E070143038
:20047600090920020690F104E0700890F122E0FFBF233690FCA1E0FFBFFF02801A75820256
:200496001241CBE582702290FCA1E0FF782BE4F28F82122A0E801290F122E0FFBF23004019
:2004B60005124169800312412690F997E0604890F122E4F090F10CE0700F758204121A53E4
:2004D6001217C0758204121A8C90F12174FDF0900028121A30121B98AE82AF8378B7EEF21D
:2004F600EF08F2E408F208F29003E8E4F5F012634A121A98D20022758201121B13AC82AD57
:2005160083AEF0FF78B7ECF2ED08F2EE08F2EF08F29003E8E4F5F012634A021A98E582FFC3
:2005360024FA50030205C7EF2F2F90054473024CE502055602056D02059D0205C70205A9A7
:2005560074D4C0E07466C0E0125DA515811581C20090F997E4F02290F997E0FE74E1C0E018
:200576007466C0E0125DA515811581758204C006121A5312167A1217C0758204121A8CD05D
:200596000690F997EEF022123CB0900000E4F5F0021A9874F1C0E07466C0E0125DA51581EB
:2005B6001581758204121A531229FA758204021A8C7E00C007C0067401C0E07467C0E01290
:2005D6005DA5E58124FCF58122758201121A5375820F12502790FAF0E0FEA3E0FF7423C0AE
:2005F600E08E828F83124C2F15817404C0E0124778AC82AD83158190F123ECF0EDA3F09053
:2006160066C4E493C0E0740193C0E09066C6E493C0E0740193C0E0740293C0E07413C0E090
:200636007467C0E0125DA5E58124F9F5811256A4121C31121BE990F12174FCF0AEBE5306D4
:20065600187F00BE1009BF000690F12174FEF0301A0C1241C5900000E4F5F0121A987474DA
:20067600C0E074FCC0E0E4C0E07442C0E07467C0E0125DA5E58124FBF5811239B290019032
:20069600E4F5F0121A98758204121A531216EC12399990F100E06011744AC0E07467C0E09A
:2006B600125DA515811581801B745BC0E07467C0E0125DA515811581123D92902710E4F59E
:2006D600F0121A9890F997E0FFE0601F8F82121EEDE58270257468C0E07467C0E0125DA5BD
:2006F6001581158190F997E4F0800F7486C0E07467C0E0125DA51581158190F997E070036D
:2007160012044690F997E0600712403ED2008005124126C200758204121A531217C030004B
:20073600067E287F0080047E587F028E828F83121A3030000A7C887D137E007F0080087C50
:1E075600C07DD47E017F008C828D838EF0EF121A983000051202A580F812044680F3F2
:2066B800C864C965CA66CB67CC68CD6907009867804E6F207570646174650A00434D445F79
:2066D800444F5F5343414E0A0052657365742073657474696E67730A0045726173696E671A
:2066F80020696D616765730A00436D6420307825782069676E6F7265640A000A2573204F46
:2067180045504C2076253034782C20636F6D70696C6564204A756C20313920323032342073
:2067380031353A33343A33340A004D41432025730A00446F696E67206661737420626F6FDD
:20675800740A004E6F726D616C20626F6F740A004E6F20415020666F756E64206F6E207322
:2067780061766564206368616E6E656C0A004E6F207361766564206368616E6E656C0A006B
:096798004368726F6D6137340033
:017ED90001A7
:20077400E58620E0FB225390FD00225380FB0022E58620E0FB004390020022E58620E0FB28
:20079400004380040022AC82AD83AEF0FF00C2A0007582031246E58E821246E58D82124614
:2007B400E58C820246E5C007C006C005C004C003C002C001C000AC82AD83AEF0FFE5812464
:2007D400F5F8860208860300C2A0007582031246E58E821246E58D821246E58C821246E582
:2007F4008A068B07E58124F3F886040886058C028D031CBCFF011DEA4B6015758200124625
:20081400E5AB828E828F83EBF0A3AE82AF8380DE00D2A000D000D001D002D003D004D005F1
:20083400D006D00722AF8200C2A0008F821246E500D2A0002200C2A0007582051246E57550
:2008540082001246E5E58220E0F500D2A00022AC82AD83AEF0FF7803E2FA08E2FBC007C017
:2008740006C005C004C003C002120849758206120839D002D003D004D005D006D00700C2E0
:20089400A0007582021246E58E821246E58D821246E58C821246E58A068B077805E2FC0805
:2008B400E2FD8C028D031CBCFF011DEA4B60128E828F83E0FBA3AE82AF838B821246E580BF
:2008D400E100D2A000221208497582B9120839C20B227582AB12083975F034D5F0FDD20B0D
:2008F40022C007C006C005C004C003C002C001C000C082C083C0F0C0E005810581E581243B
:20091400EFF88605088604E58124EDF8E6084670030209EEC005C004E58124F9F88602081C
:200934007B00E58124FDF8E4C39AF674019B08F6E58124FDF8E58124EBF9C3E79609E7083F
:2009540096D004D005500EE58124EDF8A98119E6F708E609F77803EDF2EC08F2A88118796F
:2009740005E6F308E609F3E58124FBF886820886830886F008E6C007C006C005C004C003C0
:20099400C002C001C000C025120863D025D000D001D002D003D004D005D006D007A88118CC
:2009B4008602088603E4FEFFE58124FBF8EA26F6EB0836F6EE0836F6EF0836F6A88118E61B
:2009D4002DFD08E63CFCE58124EDF8A98119E6C397F608E60997F602091BE58124FAF58127
:2009F400D000D001D002D003D004D005D006D00722C007C006C005C004C003C002C001C009
:200A140000C082C083C0F0C0E0E58124FDF88602088603EA7005EB540F6006758200020B3E
:200A340039E58124F1F8E608467003020B36758206C007C006C005C004C003C002C001C0F3
:200A540000C025120839D025D000D001D002D003D004D005D006D00700C2A000E58124F1DC
:200A7400F88602088603C3EA9410EB94004018E58124FDF88602088603EA4B700A7582D813
:200A94001246E57D1080087582201246E57D01E58124FDF8080886821246E5E58124FDF8CB
:200AB4000886821246E5E58124FDF886821246E500D2A000C007C006C005C004C003C00204
:200AD400C001C000C025120849D025D000D001D002D003D004D005D006D007C00590100043
:200AF400124778AA82AB83AEF0FF1581E58124FDF8EA26F6EB0836F6EE0836F6EF0836F69B
:200B14008D037F00E58124F1F88605088606EDC39BFDEE9FFEE58124F1F8A60508A6060279
:1C0B34000A35758201E58124FCF581D000D001D002D003D004D005D006D00722B4
:200B5000E58620E0FB225390FD00225380FB0022E58620E0FB004390020022E58620E0FB48
:200B7000004380040022C007C006C005C004C003C002C001C000AC82AD83AEF0FFE58124DB
:200B900006F581A88176807A00758204C007C006C005C004C003C002C001C000C025121A08
:200BB00053D025D000D001D002D003D004D005D006D0077416C0E0E4C0E07431C0E074F1E9
:200BD000C0E08C828D838EF0EF1207BAE58124FCF58174162CFCE43DFDE43EFEE43FFB906D
:200BF000F141E0FFBF2004C207806B90F141E0FFBF2104D207805F90F141E0FF7E00C0071A
:200C1000C0067489C0E0746DC0E0125DA5E58124FCF58190FAAC7416F0E4A3F090F1317582
:200C3000F000C007C006C005C004C003C002C001C000C025121DA0D025758204C025121AE3
:200C50008CD025D000D001D002D003D004D005D006D007020E59C220C007C006C005C00406
:200C7000C003C002C001C000C02512606ED025D000D001D002D003D004D005D006D0079078
:200C9000F0E7E4F0A3F090F0DDF0A3F0E58124FBF8A60408A60508A60608A603A881187630
:200CB0000074E0C0E07401C0E07431C0E074F1C0E0E58124F7F886820886830886F008E6D3
:200CD0001207BAE58124FCF58130073AC002E58124FAF8860274780826FBE40836FEE408DD
:200CF00036FF74E0C0E07401C0E07411C0E074F3C0E08A828B838EF0EF1207BAE58124FC9A
:200D1000F581D002801774E0C0E07401C0E0E4C0E090F311124921158115811581E58124FB
:200D3000FBF874E026F674010836F6E40836F6E40836F67E067F00C007C006C005C004C08E
:200D500003C002C001C000C025123B6FD025D000D001D002D003D004D005D006D00790F08B
:200D7000DDE02401F0A3E03400F01EBEFF011FEE4F70C47EE07F01FCFDA881E6605DEC24CB
:200D900031F582ED34F1F583E0FBA881E65B60047B0080027B06C003EE2431F582EF34F159
:200DB000F583E0FBA88118E65BD00360027B07C006C0078A07EFC454F04BFAA8811818E6FE
:200DD00054AA7006D007D0068009D007D0068A82126092A881E6C313F6809EA88176800E76
:200DF000BE00010F0CBC00010DC3EC94E0ED9401408790F0E7E0FEA3E0FF74062EFEE43F43
:200E1000FF90F0E7EEF0EFA3F0A8811806A88118B640005003020CB1758204C007C006C024
:200E300005C004C003C002C001C000C025121A8CD025C0251260A0D025D000D001D002D012
:200E500003D004D005D006D007E58124FAF581D000D001D002D003D004D005D006D0072271
:200E7000AE82AF837D807C00C220C007C006C005C00412606ED004D005D006D00790F0E7F2
:200E9000E4F0A3F090F0DDF0A3F07807F274C0C0E07403C0E0E4C0E090F131124921158157
:200EB000158115817B067A00C007C006C005C004C003C0028E828F83120081D002D003D036
:200ED00004D005D006D00790F0DDE02401F0A3E03400F01BBBFF011AEB4A70CC780A74E04C
:200EF000F2740108F27808E4F208F2ED60587808E22431F58208E234F1F583E0FAED5A6056
:200F1000047A0080027A06C002780AE22431F58208E234F1F583E0FAED5AD00260027A07F2
:200F3000C006C0078C07EFC454F04AFCED54AA7006D007D0068009D007D0068C82126092EE
:200F5000EDC313FD80A57D80780AE22401F208E23400F27808E22401F208E23400F278080B
:200F7000C3E294E008E294015003020EFBC006C00790F0E7E0FAA3E0FF74062AFAE43FFF5B
:200F900090F0E7EAF0EFA3F07807E22401F27807E2B44000D007D0065003020E9D0260A002
:200FB000C007C006C005C004C003C002C001C000AD82AE83AFF0780C126698F290F0D9E047
:200FD000F508A3E0F50974012DFAE43EFB8F048A828B838CF0126698FA780FF2E408F285BB
:200FF0000882850983C007C006C005C004C003C002C001C0001211AEE582D000D001D0027F
:20101000D003D004D005D006D007600302110C90F0D7E0F508A3E0F509780CE2F50A750B7B
:2010300000780DE50AF2E50B08F2850882850983C007C006C005C004C003C002C001C00014
:20105000121186D000D001D002D003D00490F0E3E0F508A3E0F50990F0EBE0FAA3E0FCEA4E
:20107000C39508F582EC9509F58378B5E50AF2E50B08F2C002C001C00012632AAB82AC8351
:20109000D000D001D002D005D006D007ECC423CBC423541F6BCB541FCB6BCBFC90F0F9EB49
:2010B000F0ECA3F074022BFBE43CFCEB2DFDEC3EFE780CE2604690F0F7E0FBA3E0FC90F05F
:2010D000F774012BF0E43CA3F0EB2431FBEC34F1FC8B828C83E0F50A8D828E838FF012666C
:2010F00098FAA3AD82AE83E50A42028B828C83EAF0780CE2FC780C24F8F280B5D000D00158
:20111000D002D003D004D005D006D0072290F0E9E0FEA3E0C423CEC423541F6ECE541FCE4C
:201130006ECE30E40244E0FF90F0E7E0FCA3E0FD90F0EBE0FAA3E0FBEAC39CFCEB9DFD7862
:20115000B5ECF2ED08F2900050C007C00612632AAC82AD83D006D007EC2EFEED3FFF90F02B
:20117000F7EEF0EFA3F030040C90F0F774E02EF074013FA3F022AE82AF8390F0DFEEF0EFE8
:20119000A3F090F0E9EEF0EFA3F0780D90F0E1E22EF008E23FA3F012111D75820022AF83B6
:2011B000E5827811F2EF08F27811790FE3C5F0E225F0FC09E3C5F008E235F0FD90F0E5ECBA
:2011D000F0EDA3F090F0DDE0FAA3E0FB8A068B077811C3E2F5F0EE95F008E2F5F0EF95F0EF
:2011F0004025EA9CEB64808DF063F08095F05017781190F0E3E2F008E2A3F090F0EBEAF069
:20121000EBA3F07582002275820122C007C006C005C004C003C002C001C000AC82AD83AEE5
:20123000F0FFE5812404F581BF2000502C8F82C007C006C005C004C003C002C001C000C063
:2012500025124630D025D000D001D002D003D004D005D006D0070215407E00EF24E0FFEE8B
:2012700034FFFEEF2FFFEE33FEEF24A1F582EE3467F583E493FEA3E493FF90F0F9EEF0EFF1
:20129000A3F0EFC4540FFE90F0F1F0300507EE2EFE90F0F1F090F0EFE0FEA3E0FF90F0F23E
:2012B000E0FD780FF2ED3395E008F28E828F83C007C006C005C004C003C002C001C000C03B
:2012D000251211AEE582D025D000D001D002D003D004D005D006D007602790F0F1E0FF3306
:2012F00095E0FE0FBF00010E90F0EDE0FCA3E0FDEF2CFFEE3DFE90F0EDEFF0EEA3F002159E
:201310004090F0EDE0FEA3E0FF90F0F1E0FD780DF2ED3395E008F28E828F83C007C006C0ED
:2013300005C004C003C002C001C000C025121186D025D000D001D002D003D004D005D00686
:20135000D00790F0F9E0FEA3E0FF53070F90F0F9EEF0EFA3F090F0EDE0FEA3E0FF8E0553D8
:2013700005078DF005F07D80E4FC3392D28008A2D2EC13FCED13FDD5F0F590F0F1E0FC333D
:2013900095E0FB0CBC00010BEC2EFCEB3FFB90F0EDECF0EBA3F030055A90F0E3E0FEA3E0A4
:2013B000FF90F0DDE0FBA3E0FCEBC39EFEEC9FFF8E828F8378CA7402F2E408F2C005C00460
:2013D000C003C002C001C000C0251265D3AE82D025D000D001D002D003D004D0058EF00531
:2013F000F07E007F808007C3EF13FFEE13FED5F0F6802FC00590F0E3E0FBA3E0FC90F0DDDD
:20141000E0FAA3E0EAC39BFA8AF005F07A007D808007C3ED13FDEA13FAD5F0F68A068D071A
:20143000D005C006C00790F0E3E0FBA3E0FC90F0EFE0FAA3E0FFEAC39BFBEF9CFC90F0F96F
:20145000E0FEA3E0FF90F0F9EB2EF0EC3FA3F090F0FBE4F0A3F0D007D006C006C00790F040
:20147000FBE0FBA3E0FC90F0F1E0FA3395E0FFC3EB9AEC9FD007D0064003021540C006C075
:201490000790F0F9E58124FBF8E0F6A3E008F6E58124FBF8E626FA08E633FFEA2461F5825F
:2014B000EF3468F583E58124FDF8E493F6A3E49308F6D007D006300517EB30E024E5812473
:2014D000FDF890F0F9740126F0E40836A3F08011E58124FDF890F0F9740126F0E40836A375
:2014F000F0A88118EE56FBEF0856FC4B601F90F0F7E0FBA3E0FCEB2431FBEC34F1FC8B8233
:201510008C83E0FAED42028B828C83EAF0EDC313FD700E90F0F7E02401F0A3E03400F07DDD
:201530008090F0FBE02401F0A3E03400F002146AE58124FCF581D000D001D002D003D0046E
:20155000D005D006D00722AE82AF837409C0E0E4C0E0C0E090FADB12492115811581158191
:201570008E038F047D0090FADBEBF0ECA3F0EDA3F08E828F831249E3780F7428F2E408F228
:201590007815E2F58208E2F583C007C0061211AEE582D006D007600122C2048E828F831204
:2015B00049E3AE82AF8378B5EEF2EF08F290000B12632AE5828583F02423FEE435F0FF7839
:2015D00013E2FC08E2FDEE2CFEEF3DFF780DEEF2EF08F27813E2F58208E2F5831211869013
:2015F000F0E9E0FEA3E05306078EF005F07E80E4FF3392D28008A2D2EF13FFEE13FED5F095
:20161000F590FAE1E0FFBF04012212431D501F90F0F7E0FDA3E0FFED2431FDEF34F1FF8DFF
:20163000828F83E0FCEE42048D828F83ECF0EEC313FE70CD90F0F7E02401F0A3E03400F0E7
:041650007E8080BD5B
:2067A1000070071008500D9016601CA026A03010316037603D7044904D204F605520578013
:2067C1005F7066706D6073507880805085708C7093709A70A120A320A570AC80B470BB70A9
:2067E100C2A0CCA0D670DD80E570EC70F370FA8002710971105115811D7124812C71338131
:206801003B7142814A7151715891617168A172A17CA186A1908198519D81A551AA81B2A1E4
:20682100BC21BE71C571CC71D371DA71E181E971F071F741FB51007207420B9214721B723D
:2068410022722972306236623C724362499252A25C8264A26E8276627C127D6283A28D727F
:206861000000000000000000000000000000D87F0078000000000000007880009804E005CF
:20688100801E9864E005801E80648004183808640842FCFF8841F040083810442044C0447C
:2068A10000397002880C881088207040E0001001083A08468845C84C3838180068008001D5
:2068C1000078E00718180C300420024002400240024004200C301818E00700100018000F12
:2068E1000072000F001800104000400040004000F807400040004000400019001E00800038
:20690100800080008000800080001800180002000C003000C0000003000C00300040C00F7A
:2069210030300840084008403030C00F082008200820F87F08000800080018602840484080
:2069410088400843083C0840084208420842F03DC0004003400440184020F87F4000400096
:20696100087C084408441042E041E00F10320844084408441042E00100401840E040004344
:20698100004C00500060F038084508420842084590456038001E0821884088408840302147
:2069A100C01F1806180619061E06C000C00020012001100210020804200120012001200102
:2069C100200120012001200108041002100220012001C000C00000700040D84000410042F5
:2069E10000640038C00F30181820C84728486850D851E03F2000200008007000C001400E65
:206A01004018400C4003C00030000800F81F08110811081108118812700CC003300C1008EE
:206A210008100810081008100818F81F08100810081008101008E007F81F88108810881080
:206A4100881088100810F81F801080108010801080100010C003300C100808100810881017
:206A61008810F818F81F80008000800080008000F81F081008100810F81F08100810081018
:206A81000800081008100810F01FF81F0001800140022004200810100800F81F0800080020
:206AA1000800080008000800F81F001C8007E00060008003001CF81FF81F0008000680015F
:206AC10060001000F81FE007100808100810081008101008E007F81F801080108010801079
:206AE1000011000EE00710080810081008100C101208E207F81F80108010C0102011100EBA
:206B01000800180E0812081108118810901070180010001000100010F81F001000100010B3
:206B21000010E01F18000800080008001000E01F0010000C8003600018001800E0000003F4
:206B4100000C00100018C0073800F0000007800370003800C007001808101008200440026A
:206B61008001800140022004100808100010000800060001F8000001000200040008001046
:206B810018102810481088100811081208140818FE7F024002400240024000400030000C34
:206BA1000003C00030000C0002000240024002400240FE7F2000C0000007001C0070000ECD
:206BC100C0012000040004000400040004000400040004000400040000800040300048046F
:206BE100880488049004F8030800F87F10020804080408041006E001E00110020804080436
:206C0100080408040804E00118020804080408041002F87FE0019002880488048804880404
:206C2100880300040004F83F00240044004400440044E00119020904090409041202FC071B
:206C4100F87F00010002000400040004F803000400040064F8670100010401040164FE6712
:206C6100F87F8000C0002001200210020804004000400040F87FF807000200040004F803C0
:206C8100000200040004F803F80700030002000400040004F803E0011002080408040804CC
:206CA1001002E001FF0710020804080408041006E001E00118020804080408041002FF0776
:206CC100F8070001000200040004000718038804880448044804300400040004F01F080480
:206CE100080408040804F0070800080008001000F807000480036000180008003000C0005A
:206D0100000300040006E001180070008003800170001800E0010006080410022001C0008A
:206D2100C00020011002080401040103C10062001C001800600080000003000408041804E4
:206D4100280448048804080508060804800080007C3F024002400240FE7F02400240024043
:206D61007C3F80008000C000000100010001800080004000400040008001F8010803080443
:206D8100080808040803F80164617461547970652030782578206E6F7420737570706F72F7
:056DA1007465640A00A6
:20165400E58620E0FB225390FD00225380FB0022E58620E0FB004390020022E58620E0FB39
:2016740000438004002290F0FF7401F090F100E4F090F101F090F102F090F103F090F10456
:2016940004F090F105F090F107E4F090F106F090F10A7428F0E4A3F090F10CF090F10874F1
:2016B40028F0740AA3F090F997E4F090F998F022AD82AE83126698FCBC011C7BFF7CF08B10
:2016D400828C83740EC0E0C005C0061249B91581158115810217C0227480C0E0E4C0E0745B
:2016F400A2C0E074FDC0E090C000E4F5F01207BAE58124FCF581740EC0E07414C0E074FEDF
:20171400C0E090F0FF1249B915811581158190FDA2E0FCA3E0FDA3E0FEA3E0FFBCA513BD01
:201734005A10BEBA0DBFAB0A90FDA6E0FFBF0102803590FDA2E0FCA3E0FDA3E0FEA3E0FF1B
:2017540090FDA6E0FB7A00C004C005C006C007C003C00274A6C0E0746DC0E0125DA5E5819D
:2017740024F8F58102167A90FDA7E090F997F090FDA8E090F998F074D4C0E0746DC0E0126C
:201794005DA51581158112191290FDA2E4F004C0E0E4C0E074A2C0E074FDC0E090C000E4A4
:2017B400F5F01208F5E58124FCF581227480C0E0E4C0E074A2C0E074FDC0E090C000E4F5FB
:2017D400F01207BAE58124FCF58190FDA2E0FCA3E0FDA3E0FEA3E0FFBCA53EBD5A3BBEBA3F
:2017F40038BFAB3578C574FFF274F008F2E408F278C8740EF2E408F290FE1475F000126510
:2018140019E5828583F045F0700F90FDA7E0FF90F997E0FEEFB506012290FE21E0FF90F19B
:201834000CE0FEEFB50602803EEE603BBE6400502390FE21E0FF7D00C007C00574E6C0E091
:20185400746DC0E0125DA5E58124FCF58190F10CE4F08013BEC800400890F9987402F0801A
:201874000690F9987401F07480C0E0E4C0E0C0E090FDA2124921158115811581740EC0E081
:2018940074FFC0E074F0C0E090FE141249B915811581158190FDA274A5F0F4A3F074BAA315
:2018B400F0C4A3F090FDA67401F090F997E090FDA7F090F998E090FDA8F07401C0E0E4C032
:2018D400E090C000E4F5F0120A05158115817480C0E0E4C0E074A2C0E074FDC0E090C0007F
:2018F400E4F5F01208F5E58124FCF58174FFC0E0746DC0E0125DA51581158102191290F17E
:2019140003E0FF7E00C007C0067410C0E0746EC0E0125DA5E58124FCF58190F10CE0FF7E26
:2019340000C007C0067429C0E0746EC0E0125DA5E58124FCF58190F108E0FEA3E0FFC00688
:20195400C007743CC0E0746EC0E0125DA5E58124FCF58190F100E0FF7E00C007C00674509B
:20197400C0E0746EC0E0125DA5E58124FCF58190F997E0FF7E00C007C0067465C0E0746EBC
:0C199400C0E0125DA5E58124FCF5812275
:206DA6004C6F616465642064656661756C74732073657474696E67735665722030782578E9
:206DC600204D61676963203078256C780A004C6F616465642073657474696E67733A0A00B3
:206DE60049676E6F7265642066697865644368616E6E656C2025640A0053617665642073A3
:206E0600657474696E67733A0A0020205363616E2041667465722054696D656F7574202507
:206E2600640A00202066697865644368616E6E656C2025640A0020206261744C6F77566FB4
:206E46006C746167652025640A002020656E61626C6546617374426F6F742025640A0020D0
:0D6E6600204C6173742063682025640A00CD
:2019A000E58620E0FB225390FD00225380FB0022E58620E0FB004390020022E58620E0FBEA
:2019C00000438004002275F10175805875FDDD75F33875904075FE6E75F4E875A00175FF7A
:2019E000012275E40075FC0075F70075FE02758F8175F62F75FD8175FE2F53807E5390D061
:0A1A000075F30075F40075F500227F
:201A0A00E58620E0FB225390FD00225380FB0022E58620E0FB004390020022E58620E0FB7F
:201A2A00004380040022AE82AF837D00BD08005017ED75F002A4240DF58274F135F0F58306
:201A4A00EEF0EFA3F00D80E422E582FF30E0251259B6C007124D52D2AF1219C61246E11298
:201A6A0051F8D00775820A12523790F997E0FEF582125183EF30E20912470E200B0302089C
:201A8A00E622E58230E206300B030208DA22AF82AE83ADF0FC90F12DEFF0EEA3F0EDA3F0E8
:201AAA00ECA3F090F12DE0FCA3E0FDA3E0FEA3E0FFC004C005C006C0077473C0E0746EC051
:201ACA00E0125DA5E58124FAF581300B16758204C007C006C005C004121A8CD004D005D07B
:201AEA0006D007C007C006C005C004126054D004D005D006D0071219E28C828D838EF0EF35
:201B0A00124DDA758201021A53E582FF601090F122E0FFBFFF00500690F122EF04F090F1A8
:201B2A0022E0FFBF18005007900E10E4F5F022BF24005007901C20E4F5F02290518075F01C
:201B4A0001E42290F11EE078B5F2E408F290023012632A78A2740EF2E408F2126153AE8235
:201B6A00AF8374282EFEE43FFF90F11DE054077D0025E0FCED33FDEC240DF582ED34F1F530
:201B8A0083EEF0EFA3F090F11DE02401F0227E007F007D00BD0800501DED75F002A4240DCE
:201BAA00F58274F135F0F583E0FBA3E0FCEB2EFEEC3FFF0D80DEEFC423CEC423541F6ECE62
:201BCA00541FCE6ECEFF90F10AE0FCA3E0FDC3EE9CEF9D50058C828D83228E828F83229056
:201BEA00FAF2E0FF3395E0FEC007C0067488C0E0746EC0E0125DA5E58124FCF58190F0FD32
:201C0A00E0FF7E0090F0FEE0FD3395E0FCC007C006C005C0047493C0E0746EC0E0125DA50B
:201C2A00E58124FAF5812275820E12502712505375820F12502790FAF0E0FEA3E0FF74233B
:201C4A00C0E08E828F83124C2F15817404C0E0124778AC82AD83158190F129ECF0EDA3F0B2
:201C6A00C20990F108E0FEA3E0FFC3EC9EED9F5004D209803A90F125E0FCA3E0FD4C601323
:201C8A00C3EC9EED9F500C90F129ECF0EDA3F0D209801C90F127E0FCA3E0FD4C6011C3EC18
:201CAA009EED9F500A90F129ECF0EDA3F0D20990F127E0C0E0A3E0C0E090F125E0C0E0A3A1
:201CCA00E0C0E090F129E0C0E0A3E0C0E090F123E0C0E0A3E0C0E074A4C0E0746EC0E0129A
:091CEA005DA5E58124F6F58122D7
:206E7300536C656570696E6720666F7220256C64206D730A0054656D7020256420430A0096
:206E9300525353492025642C204C51492025640A00426174745620426F6F742025642C2086
:1A6EB3006E6F772025642C2054782025642C207570646174652025640A0085
:0500DC00781774FFF22B
:201CF300E58620E0FB225390FD00225380FB0022E58620E0FB004390020022E58620E0FB94
:201D1300004380040022121D6FE582600790F9AAE0F58222121D39E582600790F9AEE0F56D
:201D330082227582002290F999E05407FFBF012890F99AE003035403FFBF031C90F99AE04F
:201D530023235403FFBF031090F999E023235401FFBF0104758201227582002290F999E06D
:201D73005407FFBF012390F99AE003035403FFBF021790F99AE023235403FFBF030B90F9E7
:201D930099E020E6047582012275820022AFF0AE83E58290FAAEF0EEA3F0EFA3F090FAAEE0
:201DB300E0FDA3E0FEA3E0FF90FAACE0FBA3E0FC79007A00C3E99BEA9C5052E94A6016E9AC
:201DD300540F6002800F74CDC0E0746EC0E0125DA515811581C003C004E92DF8EA3EFB8FB2
:201DF3000488828B838CF0126698F87C00C000C00474CFC0E0746EC0E0125DA5E58124FC31
:201E1300F58109B900010AD004D00380A774CDC0E0746EC0E0125DA51581158122AFF0AE8C
:201E330083E5827819F2EE08F2EF08F2781CE4F27B017818C3E2F5F0EB95F050227819E2FC
:201E5300FA08E2FC08E2FFEB2AFAE43CFC8A828C838FF0126698FA781CE22AF20B80D3786F
:201E730019E2FD08E2FE08E2FF8D828E838FF0126698FD781CE2B50503D38001C3E433F584
:201E93008222AFF0AE83E582781EF2EE08F2EF08F27821E4F27B01781DC3E2F5F0EB95F081
:201EB3005022781EE2FA08E2FC08E2FFEB2AFAE43CFC8A828C838FF0126698FA7821E22AE8
:201ED300F20B80D3781EE2FD08E2FE08E2FF8D828E838FF07821E202630FE5812404F581C7
:201EF300AF82C217C007125421D0078F82125183C0071254D6D217125421D0077E01EE24CE
:201F1300FC500302201790FA197414F0C007C0061239F990FA2B74EDF090FA1912531DD03F
:201F330006D007124D0AAA82AB83ACF0FD90FAB174A62AF0740E3BA3F0E43CA3F0E43DA31F
:201F5300F0C006124D0AAA82AB83ACF0FD90FAB1E58124FCF8E0F6A3E008F6A3E008F6A328
:201F7300E008F6E58124FCF8C3EA96EB0896EC0896ED0896D0064003022013C007C0061224
:201F93005433AD82D006D007C374818DF063F08095F050AD90F9AFE0FDB507A5C007C0063E
:201FB300121D19AD82D006D007BDEE95C007C006121D39E582D006D00760867408C0E0742B
:201FD300A6C0E074F9C0E090F9841249B915811581158190F99CE0FCA3E0FD90F98CECF046
:201FF300EDA3F08F047D00C004C00574D5C0E0746EC0E0125DA5E58124FCF5818F82802089
:202013000E021F118F057E00C005C00674DFC0E0746EC0E0125DA5E58124FCF58175820054
:20203300E58124FCF5812290FA19742AF01239F990FA2B74E5F090FA327480F090F121E0DA
:2020530090FA33F090F0FEE090FA2EF090F0FDE090FA2DF090FAF2E090FA2FF090F129E027
:20207300FEA3E0FF90FA30EEF0EFA3F090FA34E4F09066C493FE740193FF90FA35EEF0EF43
:20209300A3F090F997E090FA37F090F107E090FA38F0781D7415F290FA2C75F000121E95DF
:2020B30090FA1902531DD217125421121C31121BE97F007822E4F27822E2B40E00400302A1
:2020D3002197C00712203AD007124D0AAA82AB83ACF0FD74882AF52674133BF527E43CF59B
:2020F30028E43DF529C007124D0AAC82AD83AEF0FFC3EC9526ED9527EE9528EF9529D007F9
:20211300400302218AC007125433AE82D007C374818EF063F08095F050CBC007121D19AEEF
:2021330082D007BEE6BF78187411F290F9AF75F000C007121E30E582D00760A97408C0E0A2
:2021530074A6C0E074F9C0E090F9841249B915811581158190F99C75F000126698FDA31276
:202173006698FE90F98CEDF0EEA3F090F11EEFF090F9AF75F000227822E22401F27822E291
:20219300FF0220CA90F11E740EF090000075F00022D2171254217F007823E4F27823E2B488
:2021B3000E00400302228B90FA197414F090FA2B74E3F0C0071239F990FA1912531DD007EE
:2021D300124D0AAA82AB83ACF0FD74882AF52A74133BF52BE43CF52CE43DF52DC007124DBF
:2021F3000AAC82AD83AEF0FFC3EC952AED952BEE952CEF952DD0075072C007125433AE8223
:20221300D007C374818EF063F08095F050CEC007121D19AE82D007BEE6C278187411F29015
:20223300F9AF75F000C007121E30E582D00760AC7408C0E074A6C0E074F9C0E090F984120B
:2022530049B915811581158190F99C75F000126698FDA3126698FE90F98CEDF0EEA3F0905C
:20227300F11EEFF090F9AF75F000227823E22401F27823E2FF0221AF90F11E740EF090001B
:202293000075F00022AFF0AE83E5827824F2EE08F2EF08F27824E22402FA08E23400FB084F
:2022B300E2FC8A828B838CF0126698F52E852E2F75300090FA9AE0F531AE317F00E52FC37E
:2022D3009EFEE5309FFF78B5EEF2EF08F2900063C004C003C00212632AAE82AF83D002D0C7
:2022F30003D0048E2F8F3090FAB5E52FF0E530A3F07824E22401FD08E23400FE08E2FF8D5B
:20231300828E838FF0126698FD90F95DE0FFEDB50702800122E52E24D5500122C3E52E958E
:20233300315001227463252FFEE43530FFC374239E74089F5001227824E2FD08E2FE08E2A2
:20235300FF78187466F28D828E838FF0C004C003C002121E30E582D002D003D00470030272
:20237300240C7824E22403FD08E23400FE08E28D2F8E3090FAB5E0FEA3E0FFEE2431FEEF29
:2023930034F1FF8E828F837463C0E0E4C0E0C02FC03012497FE58124FCF5818A828B838C8E
:2023B300F0126698FA7F0078CA7408F2E408F28A828F83C007C0021265D3AD82AE83D002E0
:2023D300D007ED245FFDEE34F9FE5302078AF005F07401800225E0D5F0FBF4FA8D828E83F8
:2023F300E052028D828E83EAF074ECC0E0746EC0E0125DA5158115812274EEC0E0746EC014
:20241300E0125DA51581158122AF82AE83ADF0FC7827EFF2EE08F2ED08F2EC08F290FA9A13
:20243300E0FB7A0090F95DE0FF7E00C003C002C007C00674FFC0E0746EC0E0125DA5E581D0
:2024530024FAF581D217125421124D0A85823285833385F034F535782779B7E22414F308D1
:20247300E2340009F308E2340009F308E2340009F3900019E4F5F012634AAA82AB83AEF0DA
:20249300FFEA2532F532EB3533F533EE3534F534EF3535F535124D0AAA82AB83AEF0FFC321
:2024B300EA9532EB9533EE9534EF9535503C125433AF82C374818FF063F08095F050D61218
:2024D3001D19AF82BFE8CE90F9AF75F0001222987F00EF245FFDE434F9FE8D828E83E07037
:2024F300060FBF060040EBBF06AB74CDC0E0746EC0E0125DA515811581C2171254210254FB
:20251300D690F9B0E4F0A3F090F9AF75F00022742AC0E0E4C0E0C0E090FA1912492115815C
:202533001581158190FA19742AF090F97EE0600890FA2F74E4F0800690FA2F74E7F07408D5
:20255300C0E0748EC0E074F9C0E090FA271249B91581158115817408C0E07484C0E074F971
:20257300C0E090FA1F1249B915811581158190FA1AE054F84401F090FA1AE054C74440F011
:2025930090FA1BE0440C54CF44C0F090F996E0FF04F090FA1CEFF090F98CE0FEA3E0FF90C0
:2025B300FA1DEEF0EFA3F07D307EFA8D828E837411C0E07454C0E074F9C0E01249B9158108
:2025D300158115817D307EFA7F00781D7411F28D828E838FF0121E9590FA1902531DE5812D
:2025F3002404F581D2171254211254D67F00BF1E0040030226D4C007122522D007124D0A83
:20261300AB82AC83ADF0FE90FAB774642BF0749F3CA3F0740B3DA3F0E43EA3F0C007125469
:2026330033AE82D007C374818EF063F08095F05051C007121D19AE82D007BEE8028028BEFA
:20265300E9028005BEEC33802978187403F290F9AF75F000C007121E30E582D00760239063
:20267300F9AF75F0008063122514AC82AD83AEF0805890000075F000805090000075F0007E
:202693008048C007124D0AC8E58124FCC8A68208A68308A6F008F690FAB7E0FAA3E0FDA3E6
:2026B300E0FEA3E0FFE58124FCF8C3E69A08E69D08E69E08E69FD007500302262F0F02268A
:2026D30001122514AD82AE83AFF0E58124FCF58122741BC0E0E4C0E0C0E090FA191249210C
:2026F30015811581158190FA197419F090FA2F74EAF07408C0E0748EC0E074F9C0E090FA89
:20271300271249B91581158115817408C0E07484C0E074F9C0E090FA1F1249B915811581FF
:20273300158190FA1AE054F84401F090FA1AE054C74440F090FA1BE0440C54CF44C0F0905C
:20275300F98CE0FEA3E0FF90FA1DEEF0EFA3F090F996E0FF04F090FA1CEFF090FA1902530B
:202773001DD2171254217F00BF1000506CC0071226E4D007124D0A85823A85833B85F03C57
:20279300F53D124D0A85823685833785F038F539E536C3953AFAE537953BFCE538953CFDBA
:2027B300E539953DFEC3EA94A6EC940EED9400EE94005022C007125433AE82D007C374810F
:2027D3008EF063F08095F050B9C007121D19AE82D007BEEBAD220F808F22AF8278B7EFF2F8
:2027F300E408F208F208F290700075F001E412634AAC82AD83AEF0FF74902DFD74013EFE11
:20281300E43F8C828D838EF022AD82AE83AFF07C007B00BB0A0040030228ABC0048B82C060
:2028330007C006C005C0031227EDA882A983AAF0FCD003D005D006D0077416C0E0E4C0E01B
:202853007431C0E074F1C0E0888289838AF0EC1207BAE58124FCF58174A2C0E074FCC0E00A
:2028730090F139124C8C15811581920DD004300D218D008E018F027408C0E0C000C00190CA
:20289300F13112494D158115811581920D50038C82220B8B040228267582FF22AF825307EA
:2028B300F87E007D00BD0A004003022937C0068D82C007C0051227EDAA82AB83ACF0FED05B
:2028D30005D0077416C0E0E4C0E07431C0E074F1C0E08A828B838CF0EE1207BAE58124FC34
:2028F300F58174A2C0E074FCC0E090F139124C8C158115819228D006302823C00690F14621
:20291300E0FC5304F87B008F027E00ECB50206EBB506028004D0068005D0068E82220D8D1D
:20293300060228B87582FF221227EDAC82AD83AEF0FF7416C0E0E4C0E07431C0E074F1C04B
:20295300E08C828D838EF0EF1207BAE58124FCF58190F146E0F58222AF828F060EEE24F50F
:2029730050027E00EEB507038E82228E82C007C0061227EDAA82AB83ACF0FDD006D00774BE
:2029930016C0E0E4C0E07431C0E074F1C0E08A828B838CF0ED1207BAE58124FCF58174A238
:2029B300C0E074FCC0E090F139124C8C15811581922850A890F146E0FD5305F87C00BD782D
:2029D3009BBC00988E82221227EDAC82AD83AEF0FF7417C0E0E4C0E08C828D838EF0EF1256
:2029F3000A0515811581227F00BF0A00500C8F82C0071229DAD0070F80EF22AF828F057E1C
:202A130000C005C006740EC0E0746FC0E0125DA5E58124FCF5818F821227ED020B76782C05
:202A3300E4F208F208F208F27B00BB0A004003022AD08B82C0031227ED85823E85833F8539
:202A5300F040F541D0037416C0E0E4C0E07431C0E074F1C0E0853E82853F838540F0E541CB
:202A73001207BAE58124FCF58174A2C0E074FCC0E090F139124C8C15811581920E503AC0F4
:202A93000390F142E0FAA3E0FBA3E0FEA3E0FF782CC3E29A08E29B08E29E08E29FD0035066
:202AB3001890F142782CE0F2A3E008F2A3E008F2A3E008F290F983EBF00B022A3D782CE25A
:202AD300F58208E2F58308E2F5F008E222AF82AE83D20F90F95DE0FD7C007B007A008C44E8
:202AF300EBC454F0C544C4C5446544C54454F0C5446544F545EDC4540F4544F544EDC4543D
:202B1300F0F543754200300C167836E542F2E54308F27401254408F2E4354508F280497817
:202B330017E2F582C007C0061227ED85824685834785F048F549D006D00774162546F546EB
:202B5300E43547F547E43548F548E43549F5497836E5462542F2E547354308F2E548354412
:202B730008F2E549354508F290FABE7405F090FA9AE4F090F97E04F07830EFF208EEF2741D
:202B930006C0E0E4C0E0C0E090F95F12492115811581158190FABEE0FB14F0EB7003022F7C
:202BB30022100F03022C717830E2FA08E2FB8A828B8378A27463F2E408F2126153AA829059
:202BD300FABBEAF07830E2FB08E2FF8B828F8378C37463F2E408F2C002126496E5828583A7
:202BF300F0D00245F0600690FABBEA04F090FABBE024EA500690FABB7415F090FA9AE0FBFC
:202C13007A0090FABBE0FFC3EA9F50528B067F0078CA7408F2E408F28E828F83C007C006C8
:202C3300C003C0021265D3AC82AD83D002D003D006D007EC245FFCED34F9FD5306078EF0A2
:202C530005F07401800225E0D5F0FBFE8C828D83E0FF42068C828D83EEF00B0A80A4122501
:202C7300F1AA82AB83AFF0EA4B7003F582220ABA00010B8A828B838FF0126698FEA3126684
:202C930098FF4E60428E048F05C3EC9423ED9400501A78B7EEF2EF08F2E408F208F29000C3
:202CB30019E4F5F012634A124D6B801BEC24F6FCED34FFFD7F007E008C828D838FF0EE1242
:202CD3001A98D217125421900122E4F5F012241C783A7401F290FA9AE0FF7E0090FABBE032
:202CF300FDC3EE9D505E8F047D0078CA7408F2E408F28C828D83C007C006C005C00412657F
:202D1300D3AA82AB83D004D005D006D007EA245FF582EB34F9F5835304078CF005F07C015D
:202D33007D008006EC2CFCED33FDD5F0F7E0FB7A005204EA5205EC4D6006783AE4F28004F9
:202D53000F0E8098783AE27003022EE790FABBE078B5F2E408F290006312632AAE82AF83F7
:202D73007834EEF2EF08F290FABF7431F074F1A3F0E4A3F090FA9AE0704B90F131E0FCA38E
:202D9300E0FD7830ECF208EDF290F133E0FCA3E0FD7832ECF208EDF290FABCE4F0A3F07832
:202DB30034E2FC08E2FDEC24FCFCED34FFFD7834ECF2ED08F290FABF74042431F0E434F162
:202DD300A3F0E4A3F07830E2FC08E2FD7834C3E2F5F0EC95F008E2F5F0ED95F0500A78307F
:202DF3007934E2F308E209F37830E2FC08E2FD7834D3E29CF4B3FCB308E29DF4FD7830EC8C
:202E1300F208EDF2758204121A5390FABFE0F546A3E0F547A3E0F548AA46AF477834E2C035
:202E3300E008E2C0E0C002C0077836E2F58208E2F58308E2F5F008E21208F5E58124FCF5E0
:202E530081758204121A8C7834E2FA08E2FD7E007F007836E22AF208E23DF208E23EF208D8
:202E7300E23FF2AD46AE47AF487834E2F54608E2F547AA46AC47154674FFB546021547EA6A
:202E93004C60368D828E838FF0126698FCA3AD82AE838C4275430090FABCE0FAA3E0FC8AE0
:202EB3004A8C4BAB42AC43EB254AFBEC354BFC90FABCEBF0ECA3F080B990FABBE0FF90FABE
:202ED3009AE02FF07830E2FE08E2FF4E6006783AE4F2D20F90F97EE4F0783AE27003022BA9
:202EF300A77832E2FE08E2FF90FABCE0FCA3E0FDEEB50406EFB5050280117428C0E0746FFB
:202F1300C0E0125DA51581158180047582012275820022AFF0AE83E58290FAC6F0EEA3F00F
:202F3300EFA3F090FAC6E0FDA3E0FEA3E00DBD00010E8D828E837408C0E0746EC0E074F9C7
:202F5300C0E012494D1581158115819210501490F976E0FCA3E0FDA3E0FEA3E0FFEC4D4E69
:202F73004F707590F95DE4F090FAC6E0FDA3E0FEA3E0FF74012DFAE43EFBC002C00390F959
:202F93005512484F15811581740D2DFAE43EFB8F048A828B838CF0126698FA90F95EF074B1
:202FB30011C0E0C005C00690F96D1249B91581158115817408C0E0E4C0E090000075F00160
:202FD300E4120A051581158190F976E0FEA3E0FF90FAC4EEF0EFA3F090F976E0FCA3E0FD45
:202FF300A3E0FEA3E0FFEC4D4E4F7003023080C3E49C74109DE49EE49F500B90FAC2E4F0DC
:203013007410A3F0800890FAC2ECF0EDA3F0D20C90FAC2E0FEA3E0FF8E828F83122AE0E5A9
:2030330082604690F95DE0FF0F90F95DEFF090F976E0FCA3E0FDA3E0FEA3E0FF90FAC2E032
:20305300FAA3E0FB8A008B01E4FAFBECC398FCED99FDEE9AFEEF9BFF90F976ECF0EDA3F0C6
:20307300EEA3F0EFA3F0022FEB7582002275820122AFF0AE83E58290FACBF0EEA3F0EFA35C
:20309300F090FACBE0FDA3E0FEA3E0FF74012DFAE43EFB8F048A828B837408C0E0746EC0D4
:2030B300E074F9C0E012494D1581158115819211504090F97BE0FC740E2DFDE43EFE8D82B8
:2030D3008E838FF0126698FDECB5052690F976E0FCA3E0FDA3E0FEA3E0FFEC4D4E4F6012CE
:2030F3007440C0E0746FC0E0125DA51581158102328E758204121A5390F983783BE0F29049
:20311300FACBE0FCA3E0FDA3E0FE740E2CFAE43DFB8E078A828B838FF0126698FA54FC604E
:2031330031783BE2FB7F00C003C0077453C0E0746FC0E0125DA5E58124FCF58190FAAC740E
:2031530011F0E4A3F08C828D838EF0121DA0783BE4F290F983E02401F0FFBF0A0040059052
:20317300F983E4F090F983E0FF783BE2B50719758204121A8C7477C0E0746FC0E0125DA5C2
:2031930015811581758201228F821227EDAC82AD83AEF0FF7416C0E0E4C0E07431C0E0743D
:2031B300F1C0E08C828D838EF0EF1207BAE58124FCF58174A2C0E074FCC0E090F139124C33
:2031D3008C158115819211500890F146E054F8708190F983E0FF7817F28F821227EDAC8274
:2031F300AD83AEF0FF7417C0E0E4C0E08C828D838EF0EF120A0515811581758204121A8CB5
:203213007817E2FE7F00C006C0077481C0E0746FC0E0125DA5E58124FCF58190F95DE4F03E
:2032330090FACBE0FDA3E0FEA3E0FF74012DFAE43EFBC002C00390F95512484F1581158155
:20325300740D2DFAE43EFB8F048A828B838CF0126698FA90F95EF07411C0E0C005C006904C
:20327300F96D1249B915811581158190F976E0FEA3E0FF90FAC9EEF0EFA3F090F976E0FC12
:20329300A3E0FDA3E0FEA3E0FFEC4D4E4F7003023325C3E49C74109DE49EE49F500B90FAA7
:2032B300C2E4F07410A3F0800890FAC2ECF0EDA3F090FAC2E0FEA3E0FF8E828F83122AE034
:2032D300E582604A90F95DE0FF0F90F95DEFF090F976E0F54CA3E0F54DA3E0F54EA3E0F50E
:2032F3004F90FAC2E0FAA3E0FBE4FEFFE54CC39AFAE54D9BFBE54E9EFEE54F9FFF90F976F7
:20331300EAF0EBA3F0EEA3F0EFA3F002328E75820022758204121A53746EC0E074F9C0E05B
:2033330090F13112484F1581158190F1397421F07447A3F0744DA3F07447A3F090F97FE0DC
:203353002401F0A3E03400F0A3E03400F0A3E03400F090F97FE0FCA3E0FDA3E0FEA3E0FFE9
:2033730090F142ECF0EDA3F0EEA3F0EFA3F090FAC9E0FEA3E0FF7D007C0090F13DEEF0EFE1
:20339300A3F0EDA3F0ECA3F090F97AE090F141F090F97BE090F146F07817E2F5821227ED4A
:2033B300AC82AD83AEF0FF7416C0E0E4C0E07431C0E074F1C0E08C828D838EF0EF1208F56D
:2033D300E58124FCF581758204121A8C75820122AFF0AE83E58290FACFF0EEA3F0EFA3F08E
:2033F300C20C90FACFE0F553A3E0F554A3E0F555740D2553FAE43554FBAC558A828B838CD0
:20341300F0126698FCBC02028024BC030302376BBC10028019BC20028014BC2102800FBCD0
:20343300A80302365EBCAF0302374B0237E190FACFE0FFA3E0FEA3E0FD7550CE7551FA752B
:203453005200740E2FF553E43EF5548D558553828554838555F0126698FB85508285518386
:203473008552F012630F90FACEE020E203023542758204C007C006C005121A53D005D006C1
:20349300D00790FACEE0C423541FFB603CBB0F02806C8553828554838555F0126698F5825A
:2034B300C007C006C0051228AFAB82D005D006D007BBFF0280488B82C007C006C0051229F1
:2034D300DAD005D006D007803574012FF553E43EF5548D558553828554838555F0C007C088
:2034F30006C00512281CAB82D005D006D007BBFF02800B122774783C7401F2023658758253
:2035130004C007C006C005121A8CD005D006D0078F828E838DF0123084E582600B12277424
:20353300783C7401F2023658783CE4F202365874012FF553E43EF5548D5585535085545128
:203553008555528550828551837408C0E07465C0E074F9C0E012494D1581158115819212CC
:20357300500B122774783C7401F2023658758204C007C006C005121A53855382855483857E
:2035930055F012281CAC82758204C004121A8CD004D005D006D007BCFF028051C007C00667
:2035B300C005C004122774D004D005D006D0078F538E548D55AA53AB547411C0E0C002C023
:2035D3000390F96D1249B915811581158190F976E4F0A3F0A3F0A3F090FCA1ECF090FACE1C
:2035F300E05403782BF28C82122A0E803D748FC0E0746FC0E0125DA5158115818F828E834F
:203613008DF0123084E582601B1227747817E2FB90FCA1F090FACEE05403782BF28B8212F9
:203633002A0E8006783CE4F2801B90F96EE0FAA3E0FBC002C00390F96512484F15811581FD
:20365300783C7401F2783CE2F5822290F976E0FAA3E0FBA3E0FEA3E0FFEA4B4E4F702F74CE
:20367300012553FDE43554FEAF558D828E837408C0E0746EC0E074F9C0E012494D15811534
:20369300811581921250071227747582012290F95DE4F090FACFE0F550A3E0F551A3E0F5C5
:2036B3005274012550FAE43551FBC002C00390F95512484F15811581740D2550FDE43551C7
:2036D300FEAF528D828E838FF012669890F95EF0AD50AE517411C0E0C005C00690F96D129E
:2036F30049B915811581158174092550FDE43551FEAF528D828E838FF0126698FDA31266D4
:2037130098FE8D828E83122AE0E582602790F976E4F0A3F0A3F0A3F0758204121A5390F14F
:203733003575F0001216C4758204121A8C1227747582012275820022122774740E2553FDB9
:20375300E43554FEAF558D828E838FF0126698F58212053375820122758204121A5385530B
:20377300828554838555F0122F26E582605C122774758204121A531237FC300C12123DCD2E
:2037930090001975F001E412079A12597580567497C0E0746FC0E0125DA515811581758255
:2037B30004121A8C90FA997401F090F12174E0F0123E467408C0E0E4C0E0C0E090F96512F6
:2037D3004921158115811581801B758200227F00C004C00774B4C0E0746FC0E0125DA5E5A8
:2037F3008124FCF581758200227841E4F208F208F208F2C20C7419C0E0E4C0E074A2C0E0D4
:2038130074FDC0E090000075F001E41207BAE58124FCF581783D7419F2E408F20408F2E4E7
:2038330008F290FDAAE0FFBF0102800790F0CF7401F0229066C6E493FD740193FE74029307
:203853007409C0E0C005C00690FDAB12494D1581158115819213500790F0CF7402F02290A8
:20387300FDA8E0FEA3E0FFC3E49E74809F500790F0CF7403F02290FDA8E0FEA3E0FF4E70D6
:203893000302394590FDA8E0FEA3E0FFC374239E74089F50047E237F08C006C0077431C07C
:2038B300E074F1C0E0783DE2F58208E2F58308E2F5F008E21207BAE58124FCF58190FAD2BC
:2038D3007431F074F1A3F0E4A3F090FAD5EEF0EFA3F07841E2F58208E2F58308E2F5F008C7
:2038F300E2C007C006123A1E7841C0E0E582F2E58308F2E5F008F2D0E008F2D006D0078E14
:20391300028F037C007D00783DE22AF208E23BF208E23CF208E23DF290FDA8E0FCA3E0FD7B
:20393300ECC39EFEED9FFF90FDA8EEF0EFA3F002388990FDA2E0FCA3E0FDA3E0FEA3E0FFB8
:203953007841E2B5041108E2B5050C08E2B5060708E2B50702800790F0CF7404F02290FDFE
:20397300A6E0FEA3E0FF90F0CDEEF0EFA3F0C006C00774D4C0E0746FC0E0125DA5E58124EB
:20399300FCF581D20C22122A31AC82AD83AEF0FF90F97FECF0EDA3F0EEA3F0EFA3F022743D
:2039B30008C0E0748EC0E074F9C0E090FAA41249B915811581158190FA9BE054F84421F0F3
:2039D30090FA9CE054F344C8F090FA9E7437F07413A3F090FAA074FFF0A3F090FAA27437B7
:2039F300F07413A3F0227411C0E0749BC0E074FAC0E090FA1A1249B915811581158190F9A3
:203A130096E0FF04F090FA1CEFF022AC82AD83AEF0FF7845ECF4F2EDF408F2EEF408F2EF53
:203A3300F408F290FAD2E0F55AA3E0F55BA3E0F55C90FAD5E0F556A3E0F5578556588557EB
:203A530059155674FFB556021557E55845597003023B1C855A82855B83855CF0126698FE59
:203A7300A385825A85835B8E047D007E007B007845E26CF208E26DF208E26EF208E26BF2ED
:203A9300784DE4F208F2784DC3E2940808E26480948050A77845E25401FA08E25400FB0870
:203AB300E25400FC08E25400FE7849C3E49AF2E49B08F2E49C08F2E49E08F27848E2C313AA
:203AD300F56018E213F55F18E213F55E18E213F55D7849E25420FC08E25483FD08E254B897
:203AF300FE08E254EDFA7845EC655DF2ED655E08F2EE655F08F2EA656008F2784DE2240168
:203B1300F208E23400F2023A997845E2F4FB08E2F4FC08E2F4FD08E2F48B828C838DF022DF
:206ECD000A002530327820004150206F6E2025640A004E6F204150206F6E2025640A002EEF
:206EED0000636865636B435243206661696C65640A0052455120256420706172742025640F
:206F0D000044726177696E6720696D61676520696E20736C6F742025640A00626C6B20662A
:206F2D0061696C65642076616C69646174696F6E210A0072657374617274696E6720696D96
:206F4D006720646C0A004368616E67696E67207374617274696E67536C6F742066726F6DA2
:206F6D0020256420746F20300A004E6F20736C6F74730A006E657720646C20746F202564FC
:206F8D000A00646C20696D670A004F544120696D6167652076616C69646174696F6E2066CB
:206FAD0061696C65640A00646174615479706520307825782069676E6F7265640A0043685D
:206FCD00726F6D613734004F54412076616C6964617465642C207570646174696E6720749C
:0F6FED006F2076657273696F6E202530780A0009
:057EDA00FF21474D47A8
:203B3300E58620E0FB225390FD00225380FB0022E58620E0FB004390020022E58620E0FB35
:203B530000438004002290F0EF74B8F0E4A3F030050990F0EF74B0F0E4A3F02290F997E00D
:203B7300704690F105E06040C20490F0D77468F07402A3F090F0D97406F0E4A3F09075CE77
:203B930075F080120FB0D20490F0D77470F07402A3F090F0D9740DF0E4A3F09075F075F0B7
:203BB30080120FB0D2038002C20330092890F104E06022C20490F0D77468F07402A3F090BB
:203BD300F0D97470F07401A3F09075FA75F080120FB0D20222C202221241EE12420A741277
:203BF300C0E07476C0E01244F5158115817415C0E07476C0E01244F51581158190F0EDE09A
:203C1300FEA3E0FF90FAD7EEF0EFA3F07433C0E07476C0E01244F5158115817441C0E0743F
:203C330076C0E01244F5158115817459C0E07476C0E01244F5158115817473C0E07476C045
:203C5300E01244F515811581748AC0E07476C0E01244F51581158190FAD7E0FEA3E0FF900A
:203C7300F0EDEEF0EFA3F0123CD07412C0E07476C0E01244F51581158190FAD7E0FEA3E0ED
:203C9300FF90F0EFE0FCA3E0FD7813EEF2EF08F27815ECF2ED08F290FC7402155775820537
:203CB3001241CBE582600122749FC0E07476C0E0125DA515811581903BEB020E707474C08E
:203CD300E074FCC0E0E4C0E074ABC0E07476C0E01244F5E58124FBF581229066C4E493C0BB
:203CF300E0740193C0E074B7C0E07476C0E01244F5E58124FCF581221241EE12420A74C692
:203D1300C0E07476C0E01244F515811581123CED90F123E0C0E0A3E0C0E074DBC0E0747694
:203D3300C0E01244F5E58124FCF58190FAF2E0FF3395E0FEC007C00674E9C0E07476C0E074
:203D53001244F5E58124FCF581123CD07412C0E07476C0E01244F51581158190F0D5E0FE91
:203D7300A3E0FF90F0EFE0FCA3E0FD7813EEF2EF08F27815ECF2ED08F290FC74021557755A
:203D930082011241CBE582600122121C31903D0B020E701241EE12420AD205123B5990F032
:203DB300CDE0C0E0A3E0C0E074FCC0E07476C0E01244F5E58124FCF58122903DA6020E708A
:203DD3001241EE12420AD2057412C0E07477C0E01244F515811581D20490F0CFE0FFBF026D
:203DF300028018BF04028023BF05307423C0E07477C0E01244F515811581227432C0E074A5
:203E130077C0E01244F515811581227443C0E07477C0E01244F515811581227E00C007C05F
:203E330006744EC0E07477C0E01244F5E58124FCF58122903DD3020E701241EE12420A74E0
:203E53005DC0E07477C0E01244F5158115817479C0E07477C0E01244F51581158190F0EF52
:203E7300E0FEA3E0FF90F0D9EEF0EFA3F090F98AE0FF7E0090F98BE0FD7C00C007C006C0EC
:203E930005C0047492C0E07477C0E01244F5E58124FAF58190F988E0FF7E0090F989E0FD73
:203EB3007C00C007C006C005C00474A4C0E07477C0E01244F5E58124FAF58190F986E0FFE7
:203ED3007E0090F987E0FD7C00C007C006C005C00474A4C0E07477C0E01244F5E58124FAC0
:203EF300F58190F984E0FF7E0090F985E0FD7C00C007C006C005C00474A4C0E07477C0E00F
:203F13001244F5E58124FAF58190F0EDE0FEA3E0FF8E02EFFB3395E0FCFD7480C39AF50C0F
:203F330074029BF50DE49CF50EE49DF50F907322E493FDE4FC3395E0FBFAE50CC39DFDE50A
:203F53000D9CFCE50E9BFBE50F9AFA78A47402F2E408F208F208F28D828C838BF0EAC007F8
:203F7300C00612619EAA82AB83D006D00790F0D7EA2EF0EB3FA3F090F0FDE0FF7E0090F0DA
:203F9300FEE0FD3395E0FC90F997E0FB7A00C007C006C005C004C003C00274ADC0E07477D3
:203FB300C0E01244F5E58124F8F58190F127E0C0E0A3E0C0E090F125E0C0E0A3E0C0E090E7
:203FD300F129E0C0E0A3E0C0E074C7C0E07477C0E01244F5E58124F8F581123CED7412C0E7
:203FF300E07476C0E01244F515811581123CD074F7C0E07477C0E01244F51581158190F022
:20401300EDE0FEA3E0FF90F0EFE0FCA3E0FD7813EEF2EF08F27815ECF2ED08F290FC7412BD
:20403300155790732275F080020FB07582031241CBE582600122121C31903E4C020E701229
:2040530041EE12420A74F9C0E07477C0E01244F515811581740DC0E07478C0E01244F515A4
:2040730081158190F0EDE0FEA3E0FF90FAD7EEF0EFA3F090F0EFE0FCA3E0FD90F0D9ECF088
:20409300EDA3F08E02EFFB3395E0FCFD7448C39AFA74029BFBE49CFCE49DFD78A47402F2D5
:2040B300E408F208F208F28A828B838CF0EDC007C00612619EAA82AB83D006D007EA2EFEDD
:2040D300EB3FFF90F0D7EEF0EFA3F0EE5407601574075EFC7D00EEC39CFEEF9DFF90F0D7B0
:2040F300EEF0EFA3F090732275F080120FB090F0D9E0FEA3E0FF74082EFEE43FFF90F0D996
:20411300EEF0EFA3F0D2049074AC75F080120FB0023B6F7582041241CBE582600122904071
:2041330052020E701241EE12420A90F0EFE0FEA3E0FF74102EFEE43FFF90F0EFEEF0EFA37B
:20415300F07438C0E07478C0E01244F5158115811242E3023B6F7582051241CBE582600148
:2041730022904137020E701241EE12420AD205744AC0E07478C0E01244F515811581745ED9
:20419300C0E07478C0E01244F51581158190F0D77428F07401A3F090F0EFE0FEA3E0FF901F
:2041B300F0D9EEF0EFA3F0D2049074AC75F080020FB090417A020E70E582C40354F8F582DB
:2041D3001228AFAF82BFFF02800D782BE4F28F82122A0E7582012275820022C206C204C20E
:2041F3000590F0EDE4F0A3F090F0D5F0A3F090F0EFF0A3F0C20822D20490F0D9E4F0A3F087
:2042130090719E93FFE4FE3395E0FDFC7480C39FFF74029EFEE49DFDE49CFC78A47402F2F2
:20423300E408F208F208F28F828E838DF0EC12619EAC82AD8390F0D7ECF0EDA3F090719E4D
:2042530075F080120FB0C20490719FE493FF7E0090F0D9E0FCA3E0FDEF2CFFEE3DFE90F0C3
:20427300D9EFF0EEA3F0906FFC75F080120FB0906FFDE493FF7E0090F0D9E0FCA3E0FDEFAD
:204293002CFFEE3DFE90F0D9EFF0EEA3F0D20490726075F080120FB090F0D7E0FEA3E0FF59
:2042B30090F0EDEEF0EFA3F0907261E493FF7E0090F0D9E0FCA3E0FDEF2CFFEE3DFE74203B
:2042D3002FFFE43EFE90F0EFEFF0EEA3F0C2042290F127E0FEA3E0FF4E601190F125E0FC7D
:2042F300A3E0FDC3EE9CEF9D5002800890F125E0FEA3E0FFC006C0077478C0E07478C0E0CD
:0A4313001244F5E58124FCF5812237
:206FFC00801AFFFFFFFFFFFFFFFFFFFFFFFFFFFFFFFF0000000000000000000000000000EB
:20701C00000000000000000000000000000000000000000000000000000000000000000054
:20703C000000000000000000000000000000000000001C000000001F9F8000000000387032
:20705C0001C07F000000001F9FC000000000387001C07F000000001F9FE000000000387028
:20707C0001C0F7800000001C1CE000000000380001C0E3800000001C1CE0000000003800F8
:20709C0001C0E39DC1C7701F9CE773B871D03873B9C7E39FE3E7F81F9FEFF3FCF9F03873EE
:2070BC00FDCEE39FE777F81F9FCFF3FDDDF03873FDDCE39CE7F7381C1F8E739DFDC038736D
:2070DC009DF8E39CE7F7381C1C0E739DFDC038739DF8F79CE707381C1C0E739DC1C03873DC
:2070FC009DDC7F1FE7F7381F9C0FF3FDFDC03F739DDC7F1FE3E7381F9C0FF3FCF9C03F73E1
:20711C009DCE1E1DC1C7381F9C0773B871C03F739DC7001C0000000000000380000000001A
:20713C000000001C0000000000000380000000000000001C000000000000038000000000F5
:20715C000000001C0000000000000380000000000000000000000000000000000000000074
:20717C00000000000000000000000000000000000000FFFFFFFFFFFFFFFFFFFFFFFFFFFF01
:20719C00FFFF800C000882A2AB55BFFFFFFF7DB4622800000010101176FF7BFFFF7FB7A9A8
:2071BC0055505100002922966FF7BFFFFFFFEAE622AA08000002542ABF3F7FFFFFFFFD59C6
:2071DC00B4102000002423B5B5DFFFFFFFFFF6AE48551000008890546AEFFFFFFFFFFBF521
:2071FC00A382000000012DA3B3FFFFFFFFFFF6BE4E5209000490020D55DFFFFFFFFFFDDDC5
:20721C0068A9001000490CFBAB6FFFFFFFFFFEEB955A002000129122BFDFFFFFFFFFFFF580
:20723C00658140400028127DEFFFFFFFFFFFFFEFAB28000000420A9775FFFFFFFFFFFFF721
:20725C004AC20400800C0008029CDFFFFFFFFFFFFF6A6A8D002000044D72AAFFFFFFFFFF0E
:20727C00FFD5D57480000240128EDFFDFFFFFFFFFFAEAA0A11200020525FF57FFFFFFFFFC8
:20729C00FF7294AA240000010AAB6F77FFFFFFFFFDAF545488000004804D95EBFFFFFFFF3E
:2072BC005B58B5514000000808A6B3F77FFFFFFFFFAD4AA0100000029641DCAEFFFFFFFFD8
:2072DC00FDBFEA4802000000093EAB75EFFFFFFFFFD4B121080000000AC35DFF7FFFFFFFFD
:2072FC00EFEF444A64800000A152A6EFEFFFFFFFD6CAF5101800000002154BD5DFFFFFF7E6
:20731C00EBD4D88500003838000000000000000000000000000000000000000000000000C5
:20733C000000000000000000000000000000000007C00000000001FFF0000000000FFFF07C
:20735C00000000007FFFF000000001FFFFF000000007FFFFC00000001FFF80000000007FD2
:20737C00F80000000000FFE00000000001FF000000000007FE00000000000FF8000000000E
:20739C00001FE000000000003FC00003E000007F80007FF00000FE0003FFF00001FC000F86
:2073BC00FFF00001F8003FFFF00003F800FFFF800007F001FFE000000FE003FF0000000F4B
:2073DC00C00FF80000001F801FF00000001F803FC00000003F003F800000003F007F0000C2
:2073FC0000007E00FE0007E0007E01FC001FF000FC01F8007FF000FC03F001FFF000F80346
:20741C00F003FFF001F807E007FF0001F807E00FF00001F00FC01FE00001F00FC03F80006B
:20743C0003F00F803F000003F01F807E000003E01F807E000003E01F00FC01E003E01F007E
:20745C00FC07F803E01F00F80FFC03E03F00F80FFC03E03F01F81FFE03E03F01F81FFE0378
:20747C00E03F01F81FFE03C03E01F01FFE01C01E00F00FFC00000000000FFC0000000000C7
:20749C0007F8000000000001E000000000000000303000001FF800000000FFFF0000000378
:2074BC00FFFFE000000FFFFFF000003FFFFFFC00007FF00FFE0000FF8001FF0001FE0000A2
:2074DC007F8003F800001FC007F000003FE00FE000007FF00FC00000FFF01F800001FFF8EE
:2074FC001F000003FFF83F000007FEFC3E00000FFC7C7E00001FF87E7C00003FF03E7C00DA
:20751C00007FE03EFC0000FFC03FF80001FF801FF80003FF001FF80007FE001FF8000FFCE9
:20753C00001FF8001FF8001FF8003FF0001FF8007FE0001FF800FFC0001FFC01FF80003F95
:20755C007C03FF00003E7C07FE00003E7E0FFC00007E3E1FF800007C3F3FF00000FC3F7F94
:20757C00E00000FC1FFFC00001F80FFF800003F00FFF000007F007FE00000FE003FC0000C3
:20759C001FC001FE00007F8000FF8001FF00007FF00FFE00003FFFFFFC00000FFFFFF000C1
:2075BC000003FFFFE0000000FFFF000000001FF80000101000400220012011201120122082
:2075DC00284028002800440044004400440082008200FE0008080063773E1C3E7763100A4F
:2075FC0000007FFC4004580658065806580640047FFC00000A000A0A000C0949276D2066E3
:20761C006173742061736C656570202E202E202E205577550A0A00546F200977616B652079
:20763C006D653A0A002D2052656D6F766520616C6C206261747465726965730A002D205377
:20765C00686F7274206261747465727920636F6E74616374730A002D205265696E73657288
:20767C0074206261747465726965730A0A000C6F70656E6570617065726C696E6B2E6465A3
:20769C000A0A004465657020736C6565700A00546167204D41433A202573004368726F6D01
:2076BC006137342076253034580009080A5374617274696E67202E202E202E0A0A08000AF4
:2076DC00564261743A202564206D560A0054656D70657261747572653A202564430A0A0089
:2076FC000C466C617368696E67207625303478202E202E202E000C4F5441204641494C4544
:20771C0044203A280A0A000C4E6F74204F544120696D616765000C57726F6E67204F5441F2
:20773C0020696D616765000C435243206572726F72000C4572726F7220436F646520256482
:20775C00000C090857616974696E6720666F722064617461202E202E202E0A08000A466F41
:20777C00756E642074686520666F6C6C6F77696E672041503A000A4150204D41433A20255E
:20779C0030325825303258002530325825303258000A43683A20256420525353493A2025FE
:2077BC0064204C51493A2025640A000A564261743A202564206D562C205478696E673A2069
:2077DC002564206D562C20446973706C6179696E673A202564206D560A0A000A000C084E7B
:2077FC006F20415020666F756E64203A280A080A000C5765276C6C2074727920616761697B
:20781C006E20696E2061206C6974746C65207768696C65202E202E202E0A0A000C09087AEA
:20783C007A5A5A5A202E202E202E0A080A000C454550524F4D204641494C4544203A280A79
:20785C000A000C536C656570696E6720666F7265766572202E202E202E0A0A00564261743B
:09787C003A202564206D560A0033
:20431D00C007C006C005C004C00390FAE0E0600302441190FAE1E0FF24FB500302440EEFA4
:20433D002F2F904343730243520243700243F102440802440E90FADE744BF0E4A3F090FA3D
:20435D00E0740BF090FAE17401F090FAE27468F002441190FADB124C39E582FF6045EF2478
:20437D00E0FFBF600040027F1F90FAE3E0FE0E90FAE3EEF0C0078E82124763AD82AE831596
:20439D008190FAE2E0FC7B002DFDEB3EFE8D828E837467C0E0124C34AE82158190FAE2EE1E
:2043BD00F0800B90FAE17402F090FAE2E0FFEF75F002A42485F582747835F0F583E493FE31
:2043DD00A3E493FF90FADEEEF0EFA3F090FAE0740BF0802090FAE17403F090FADE74E3F0E5
:2043FD00741AA3F090FAE003F0800990FAE17404F0C3802D90FADEE0FEA3E0FFEE54012427
:20441D00FFE433FDEFC313CE13CEFF90FADEEEF0EFA3F090FAE0E0FF1F90FAE0EFF0ED246F
:0C443D00FFD003D004D005D006D0072229
:207885009B01B3013303C90089019101990019013101930013012301CD01D90199039D01E6
:2078A500B90139037302D30193033B017301B7039701A7012703370167016702DB001B0318
:2078C5006303C500D10011038D00B10031028B00A3002302ED008D03B103DD001D0371032D
:2078E50077038B03A303BB003B02BB03D70017034703B7003702C702F70213028F02650027
:20790500850169000903A10121034D000D01590019026101610243025300EF024301F1024D
:20792500E501E901C9033D01790179022F014F014F02DB037B036F03F500C503D103BD0086
:0E7945003D02AF002F02DD03BD03D703AF03E9
:20444900C007C006C005C004C001C000AC82AD83AEF0FFBF20005031BF0A030244E88F8256
:20446900C007C006C005C004C003C002C001C000C025124630D025D000D001D002D003D09F
:2044890004D005D006D00780567E00EF24E0FFEE34FFFEEF2FFFEE33FEEF24A1F582EE349F
:2044A90067F583E493A3E493C4540FFE90F0F1EEF0300507EE2EFE90F0F1F090F0F1E0FF08
:2044C9003395E0FE0FBF00010E90F0EDE0FCA3E0FDEF2CFFEE3DFE90F0EDEFF0EEA3F0D0A7
:2044E90000D001D004D005D006D00722C007C006C005C004C003C001C000E58124F6FFC0D1
:2045090007C006C005C004C003C002C001C000C0251245E3D025D000D001D002D003D00408
:20452900D005D006D007E58124F6F886050886068D828E83E493FCBC0C7290F0EDE4F0A3A8
:20454900F0C007C005C006C0E0C0E0904449125A54E58124FBF58190F0EDE0FDA3E0FE33FA
:2045690095E0FCFB7480C39DFD74029EFEE49CFCE49BFB78A47402F2E408F208F208F28D8A
:20458900828E838CF0EBC007C002C001C000C02512619EAB82AC83ADF0FED025D000D0018B
:2045A900D002D00790F0EDEBF0ECA3F0C007E58124F5F8E6C0E008E6C0E0E4C0E0C0E0907C
:2045C900121B125A54E58124FBF581D000D001D003D004D005D006D0072230062530050668
:2045E9007E147F0080047E0A7F0090F0F2EEF03005067E207F0080047E107F0090F0F1EE7E
:20460900F0223005067E207F0080047E107F0090F0F2EEF03005067E147F0080047E0A7F6F
:204629000090F0F1EEF022AF82BF08028018BF0902804EBF0A028013BF0B028055BF0C010B
:2046490022BF0D568038B2050245E31245E390F0F2E0FE3395E0FD90F0EFE0FBA3E0FCEE8E
:204669002BFEED3CFD90F0EFEEF0EDA3F090F0D5E0FDA3E0FE90F0EDEDF0EEA3F022B204BF
:204689002290F0EDE0FDA3E0FE90F0D5EDF0EEA3F02290F0D5E4F0A3F0227E00C007C00666
:1246A9007453C0E07479C0E0125DA5E58124FCF58122D9
:15795300496E76616C69642063686172203078253032780A00C9
:2046BB00E58620E0FB225390FD00225380FB0022E58620E0FB004390020022E58620E0FBA2
:2046DB0000438004002275FB02228582F9E5F830E1FB53F8FDE5F820E0FB85F9822253F3D1
:2046FB00C775FA2275FC0C75F8C043F4C043F102D20A2253F1FD53F43F75FA0075FC317525
:08471B00F84043F338C20A2202
:20472300858283D0F0D0E0D082C082C0E0C0F022C00074FB2581F8E582868208868308869B
:20474300F0D0002275F008C58213C58233D5F0F7C58222E583A2E713F583E58213F582227F
:20476300D083D0E0D0F0C0F0C0E0C083E582A4F58285F08322C000E58124FDF8E6F8858220
:20478300F0A4F582E8A8F08583F0A428F583E5F03400F5F0E4D00022C000C001C0E0C0F0BA
:2047A30074FA2581F88600E58288F0A4F582A9F0E58388F0A429F583E5F03400F9D0E08872
:2047C300F0A429C5F03400F9D0E0C0F088F0A429D0F0D001D00022C000C001C002E5812442
:2047E300FBF8E6F918E6F88582F0A4C0E0AAF0E58388F0A42AF8E5F03400FAE98582F0A4EC
:2048030028C0E0E5F03AFA74003400F8E98583F0A42AFAE5F0388AF0D083D082D002D001AC
:20482300D00022D0E0D0F0C000C001C002C0F0C0E074F82581F9E7F809E7F922D002D001E8
:20484300D00022C9C583C9C8C582C82212482675F008124846E0A3124846F0A3D5F0F30293
:20486300483F12482675F008124846E493A3124846F0A3D5F0F202483F124826C375F008E4
:20488300124846E0A3F502124846E03AF0A3D5F0EF02483F12482675F008124846E0A3F56C
:2048A30002124846E05AF0A3D5F0EF02483F124826C375F008124846E0A3F502124846E0FF
:2048C3009AF0A3D5F0EF02483F124826C375F008124846E0A3F502124846E0A39AD5F0F02F
:2048E30002483F12482675F008124846E0A3F502124846E0A36A7007D5F0EED302483FC34F
:2049030002483FC8C0E075F008E038F0A3D5F0F9D00022D3E4024906C374FF024906C0008C
:20492300C00174FA2581F8E6F5F0088601496015088600E8F0A374FF25F0F5F074FF39F578
:204943000145F070EED001D00022C000C001C00274F92581F9E7D3601CF5F0098700098773
:2049630001C3E0F502A3124846E0A31248466A7004D5F0EED3D002D001D00022C000C001B9
:20498300C00274F82581F9E7F5F00987024A601F098700098701124846E0A3124846F0A3A9
:2049A30074FF25F0F5F074FF3AF50245F070E7D002D001D00022C000C001C00274F925816C
:2049C300F9E76015F5F0098700098701124846E0A3124846F0A3D5F0F3D002D001D00022D6
:2049E300C083C082E06003A380FAC3E582D0F095F0F582E583D0F095F0F58322C003C0021D
:204A0300C001C000C0E0C0F0C083C082A98174F62581F886F0188600750201750300758210
:204A230011A2F74014C3E833F8E5F033F5F0C3EA33FAEB33FB058280E8E4C003C002C0E0C7
:204A4300C0E0AA81C0F0C000C0E0C0E0A881C0E0C0E0C0E0C0E0AB81C000C001C3758304C3
:204A630086F018E71995F0D583F6D001D000402BC000C001C375830486F018E795F0F7197C
:204A8300D583F585020085030175830486F018E745F0F719D583F5D001D00074FC28F8C3BF
:204AA30075830408E613F6D583F9C00074FC2AF8C375830408E613F6D583F9D000D5829897
:204AC30020D508D082D083D0F0D00074F42581F58130D508D082D083D0F0D000E8D000D053
:204AE30001D002D00322C2D50249FFD2D50249FFC003C002C001C000C0E0C0F0C083C0823E
:204B0300A98174F62581F886F07401758219A2F7400A23C5F023C5F0058280F2C0E0E4C095
:204B2300E0C0E0C0E0AA81C0F0C0E0C0E0C0E0A881C0E0C0E0C0E0C0E0AB81C000C001C37E
:204B430075830486F018E71995F0D583F6D001D000402BC000C001C375830486F018E7959F
:204B6300F0F719D583F585020085030175830486F018E745F0F719D583F5D001D00074FCC1
:204B830028F8C375830408E613F6D583F9C00074FC2AF8C375830408E613F6D583F9D000C2
:204BA300D58298D082D083D0F0D00074F42581F581E8D000D001D002D00322C006C005C0AF
:204BC30004C003C002C001C00074F72581F886F074017C09A2F7400923C5F023C5F00C8031
:204BE300F3FBE4FAA9F0F88582F0FDFEC3E58298E583994011C3E58298F582E58399F5839D
:204C0300EA4DFDEB4EFEC3E913F9E813F8C3EB13FBEA13FADCD620D5048D828E83D000D05D
:204C230001D002D003D004D005D00622C2D5024BBED2D5024BBEE0C0E02401F0A3E0C0E01E
:204C43003400F0A3E0D083D0826014B4600AC000A882E2D000F582224009E493F58222E005
:204C6300F58222C000A882E6D000F5822212482675F004D3124846E0FA3400F0EAA312481E
:204C830046F0A3D5F0EE02483F12482675F004C3124846E0FAA3124846E0A36A7004D5F06D
:204CA300EFD302483F124826C3E0A398E0A399E0A39400E0A3940002483F124826C3E0A3AF
:204CC30038E0A339E0A33400E0A3340002483F75F004E07004A3D5F0F9F58222A3A3A3E066
:024CE30033227A
:044CE50075C90B2260
:204CE900C0E0C007C006C0D075D000AEDAAFDB74012EF5DAE43FF5DBD0D0D006D007D0E035
:204D090032C007C006C005C004C000AEDAAFDB7851EEF208EFF2784FE5E2F27850E5E3F2DC
:204D2900EEB5DAE7EFB5DBE3784FE2FC08E2FD08E2FE08E28C828D838EF0D000D004D00531
:204D4900D006D0072285E28222E4F5DAF5DBF5E4F5E5F5E6F5E7F5E275E40543D84043B8F8
:204D69000222AF82AE83ADF0FC7853EFF2EE08F2ED08F2EC08F2124D0A7857C0E0E582F279
:204D8900E58308F2E5F008F2D0E008F2124D0AAA82AB83AEF0FF7857D3E29AF4B3FAB30855
:204DA900E29BF4B3FBB308E29EF4B3FEB308E29FF4FF7853C3E29A08E29B08E29E08E29F1C
:034DC90050CA22AB
:204DCC0053C07F53A1FE53BEFC3243870122AF82AE83ADF0FC785BEFF2EE08F2ED08F2ECAD
:204DEC0008F290FAE4E4F090FAE5F090FAE674DFF090FAE774BEF090FAE8E054E0F090FAC6
:204E0C00E8E0541FF090FAE97407F090FAEAE054E0F090FAEAE0549F4420F090FAEAE054C2
:204E2C007FF090FAEBE054FC4402F090FAEBE054FBF090FAEBE054F7F090FAEBE054CFF090
:204E4C0090FAEBE0543F4440F0785BE2F5F008E242F008E242F008E245F0701B7B0175106D
:204E6C00AD7511FC85111290FAE4E512F07AAD90FAE5EAF0024F0E785BC3E2943F08E29462
:204E8C000008E2940008E29400500C785B743FF2E408F208F208F2785BE225E0F51308E2B8
:204EAC0033F51408E233F51508E233F516E5132513F513E51433F514E51533F515E5163389
:204ECC00F516747DC0E0E4C0E08513828514838515F0E516124AE9785BC0E0E582F2E58372
:204EEC0008F2E5F008F2D0E008F2158115817B007DA67EFC8E0590FAE4EDF07EA690FAE57E
:204F0C00EEF053C07F53A1FE43A11075A8A0EB7014785BE2F5F008E242F008E242F008E247
:204F2C0045F070012253BEFBE5BE30E5FBE5C654384441F5C6E5C630E6FB43BE0453C67F0E
:204F4C00785BC3E2F5F074F095F008E2F5F074FF95F008E2F5F0E495F008E2F5F0E495F0C8
:204F6C00501B7DF07EFF785BE22410F208E23400F208E234FFF208E234FFF28011785BE281
:204F8C00FD08E2FE785BE4F208F208F208F2EB60067A007C0080047A107C008AA175C00058
:204FAC0043D6817AE47CFA8AD48CD575D60175A204E5A570FC75A2028EA48DA3AEA5EEB5EA
:204FCC00A50280FA43C702EB60077B0075BE07800375BE06000000E5BE5403600875D70126
:204FEC00004387010053C7FDE5BE30E5FB75BE00E5BE30E5FB75C679E5BE30E6FB7E007DC7
:1B500C0000000DBD80FB0EBE80F575C639E5C620E6FB75C63875BE04024F1ACE
:0E7EDF0006060606060604070707070707043F
:20502700AF8275BB0074304FF5B575B473E5B420E6FBE5B430E7FBAEBA7F00ADBB7C00902F
:20504700FAF0EC4EF0ED4FA3F08FB522C21490FAF0E0FEA3E08E82C4C582C4540F6582C561
:2050670082540FC5826582C582F58374E2C0E07404C0E01247DAAC82AD83AEF0FF15811570
:205087008190FAEEE0FAA3E0FB74FFC0E07407C0E08A828B831247DAA882A983AAF0FB153D
:2050A700811581ECC398FCED99FDEE9AFEEF9BFF747DC0E08C828D838EF0EF12479BAC82BF
:2050C700AD83AEF0FF1581EFC40354F8CEC403CE6ECE54F8CE6EFFEDC40354074EFEEDC432
:2050E7000354F8CCC403CC6CCC54F8CC6CFDEF30E70FD214C3E49CFCE49DFDE49EFEE49F87
:20510700FF90FAECE0C0E0A3E0C0E08C828D838EF0EF124AE9AC82AD83AEF0FF1581158179
:2051270074FF2CFC74033DFDE43EFEE43FFF74FFC0E07407C0E08C828D838EF0EF124AE9DC
:16514700AC821581158190FAF2ECF030140790FAF2C3E49CF02284
:20515D00E58620E0FB225390FD00225380FB0022E58620E0FB004390020022E58620E0FBF5
:20517D00004380040022C007C006AF82BF64004027BF6A00502290DF097421F090DF0A745C
:20519D003BF090DF0B7413F08F06EE249CFE90DF0675F003A4F0802F90DF097422F090DF08
:2051BD000A74BBF090DF0B7413F0BFC8004013BFE100500EEF2438FF90DF0675F00CA4F01C
:2051DD00800590DF06E4F0D006D00722C00775E10490DF3BE0B401FCD007221251E97F00F5
:2051FD008F057EDFEFC3907968938D828E83F00FBF200040EB90DF237488F090DF2474310C
:20521D00F090DF257409F090DF2E748EF075911075ED00759D0075EF0322C007AF82C3EF34
:20523D006480946250047FE2800EC3748A8FF063F08095F050027F0A741E2FC31390798899
:20525D009390DF2EF0D00722C007C006AE82AF838ED48FD575D60100000000000000000017
:20527D00D006D0072275D68100000000000000000022C007C006C005AE82AF831252828F2B
:20529D000590FCB6EDF090FCB7EEF07EB47FFC8E828F83125265D005D006D00722C007C0E9
:2052BD0006C005AE82AF831252828F0590FCBCEDF090FCBDEEF07EBC7FFC8E828F831252A3
:2052DD0065D005D006D00722301504E5EF7001221251E953C0FE43B801E5ED75F080A42420
:2052FD00F4F58274FA35F0F58312528F75E1022253B8FE1252821251E975D10053C0FE22FA
:20531D00AE82AF837CFF7DFF12530D8E828F831252BA75E90075E103E5E920E42375820FB3
:20533D00C005C004125027D004D00590FAF0E0FEA3E0FFC3EE9CEF9D50DE8E048F0580D836
:20535D00125282C005C0041252E5D004D0057423C0E08C828D83124C2F15817404C0E0122D
:20537D004778AC82AD83158190F125ECF0EDA3F022C025C0E0C0F0C082C083C007C006C032
:20539D0005C004C003C002C001C000C0D075D000E5D130E040E5ED75F080A424F4FE74FA67
:2053BD0035F0FF53D1FE8E828F83E0FD248240200D0DED2EF582E43FF583E0FF30E711E552
:2053DD00ED04FF8FEDBF030375ED00E5EF14F5EF1252E5800F749DC0E07479C0E0125DA527
:2053FD001581158153C0FED0D0D000D001D002D003D004D005D006D007D083D082D0F0D0E2
:20541D00E0D0253220170612530DC21522201505D2150252E522E59D75F080A424F4FE74AF
:20543D00FA35F0FF8E828F83E0FD7403B5EF047582FF228D037C0074022BF9E43CFAE92E24
:20545D00F582EA3FF583E0FA747F5AD39494F4FABA7F0040047AFF8003EA2AFA90F0FDEA19
:20547D00F00BBB00010CEB2EF582EC3FF583E0A2E71324B390F0FEF00EBE00010FC005C0F7
:20549D0006C00790F9991249B9158115811581E59D04FF8F9DBF0303759D00D21810AF02F7
:2054BD00C218E5EFFF04F5EFA21892AFEF7007C0051252E5D0058D8222D21910AF02C2193E
:1054DD00AFEF75EF03A21992AFEF70030252E52201
:20796800D3917D044522000F0022BB131D3B1373A7650700181E1CC700B0B610EA2A001F01
:20798800030506080B0E191C242527293855408D8A84CAC4C0646D612069727120756E6526
:0979A800787065637465640A00DF
:107EED00DFD900008080131A0000DFD9207E1342F5
:1700E10090FC857456F090FC867412F090FC8703F090FC887485F0B2
:2054ED00E58620E0FB225390FD00225380FB0022E58620E0FB004390020022E58620E0FB62
:20550D00004380040022C007C006C005C004C003C002C001C000E5827862F27E00C21B7873
:20552D0063E4F2C0067863E2C0E0901000124778AA82AB8315817864EAF2EB08F2786674B2
:20554D0004F2E408F27864E2FA08E2FBE4FCFE7404C0E0E4C0E07489C0E074FCC0E08A829A
:20556D008B838CF0EE1207BAE58124FCF5817404C0E07485C0E074FCC0E090FC8912494D59
:20558D00158115811581921CD006201C030256777866E2FB08E2FCC394104003025677C0D0
:2055AD000678647966E3C5F0E225F0FB09E3C5F008E235F0FAE4FCFE7402C0E0E4C0E074FD
:2055CD0089C0E074FCC0E08B828A838CF0EE1207BAE58124FCF58190FC89E0F51774FFB509
:2055ED001705D006025677D0067862E2B5175D90FC8AE0FCBC020040531C1C8C067861C379
:20560D00E29C50047861E2FCC0067B00785FE2F51808E2F5197864E2FD08E2FF74022DFDB1
:20562D00E43FFF7866E22DFD08E23FFA7E007F00C004C003C018C0198D828A838EF0EF125E
:20564D0007BAE58124FCF581D21BD00690FC8AE0FF7D007866E2FB08E2FCEF2BFBED3CFC70
:20566D007866EBF2EC08F202559D7863E22401F27863E2B40A005003025530301B048E077B
:20568D0080027FFF8F82D000D001D002D003D004D005D006D00722C007C001C000758204EB
:2056AD00C007C006C005C004C003C002C001C000121A53D000D001D002D003D004D005D083
:2056CD0006D007785F749FF274FC08F278617401F2758223125513E58230E70690FC9F74A3
