:040000000200833245
:01000B0032C2
:0100130032BA
:01001B0032B2
:0100230032AA
:03002B00024E453D
:01003300329A
:01003B003292
:030043000254075D
:03004B00024D6201
:01005300327A
:01005B003272
:01006300326A
:01006B003262
:01007300325A
:03007B00025F62BF
:0301D30002007EA9
:03007E000205DF99
:2001D600E58620E0FB225390FD00225380FB0022E58620E0FB004390020022E58620E0FBCC
:2001F600004380040022AF8290F0D0E4F090F0D1F08F061FEE60767E0090F998E0FDBD02B7
:200216000BEE90676F93FDBDC800405990F998E0FDBD010BEE90676F93FDBDC8005046EE07
:20023600246FFCE43467FD8C828D83E493F582C007C006C005C004121F3BE582D004D005FF
:20025600D006D007601F90F0D0E0FB90F0FDE0FAC3EB9A501090F0D0EAF08C828D83E49373
:20027600FC90F0D1F00EBE0C005086808C90F0D1E0FFE06013BFC800400890F9987402F098
:20029600800690F9987401F090F0D1E0F5822290F12BE0FEA3E0FFC3742C9E74019F400908
:2002B60090F121E0700330015E30090920020690F104E0700930031E90F105E0601890FCA1
:2002D600A1E0FFBFFF02800B782BE4F28F82122A5C80031240B7122107AD82AE83AFF090C6
:2002F600F0D2EDF0EEA3F0EFA3F0ED4E602D90F12BE4F0A3F010010090F121E06002D201A3
:2003160090F121E4F080141221F2AD82AE83AFF090F0D2EDF0EEA3F0EFA3F0121B9B90F01F
:20033600D2E0FDA3E0FEA3E0FFED4E700990F11FE4F0A3F08059740F2DFAE43EFB8F048A7D
:20035600828B838CF012674FFAA312674FFB90F11FEAF0EBA3F0740D2DFAE43EFB8F048A79
:20037600828B838CF012674F60168D828E838FF0123431E582701890F11FE4F0A3F0800F82
:200396007480C0E07467C0E0125E5C15811581121BE6AE82AF8390F12BE0FCA3E0FD90F142
:2003B6002BEE2CF0EF3DA3F0BE580CBF020990F103E06003C2002290FA99E0600E90FA9908
:2003D600E4F0900064E4F5F0021AE690F11FE0FEA3E0FF4E603BEF30E71F8E048F055305E8
:2003F6007F78B7ECF2ED08F2E408F208F29003E8E4F5F0126401021AE678B7EEF2EF08F2E7
:20041600E408F208F290EA60E4F5F0126401021AE6121BE6AE82AF8378B7EEF2EF08F2E481
:2004360008F208F29003E8E4F5F0126401021AE690F10CE0FF600D8F82121F3BE58290F9AF
:2004560097F0800C7582021201FCE58290F997F090F997E0700920030690F105E070143038
:20047600090920020690F104E0700890F122E0FFBF233690FCA1E0FFBFFF02801A75820256
:20049600124244E582702290FCA1E0FF782BE4F28F82122A5C801290F122E0FFBF23004051
:2004B600051241E2800312419F90F997E0604890F122E4F090F10CE0700F758204121AA1A4
:2004D6001217C0758204121ADA90F12174FDF0900028121A7E121BE6AE82AF8378B7EEF233
:2004F600EF08F2E408F208F29003E8E4F5F0126401121AE6D20022758201121B61AC82AD03
:2005160083AEF0FF78B7ECF2ED08F2EE08F2EF08F29003E8E4F5F0126401021AE6E582FFBD
:2005360024FA50030205C7EF2F2F90054473024D5E02055602056D02059D0205C70205A92D
:20055600748BC0E07467C0E0125E5C15811581C20090F997E4F02290F997E0FE7498C0E0F1
:200576007467C0E0125E5C15811581758204C006121AA112167A1217C0758204121ADAD008
:200596000690F997EEF022123D29900000E4F5F0021AE674A8C0E07467C0E0125E5C1581B3
:2005B6001581758204121AA1122A48758204021ADA7E00C007C00674B8C0E07467C0E012EE
:2005D6005E5CE58124FCF58122758201121AA175820F1250A090FAF0E0FEA3E0FF7423C02F
:2005F600E08E828F83124CA815817404C0E01247F1AC82AD83158190F123ECF0EDA3F09061
:20061600677BE493C0E0740193C0E090677DE493C0E0740193C0E0740293C0E074CAC0E069
:200636007467C0E0125E5CE58124F9F58112571D121C7F121C3790F12174FCF0AEBE530605
:20065600187F00BE1009BF000690F12174FEF0301A0C12423E900000E4F5F0121AE6747412
:20067600C0E074FCC0E0E4C0E074F9C0E07467C0E0125E5CE58124FBF581123A2B90019049
:20069600E4F5F0121AE6758204121AA11216EC123A1290F100E060117401C0E07468C0E0CC
:2006B600125E5C15811581801B7412C0E07468C0E0125E5C15811581123E0B902710E4F5FC
:2006D600F0121AE690F997E0FFE0601F8F82121F3BE5827025741FC0E07468C0E0125E5CB0
:2006F6001581158190F997E4F0800F743DC0E07468C0E0125E5C1581158190F997E07003FD
:2007160012044690F997E060071240B7D200800512419FC200758204121AA11217C030000B
:20073600067E287F0080047E587F028E828F83121A7E30000A7C887D137E007F0080087C02
:1E075600C07DD47E017F008C828D838EF0EF121AE63000051202A580F812044680F3A4
:20676F00C864C965CA66CB67CC68CD6910004F68804E6F207570646174650A00434D445F00
:20678F00444F5F5343414E0A0052657365742073657474696E67730A0045726173696E6762
:2067AF0020696D616765730A00436D6420307825782069676E6F7265640A000A2573204F8E
:2067CF0045504C2076253034782C20636F6D70696C656420417567202037203230323420DD
:2067EF0030393A32353A33300A004D41432025730A00446F696E67206661737420626F6F27
:20680F00740A004E6F726D616C20626F6F740A004E6F20415020666F756E64206F6E20736A
:20682F0061766564206368616E6E656C0A004E6F207361766564206368616E6E656C0A00B3
:09684F004368726F6D613734007B
:017FA70001D8
:20077400E58620E0FB225390FD00225380FB0022E58620E0FB004390020022E58620E0FB28
:20079400004380040022AC82AD83AEF0FF00C2A00075820312475E8E8212475E8D8212471F
:2007B4005E8C8202475EC007C006C005C004C003C002C001C000AC82AD83AEF0FFE5812471
:2007D400F5F8860208860300C2A00075820312475E8E8212475E8D8212475E8C8212475E9A
:2007F4008A068B07E58124F3F886040886058C028D031CBCFF011DEA4B6015758200124724
:200814005EAB828E828F83EBF0A3AE82AF8380DE00D2A000D000D001D002D003D004D00578
:20083400D006D00722AF8200C2A0008F8212475E00D2A0002200C2A00075820512475E755C
:20085400820012475EE58220E0F500D2A00022AC82AD83AEF0FF7803E2FA08E2FBC007C09D
:2008740006C005C004C003C002120849758206120839D002D003D004D005D006D00700C2E0
:20089400A00075820212475E8E8212475E8D8212475E8C8212475E8A068B077805E2FC081D
:2008B400E2FD8C028D031CBCFF011DEA4B60128E828F83E0FBA3AE82AF838B8212475E8045
:2008D400E100D2A000221208497582B9120839C20B227582AB12083975F034D5F0FDD20B0D
:2008F40022C007C006C005C004C003C002C001C000C082C083C0F0C0E005810581E581243B
:20091400EFF88605088604E58124EDF8E6084670030209EEC005C004E58124F9F88602081C
:200934007B00E58124FDF8E4C39AF674019B08F6E58124FDF8E58124EBF9C3E79609E7083F
:2009540096D004D005500EE58124EDF8A98119E6F708E609F77803EDF2EC08F2A88118796F
:2009740005E6F308E609F3E58124FBF886820886830886F008E6C007C006C005C004C003C0
:20099400C002C001C000C025120863D025D000D001D002D003D004D005D006D007A88118CC
:2009B4008602088603E4FEFFE58124FBF8EA26F6EB0836F6EE0836F6EF0836F6A88118E61B
:2009D4002DFD08E63CFCE58124EDF8A98119E6C397F608E60997F602091BE58124FAF58127
:2009F400D000D001D002D003D004D005D006D00722C007C006C005C004C003C002C001C009
:200A140000C082C083C0F0C0E0E58124FDF88602088603EA7005EB540F6006758200020B3E
:200A340039E58124F1F8E608467003020B36758206C007C006C005C004C003C002C001C0F3
:200A540000C025120839D025D000D001D002D003D004D005D006D00700C2A000E58124F1DC
:200A7400F88602088603C3EA9410EB94004018E58124FDF88602088603EA4B700A7582D813
:200A940012475E7D10800875822012475E7D01E58124FDF80808868212475EE58124FDF85D
:200AB40008868212475EE58124FDF8868212475E00D2A000C007C006C005C004C003C00210
:200AD400C001C000C025120849D025D000D001D002D003D004D005D006D007C00590100043
:200AF4001247F1AA82AB83AEF0FF1581E58124FDF8EA26F6EB0836F6EE0836F6EF0836F622
:200B14008D037F00E58124F1F88605088606EDC39BFDEE9FFEE58124F1F8A60508A6060279
:1C0B34000A35758201E58124FCF581D000D001D002D003D004D005D006D00722B4
:200B5000E58620E0FB225390FD00225380FB0022E58620E0FB004390020022E58620E0FB48
:200B7000004380040022C007C006C005C004C003C002C001C000AC82AD83AEF0FFE58124DB
:200B900006F581A88176807A00758204C007C006C005C004C003C002C001C000C025121A08
:200BB000A1D025D000D001D002D003D004D005D006D0077416C0E0E4C0E07431C0E074F19B
:200BD000C0E08C828D838EF0EF1207BAE58124FCF58174162CFCE43DFDE43EFEE43FFB906D
:200BF000F141E0FFBF2004C207806B90F141E0FFBF2104D207805F90F141E0FF7E00C0071A
:200C1000C0067440C0E0746EC0E0125E5CE58124FCF58190FAAC7416F0E4A3F090F1317512
:200C3000F000C007C006C005C004C003C002C001C000C025121DEED025758204C025121A95
:200C5000DAD025D000D001D002D003D004D005D006D007020E59C221C007C006C005C004B7
:200C7000C003C002C001C000C025126125D025D000D001D002D003D004D005D006D00790C0
:200C9000F0E7E4F0A3F090F0DDF0A3F0E58124FBF8A60408A60508A60608A603A881187630
:200CB0000074E0C0E07401C0E07431C0E074F1C0E0E58124F7F886820886830886F008E6D3
:200CD0001207BAE58124FCF58130073AC002E58124FAF8860274780826FBE40836FEE408DD
:200CF00036FF74E0C0E07401C0E07411C0E074F3C0E08A828B838EF0EF1207BAE58124FC9A
:200D1000F581D002801774E0C0E07401C0E0E4C0E090F31112499A158115811581E5812482
:200D3000FBF874E026F674010836F6E40836F6E40836F67E067F00C007C006C005C004C08E
:200D500003C002C001C000C025123BE8D025D000D001D002D003D004D005D006D00790F012
:200D7000DDE02401F0A3E03400F01EBEFF011FEE4F70C47EE07F01FCFDA881E6605DEC24CB
:200D900031F582ED34F1F583E0FBA881E65B60047B0080027B06C003EE2431F582EF34F159
:200DB000F583E0FBA88118E65BD00360027B07C006C0078A07EFC454F04BFAA8811818E6FE
:200DD00054AA7006D007D0068009D007D0068A82126149A881E6C313F6809EA88176800EBE
:200DF000BE00010F0CBC00010DC3EC94E0ED9401408790F0E7E0FEA3E0FF74062EFEE43F43
:200E1000FF90F0E7EEF0EFA3F0A8811806A88118B640005003020CB1758204C007C006C024
:200E300005C004C003C002C001C000C025121ADAD025C025126157D025D000D001D002D00C
:200E500003D004D005D006D007E58124FAF581D000D001D002D003D004D005D006D0072271
:200E7000AE82AF837D807C00C221C007C006C005C004126125D004D005D006D00790F0E739
:200E9000E4F0A3F090F0DDF0A3F07807F274C0C0E07403C0E0E4C0E090F13112499A1581DE
:200EB000158115817B067A00C007C006C005C004C003C0028E828F83120081D002D003D036
:200ED00004D005D006D00790F0DDE02401F0A3E03400F01BBBFF011AEB4A70CC780A74E04C
:200EF000F2740108F27808E4F208F2ED60587808E22431F58208E234F1F583E0FAED5A6056
:200F1000047A0080027A06C002780AE22431F58208E234F1F583E0FAED5AD00260027A07F2
:200F3000C006C0078C07EFC454F04AFCED54AA7006D007D0068009D007D0068C8212614936
:200F5000EDC313FD80A57D80780AE22401F208E23400F27808E22401F208E23400F278080B
:200F7000C3E294E008E294015003020EFBC006C00790F0E7E0FAA3E0FF74062AFAE43FFF5B
:200F900090F0E7EAF0EFA3F07807E22401F27807E2B44000D007D0065003020E9D0261574A
:200FB000C007C006C005C004C003C002C001C000AD82AE83AFF0780C12674FF290F0D9E08F
:200FD000F508A3E0F50974012DFAE43EFB8F048A828B838CF012674FFA780FF2E408F28503
:200FF0000882850983C007C006C005C004C003C002C001C0001211AEE582D000D001D0027F
:20101000D003D004D005D006D007600302110C90F0D7E0F508A3E0F509780CE2F50A750B7B
:2010300000780DE50AF2E50B08F2850882850983C007C006C005C004C003C002C001C00014
:20105000121186D000D001D002D003D00490F0E3E0F508A3E0F50990F0EBE0FAA3E0FCEA4E
:20107000C39508F582EC9509F58378B5E50AF2E50B08F2C002C001C0001263E1AB82AC839A
:20109000D000D001D002D005D006D007ECC423CBC423541F6BCB541FCB6BCBFC90F0F9EB49
:2010B000F0ECA3F074022BFBE43CFCEB2DFDEC3EFE780CE2604690F0F7E0FBA3E0FC90F05F
:2010D000F774012BF0E43CA3F0EB2431FBEC34F1FC8B828C83E0F50A8D828E838FF012676B
:2010F0004FFAA3AD82AE83E50A42028B828C83EAF0780CE2FC780C24F8F280B5D000D001A1
:20111000D002D003D004D005D006D0072290F0E9E0FEA3E0C423CEC423541F6ECE541FCE4C
:201130006ECE30E40244E0FF90F0E7E0FCA3E0FD90F0EBE0FAA3E0FBEAC39CFCEB9DFD7862
:20115000B5ECF2ED08F2900050C007C0061263E1AC82AD83D006D007EC2EFEED3FFF90F074
:20117000F7EEF0EFA3F030040C90F0F774E02EF074013FA3F022AE82AF8390F0DFEEF0EFE8
:20119000A3F090F0E9EEF0EFA3F0780D90F0E1E22EF008E23FA3F012111D75820022AF83B6
:2011B000E5827811F2EF08F27811790FE3C5F0E225F0FC09E3C5F008E235F0FD90F0E5ECBA
:2011D000F0EDA3F090F0DDE0FAA3E0FB8A068B077811C3E2F5F0EE95F008E2F5F0EF95F0EF
:2011F0004025EA9CEB64808DF063F08095F05017781190F0E3E2F008E2A3F090F0EBEAF069
:20121000EBA3F07582002275820122C007C006C005C004C003C002C001C000AC82AD83AEE5
:20123000F0FFE5812404F581BF2000502C8F82C007C006C005C004C003C002C001C000C063
:20125000251246A9D025D000D001D002D003D004D005D006D0070215407E00EF24E0FFEE12
:2012700034FFFEEF2FFFEE33FEEF2458F582EE3468F583E493FEA3E493FF90F0F9EEF0EF39
:20129000A3F0EFC4540FFE90F0F1F0300507EE2EFE90F0F1F090F0EFE0FEA3E0FF90F0F23E
:2012B000E0FD780FF2ED3395E008F28E828F83C007C006C005C004C003C002C001C000C03B
:2012D000251211AEE582D025D000D001D002D003D004D005D006D007602790F0F1E0FF3306
:2012F00095E0FE0FBF00010E90F0EDE0FCA3E0FDEF2CFFEE3DFE90F0EDEFF0EEA3F002159E
:201310004090F0EDE0FEA3E0FF90F0F1E0FD780DF2ED3395E008F28E828F83C007C006C0ED
:2013300005C004C003C002C001C000C025121186D025D000D001D002D003D004D005D00686
:20135000D00790F0F9E0FEA3E0FF53070F90F0F9EEF0EFA3F090F0EDE0FEA3E0FF8E0553D8
:2013700005078DF005F07D80E4FC3392D28008A2D2EC13FCED13FDD5F0F590F0F1E0FC333D
:2013900095E0FB0CBC00010BEC2EFCEB3FFB90F0EDECF0EBA3F030055A90F0E3E0FEA3E0A4
:2013B000FF90F0DDE0FBA3E0FCEBC39EFEEC9FFF8E828F8378CA7402F2E408F2C005C00460
:2013D000C003C002C001C000C02512668AAE82D025D000D001D002D003D004D0058EF00579
:2013F000F07E007F808007C3EF13FFEE13FED5F0F6802FC00590F0E3E0FBA3E0FC90F0DDDD
:20141000E0FAA3E0EAC39BFA8AF005F07A007D808007C3ED13FDEA13FAD5F0F68A068D071A
:20143000D005C006C00790F0E3E0FBA3E0FC90F0EFE0FAA3E0FFEAC39BFBEF9CFC90F0F96F
:20145000E0FEA3E0FF90F0F9EB2EF0EC3FA3F090F0FBE4F0A3F0D007D006C006C00790F040
:20147000FBE0FBA3E0FC90F0F1E0FA3395E0FFC3EB9AEC9FD007D0064003021540C006C075
:201490000790F0F9E58124FBF8E0F6A3E008F6E58124FBF8E626FA08E633FFEA2418F582A8
:2014B000EF3469F583E58124FDF8E493F6A3E49308F6D007D006300517EB30E024E5812472
:2014D000FDF890F0F9740126F0E40836A3F08011E58124FDF890F0F9740126F0E40836A375
:2014F000F0A88118EE56FBEF0856FC4B601F90F0F7E0FBA3E0FCEB2431FBEC34F1FC8B8233
:201510008C83E0FAED42028B828C83EAF0EDC313FD700E90F0F7E02401F0A3E03400F07DDD
:201530008090F0FBE02401F0A3E03400F002146AE58124FCF581D000D001D002D003D0046E
:20155000D005D006D00722AE82AF837409C0E0E4C0E0C0E090FADB12499A15811581158118
:201570008E038F047D0090FADBEBF0ECA3F0EDA3F08E828F83124A5C780F7428F2E408F2AE
:201590007815E2F58208E2F583C007C0061211AEE582D006D007600122C2048E828F831204
:2015B0004A5CAE82AF8378B5EEF2EF08F290000B1263E1E5828583F02423FEE435F0FF7808
:2015D00013E2FC08E2FDEE2CFEEF3DFF780DEEF2EF08F27813E2F58208E2F5831211869013
:2015F000F0E9E0FEA3E05306078EF005F07E80E4FF3392D28008A2D2EF13FFEE13FED5F095
:20161000F590FAE1E0FFBF040122124396501F90F0F7E0FDA3E0FFED2431FDEF34F1FF8D86
:20163000828F83E0FCEE42048D828F83ECF0EEC313FE70CD90F0F7E02401F0A3E03400F0E7
:041650007E8080BD5B
:206858000070071008500D9016601CA026A03010316037603D7044904D204F60552057805B
:206878005F7066706D6073507880805085708C7093709A70A120A320A570AC80B470BB70F1
:20689800C2A0CCA0D670DD80E570EC70F370FA8002710971105115811D7124812C71338179
:2068B8003B7142814A7151715891617168A172A17CA186A1908198519D81A551AA81B2A12D
:2068D800BC21BE71C571CC71D371DA71E181E971F071F741FB51007207420B9214721B7286
:2068F80022722972306236623C724362499252A25C8264A26E8276627C127D6283A28D72C8
:206918000000000000000000000000000000D87F0078000000000000007880009804E00517
:20693800801E9864E005801E80648004183808640842FCFF8841F040083810442044C044C4
:2069580000397002880C881088207040E0001001083A08468845C84C38381800680080011D
:206978000078E00718180C300420024002400240024004200C301818E00700100018000F5A
:206998000072000F001800104000400040004000F807400040004000400019001E00800080
:2069B800800080008000800080001800180002000C003000C0000003000C00300040C00FC3
:2069D80030300840084008403030C00F082008200820F87F080008000800186028404840C9
:2069F80088400843083C0840084208420842F03DC0004003400440184020F87F40004000DF
:206A1800087C084408441042E041E00F10320844084408441042E00100401840E04000438C
:206A3800004C00500060F038084508420842084590456038001E082188408840884030218F
:206A5800C01F1806180619061E06C000C0002001200110021002080420012001200120014A
:206A7800200120012001200108041002100220012001C000C00000700040D840004100423D
:206A980000640038C00F30181820C84728486850D851E03F2000200008007000C001400EAD
:206AB8004018400C4003C00030000800F81F08110811081108118812700CC003300C100837
:206AD80008100810081008100818F81F08100810081008101008E007F81F881088108810C9
:206AF800881088100810F81F801080108010801080100010C003300C100808100810881060
:206B18008810F818F81F80008000800080008000F81F081008100810F81F08100810081060
:206B38000800081008100810F01FF81F0001800140022004200810100800F81F0800080068
:206B58000800080008000800F81F001C8007E00060008003001CF81FF81F000800068001A7
:206B780060001000F81FE007100808100810081008101008E007F81F8010801080108010C1
:206B98000011000EE00710080810081008100C101208E207F81F80108010C0102011100E02
:206BB8000800180E0812081108118810901070180010001000100010F81F001000100010FC
:206BD8000010E01F18000800080008001000E01F0010000C8003600018001800E00000033D
:206BF800000C00100018C0073800F0000007800370003800C00700180810100820044002B3
:206C18008001800140022004100808100010000800060001F800000100020004000800108E
:206C380018102810481088100811081208140818FE7F024002400240024000400030000C7C
:206C58000003C00030000C0002000240024002400240FE7F2000C0000007001C0070000E15
:206C7800C001200004000400040004000400040004000400040004000080004030004804B7
:206C9800880488049004F8030800F87F10020804080408041006E001E0011002080408047E
:206CB800080408040804E00118020804080408041002F87FE001900288048804880488044D
:206CD800880300040004F83F00240044004400440044E00119020904090409041202FC0764
:206CF800F87F00010002000400040004F803000400040064F8670100010401040164FE675B
:206D1800F87F8000C0002001200210020804004000400040F87FF807000200040004F80308
:206D3800000200040004F803F80700030002000400040004F803E001100208040804080414
:206D58001002E001FF0710020804080408041006E001E00118020804080408041002FF07BE
:206D7800F8070001000200040004000718038804880448044804300400040004F01F0804C8
:206D9800080408040804F0070800080008001000F807000480036000180008003000C000A2
:206DB800000300040006E001180070008003800170001800E0010006080410022001C000D3
:206DD800C00020011002080401040103C10062001C0018006000800000030004080418042D
:206DF800280448048804080508060804800080007C3F024002400240FE7F0240024002408C
:206E18007C3F80008000C000000100010001800080004000400040008001F801080308048B
:206E3800080808040803F80164617461547970652030782578206E6F7420737570706F723F
:056E58007465640A00EE
:20165400E58620E0FB225390FD00225380FB0022E58620E0FB004390020022E58620E0FB39
:2016740000438004002290F0FF7401F090F100E4F090F101F090F102F090F103F090F10456
:2016940004F090F105F090F107E4F090F106F090F10A7428F0E4A3F090F10CF090F10874F1
:2016B40028F0740AA3F090F997E4F090F998F022AD82AE8312674FFCBC011C7BFF7CF08B58
:2016D400828C83740EC0E0C005C006124A321581158115810217C0227480C0E0E4C0E074E1
:2016F400A2C0E074FDC0E090C000E4F5F01207BAE58124FCF581740EC0E07414C0E074FEDF
:20171400C0E090F0FF124A3215811581158190FDA2E0FCA3E0FDA3E0FEA3E0FFBCA513BD87
:201734005A10BEBA0DBFAB0A90FDA6E0FFBF0102803590FDA2E0FCA3E0FDA3E0FEA3E0FF1B
:2017540090FDA6E0FB7A00C004C005C006C007C003C002745DC0E0746EC0E0125E5CE5812D
:2017740024F8F58102167A90FDA7E090F997F090FDA8E090F998F0748BC0E0746EC0E012B4
:201794005E5C1581158112191290FDA2E4F004C0E0E4C0E074A2C0E074FDC0E090C000E4EC
:2017B400F5F01208F5E58124FCF581227480C0E0E4C0E074A2C0E074FDC0E090C000E4F5FB
:2017D400F01207BAE58124FCF58190FDA2E0FCA3E0FDA3E0FEA3E0FFBCA53EBD5A3BBEBA3F
:2017F40038BFAB3578C574FFF274F008F2E408F278C8740EF2E408F290FE1475F000126510
:20181400D0E5828583F045F0700F90FDA7E0FF90F997E0FEEFB506012290FE21E0FF90F1E4
:201834000CE0FEEFB50602803EEE603BBE6400502390FE21E0FF7D00C007C005749DC0E0DA
:20185400746EC0E0125E5CE58124FCF58190F10CE4F08013BEC800400890F9987402F08061
:201874000690F9987401F07480C0E0E4C0E0C0E090FDA212499A158115811581740EC0E008
:2018940074FFC0E074F0C0E090FE14124A3215811581158190FDA274A5F0F4A3F074BAA39B
:2018B400F0C4A3F090FDA67401F090F997E090FDA7F090F998E090FDA8F07401C0E0E4C032
:2018D400E090C000E4F5F0120A05158115817480C0E0E4C0E074A2C0E074FDC0E090C0007F
:2018F400E4F5F01208F5E58124FCF58174B6C0E0746EC0E0125E5C1581158102191290F10E
:2019140003E0FF7E00C007C00674C7C0E0746EC0E0125E5CE58124FCF58190F10CE0FF7EB7
:2019340000C007C00674E0C0E0746EC0E0125E5CE58124FCF58190F108E0FEA3E0FFC00619
:20195400C00774F3C0E0746EC0E0125E5CE58124FCF58190F100E0FF7E00C007C006740775
:20197400C0E0746FC0E0125E5CE58124FCF58190F997E0FF7E00C007C006741CC0E0746F4B
:0C199400C0E0125E5CE58124FCF58122BD
:206E5D004C6F616465642064656661756C74732073657474696E6773566572203078257831
:206E7D00204D61676963203078256C780A004C6F616465642073657474696E67733A0A00FB
:206E9D0049676E6F7265642066697865644368616E6E656C2025640A0053617665642073EB
:206EBD00657474696E67733A0A0020205363616E2041667465722054696D656F7574202550
:206EDD00640A00202066697865644368616E6E656C2025640A0020206261744C6F77566FFD
:206EFD006C746167652025640A002020656E61626C6546617374426F6F742025640A002019
:0D6F1D00204C6173742063682025640A0015
:2019A000E58620E0FB225390FD00225380FB0022E58620E0FB004390020022E58620E0FBEA
:2019C00000438004002275F10175805875FDDD75F33875904075FE6E75F4E875A00175FF7A
:2019E00001227401C0E0E4C0E0900000E4F5F0120A05158115817417C0E0E4C0E0742AC078
:201A0000E0746FC0E090F1311249F8E58124FCF5817417C0E0E4C0E07431C0E074F1C0E069
:201A2000900000E4F5F01208F5E58124FCF5812275E40075FC0075F70075FE02758F81757B
:181A4000F62F75FD8175FE2F53807E5390D075F30075F40075F5002273
:176F2A005612098501084A4D000000002303280904EC0212045A0AF7
:027FFE00306FE2
:201A5800E58620E0FB225390FD00225380FB0022E58620E0FB004390020022E58620E0FB31
:201A7800004380040022AE82AF837D00BD08005017ED75F002A4240DF58274F135F0F583B8
:201A9800EEF0EFA3F00D80E422E582FF30E025125A6DC007124DCBD2AF1219C612475A129F
:201AB8005271D00775820A1252B090F997E0FEF5821251FCEF30E209124787200B03020869
:201AD800E622E58230E206300B030208DA22AF82AE83ADF0FC90F12DEFF0EEA3F0EDA3F09A
:201AF800ECA3F090F12DE0FCA3E0FDA3E0FEA3E0FFC004C005C006C0077441C0E0746FC034
:201B1800E0125E5CE58124FAF581300B16758204C007C006C005C004121ADAD004D005D026
:201B380006D007C007C006C005C00412610BD004D005D006D007121A308C828D838EF0EFDF
:201B5800124E53758201021AA1E582FF601090F122E0FFBFFF00500690F122EF04F090F192
:201B780022E0FFBF18005007900E10E4F5F022BF24005007901C20E4F5F02290518075F0CE
:201B980001E42290F11EE078B5F2E408F29002301263E178A2740EF2E408F212620AAE8278
:201BB800AF8374282EFEE43FFF90F11DE054077D0025E0FCED33FDEC240DF582ED34F1F5E2
:201BD80083EEF0EFA3F090F11DE02401F0227E007F007D00BD0800501DED75F002A4240D80
:201BF800F58274F135F0F583E0FBA3E0FCEB2EFEEC3FFF0D80DEEFC423CEC423541F6ECE14
:201C1800541FCE6ECEFF90F10AE0FCA3E0FDC3EE9CEF9D50058C828D83228E828F83229007
:201C3800FAF2E0FF3395E0FEC007C0067456C0E0746FC0E0125E5CE58124FCF58190F0FD5C
:201C5800E0FF7E0090F0FEE0FD3395E0FCC007C006C005C0047461C0E0746FC0E0125E5C36
:201C7800E58124FAF5812275820E1250A01250CC75820F1250A090FAF0E0FEA3E0FF742382
:201C9800C0E08E828F83124CA815817404C0E01247F1AC82AD83158190F129ECF0EDA3F072
:201CB800C20990F108E0FEA3E0FFC3EC9EED9F5004D209803A90F125E0FCA3E0FD4C6013D5
:201CD800C3EC9EED9F500C90F129ECF0EDA3F0D209801C90F127E0FCA3E0FD4C6011C3ECCA
:201CF8009EED9F500A90F129ECF0EDA3F0D20990F127E0C0E0A3E0C0E090F125E0C0E0A353
:201D1800E0C0E090F129E0C0E0A3E0C0E090F123E0C0E0A3E0C0E07472C0E0746FC0E0127C
:091D38005E5CE58124F6F58122D0
:206F4100536C656570696E6720666F7220256C64206D730A0054656D7020256420430A00C7
:206F6100525353492025642C204C51492025640A00426174745620426F6F742025642C20B7
:1A6F81006E6F772025642C2054782025642C207570646174652025640A00B6
:0500DC00781774FFF22B
:201D4100E58620E0FB225390FD00225380FB0022E58620E0FB004390020022E58620E0FB45
:201D6100004380040022121DBDE582600790F9AAE0F58222121D87E582600790F9AEE0F583
:201D810082227582002290F999E05407FFBF012890F99AE003035403FFBF031C90F99AE001
:201DA10023235403FFBF031090F999E023235401FFBF0104758201227582002290F999E01F
:201DC1005407FFBF012390F99AE003035403FFBF021790F99AE023235403FFBF030B90F999
:201DE10099E020E6047582012275820022AFF0AE83E58290FAAEF0EEA3F0EFA3F090FAAE92
:201E0100E0FDA3E0FEA3E0FF90FAACE0FBA3E0FC79007A00C3E99BEA9C5052E94A6016E95D
:201E2100540F6002800F749BC0E0746FC0E0125E5C15811581C003C004E92DF8EA3EFB8FDC
:201E41000488828B838CF012674FF87C00C000C004749DC0E0746FC0E0125E5CE58124FCA3
:201E6100F58109B900010AD004D00380A7749BC0E0746FC0E0125E5C1581158122AFF0AEB7
:201E810083E5827819F2EE08F2EF08F2781CE4F27B017818C3E2F5F0EB95F050227819E2AE
:201EA100FA08E2FC08E2FFEB2AFAE43CFC8A828C838FF012674FFA781CE22AF20B80D37869
:201EC10019E2FD08E2FE08E2FF8D828E838FF012674FFD781CE2B50503D38001C3E433F57E
:201EE1008222AFF0AE83E582781EF2EE08F2EF08F27821E4F27B01781DC3E2F5F0EB95F033
:201F01005022781EE2FA08E2FC08E2FFEB2AFAE43CFC8A828C838FF012674FFA7821E22AE1
:201F2100F20B80D3781EE2FD08E2FE08E2FF8D828E838FF07821E20263C6E5812404F581C1
:201F4100AF82C217C00712549AD0078F821251FCC00712554FD21712549AD0077E01EE249A
:201F6100FC500302206590FA197414F0C007C006123A7290FA2B74EDF090FA19125396D0B0
:201F810006D007124D83AA82AB83ACF0FD90FAB174A62AF0740E3BA3F0E43CA3F0E43DA358
:201FA100F0C006124D83AA82AB83ACF0FD90FAB1E58124FCF8E0F6A3E008F6A3E008F6A361
:201FC100E008F6E58124FCF8C3EA96EB0896EC0896ED0896D0064003022061C007C0061288
:201FE10054ACAD82D006D007C374818DF063F08095F050AD90F9AFE0FDB507A5C007C00677
:20200100121D67AD82D006D007BDEE95C007C006121D87E582D006D00760867408C0E07440
:20202100A6C0E074F9C0E090F984124A3215811581158190F99CE0FCA3E0FD90F98CECF07D
:20204100EDA3F08F047D00C004C00574A3C0E0746FC0E0125E5CE58124FCF5818F828020B3
:202061000E021F5F8F057E00C005C00674ADC0E0746FC0E0125E5CE58124FCF58175820031
:20208100E58124FCF5812290FA19742AF0123A7290FA2B74E5F090FA327480F090F121E012
:2020A10090FA33F090F0FEE090FA2EF090F0FDE090FA2DF090FAF2E090FA2FF090F129E0D9
:2020C100FEA3E0FF90FA30EEF0EFA3F090FA34E4F090677B93FE740193FF90FA35EEF0EF3D
:2020E100A3F090F997E090FA37F090F107E090FA38F0781D7415F290FA2C75F000121EE343
:2021010090FA19025396D21712549A121C7F121C377F007822E4F27822E2B40E00400302C3
:2021210021E5C007122088D007124D83AA82AB83ACF0FD74882AF52674133BF527E43CF537
:2021410028E43DF529C007124D83AC82AD83AEF0FFC3EC9526ED9527EE9528EF9529D00731
:2021610040030221D8C0071254ACAE82D007C374818EF063F08095F050CBC007121D67AE8C
:2021810082D007BEE6BF78187411F290F9AF75F000C007121E7EE582D00760A97408C0E006
:2021A10074A6C0E074F9C0E090F984124A3215811581158190F99C75F00012674FFDA312F6
:2021C100674FFE90F98CEDF0EEA3F090F11EEFF090F9AF75F000227822E22401F27822E28B
:2021E100FF02211890F11E740EF090000075F00022D21712549A7F007823E4F27823E2B472
:202201000E0040030222D990FA197414F090FA2B74E3F0C007123A7290FA19125396D0075E
:20222100124D83AA82AB83ACF0FD74882AF52A74133BF52BE43CF52CE43DF52DC007124DF7
:2022410083AC82AD83AEF0FFC3EC952AED952BEE952CEF952DD0075072C0071254ACAE82E2
:20226100D007C374818EF063F08095F050CEC007121D67AE82D007BEE6C278187411F29079
:20228100F9AF75F000C007121E7EE582D00760AC7408C0E074A6C0E074F9C0E090F984126F
:2022A1004A3215811581158190F99C75F00012674FFDA312674FFE90F98CEDF0EEA3F09024
:2022C100F11EEFF090F9AF75F000227823E22401F27823E2FF0221FD90F11E740EF090007F
:2022E1000075F00022AFF0AE83E5827824F2EE08F2EF08F27824E22402FA08E23400FB0801
:20230100E2FC8A828B838CF012674FF52E852E2F75300090FA9AE0F531AE317F00E52FC377
:202321009EFEE5309FFF78B5EEF2EF08F2900063C004C003C0021263E1AE82AF83D002D0C1
:2023410003D0048E2F8F3090FAB5E52FF0E530A3F07824E22401FD08E23400FE08E2FF8D0C
:20236100828E838FF012674FFD90F95DE0FFEDB50702800122E52E24D5500122C3E52E9588
:20238100315001227463252FFEE43530FFC374239E74089F5001227824E2FD08E2FE08E254
:2023A100FF78187466F28D828E838FF0C004C003C002121E7EE582D002D003D004700302D6
:2023C100245A7824E22403FD08E23400FE08E28D2F8E3090FAB5E0FEA3E0FFEE2431FEEF8D
:2023E10034F1FF8E828F837463C0E0E4C0E0C02FC0301249F8E58124FCF5818A828B838CC7
:20240100F012674FFA7F0078CA7408F2E408F28A828F83C007C00212668AAD82AE83D00221
:20242100D007ED245FFDEE34F9FE5302078AF005F07401800225E0D5F0FBF4FA8D828E83A9
:20244100E052028D828E83EAF074BAC0E0746FC0E0125E5C158115812274BCC0E0746FC06F
:20246100E0125E5C1581158122AF82AE83ADF0FC7827EFF2EE08F2ED08F2EC08F290FA9A0D
:20248100E0FB7A0090F95DE0FF7E00C003C002C007C00674CDC0E0746FC0E0125E5CE581FB
:2024A10024FAF581D21712549A124D8385823285833385F034F535782779B7E22414F30891
:2024C100E2340009F308E2340009F308E2340009F3900019E4F5F0126401AA82AB83AEF0D4
:2024E100FFEA2532F532EB3533F533EE3534F534EF3535F535124D83AA82AB83AEF0FFC35A
:20250100EA9532EB9533EE9534EF9535503C1254ACAF82C374818FF063F08095F050D61250
:202521001D67AF82BFE8CE90F9AF75F0001222E67F00EF245FFDE434F9FE8D828E83E0704C
:20254100060FBF060040EBBF06AB749BC0E0746FC0E0125E5C15811581C21712549A0255AB
:202561004F90F9B0E4F0A3F090F9AF75F00022742AC0E0E4C0E0C0E090FA1912499A15811C
:202581001581158190FA19742AF090F97EE0600890FA2F74E4F0800690FA2F74E7F0740887
:2025A100C0E0748EC0E074F9C0E090FA27124A321581158115817408C0E07484C0E074F9A9
:2025C100C0E090FA1F124A3215811581158190FA1AE054F84401F090FA1AE054C74440F049
:2025E10090FA1BE0440C54CF44C0F090F996E0FF04F090FA1CEFF090F98CE0FEA3E0FF9072
:20260100FA1DEEF0EFA3F07D307EFA8D828E837411C0E07454C0E074F9C0E0124A3215813F
:20262100158115817D307EFA7F00781D7411F28D828E838FF0121EE390FA19025396E58117
:202641002404F581D21712549A12554F7F00BF1E004003022722C007122570D007124D832B
:20266100AB82AC83ADF0FE90FAB774642BF0749F3CA3F0740B3DA3F0E43EA3F0C00712541B
:20268100ACAE82D007C374818EF063F08095F05051C007121D67AE82D007BEE8028028BEE5
:2026A100E9028005BEEC33802978187403F290F9AF75F000C007121E7EE582D007602390C7
:2026C100F9AF75F0008063122562AC82AD83AEF0805890000075F000805090000075F000E2
:2026E1008048C007124D83C8E58124FCC8A68208A68308A6F008F690FAB7E0FAA3E0FDA31F
:20270100E0FEA3E0FFE58124FCF8C3E69A08E69D08E69E08E69FD007500302267D0F0226ED
:202721004F122562AD82AE83AFF0E58124FCF58122741BC0E0E4C0E0C0E090FA1912499AA8
:2027410015811581158190FA197419F090FA2F74EAF07408C0E0748EC0E074F9C0E090FA3A
:2027610027124A321581158115817408C0E07484C0E074F9C0E090FA1F124A3215811581BD
:20278100158190FA1AE054F84401F090FA1AE054C74440F090FA1BE0440C54CF44C0F0900E
:2027A100F98CE0FEA3E0FF90FA1DEEF0EFA3F090F996E0FF04F090FA1CEFF090FA190253BD
:2027C10096D21712549A7F00BF1000506CC007122732D007124D8385823A85833B85F03C4F
:2027E100F53D124D8385823685833785F038F539E536C3953AFAE537953BFCE538953CFDF3
:20280100E539953DFEC3EA94A6EC940EED9400EE94005022C0071254ACAE82D007C3748147
:202821008EF063F08095F050B9C007121D67AE82D007BEEBAD220F808F22AF8278B7EFF25B
:20284100E408F208F208F290700075F001E4126401AC82AD83AEF0FF74902DFD74013EFE0A
:20286100E43F8C828D838EF022AD82AE83AFF07C007B00BB0A0040030228F9C0048B82C0C4
:2028810007C006C005C00312283BA882A983AAF0FCD003D005D006D0077416C0E0E4C0E07E
:2028A1007431C0E074F1C0E0888289838AF0EC1207BAE58124FCF58174A2C0E074FCC0E0BC
:2028C10090F139124D0515811581920DD004300D218D008E018F027408C0E0C000C0019002
:2028E100F1311249C6158115811581920D50038C82220B8B040228747582FF22AF825307D5
:20290100F87E007D00BD0A004003022985C0068D82C007C00512283BAA82AB83ACF0FED06F
:2029210005D0077416C0E0E4C0E07431C0E074F1C0E08A828B838CF0EE1207BAE58124FCE5
:20294100F58174A2C0E074FCC0E090F139124D05158115819228D006302823C00690F14658
:20296100E0FC5304F87B008F027E00ECB50206EBB506028004D0068005D0068E82220D8DCF
:20298100060229067582FF2212283BAC82AD83AEF0FF7416C0E0E4C0E07431C0E074F1C05F
:2029A100E08C828D838EF0EF1207BAE58124FCF58190F146E0F58222AF828F060EEE24F5C1
:2029C10050027E00EEB507038E82228E82C007C00612283BAA82AB83ACF0FDD006D0077421
:2029E10016C0E0E4C0E07431C0E074F1C0E08A828B838CF0ED1207BAE58124FCF58174A2EA
:202A0100C0E074FCC0E090F139124D0515811581922850A890F146E0FD5305F87C00BD7864
:202A21009BBC00988E822212283BAC82AD83AEF0FF7417C0E0E4C0E08C828D838EF0EF12B8
:202A41000A0515811581227F00BF0A00500C8F82C007122A28D0070F80EF22AF828F057E7E
:202A610000C005C00674DCC0E0746FC0E0125E5CE58124FCF5818F8212283B020B76782CE2
:202A8100E4F208F208F208F27B00BB0A004003022B1E8B82C00312283B85823E85833F854D
:202AA100F040F541D0037416C0E0E4C0E07431C0E074F1C0E0853E82853F838540F0E5417D
:202AC1001207BAE58124FCF58174A2C0E074FCC0E090F139124D0515811581920E503AC02C
:202AE1000390F142E0FAA3E0FBA3E0FEA3E0FF782CC3E29A08E29B08E29E08E29FD0035018
:202B01001890F142782CE0F2A3E008F2A3E008F2A3E008F290F983EBF00B022A8B782CE2BD
:202B2100F58208E2F58308E2F5F008E222AF82AE83D20F90F95DE0FD7C007B007A008C4499
:202B4100EBC454F0C544C4C5446544C54454F0C5446544F545EDC4540F4544F544EDC454EE
:202B6100F0F543754200300C167836E542F2E54308F27401254408F2E4354508F2804978C9
:202B810017E2F582C007C00612283B85824685834785F048F549D006D00774162546F5464E
:202BA100E43547F547E43548F548E43549F5497836E5462542F2E547354308F2E5483544C4
:202BC10008F2E549354508F290FABE7405F090FA9AE4F090F97E04F07830EFF208EEF274CF
:202BE10006C0E0E4C0E0C0E090F95F12499A15811581158190FABEE0FB14F0EB7003022FB5
:202C010070100F03022CBF7830E2FA08E2FB8A828B8378A27463F2E408F212620AAA8290B6
:202C2100FABBEAF07830E2FB08E2FF8B828F8378C37463F2E408F2C00212654DE5828583A0
:202C4100F0D00245F0600690FABBEA04F090FABBE024EA500690FABB7415F090FA9AE0FBAD
:202C61007A0090FABBE0FFC3EA9F50528B067F0078CA7408F2E408F28E828F83C007C0067A
:202C8100C003C00212668AAC82AD83D002D003D006D007EC245FFCED34F9FD5306078EF09C
:202CA10005F07401800225E0D5F0FBFE8C828D83E0FF42068C828D83EEF00B0A80A41226B2
:202CC1003FAA82AB83AFF0EA4B7003F582220ABA00010B8A828B838FF012674FFEA312672F
:202CE1004FFF4E60428E048F05C3EC9423ED9400501A78B7EEF2EF08F2E408F208F29000BE
:202D010019E4F5F0126401124DE4801BEC24F6FCED34FFFD7F007E008C828D838FF0EE12C2
:202D21001AE6D21712549A900122E4F5F012246A783A7401F290FA9AE0FF7E0090FABBE0CE
:202D4100FDC3EE9D505E8F047D0078CA7408F2E408F28C828D83C007C006C005C00412662F
:202D61008AAA82AB83D004D005D006D007EA245FF582EB34F9F5835304078CF005F07C0158
:202D81007D008006EC2CFCED33FDD5F0F7E0FB7A005204EA5205EC4D6006783AE4F28004AB
:202DA1000F0E8098783AE27003022F3590FABBE078B5F2E408F29000631263E1AE82AF83A3
:202DC1007834EEF2EF08F290FABF7431F074F1A3F0E4A3F090FA9AE0704B90F131E0FCA340
:202DE100E0FD7830ECF208EDF290F133E0FCA3E0FD7832ECF208EDF290FABCE4F0A3F078E4
:202E010034E2FC08E2FDEC24FCFCED34FFFD7834ECF2ED08F290FABF74042431F0E434F113
:202E2100A3F0E4A3F07830E2FC08E2FD7834C3E2F5F0EC95F008E2F5F0ED95F0500A783030
:202E41007934E2F308E209F37830E2FC08E2FD7834D3E29CF4B3FCB308E29DF4FD7830EC3D
:202E6100F208EDF2758204121AA190FABFE0F546A3E0F547A3E0F548AA46AF477834E2C099
:202E8100E008E2C0E0C002C0077836E2F58208E2F58308E2F5F008E21208F5E58124FCF592
:202EA10081758204121ADA7834E2FA08E2FD7E007F007836E22AF208E23DF208E23EF2083C
:202EC100E23FF2AD46AE47AF487834E2F54608E2F547AA46AC47154674FFB546021547EA1C
:202EE1004C60368D828E838FF012674FFCA3AD82AE838C4275430090FABCE0FAA3E0FC8ADA
:202F01004A8C4BAB42AC43EB254AFBEC354BFC90FABCEBF0ECA3F080B990FABBE0FF90FA6F
:202F21009AE02FF07830E2FE08E2FF4E6006783AE4F2D20F90F97EE4F0783AE27003022B5A
:202F4100F57832E2FE08E2FF90FABCE0FCA3E0FDEEB50406EFB50502801174F6C0E0746F90
:202F6100C0E0125E5C1581158180047582012275820022AFF0AE83E58290FAC6F0EEA3F009
:202F8100EFA3F090FAC6E0FDA3E0FEA3E00DBD00010E8D828E837408C0E0746EC0E074F979
:202FA100C0E01249C61581158115819210501490F976E0FCA3E0FDA3E0FEA3E0FFEC4D4EA2
:202FC1004F707590F95DE4F090FAC6E0FDA3E0FEA3E0FF74012DFAE43EFBC002C00390F90B
:202FE100551248C815811581740D2DFAE43EFB8F048A828B838CF012674FFA90F95EF07432
:2030010011C0E0C005C00690F96D124A321581158115817408C0E0E4C0E090000075F00197
:20302100E4120A051581158190F976E0FEA3E0FF90FAC4EEF0EFA3F090F976E0FCA3E0FDF6
:20304100A3E0FEA3E0FFEC4D4E4F70030230CEC3E49C74109DE49EE49F500B90FAC2E4F03F
:203061007410A3F0800890FAC2ECF0EDA3F0D20C90FAC2E0FEA3E0FF8E828F83122B2EE50C
:2030810082604690F95DE0FF0F90F95DEFF090F976E0FCA3E0FDA3E0FEA3E0FF90FAC2E0E4
:2030A100FAA3E0FB8A008B01E4FAFBECC398FCED99FDEE9AFEEF9BFF90F976ECF0EDA3F078
:2030C100EEA3F0EFA3F00230397582002275820122AFF0AE83E58290FACBF0EEA3F0EFA3BF
:2030E100F090FACBE0FDA3E0FEA3E0FF74012DFAE43EFB8F048A828B837408C0E0746EC086
:20310100E074F9C0E01249C61581158115819211504090F97BE0FC740E2DFDE43EFE8D82F0
:203121008E838FF012674FFDECB5052690F976E0FCA3E0FDA3E0FEA3E0FFEC4D4E4F6012C7
:20314100740EC0E07470C0E0125E5C158115810232DC758204121AA190F983783BE0F290D7
:20316100FACBE0FCA3E0FDA3E0FE740E2CFAE43DFB8E078A828B838FF012674FFA54FC6048
:2031810031783BE2FB7F00C003C0077421C0E07470C0E0125E5CE58124FCF58190FAAC7439
:2031A10011F0E4A3F08C828D838EF0121DEE783BE4F290F983E02401F0FFBF0A00400590B6
:2031C100F983E4F090F983E0FF783BE2B50719758204121ADA7445C0E07470C0E0125E5C9F
:2031E10015811581758201228F8212283BAC82AD83AEF0FF7416C0E0E4C0E07431C0E074A0
:20320100F1C0E08C828D838EF0EF1207BAE58124FCF58174A2C0E074FCC0E090F139124DE3
:2032210005158115819211500890F146E054F8708190F983E0FF7817F28F8212283BAC825D
:20324100AD83AEF0FF7417C0E0E4C0E08C828D838EF0EF120A0515811581758204121ADA18
:203261007817E2FE7F00C006C007744FC0E07470C0E0125E5CE58124FCF58190F95DE4F069
:2032810090FACBE0FDA3E0FEA3E0FF74012DFAE43EFBC002C00390F9551248C8158115818E
:2032A100740D2DFAE43EFB8F048A828B838CF012674FFA90F95EF07411C0E0C005C0069046
:2032C100F96D124A3215811581158190F976E0FEA3E0FF90FAC9EEF0EFA3F090F976E0FC4A
:2032E100A3E0FDA3E0FEA3E0FFEC4D4E4F7003023373C3E49C74109DE49EE49F500B90FA0B
:20330100C2E4F07410A3F0800890FAC2ECF0EDA3F090FAC2E0FEA3E0FF8E828F83122B2E96
:20332100E582604A90F95DE0FF0F90F95DEFF090F976E0F54CA3E0F54DA3E0F54EA3E0F5BF
:203341004F90FAC2E0FAA3E0FBE4FEFFE54CC39AFAE54D9BFBE54E9EFEE54F9FFF90F976A8
:20336100EAF0EBA3F0EEA3F0EFA3F00232DC75820022758204121AA1746EC0E074F9C0E071
:2033810090F1311248C81581158190F1397421F07447A3F0744DA3F07447A3F090F97FE015
:2033A1002401F0A3E03400F0A3E03400F0A3E03400F090F97FE0FCA3E0FDA3E0FEA3E0FF9B
:2033C10090F142ECF0EDA3F0EEA3F0EFA3F090FAC9E0FEA3E0FF7D007C0090F13DEEF0EF93
:2033E100A3F0EDA3F0ECA3F090F97AE090F141F090F97BE090F146F07817E2F58212283BAD
:20340100AC82AD83AEF0FF7416C0E0E4C0E07431C0E074F1C0E08C828D838EF0EF1208F51E
:20342100E58124FCF581758204121ADA75820122AFF0AE83E58290FACFF0EEA3F0EFA3F0F1
:20344100C20C90FACFE0F553A3E0F554A3E0F555740D2553FAE43554FBAC558A828B838C81
:20346100F012674FFCBC02028024BC03030237B9BC10028019BC20028014BC2102800FBC7C
:20348100A8030236ACBCAF0302379902382F90FACFE0FFA3E0FEA3E0FD7550CE7551FA75F2
:2034A1005200740E2FF553E43EF5548D558553828554838555F012674FFB85508285518380
:2034C1008552F01263C690FACEE020E203023590758204C007C006C005121AA1D005D00620
:2034E100D00790FACEE0C423541FFB603CBB0F02806C8553828554838555F012674FF58254
:20350100C007C006C0051228FDAB82D005D006D007BBFF0280488B82C007C006C005122A53
:2035210028D005D006D007803574012FF553E43EF5548D558553828554838555F0C007C0EB
:2035410006C00512286AAB82D005D006D007BBFF02800B1227C2783C7401F20236A675821A
:2035610004C007C006C005121ADAD005D006D0078F828E838DF01230D2E582600B1227C2EC
:20358100783C7401F20236A6783CE4F20236A674012FF553E43EF5548D558553508554513E
:2035A1008555528550828551837408C0E07465C0E074F9C0E01249C6158115811581921205
:2035C100500B1227C2783C7401F20236A6758204C007C006C005121AA18553828554838546
:2035E10055F012286AAC82758204C004121ADAD004D005D006D007BCFF028051C007C0067D
:20360100C005C0041227C2D004D005D006D0078F538E548D55AA53AB547411C0E0C002C086
:203621000390F96D124A3215811581158190F976E4F0A3F0A3F0A3F090FCA1ECF090FACE53
:20364100E05403782BF28C82122A5C803D745DC0E07470C0E0125E5C158115818F828E832B
:203661008DF01230D2E582601B1227C27817E2FB90FCA1F090FACEE05403782BF28B82120F
:203681002A5C8006783CE4F2801B90F96EE0FAA3E0FBC002C00390F9651248C815811581E8
:2036A100783C7401F2783CE2F5822290F976E0FAA3E0FBA3E0FEA3E0FFEA4B4E4F702F7480
:2036C100012553FDE43554FEAF558D828E837408C0E0746EC0E074F9C0E01249C61581156D
:2036E100811581921250071227C27582012290F95DE4F090FACFE0F550A3E0F551A3E0F529
:203701005274012550FAE43551FBC002C00390F9551248C815811581740D2550FDE43551FF
:20372100FEAF528D828E838FF012674F90F95EF0AD50AE517411C0E0C005C00690F96D1297
:203741004A3215811581158174092550FDE43551FEAF528D828E838FF012674FFDA3126752
:203761004FFE8D828E83122B2EE582602790F976E4F0A3F0A3F0A3F0758204121AA190F1AD
:203781003575F0001216C4758204121ADA1227C275820122758200221227C2740E2553FD81
:2037A100E43554FEAF558D828E838FF012674FF58212053375820122758204121AA18553B7
:2037C100828554838555F0122F74E582605C1227C2758204121AA112384A300C12123E462D
:2037E10090001975F001E412079A125A2C80567465C0E07470C0E0125E5C158115817582C8
:2038010004121ADA90FA997401F090F12174E0F0123EBF7408C0E0E4C0E0C0E090F96512E0
:20382100499A158115811581801B758200227F00C004C0077482C0E07470C0E0125E5CE559
:203841008124FCF581758200227841E4F208F208F208F2C20C7419C0E0E4C0E074A2C0E085
:2038610074FDC0E090000075F001E41207BAE58124FCF581783D7419F2E408F20408F2E499
:2038810008F290677D93FD740193FE7402937406C0E0C005C00690FDAB1249C615811581F0
:2038A10015819213500790F0CF7405F02290677DE493FD740193FE7402937409C0E0C005C2
:2038C100C00690FDAB1249C61581158115819213500790F0CF7402F02290FDAAE0FFBF015D
:2038E10002800790F0CF7401F02290FDA8E0FEA3E0FFC3E49E74809F500790F0CF7403F0EE
:203901002290FDA8E0FEA3E0FF4E70030239BE90FDA8E0FEA3E0FFC374239E74089F500439
:203921007E237F08C006C0077431C0E074F1C0E0783DE2F58208E2F58308E2F5F008E2124C
:2039410007BAE58124FCF58190FAD27431F074F1A3F0E4A3F090FAD5EEF0EFA3F07841E2EF
:20396100F58208E2F58308E2F5F008E2C007C006123A977841C0E0E582F2E58308F2E5F05B
:2039810008F2D0E008F2D006D0078E028F037C007D00783DE22AF208E23BF208E23CF208D0
:2039A100E23DF290FDA8E0FCA3E0FDECC39EFEED9FFF90FDA8EEF0EFA3F002390290FDA28D
:2039C100E0FCA3E0FDA3E0FEA3E0FF7841E2B5041108E2B5050C08E2B5060708E2B507021E
:2039E100800790F0CF7404F02290FDA6E0FEA3E0FF90F0CDEEF0EFA3F0C006C00774A2C0C3
:203A0100E07470C0E0125E5CE58124FCF581D20C22122A7FAC82AD83AEF0FF90F97FECF0DF
:203A2100EDA3F0EEA3F0EFA3F0227408C0E0748EC0E074F9C0E090FAA4124A32158115812D
:203A4100158190FA9BE054F84421F090FA9CE054F344C8F090FA9E7437F07413A3F090FA79
:203A6100A074FFF0A3F090FAA27437F07413A3F0227411C0E0749BC0E074FAC0E090FA1A26
:203A8100124A3215811581158190F996E0FF04F090FA1CEFF022AC82AD83AEF0FF7845EC98
:203AA100F4F2EDF408F2EEF408F2EFF408F290FAD2E0F55AA3E0F55BA3E0F55C90FAD5E01A
:203AC100F556A3E0F557855658855759155674FFB556021557E55845597003023B95855A0D
:203AE10082855B83855CF012674FFEA385825A85835B8E047D007E007B007845E26CF208D5
:203B0100E26DF208E26EF208E26BF2784DE4F208F2784DC3E2940808E26480948050A778E6
:203B210045E25401FA08E25400FB08E25400FC08E25400FE7849C3E49AF2E49B08F2E49C72
:203B410008F2E49E08F27848E2C313F56018E213F55F18E213F55E18E213F55D7849E2540A
:203B610020FC08E25483FD08E254B8FE08E254EDFA7845EC655DF2ED655E08F2EE655F0890
:203B8100F2EA656008F2784DE22401F208E23400F2023B127845E2F4FB08E2F4FC08E2F426
:0B3BA100FD08E2F48B828C838DF02283
:206F9B000A002530327820004150206F6E2025640A004E6F204150206F6E2025640A002E20
:206FBB0000636865636B435243206661696C65640A00524551202564207061727420256440
:206FDB000044726177696E6720696D61676520696E20736C6F742025640A00626C6B20665C
:206FFB0061696C65642076616C69646174696F6E210A0072657374617274696E6720696DC8
:20701B006720646C0A004368616E67696E67207374617274696E67536C6F742066726F6DD3
:20703B0020256420746F20300A004E6F20736C6F74730A006E657720646C20746F2025642D
:20705B000A00646C20696D670A004F544120696D6167652076616C69646174696F6E2066FC
:20707B0061696C65640A00646174615479706520307825782069676E6F7265640A0043688E
:20709B00726F6D613734004F54412076616C6964617465642C207570646174696E672074CD
:0F70BB006F2076657273696F6E202530780A003A
:057FA800FF21474D47D9
:203BAC00E58620E0FB225390FD00225380FB0022E58620E0FB004390020022E58620E0FBBC
:203BCC0000438004002290F0EF74B8F0E4A3F030050990F0EF74B0F0E4A3F02290F997E094
:203BEC00704690F105E06040C20490F0D77468F07402A3F090F0D97406F0E4A3F090769C2F
:203C0C0075F080120FB0D20490F0D77470F07402A3F090F0D9740DF0E4A3F09076BE75F06E
:203C2C0080120FB0D2038002C20330092890F104E06022C20490F0D77468F07402A3F09041
:203C4C00F0D97470F07401A3F09076C875F080120FB0D20222C2022212426712428374E06D
:203C6C00C0E07476C0E012456E1581158174E3C0E07476C0E012456E1581158190F0EDE05E
:203C8C00FEA3E0FF90FAD7EEF0EFA3F07401C0E07477C0E012456E15811581740FC0E074AF
:203CAC0077C0E012456E158115817427C0E07477C0E012456E158115817441C0E07477C039
:203CCC00E012456E158115817458C0E07477C0E012456E1581158190FAD7E0FEA3E0FF90CE
:203CEC00F0EDEEF0EFA3F0123D4974E0C0E07476C0E012456E1581158190FAD7E0FEA3E0B2
:203D0C00FF90F0EFE0FCA3E0FD7813EEF2EF08F27815ECF2ED08F290FC74021557758205BD
:203D2C00124244E582600122746DC0E07477C0E0125E5C15811581903C64020E707474C099
:203D4C00E074FCC0E0E4C0E07479C0E07477C0E012456EE58124FBF5812290677BE493C040
:203D6C00E0740193C0E07485C0E07477C0E012456EE58124FCF5812212426712428374940E
:203D8C00C0E07477C0E012456E15811581123D6690F123E0C0E0A3E0C0E074A9C0E0747757
:203DAC00C0E012456EE58124FCF58190FAF2E0FF3395E0FEC007C00674B7C0E07477C0E0B2
:203DCC0012456EE58124FCF581123D4974E0C0E07476C0E012456E1581158190F0D5E0FEDC
:203DEC00A3E0FF90F0EFE0FCA3E0FD7813EEF2EF08F27815ECF2ED08F290FC7402155775E1
:203E0C008201124244E582600122121C7F903D84020E70124267124283D205123BD290F00B
:203E2C00CDE0C0E0A3E0C0E074CAC0E07477C0E012456EE58124FCF58122903E1F020E704D
:203E4C00124267124283D20574E0C0E07477C0E012456E15811581D20490F0CFE0FFBF02B8
:203E6C00028018BF04028023BF053074F1C0E07477C0E012456E15811581227400C0E07415
:203E8C0078C0E012456E15811581227411C0E07478C0E012456E15811581227E00C007C022
:203EAC0006741CC0E07478C0E012456EE58124FCF58122903E4C020E7012426712428374B1
:203ECC002BC0E07478C0E012456E158115817447C0E07478C0E012456E1581158190F0EF47
:203EEC00E0FEA3E0FF90F0D9EEF0EFA3F090F98AE0FF7E0090F98BE0FD7C00C007C006C073
:203F0C0005C0047460C0E07478C0E012456EE58124FAF58190F988E0FF7E0090F989E0FDB0
:203F2C007C00C007C006C005C0047472C0E07478C0E012456EE58124FAF58190F986E0FF24
:203F4C007E0090F987E0FD7C00C007C006C005C0047472C0E07478C0E012456EE58124FAFD
:203F6C00F58190F984E0FF7E0090F985E0FD7C00C007C006C005C0047472C0E07478C0E0C6
:203F8C0012456EE58124FAF58190F0EDE0FEA3E0FF8E02EFFB3395E0FCFD7480C39AF50C1C
:203FAC0074029BF50DE49CF50EE49DF50F9073F0E493FDE4FC3395E0FBFAE50CC39DFDE5C3
:203FCC000D9CFCE50E9BFBE50F9AFA78A47402F2E408F208F208F28D828C838BF0EAC0077F
:203FEC00C006126255AA82AB83D006D00790F0D7EA2EF0EB3FA3F090F0FDE0FF7E0090F0A9
:20400C00FEE0FD3395E0FC90F997E0FB7A00C007C006C005C004C003C002747BC0E074788A
:20402C00C0E012456EE58124F8F58190F127E0C0E0A3E0C0E090F125E0C0E0A3E0C0E090F3
:20404C00F129E0C0E0A3E0C0E07495C0E07478C0E012456EE58124F8F581123D6674E0C0DC
:20406C00E07476C0E012456E15811581123D4974C5C0E07478C0E012456E1581158190F06B
:20408C00EDE0FEA3E0FF90F0EFE0FCA3E0FD7813EEF2EF08F27815ECF2ED08F290FC741244
:2040AC0015579073F075F080020FB0758203124244E582600122121C7F903EC5020E7012A1
:2040CC00426712428374C7C0E07478C0E012456E1581158174DBC0E07478C0E012456E15A7
:2040EC0081158190F0EDE0FEA3E0FF90FAD7EEF0EFA3F090F0EFE0FCA3E0FD90F0D9ECF00F
:20410C00EDA3F08E02EFFB3395E0FCFD7448C39AFA74029BFBE49CFCE49DFD78A47402F25B
:20412C00E408F208F208F28A828B838CF0EDC007C006126255AA82AB83D006D007EA2EFEAB
:20414C00EB3FFF90F0D7EEF0EFA3F0EE5407601574075EFC7D00EEC39CFEEF9DFF90F0D736
:20416C00EEF0EFA3F09073F075F080120FB090F0D9E0FEA3E0FF74082EFEE43FFF90F0D94E
:20418C00EEF0EFA3F0D20490757A75F080120FB0023BE8758204124244E582600122904036
:2041AC00CB020E7012426712428390F0EFE0FEA3E0FF74102EFEE43FFF90F0EFEEF0EFA396
:2041CC00F07406C0E07479C0E012456E1581158112435C023BE8758205124244E582600119
:2041EC00229041B0020E70124267124283D2057418C0E07479C0E012456E15811581742CDD
:20420C00C0E07479C0E012456E1581158190F0D77428F07401A3F090F0EFE0FEA3E0FF902A
:20422C00F0D9EEF0EFA3F0D20490757A75F080020FB09041F3020E70E582C40354F8F58219
:20424C001228FDAF82BFFF02800D782BE4F28F82122A5C7582012275820022C206C204C2F8
:20426C000590F0EDE4F0A3F090F0D5F0A3F090F0EFF0A3F0C20822D20490F0D9E4F0A3F00D
:20428C0090726C93FFE4FE3395E0FDFC7480C39FFF74029EFEE49DFDE49CFC78A47402F2AA
:2042AC00E408F208F208F28F828E838DF0EC126255AC82AD8390F0D7ECF0EDA3F090726C4D
:2042CC0075F080120FB0C20490726DE493FF7E0090F0D9E0FCA3E0FDEF2CFFEE3DFE90F07B
:2042EC00D9EFF0EEA3F09070CA75F080120FB09070CBE493FF7E0090F0D9E0FCA3E0FDEF96
:20430C002CFFEE3DFE90F0D9EFF0EEA3F0D20490732E75F080120FB090F0D7E0FEA3E0FF10
:20432C0090F0EDEEF0EFA3F090732FE493FF7E0090F0D9E0FCA3E0FDEF2CFFEE3DFE7420F2
:20434C002FFFE43EFE90F0EFEFF0EEA3F0C2042290F127E0FEA3E0FF4E601190F125E0FC03
:20436C00A3E0FDC3EE9CEF9D5002800890F125E0FEA3E0FFC006C0077446C0E07479C0E084
:0A438C0012456EE58124FCF5812244
:2070CA00801AFFFFFFFFFFFFFFFFFFFFFFFFFFFFFFFF00000000000000000000000000001C
:2070EA00000000000000000000000000000000000000000000000000000000000000000086
:20710A000000000000000000000000000000000000001C000000001F9F8000000000387063
:20712A0001C07F000000001F9FC000000000387001C07F000000001F9FE000000000387059
:20714A0001C0F7800000001C1CE000000000380001C0E3800000001C1CE000000000380029
:20716A0001C0E39DC1C7701F9CE773B871D03873B9C7E39FE3E7F81F9FEFF3FCF9F038731F
:20718A00FDCEE39FE777F81F9FCFF3FDDDF03873FDDCE39CE7F7381C1F8E739DFDC038739E
:2071AA009DF8E39CE7F7381C1C0E739DFDC038739DF8F79CE707381C1C0E739DC1C038730D
:2071CA009DDC7F1FE7F7381F9C0FF3FDFDC03F739DDC7F1FE3E7381F9C0FF3FCF9C03F7312
:2071EA009DCE1E1DC1C7381F9C0773B871C03F739DC7001C0000000000000380000000004C
:20720A000000001C0000000000000380000000000000001C00000000000003800000000026
:20722A000000001C00000000000003800000000000000000000000000000000000000000A5
:20724A00000000000000000000000000000000000000FFFFFFFFFFFFFFFFFFFFFFFFFFFF32
:20726A00FFFF800C000882A2AB55BFFFFFFF7DB4622800000010101176FF7BFFFF7FB7A9D9
:20728A0055505100002922966FF7BFFFFFFFEAE622AA08000002542ABF3F7FFFFFFFFD59F7
:2072AA00B4102000002423B5B5DFFFFFFFFFF6AE48551000008890546AEFFFFFFFFFFBF552
:2072CA00A382000000012DA3B3FFFFFFFFFFF6BE4E5209000490020D55DFFFFFFFFFFDDDF6
:2072EA0068A9001000490CFBAB6FFFFFFFFFFEEB955A002000129122BFDFFFFFFFFFFFF5B2
:20730A00658140400028127DEFFFFFFFFFFFFFEFAB28000000420A9775FFFFFFFFFFFFF752
:20732A004AC20400800C0008029CDFFFFFFFFFFFFF6A6A8D002000044D72AAFFFFFFFFFF3F
:20734A00FFD5D57480000240128EDFFDFFFFFFFFFFAEAA0A11200020525FF57FFFFFFFFFF9
:20736A00FF7294AA240000010AAB6F77FFFFFFFFFDAF545488000004804D95EBFFFFFFFF6F
:20738A005B58B5514000000808A6B3F77FFFFFFFFFAD4AA0100000029641DCAEFFFFFFFF09
:2073AA00FDBFEA4802000000093EAB75EFFFFFFFFFD4B121080000000AC35DFF7FFFFFFF2E
:2073CA00EFEF444A64800000A152A6EFEFFFFFFFD6CAF5101800000002154BD5DFFFFFF717
:2073EA00EBD4D88500003838000000000000000000000000000000000000000000000000F7
:20740A000000000000000000000000000000000007C00000000001FFF0000000000FFFF0AD
:20742A00000000007FFFF000000001FFFFF000000007FFFFC00000001FFF80000000007F03
:20744A00F80000000000FFE00000000001FF000000000007FE00000000000FF8000000003F
:20746A00001FE000000000003FC00003E000007F80007FF00000FE0003FFF00001FC000FB7
:20748A00FFF00001F8003FFFF00003F800FFFF800007F001FFE000000FE003FF0000000F7C
:2074AA00C00FF80000001F801FF00000001F803FC00000003F003F800000003F007F0000F3
:2074CA0000007E00FE0007E0007E01FC001FF000FC01F8007FF000FC03F001FFF000F80377
:2074EA00F003FFF001F807E007FF0001F807E00FF00001F00FC01FE00001F00FC03F80009D
:20750A0003F00F803F000003F01F807E000003E01F807E000003E01F00FC01E003E01F00AF
:20752A00FC07F803E01F00F80FFC03E03F00F80FFC03E03F01F81FFE03E03F01F81FFE03A9
:20754A00E03F01F81FFE03C03E01F01FFE01C01E00F00FFC00000000000FFC0000000000F8
:20756A0007F8000000000001E000000000000000303000001FF800000000FFFF00000003A9
:20758A00FFFFE000000FFFFFF000003FFFFFFC00007FF00FFE0000FF8001FF0001FE0000D3
:2075AA007F8003F800001FC007F000003FE00FE000007FF00FC00000FFF01F800001FFF81F
:2075CA001F000003FFF83F000007FEFC3E00000FFC7C7E00001FF87E7C00003FF03E7C000B
:2075EA00007FE03EFC0000FFC03FF80001FF801FF80003FF001FF80007FE001FF8000FFC1B
:20760A00001FF8001FF8001FF8003FF0001FF8007FE0001FF800FFC0001FFC01FF80003FC6
:20762A007C03FF00003E7C07FE00003E7E0FFC00007E3E1FF800007C3F3FF00000FC3F7FC5
:20764A00E00000FC1FFFC00001F80FFF800003F00FFF000007F007FE00000FE003FC0000F4
:20766A001FC001FE00007F8000FF8001FF00007FF00FFE00003FFFFFFC00000FFFFFF000F2
:20768A000003FFFFE0000000FFFF000000001FF800001010004002200120112011201220B3
:2076AA00284028002800440044004400440082008200FE0008080063773E1C3E7763100A80
:2076CA0000007FFC4004580658065806580640047FFC00000A000A0A000C0949276D206614
:2076EA006173742061736C656570202E202E202E205577550A0A00546F200977616B6520AB
:20770A006D653A0A002D2052656D6F766520616C6C206261747465726965730A002D2053A8
:20772A00686F7274206261747465727920636F6E74616374730A002D205265696E736572B9
:20774A0074206261747465726965730A0A000C6F70656E6570617065726C696E6B2E6465D4
:20776A000A0A004465657020736C6565700A00546167204D41433A202573004368726F6D32
:20778A006137342076253034580009080A5374617274696E67202E202E202E0A0A08000A25
:2077AA00564261743A202564206D560A0054656D70657261747572653A202564430A0A00BA
:2077CA000C466C617368696E67207625303478202E202E202E000C4F5441204641494C4575
:2077EA0044203A280A0A000C4E6F74204F544120696D616765000C57726F6E67204F544124
:20780A0020696D616765000C435243206572726F72000C4572726F7220436F6465202564B3
:20782A00000C090857616974696E6720666F722064617461202E202E202E0A08000A466F72
:20784A00756E642074686520666F6C6C6F77696E672041503A000A4150204D41433A20258F
:20786A0030325825303258002530325825303258000A43683A20256420525353493A20252F
:20788A0064204C51493A2025640A000A564261743A202564206D562C205478696E673A209A
:2078AA002564206D562C20446973706C6179696E673A202564206D560A0A000A000C084EAC
:2078CA006F20415020666F756E64203A280A080A000C5765276C6C207472792061676169AC
:2078EA006E20696E2061206C6974746C65207768696C65202E202E202E0A0A000C09087A1C
:20790A007A5A5A5A202E202E202E0A080A000C454550524F4D204641494C4544203A280AAA
:20792A000A000C536C656570696E6720666F7265766572202E202E202E0A0A00564261746C
:09794A003A202564206D560A0064
:20439600C007C006C005C004C00390FAE0E0600302448A90FAE1E0FF24FB5003024487EF39
:2043B6002F2F9043BC730243CB0243E902446A02448102448790FADE744BF0E4A3F090FAED
:2043D600E0740BF090FAE17401F090FAE27468F002448A90FADB124CB2E582FF6045EF240D
:2043F600E0FFBF600040027F1F90FAE3E0FE0E90FAE3EEF0C0078E821247DCAD82AE8315A4
:204416008190FAE2E0FC7B002DFDEB3EFE8D828E837467C0E0124CADAE82158190FAE2EE2B
:20443600F0800B90FAE17402F090FAE2E0FFEF75F002A42453F582747935F0F583E493FEE8
:20445600A3E493FF90FADEEEF0EFA3F090FAE0740BF0802090FAE17403F090FADE74E3F06B
:20447600741AA3F090FAE003F0800990FAE17404F0C3802D90FADEE0FEA3E0FFEE540124AD
:20449600FFE433FDEFC313CE13CEFF90FADEEEF0EFA3F090FAE0E0FF1F90FAE0EFF0ED24F6
:0C44B600FFD003D004D005D006D00722B0
:207953009B01B3013303C90089019101990019013101930013012301CD01D90199039D0117
:20797300B90139037302D30193033B017301B7039701A7012703370167016702DB001B0349
:207993006303C500D10011038D00B10031028B00A3002302ED008D03B103DD001D0371035E
:2079B30077038B03A303BB003B02BB03D70017034703B7003702C702F70213028F02650058
:2079D300850169000903A10121034D000D01590019026101610243025300EF024301F1027F
:2079F300E501E901C9033D01790179022F014F014F02DB037B036F03F500C503D103BD00B8
:0E7A13003D02AF002F02DD03BD03D703AF031A
:2044C200C007C006C005C004C001C000AC82AD83AEF0FFBF20005031BF0A030245618F8263
:2044E200C007C006C005C004C003C002C001C000C0251246A9D025D000D001D002D003D0AD
:2045020004D005D006D00780567E00EF24E0FFEE34FFFEEF2FFFEE33FEEF2458F582EE346E
:2045220068F583E493A3E493C4540FFE90F0F1EEF0300507EE2EFE90F0F1F090F0F1E0FF8D
:204542003395E0FE0FBF00010E90F0EDE0FCA3E0FDEF2CFFEE3DFE90F0EDEFF0EEA3F0D02D
:2045620000D001D004D005D006D00722C007C006C005C004C003C001C000E58124F6FFC057
:2045820007C006C005C004C003C002C001C000C02512465CD025D000D001D002D003D00415
:2045A200D005D006D007E58124F6F886050886068D828E83E493FCBC0C7290F0EDE4F0A32F
:2045C200F0C007C005C006C0E0C0E09044C2125B0BE58124FBF58190F0EDE0FDA3E0FE3350
:2045E20095E0FCFB7480C39DFD74029EFEE49CFCE49BFB78A47402F2E408F208F208F28D11
:20460200828E838CF0EBC007C002C001C000C025126255AB82AC83ADF0FED025D000D00159
:20462200D002D00790F0EDEBF0ECA3F0C007E58124F5F8E6C0E008E6C0E0E4C0E0C0E09002
:20464200121B125B0BE58124FBF581D000D001D003D004D005D006D0072230062530050636
:204662007E147F0080047E0A7F0090F0F2EEF03005067E207F0080047E107F0090F0F1EE04
:20468200F0223005067E207F0080047E107F0090F0F2EEF03005067E147F0080047E0A7FF6
:2046A2000090F0F1EEF022AF82BF08028018BF0902804EBF0A028013BF0B028055BF0C0192
:2046C20022BF0D568038B20502465C12465C90F0F2E0FE3395E0FD90F0EFE0FBA3E0FCEE21
:2046E2002BFEED3CFD90F0EFEEF0EDA3F090F0D5E0FDA3E0FE90F0EDEDF0EEA3F022B20446
:204702002290F0EDE0FDA3E0FE90F0D5EDF0EEA3F02290F0D5E4F0A3F0227E00C007C006EC
:124722007421C0E0747AC0E0125E5CE58124FCF58122D8
:157A2100496E76616C69642063686172203078253032780A00FA
:20473400E58620E0FB225390FD00225380FB0022E58620E0FB004390020022E58620E0FB28
:2047540000438004002275FB02228582F9E5F830E1FB53F8FDE5F820E0FB85F9822253F357
:20477400C775FA2275FC0C75F8C043F4C043F102D20A2253F1FD53F43F75FA0075FC3175AB
:08479400F84043F338C20A2289
:20479C00858283D0F0D0E0D082C082C0E0C0F022C00074FB2581F8E5828682088683088622
:2047BC00F0D0002275F008C58213C58233D5F0F7C58222E583A2E713F583E58213F5822206
:2047DC00D083D0E0D0F0C0F0C0E0C083E582A4F58285F08322C000E58124FDF8E6F88582A7
:2047FC00F0A4F582E8A8F08583F0A428F583E5F03400F5F0E4D00022C000C001C0E0C0F041
:20481C0074FA2581F88600E58288F0A4F582A9F0E58388F0A429F583E5F03400F9D0E088F8
:20483C00F0A429C5F03400F9D0E0C0F088F0A429D0F0D001D00022C000C001C002E58124C8
:20485C00FBF8E6F918E6F88582F0A4C0E0AAF0E58388F0A42AF8E5F03400FAE98582F0A472
:20487C0028C0E0E5F03AFA74003400F8E98583F0A42AFAE5F0388AF0D083D082D002D00133
:20489C00D00022D0E0D0F0C000C001C002C0F0C0E074F82581F9E7F809E7F922D002D0016F
:2048BC00D00022C9C583C9C8C582C82212489F75F0081248BFE0A31248BFF0A3D5F0F302AF
:2048DC0048B812489F75F0081248BFE493A31248BFF0A3D5F0F20248B812489FC375F00895
:2048FC001248BFE0A3F5021248BFE03AF0A3D5F0EF0248B812489F75F0081248BFE0A3F596
:20491C00021248BFE05AF0A3D5F0EF0248B812489FC375F0081248BFE0A3F5021248BFE028
:20493C009AF0A3D5F0EF0248B812489FC375F0081248BFE0A3F5021248BFE0A39AD5F0F0D1
:20495C000248B812489F75F0081248BFE0A3F5021248BFE0A36A7007D5F0EED30248B8C378
:20497C000248B8C8C0E075F008E038F0A3D5F0F9D00022D3E402497FC374FF02497FC000A8
:20499C00C00174FA2581F8E6F5F0088601496015088600E8F0A374FF25F0F5F074FF39F5FF
:2049BC000145F070EED001D00022C000C001C00274F92581F9E7D3601CF5F00987000987FA
:2049DC0001C3E0F502A31248BFE0A31248BF6A7004D5F0EED3D002D001D00022C000C0014E
:2049FC00C00274F82581F9E7F5F00987024A601F0987000987011248BFE0A31248BFF0A33E
:204A1C0074FF25F0F5F074FF3AF50245F070E7D002D001D00022C000C001C00274F92581F2
:204A3C00F9E76015F5F00987000987011248BFE0A31248BFF0A3D5F0F3D002D001D000226A
:204A5C00C083C082E06003A380FAC3E582D0F095F0F582E583D0F095F0F58322C003C002A3
:204A7C00C001C000C0E0C0F0C083C082A98174F62581F886F0188600750201750300758297
:204A9C0011A2F74014C3E833F8E5F033F5F0C3EA33FAEB33FB058280E8E4C003C002C0E04E
:204ABC00C0E0AA81C0F0C000C0E0C0E0A881C0E0C0E0C0E0C0E0AB81C000C001C37583044A
:204ADC0086F018E71995F0D583F6D001D000402BC000C001C375830486F018E795F0F71903
:204AFC00D583F585020085030175830486F018E745F0F719D583F5D001D00074FC28F8C346
:204B1C0075830408E613F6D583F9C00074FC2AF8C375830408E613F6D583F9D000D582981D
:204B3C0020D508D082D083D0F0D00074F42581F58130D508D082D083D0F0D000E8D000D0D9
:204B5C0001D002D00322C2D5024A78D2D5024A78C003C002C001C000C0E0C0F0C083C082D0
:204B7C00A98174F62581F886F07401758219A2F7400A23C5F023C5F0058280F2C0E0E4C01C
:204B9C00E0C0E0C0E0AA81C0F0C0E0C0E0C0E0A881C0E0C0E0C0E0C0E0AB81C000C001C305
:204BBC0075830486F018E71995F0D583F6D001D000402BC000C001C375830486F018E79526
:204BDC00F0F719D583F585020085030175830486F018E745F0F719D583F5D001D00074FC48
:204BFC0028F8C375830408E613F6D583F9C00074FC2AF8C375830408E613F6D583F9D00049
:204C1C00D58298D082D083D0F0D00074F42581F581E8D000D001D002D00322C006C005C035
:204C3C0004C003C002C001C00074F72581F886F074017C09A2F7400923C5F023C5F00C80B7
:204C5C00F3FBE4FAA9F0F88582F0FDFEC3E58298E583994011C3E58298F582E58399F58323
:204C7C00EA4DFDEB4EFEC3E913F9E813F8C3EB13FBEA13FADCD620D5048D828E83D000D0E4
:204C9C0001D002D003D004D005D00622C2D5024C37D2D5024C37E0C0E02401F0A3E0C0E0B1
:204CBC003400F0A3E0D083D0826014B4600AC000A882E2D000F582224009E493F58222E08C
:204CDC00F58222C000A882E6D000F5822212489F75F004D31248BFE0FA3400F0EAA31248B3
:204CFC00BFF0A3D5F0EE0248B812489F75F004C31248BFE0FAA31248BFE0A36A7004D5F097
:204D1C00EFD30248B812489FC3E0A398E0A399E0A39400E0A394000248B812489FC3E0A351
:204D3C0038E0A339E0A33400E0A334000248B875F004E07004A3D5F0F9F58222A3A3A3E073
:024D5C00332200
:044D5E0075C90B22E6
:204D6200C0E0C007C006C0D075D000AEDAAFDB74012EF5DAE43FF5DBD0D0D006D007D0E0BB
:204D820032C007C006C005C004C000AEDAAFDB7851EEF208EFF2784FE5E2F27850E5E3F263
:204DA200EEB5DAE7EFB5DBE3784FE2FC08E2FD08E2FE08E28C828D838EF0D000D004D005B8
:204DC200D006D0072285E28222E4F5DAF5DBF5E4F5E5F5E6F5E7F5E275E40543D84043B87F
:204DE2000222AF82AE83ADF0FC7853EFF2EE08F2ED08F2EC08F2124D837857C0E0E582F287
:204E0200E58308F2E5F008F2D0E008F2124D83AA82AB83AEF0FF7857D3E29AF4B3FAB30862
:204E2200E29BF4B3FBB308E29EF4B3FEB308E29FF4FF7853C3E29A08E29B08E29E08E29FA2
:034E420050CA2231
:204E450053C07F53A1FE53BEFC3243870122AF82AE83ADF0FC785BEFF2EE08F2ED08F2EC33
:204E650008F290FAE4E4F090FAE5F090FAE674DFF090FAE774BEF090FAE8E054E0F090FA4C
:204E8500E8E0541FF090FAE97407F090FAEAE054E0F090FAEAE0549F4420F090FAEAE05449
:204EA5007FF090FAEBE054FC4402F090FAEBE054FBF090FAEBE054F7F090FAEBE054CFF017
:204EC50090FAEBE0543F4440F0785BE2F5F008E242F008E242F008E245F0701B7B017510F4
:204EE500AD7511FC85111290FAE4E512F07AAD90FAE5EAF0024F87785BC3E2943F08E29470
:204F05000008E2940008E29400500C785B743FF2E408F208F208F2785BE225E0F51308E23E
:204F250033F51408E233F51508E233F516E5132513F513E51433F514E51533F515E516330F
:204F4500F516747DC0E0E4C0E08513828514838515F0E516124B62785BC0E0E582F2E5837E
:204F650008F2E5F008F2D0E008F2158115817B007DA67EFC8E0590FAE4EDF07EA690FAE504
:204F8500EEF053C07F53A1FE43A11075A8A0EB7014785BE2F5F008E242F008E242F008E2CE
:204FA50045F070012253BEFBE5BE30E5FBE5C654384441F5C6E5C630E6FB43BE0453C67F95
:204FC500785BC3E2F5F074F095F008E2F5F074FF95F008E2F5F0E495F008E2F5F0E495F04F
:204FE500501B7DF07EFF785BE22410F208E23400F208E234FFF208E234FFF28011785BE208
:20500500FD08E2FE785BE4F208F208F208F2EB60067A007C0080047A107C008AA175C000DE
:2050250043D6817AE47CFA8AD48CD575D60175A204E5A570FC75A2028EA48DA3AEA5EEB570
:20504500A50280FA43C702EB60077B0075BE07800375BE06000000E5BE5403600875D701AC
:20506500004387010053C7FDE5BE30E5FB75BE00E5BE30E5FB75C679E5BE30E6FB7E007D4D
:1B50850000000DBD80FB0EBE80F575C639E5C620E6FB75C63875BE04024F93DC
:0E7FAD00060606060606040707070707070470
:2050A000AF8275BB0074304FF5B575B473E5B420E6FBE5B430E7FBAEBA7F00ADBB7C0090B6
:2050C000FAF0EC4EF0ED4FA3F08FB522C21490FAF0E0FEA3E08E82C4C582C4540F6582C5E8
:2050E00082540FC5826582C582F58374E2C0E07404C0E0124853AC82AD83AEF0FF1581157D
:205100008190FAEEE0FAA3E0FB74FFC0E07407C0E08A828B83124853A882A983AAF0FB1549
:20512000811581ECC398FCED99FDEE9AFEEF9BFF747DC0E08C828D838EF0EF124814AC82CB
:20514000AD83AEF0FF1581EFC40354F8CEC403CE6ECE54F8CE6EFFEDC40354074EFEEDC4B8
:205160000354F8CCC403CC6CCC54F8CC6CFDEF30E70FD214C3E49CFCE49DFDE49EFEE49F0D
:20518000FF90FAECE0C0E0A3E0C0E08C828D838EF0EF124B62AC82AD83AEF0FF1581158186
:2051A00074FF2CFC74033DFDE43EFEE43FFF74FFC0E07407C0E08C828D838EF0EF124B62E9
:1651C000AC821581158190FAF2ECF030140790FAF2C3E49CF0220B
:2051D600E58620E0FB225390FD00225380FB0022E58620E0FB004390020022E58620E0FB7C
:2051F600004380040022C007C006AF82BF64004027BF6A00502290DF097421F090DF0A74E3
:205216003BF090DF0B7413F08F06EE249CFE90DF0675F003A4F0802F90DF097422F090DF8E
:205236000A74BBF090DF0B7413F0BFC8004013BFE100500EEF2438FF90DF0675F00CA4F0A2
:20525600800590DF06E4F0D006D00722C00775E10490DF3BE0B401FCD007221252627F0001
:205276008F057EDFEFC3907A36938D828E83F00FBF200040EB90DF237488F090DF247431C3
:20529600F090DF257409F090DF2E748EF075911075ED00759D0075EF0322C007AF82C3EFBB
:2052B6006480946250047FE2800EC3748A8FF063F08095F050027F0A741E2FC313907A5651
:2052D6009390DF2EF0D00722C007C006AE82AF838ED48FD575D6010000000000000000009E
:2052F600D006D0072275D68100000000000000000022C007C006C005AE82AF831252FB8F39
:205316000590FCB6EDF090FCB7EEF07EB47FFC8E828F831252DED005D006D00722C007C0F6
:2053360006C005AE82AF831252FB8F0590FCBCEDF090FCBDEEF07EBC7FFC8E828F831252B0
:20535600DED005D006D00722301504E5EF70012212526253C0FE43B801E5ED75F080A424B3
:20537600F4F58274FA35F0F58312530875E1022253B8FE1252FB12526275D10053C0FE2213
:20539600AE82AF837CFF7DFF1253868E828F8312533375E90075E103E5E920E42375820F47
:2053B600C005C0041250A0D004D00590FAF0E0FEA3E0FFC3EE9CEF9D50DE8E048F0580D844
:2053D6001252FBC005C00412535ED004D0057423C0E08C828D83124CA815817404C0E01248
:2053F60047F1AC82AD83158190F125ECF0EDA3F022C025C0E0C0F0C082C083C007C006C040
:2054160005C004C003C002C001C000C0D075D000E5D130E040E5ED75F080A424F4FE74FAED
:2054360035F0FF53D1FE8E828F83E0FD248240200D0DED2EF582E43FF583E0FF30E711E5D8
:20545600ED04FF8FEDBF030375ED00E5EF14F5EF12535E800F746BC0E0747AC0E0125E5CAC
:205476001581158153C0FED0D0D000D001D002D003D004D005D006D007D083D082D0F0D068
:20549600E0D02532201706125386C21522201505D21502535E22E59D75F080A424F4FE7443
:2054B600FA35F0FF8E828F83E0FD7403B5EF047582FF228D037C0074022BF9E43CFAE92EAB
:2054D600F582EA3FF583E0FA747F5AD39494F4FABA7F0040047AFF8003EA2AFA90F0FDEAA0
:2054F600F00BBB00010CEB2EF582EC3FF583E0A2E71324B390F0FEF00EBE00010FC005C07E
:2055160006C00790F999124A32158115811581E59D04FF8F9DBF0303759D00D21810AF0203
:20553600C218E5EFFF04F5EFA21892AFEF7007C00512535ED0058D8222D21910AF02C2194A
:10555600AFEF75EF03A21992AFEF700302535E220D
:207A3600D3917D044522000F0022BB131D3B1373A7650700181E1CC700B0B610EA2A001F32
:207A5600030506080B0E191C242527293855408D8A84CAC4C0646D612069727120756E6557
:097A7600787065637465640A0010
:107FBB00DFD900008080131A0000DFD9207E134226
:1700E10090FC857456F090FC867412F090FC8703F090FC887485F0B2
:20556600E58620E0FB225390FD00225380FB0022E58620E0FB004390020022E58620E0FBE8
:20558600004380040022C007C006C005C004C003C002C001C000E5827862F27E00C21B78FA
:2055A60063E4F2C0067863E2C0E09010001247F1AA82AB8315817864EAF2EB08F2786674C0
:2055C60004F2E408F27864E2FA08E2FBE4FCFE7404C0E0E4C0E07489C0E074FCC0E08A8221
:2055E6008B838CF0EE1207BAE58124FCF5817404C0E07485C0E074FCC0E090FC891249C667
:20560600158115811581921CD006201C030256F07866E2FB08E2FCC3941040030256F0C064
:205626000678647966E3C5F0E225F0FB09E3C5F008E235F0FAE4FCFE7402C0E0E4C0E07483
:2056460089C0E074FCC0E08B828A838CF0EE1207BAE58124FCF58190FC89E0F51774FFB58F
:205666001705D0060256F0D0067862E2B5175D90FC8AE0FCBC020040531C1C8C067861C386
:20568600E29C50047861E2FCC0067B00785FE2F51808E2F5197864E2FD08E2FF74022DFD38
:2056A600E43FFF7866E22DFD08E23FFA7E007F00C004C003C018C0198D828A838EF0EF12E5
:2056C60007BAE58124FCF581D21BD00690FC8AE0FF7D007866E2FB08E2FCEF2BFBED3CFCF7
