:040000000200833245
:01000B0032C2
:0100130032BA
:01001B0032B2
:0100230032AA
:03002B000249CABD
:01003300329A
:01003B003292
:03004300024F8CDD
:03004B000248E781
:01005300327A
:01005B003272
:01006300326A
:01006B003262
:01007300325A
:03007B00025AAF77
:0300FA0002007E83
:03007E0002050672
:2000FD00E58620E0FB225390FD00225380FB0022E58620E0FB004390020022E58620E0FBA6
:20011D00004380040022AF8290F090E4F090F091F08F061FEE60767E0090F95AE0FDBD024E
:20013D000BEE90624393FDBDC800405990F95AE0FDBD010BEE90624393FDBDC8005046EE81
:20015D002443FCE43462FD8C828D83E493F582C007C006C005C004121C10E582D004D00538
:20017D00D006D007601F90F090E0FB90F0BFE0FAC3EB9A501090F090EAF08C828D83E4930B
:20019D00FC90F091F00EBE0C005086808C90F091E0FFE06013BFC800400890F95A7402F030
:2001BD00800690F95A7401F090F091E0F5822290F0EDE0FEA3E0FFC3742C9E74019F40099F
:2001DD0090F0E3E0700330015E300A0920020690F0C6E0700930031E90F0C7E0601890FC37
:2001FD0063E0FFBFFF02800B7824E4F28F821227338003123C81121DDCAD82AE83AFF0907A
:20021D00F092EDF0EEA3F0EFA3F0ED4E602D90F0EDE4F0A3F010010090F0E3E06002D2013A
:20023D0090F0E3E4F08014121EC7AD82AE83AFF090F092EDF0EEA3F0EFA3F012187090F0D4
:20025D0092E0FDA3E0FEA3E0FFED4E700990F0E1E4F0A3F08059740F2DFAE43EFB8F048AD6
:20027D00828B838CF0126223FAA3126223FB90F0E1EAF0EBA3F0740D2DFAE43EFB8F048AF4
:20029D00828B838CF012622360168D828E838FF0123108E582701890F0E1E4F0A3F0800FF8
:2002BD007454C0E07462C0E01259A9158115811218BBAE82AF8390F0EDE0FCA3E0FD90F073
:2002DD00EDEE2CF0EF3DA3F0BE580CBF020990F0C5E06003C2002290FA5BE0600E90FA5BDB
:2002FD00E4F0900064E4F5F00217BB90F0E1E0FEA3E0FF4E603BEF30E71F8E048F0553052F
:20031D007F7877ECF2ED08F2E408F208F29003E8E4F5F0125ED50217BB7877EEF2EF08F2A0
:20033D00E408F208F290EA60E4F5F0125ED50217BB1218BBAE82AF837877EEF2EF08F2E429
:20035D0008F208F29003E8E4F5F0125ED50217BB90F0CEE0FF600D8F82121C10E58290F956
:20037D0059F0800C758202120123E58290F959F090F959E0700920030690F0C7E0701430E4
:20039D000A0920020690F0C6E0700890F0E4E0FFBF233690FC63E0FFBFFF02801A758202EB
:2003BD00123E21E582702290FC63E0FF7824E4F28F82122733801290F0E4E0FFBF23004002
:2003DD0005123DC28003123D7F90F959E0604890F0E4E4F090F0CEE0700F758204121776B0
:2003FD001214C77582041217AF90F0E374FDF09000281217531218BBAE82AF837877EEF212
:20041D00EF08F2E408F208F29003E8E4F5F0125ED51217BBD20022758201121836AC82AD6A
:20043D0083AEF0FF7877ECF2ED08F2EE08F2EF08F29003E8E4F5F0125ED50217BBE582FF37
:20045D0024FA50030204EEEF2F2F90046B730248E302047D0204940204C40204EE0204D07D
:20047D00745FC0E07462C0E01259A915811581C20090F959E4F02290F959E0FE746CC0E05C
:20049D007462C0E01259A915811581758204C0061217761213811214C77582041217AFD0F3
:2004BD000690F959EEF0221239A0900000E4F5F00217BB747CC0E07462C0E01259A915816F
:2004DD00158175820412177612271F7582040217AF7E00C007C006748CC0E07462C0E01281
:2004FD0059A9E58124FCF5812275820112177675820F124C2590FAB2E0FEA3E0FF7423C0AC
:20051D00E08E828F8312482D15817404C0E0124376AC82AD83158190F0E5ECF0EDA3F09077
:20053D00624FE493C0E0740193C0E0906251E493C0E0740193C0E0740293C0E0749EC0E0D1
:20055D007462C0E01259A9E58124F9F5811252A212195412190C90F0E374FCF0AEBE5306B7
:20057D00187F00BE1009BF000690F0E374FEF0301B0C123E1B900000E4F5F01217BB7436BD
:20059D00C0E074FCC0E0E4C0E074CDC0E07462C0E01259A9E58124FBF5811236D590019066
:2005BD00E4F5F01217BB7582041217761213F31236BC90F0C2E0601174D5C0E07462C0E0C9
:2005DD001259A915811581801B74E6C0E07462C0E01259A915811581123A4F902710E4F538
:2005FD00F01217BB90F959E0FFE0601F8F82121C10E582702574F3C0E07462C0E01259A90E
:20061D001581158190F959E4F0800F7411C0E07463C0E01259A91581158190F959E070033B
:20063D0012036D90F959E06007123C81D2008005123D7FC2007582041217761214C7300085
:20065D00067E287F0080047E587F028E828F8312175330000A7C887D137E007F0080087C0A
:1E067D00C07DD47E017F008C828D838EF0EF1217BB3000051201CC80F812036D80F360
:20624300C864C965CA66CB67CC68CD6907002363804E6F207570646174650A00434D445F6B
:20626300444F5F5343414E0A0052657365742073657474696E67730A0045726173696E6793
:2062830020696D616765730A00436D6420307825782069676E6F7265640A000A2573204FBF
:2062A30045504C2076253034782C20636F6D70696C6564204A756C203139203230323420ED
:2062C30031353A33363A32380A004D41432025730A00446F696E67206661737420626F6F52
:2062E300740A004E6F726D616C20626F6F740A004E6F20415020666F756E64206F6E20739C
:2063030061766564206368616E6E656C0A004E6F207361766564206368616E6E656C0A00E4
:096323004368726F6D61323900AC
:0175F1000198
:20069B00E58620E0FB225390FD00225380FB0022E58620E0FB004390020022E58620E0FB02
:2006BB00004380040022AC82AD83AEF0FF00C2A0007582031242E38E821242E38D821242FE
:2006DB00E38C820242E3C007C006C005C004C003C002C001C000AC82AD83AEF0FFE5812446
:2006FB00F5F8860208860300C2A0007582031242E38E821242E38D821242E38C821242E374
:20071B008A068B07E58124F3F886040886058C028D031CBCFF011DEA4B6015758200124202
:20073B00E3AB828E828F83EBF0A3AE82AF8380DE00D2A000D000D001D002D003D004D005CD
:20075B00D006D00722AF8200C2A0008F821242E300D2A0002200C2A0007582051242E37536
:20077B0082001242E3E58220E0F500D2A00022AC82AD83AEF0FF7803E2FA08E2FBC007C0F7
:20079B0006C005C004C003C002120770758206120760D002D003D004D005D006D00700C26E
:2007BB00A0007582021242E38E821242E38D821242E38C821242E38A068B077805E2FC08F7
:2007DB00E2FD8C028D031CBCFF011DEA4B60128E828F83E0FBA3AE82AF838B821242E3809F
:2007FB00E100D2A000221207707582B9120760C20C227582AB12076075F034D5F0FDD20C73
:20081B0022C007C006C005C004C003C002C001C000C082C083C0F0C0E005810581E5812414
:20083B00EFF88605088604E58124EDF8E608467003020915C005C004E58124F9F8860208CF
:20085B007B00E58124FDF8E4C39AF674019B08F6E58124FDF8E58124EBF9C3E79609E70819
:20087B0096D004D005500EE58124EDF8A98119E6F708E609F77803EDF2EC08F2A881187949
:20089B0005E6F308E609F3E58124FBF886820886830886F008E6C007C006C005C004C0039A
:2008BB00C002C001C000C02512078AD025D000D001D002D003D004D005D006D007A8811880
:2008DB008602088603E4FEFFE58124FBF8EA26F6EB0836F6EE0836F6EF0836F6A88118E6F5
:2008FB002DFD08E63CFCE58124EDF8A98119E6C397F608E60997F6020842E58124FAF581DB
:20091B00D000D001D002D003D004D005D006D00722C007C006C005C004C003C002C001C0E2
:20093B0000C082C083C0F0C0E0E58124FDF88602088603EA7005EB540F6006758200020A19
:20095B002FE58124F1F8E608467003020A2C758206C007C006C005C004C003C002C001C0E2
:20097B0000C025120760D025D000D001D002D003D004D005D006D00700C2A000E58124F190
:20099B00F886020886037582201242E3E58124FDF8080886821242E3E58124FDF808868280
:2009BB001242E3E58124FDF886821242E300D2A000C007C006C005C004C003C002C001C099
:2009DB0000C025120770D025D000D001D002D003D004D005D006D0077401C0E09010001236
:2009FB004376AC82AD83AEF0FF1581E58124FDF8EC26F6ED0836F6EE0836F6EF0836F61A8B
:200A1B00BAFF011BE58124F1F8A60208A60302095C758201E58124FCF581D000D001D0024C
:0B0A3B00D003D004D005D006D0072265
:200A4600E58620E0FB225390FD00225380FB0022E58620E0FB004390020022E58620E0FB53
:200A6600004380040022C007C006C005C004AF82AE83ADF0FC90F0BBEFF0EEA3F0EDA3F05B
:200A8600ECA3F0C202C203D208758204C007C006C005C004C003C002C001C000C025121749
:200AA60076D025D000D001D002D003D004D005D006D00790F0BBE0FCA3E0FDA3E0FEA3E08E
:200AC600FF7416C0E0E4C0E074F3C0E074F0C0E08C828D838EF0EF1206E1E58124FCF581D8
:200AE60090F0BBE0FCA3E0FDA3E0FEA3E0FF90F0BB74162CF0E43DA3F0E43EA3F0E43FA346
:200B0600F090F103E0FFBF2004C207806A90F103E0FFBF2104D207805E90F103E0FF7E0007
:200B2600C007C0067414C0E07469C0E01259A9E58124FCF58190FA6E7416F0E4A3F090F004
:200B4600F375F000C007C006C005C004C003C002C001C000C025121AC3D025758204C02572
:200B66001217AFD025D000D001D002D003D004D005D006D0078051C220C007C006C005C041
:200B860004C003C002C001C000C025125C09D025C025120BD7D025D220C025125C09D025E3
:200BA600C025120BD7D025758204C0251217AFD025C025125C4DD025D000D001D002D003D9
:200BC600D004D005D006D007D004D005D006D007227F807E0090F0ABE4F0A3F090F0A5F01D
:200BE600A3F05390FD007D00200803020C6A30201D20071A74A0C0E07404C0E0E4C0E090CE
:200C0600F0F312451F158115811581020CBAC00590F0BBE0FAA3E0FBA3E0FCA3E0FD74A080
:200C2600C0E07404C0E074F3C0E074F0C0E08A828B838CF0ED1206E1E58124FCF58190F0F3
:200C4600BBE0FAA3E0FBA3E0FCA3E0FD90F0BB74A02AF074043BA3F0E43CA3F0E43DA3F066
:200C6600D005805074A0C0E07404C0E0E4C0E090F0F312451F1581158115817B4A7C00C0CD
:200C860007C006C005C004C0037807E2F58208E2F583120081D003D004D005D006D00790AF
:200CA600F0A5E02401F0A3E03400F01BBBFF011CEB4C70CB7B007C00EF60503020238E0200
:200CC600EA2AFEEB24F3F582EC34F0F583E0FAEF5A7003430601EF30E02B8E82125C3F80B4
:200CE600248E02EA2A25E0FEEB24F3F582EC34F0F583E0FAEF5A6003430603EF5411600597
:200D06008E82125C3FEFC313FF80AD7F800BBB00010CC3EB94A0EC9404409D90F0ABE0FB04
:200D2600A3E0FC744A2BFBE43CFC90F0ABEBF0ECA3F00DBD04005003020BEEE58620E0FB27
:200D4600004390020022AE82AF83C202C203C208D207C2207807EEF2EF08F2125C09120B4A
:200D6600D7D220125C09120BD7025C4DC007C006C005C004C003C002C001C000AD82AE8312
:200D8600AFF0A204202001B3505090F09FE0F508A3E0F50974012DFAE43EFB8F048A828B14
:200DA600838CF0126223FA780CF2E408F2850882850983C007C006C005C004C003C002C0CE
:200DC60001C000121003E582D000D001D002D003D004D005D006D0076003020FA98D828E6A
:200DE600838FF07809126223F290F0A1E0F508A3E0F5097809E2F50A750B00780EE50AF219
:200E0600E50B08F2850882850983C007C006C005C004C003C002C001C00012107AD000D06A
:200E260001D002D003D00490F0ADE0F508A3E0F50990F0B1E0FBA3E0FCEBC39508F582EC6E
:200E46009509F5837875E50AF2E50B08F2C002C001C000125EB5AB82AC83D000D001D00287
:200E6600D005D006D007ECC423CBC423541F6BCB541FCB6BCBFC90F0B7EBF0ECA3F0740245
:200E86002BFBE43CFCEB2DFDEC3EFE90F0A7E0FBA3E0FCEB5407700A7809E2540770030259
:200EA6000F5D5303078BF005F07B80E4FC3392D28008A2D2EC13FCEB13FBD5F0F5780AEB6A
:200EC600F2780B7480F28D828E838FF0126223FA74012DF50CE43EF50D8F0E7809E2F50ABB
:200EE600AC0A150AEC7003020FA9780BE25A6025C00290F0B5E0FAA3E0FCEA24F3FAEC344F
:200F0600F0FC8A828C83E0FB780AE242038A828C83EBF0D002780BE2C313F2780BE270195D
:200F2600850C82850D83850EF0126223FAA385820C85830D780B7480F2780AE2C313F27897
:200F46000AE2709C780A7480F290F0B5E02401F0A3E03400F080897809E2604790F0B5E032
:200F6600FBA3E0FCEB24F3FBEC34F0FC8B828C83E0F50C8D828E838FF0126223FAA3AD82E9
:200F8600AE83E50C42028B828C83EAF090F0B5E02401F0A3E03400F07809E2FC780924F822
:200FA600F280B4D000D001D002D003D004D005D006D0072290F0A7E0FEA3E0C423CEC42323
:200FC600541F6ECE541FCE6ECE30E40244E0FF90F0ABE0FCA3E0FD90F0B1E0FAA3E0FBEAAC
:200FE600C39CFCEB9DC454F0CCC4CC6CCC54F0CC6CFD90F0B5EC2EF0ED3FA3F022AE82AFF4
:201006008390F095EEF0EFA3F090F0AFEEF0EFA3F07427C39EFE74019FFF90F0A9EEF0EF40
:20102600A3F090F0A5E0FCA3E0FD90F0B1ECF0EDA3F0C3EE9CEF64808DF063F08095F040D4
:201046002F780CE22CFC08E23DFDC3EE9CEF9D501F780CD3E29EF4B3FEB308E29FF4FF0EA8
:20106600BE00010F90F0ADEEF0EFA3F07582002275820122AE82AF8390F0A7EEF0EFA3F0F3
:20108600780E90F097E22EF008E23FA3F0120FBA75820022C007C006C005C004C003C00262
:2010A600C001C000AC82AD83AEF0FF058105810581BF2000502C8F82C007C006C005C0049A
:2010C600C003C002C001C000C02512422ED025D000D001D002D003D004D005D006D007020A
:2010E60013447E00EF24E0FFEE34FFFEEF2FFFEE33FEEF242CF582EE3463F583E493FEA3FD
:20110600E493FF90F0B7EEF0EFA3F0EFC4540FFE90F0B3F0300507EE2EFE90F0B3F090F08C
:2011260099E0FEA3E0FF90F0B9EEF0EFA3F090F0B3E0FDFB3395E0FC0BBB00010CEB2EFB81
:20114600EC3FFC90F099EBF0ECA3F0A204202001B3504190F0B9E0FEA3E0FF780CEDF2EDDB
:201166003395E008F28E828F83C007C006C005C004C003C002C001C000C025121003E58218
:20118600D025D000D001D002D003D004D005D006D007600302134490F09BE0FEA3E0FF90F1
:2011A600F0B4E0FD780EF2ED3395E008F28E828F83C007C006C005C004C003C002C001C063
:2011C60000C02512107AD025D000D001D002D003D004D005D006D00790F0B7E0FEA3E0FF60
:2011E60053070F90F0B7EEF0EFA3F0A8811818760008768090F0A7E0FCA3E05304078CF0BC
:2012060005F07C80E4FD3392D28008A2D2ED13FDEC13FCD5F0F5A881A60490F0B3E0FD903E
:20122600F0ADE0FAA3E0FB90F0A5E0FCA3E0FFECC39AFAEF9BFBED3395E0FFEDC39AFAEFA1
:201246009BFB1ABAFF011B90F0B9EAF0EBA3F030050FEBC313CA13CAFB90F0B9EAF0EBA32A
:20126600F090F0B9E0FEA3E0FF90F0B7E0FCA3E0FD90F0B7EE2CF0EF3DA3F090F0B7E0FE37
:20128600A3E0FFEE2EFEEF33FFEE24ECF582EF3463F583E493FEA3E493FF90F0B9E4F0A3DA
:2012A600F090F0B9E0FCA3E0FD90F0B4E0FB3395E0FAC3EC9BED9A4003021344A88118182C
:2012C600E65EFC08E65FFD4C602190F0B5E0FCA3E0FDEC24F3FCED34F0FD8C828D83E0FB1A
:2012E600A881E642038C828D83EBF030051A90F0B9E0FCA3E0FDEC30E01AA88118E618C39F
:2013060013C613C608F6800CA88118E618C313C613C608F6A881E6C313F6A881E6701090DF
:20132600F0B5E02401F0A3E03400F0A881768090F0B9E02401F0A3E03400F00212A7158121
:1513460015811581D000D001D002D003D004D005D006D00722A8
:20632C000070071008500D9016601CA026A03010316037603D7044904D204F60552057808C
:20634C005F7066706D6073507880805085708C7093709A70A120A320A570AC80B470BB7022
:20636C00C2A0CCA0D670DD80E570EC70F370FA8002710971105115811D7124812C713381AA
:20638C003B7142814A7151715891617168A172A17CA186A1908198519D81A551AA81B2A15E
:2063AC00BC21BE71C571CC71D371DA71E181E971F071F741FB51007207420B9214721B72B7
:2063CC0022722972306236623C724362499252A25C8264A26E8276627C127D6283A28D72F9
:2063EC000000000000000000000000000000D87F0078000000000000007880009804E00549
:20640C00801E9864E005801E80648004183808640842FCFF8841F040083810442044C044F5
:20642C0000397002880C881088207040E0001001083A08468845C84C38381800680080014E
:20644C000078E00718180C300420024002400240024004200C301818E00700100018000F8B
:20646C000072000F001800104000400040004000F807400040004000400019001E008000B1
:20648C00800080008000800080001800180002000C003000C0000003000C00300040C00FF4
:2064AC0030300840084008403030C00F082008200820F87F080008000800186028404840FA
:2064CC0088400843083C0840084208420842F03DC0004003400440184020F87F4000400010
:2064EC00087C084408441042E041E00F10320844084408441042E00100401840E0400043BE
:20650C00004C00500060F038084508420842084590456038001E08218840884088403021C0
:20652C00C01F1806180619061E06C000C0002001200110021002080420012001200120017B
:20654C00200120012001200108041002100220012001C000C00000700040D840004100426E
:20656C0000640038C00F30181820C84728486850D851E03F2000200008007000C001400EDE
:20658C004018400C4003C00030000800F81F08110811081108118812700CC003300C100868
:2065AC0008100810081008100818F81F08100810081008101008E007F81F881088108810FA
:2065CC00881088100810F81F801080108010801080100010C003300C100808100810881091
:2065EC008810F818F81F80008000800080008000F81F081008100810F81F08100810081092
:20660C000800081008100810F01FF81F0001800140022004200810100800F81F0800080099
:20662C000800080008000800F81F001C8007E00060008003001CF81FF81F000800068001D8
:20664C0060001000F81FE007100808100810081008101008E007F81F8010801080108010F2
:20666C000011000EE00710080810081008100C101208E207F81F80108010C0102011100E33
:20668C000800180E0812081108118810901070180010001000100010F81F0010001000102D
:2066AC000010E01F18000800080008001000E01F0010000C8003600018001800E00000036E
:2066CC00000C00100018C0073800F0000007800370003800C00700180810100820044002E4
:2066EC008001800140022004100808100010000800060001F80000010002000400080010C0
:20670C0018102810481088100811081208140818FE7F024002400240024000400030000CAD
:20672C000003C00030000C0002000240024002400240FE7F2000C0000007001C0070000E46
:20674C00C001200004000400040004000400040004000400040004000080004030004804E8
:20676C00880488049004F8030800F87F10020804080408041006E001E001100208040804AF
:20678C00080408040804E00118020804080408041002F87FE001900288048804880488047E
:2067AC00880300040004F83F00240044004400440044E00119020904090409041202FC0795
:2067CC00F87F00010002000400040004F803000400040064F8670100010401040164FE678C
:2067EC00F87F8000C0002001200210020804004000400040F87FF807000200040004F8033A
:20680C00000200040004F803F80700030002000400040004F803E001100208040804080445
:20682C001002E001FF0710020804080408041006E001E00118020804080408041002FF07EF
:20684C00F8070001000200040004000718038804880448044804300400040004F01F0804F9
:20686C00080408040804F0070800080008001000F807000480036000180008003000C000D3
:20688C00000300040006E001180070008003800170001800E0010006080410022001C00004
:2068AC00C00020011002080401040103C10062001C0018006000800000030004080418045E
:2068CC00280448048804080508060804800080007C3F024002400240FE7F024002400240BD
:2068EC007C3F80008000C000000100010001800080004000400040008001F80108030804BD
:20690C00080808040803F80164617461547970652030782578206E6F7420737570706F7270
:05692C007465640A001F
:20135B00E58620E0FB225390FD00225380FB0022E58620E0FB004390020022E58620E0FB35
:20137B0000438004002290F0C17401F090F0C2E4F090F0C3F090F0C4F090F0C5F090F0C6CB
:20139B0004F090F0C7F090F0C9E4F090F0C8F090F0CC7428F0E4A3F090F0CEF090F0CA7467
:2013BB0028F0740AA3F090F959E4F090F95AF022AD82AE83126223FCBC011C7BC17CF08B3F
:2013DB00828C83740EC0E0C005C0061245B71581158115810214C7227480C0E0E4C0E07459
:2013FB00A2C0E074FDC0E0906000E4F5F01206E1E58124FCF581740EC0E07414C0E074FE15
:20141B00C0E090F0C11245B715811581158190FDA2E0FCA3E0FDA3E0FEA3E0FFBCA513BD41
:20143B005A10BEBA0DBFAB0A90FDA6E0FFBF0102803590FDA2E0FCA3E0FDA3E0FEA3E0FF17
:20145B0090FDA6E0FB7A00C004C005C006C007C003C0027431C0E07469C0E01259A9E58112
:20147B0024F8F58102138190FDA7E090F959F090FDA8E090F95AF0745FC0E07469C0E01259
:20149B0059A91581158112161990FDA2E4F004C0E0E4C0E074A2C0E074FDC0E0906000E4FC
:2014BB00F5F012081CE58124FCF581227480C0E0E4C0E074A2C0E074FDC0E0906000E4F530
:2014DB00F01206E1E58124FCF58190FDA2E0FCA3E0FDA3E0FEA3E0FFBCA53EBD5A3BBEBA15
:2014FB0038BFAB35788574C1F274F008F2E408F27888740EF2E408F290FE1475F0001260CF
:20151B00A4E5828583F045F0700F90FDA7E0FF90F959E0FEEFB506012290FE21E0FF90F04B
:20153B00CEE0FEEFB50602803EEE603BBE6400502390FE21E0FF7D00C007C0057471C0E040
:20155B007469C0E01259A9E58124FCF58190F0CEE4F08013BEC800400890F95A7402F08097
:20157B000690F95A7401F07480C0E0E4C0E0C0E090FDA212451F158115811581740EC0E0C1
:20159B0074C1C0E074F0C0E090FE141245B715811581158190FDA274A5F0F4A3F074BAA355
:2015BB00F0C4A3F090FDA67401F090F959E090FDA7F090F95AE090FDA8F07401C0E0E4C0AA
:2015DB00E0906000E4F5F012092C158115817480C0E0E4C0E074A2C0E074FDC0E090600015
:2015FB00E4F5F012081CE58124FCF581748AC0E07469C0E01259A91581158102161990F0C9
:20161B00C5E0FF7E00C007C006749BC0E07469C0E01259A9E58124FCF58190F0CEE0FF7E19
:20163B0000C007C00674B4C0E07469C0E01259A9E58124FCF58190F0CAE0FEA3E0FFC0063D
:20165B00C00774C7C0E07469C0E01259A9E58124FCF58190F0C2E0FF7E00C007C00674DBC5
:20167B00C0E07469C0E01259A9E58124FCF58190F959E0FF7E00C007C00674F0C0E0746975
:0C169B00C0E01259A9E58124FCF5812271
:206931004C6F616465642064656661756C74732073657474696E6773566572203078257862
:20695100204D61676963203078256C780A004C6F616465642073657474696E67733A0A002C
:2069710049676E6F7265642066697865644368616E6E656C2025640A00536176656420731C
:20699100657474696E67733A0A0020205363616E2041667465722054696D656F7574202581
:2069B100640A00202066697865644368616E6E656C2025640A0020206261744C6F77566F2E
:2069D1006C746167652025640A002020656E61626C6546617374426F6F742025640A00204A
:0D69F100204C6173742063682025640A0047
:2016A700E58620E0FB225390FD00225380FB0022E58620E0FB004390020022E58620E0FBE6
:2016C70000438004002275F10175805875FDDD75F33875904075FE6E75F4E875A00175FF76
:2016E7000122C00775E40075FC0075F70075FE0290F953E0FF54F06002800DD291758F00F9
:2017070075F60075FD008012758F8175F62F75FD8175FE2F53807E5390D075F30075F400CA
:0617270075F500D0072259
:20172D00E58620E0FB225390FD00225380FB0022E58620E0FB004390020022E58620E0FB5F
:20174D00004380040022AE82AF837D00BD08005017ED75F002A424CFF58274F035F0F58325
:20176D00EEF0EFA3F00D80E422E582FF30E0251255BAC007124950D2AF1216CD1242DF1280
:20178D004DF6D00775820A124E3590F959E0FEF582124D81EF30E20912430C200C030208D1
:2017AD000D22E58230E206300C0302080122AF82AE83ADF0FC90F0EFEFF0EEA3F0EDA3F0B8
:2017CD00ECA3F090F0EFE0FCA3E0FDA3E0FEA3E0FFC004C005C006C00774FEC0E07469C0EA
:2017ED00E01259A9E58124FAF581300C16758204C007C006C005C0041217AFD004D005D03A
:20180D0006D007C007C006C005C004125BF6D004D005D006D0071216E98C828D838EF0EF73
:20182D001249D8758201021776E582FF601090F0E4E0FFBFFF00500690F0E4EF04F090F0ED
:20184D00E4E0FFBF18005007900E10E4F5F022BF24005007901C20E4F5F02290518075F03A
:20186D0001E42290F0E0E07875F2E408F2900230125EB57862740EF2E408F2125CDEAE82C8
:20188D00AF8374282EFEE43FFF90F0DFE054077D0025E0FCED33FDEC24CFF582ED34F0F58E
:2018AD0083EEF0EFA3F090F0DFE02401F0227E007F007D00BD0800501DED75F002A424CF2B
:2018CD00F58274F035F0F583E0FBA3E0FCEB2EFEEC3FFF0D80DEEFC423CEC423541F6ECE43
:2018ED00541FCE6ECEFF90F0CCE0FCA3E0FDC3EE9CEF9D50058C828D83228E828F83229075
:20190D00FAB4E0FF3395E0FEC007C0067413C0E0746AC0E01259A9E58124FCF58190F0BF06
:20192D00E0FF7E0090F0C0E0FD3395E0FCC007C006C005C004741EC0E0746AC0E01259A9A2
:20194D00E58124FAF5812275820E124C25124C5175820F124C2590FAB2E0FEA3E0FF74236B
:20196D00C0E08E828F8312482D15817404C0E0124376AC82AD83158190F0EBECF0EDA3F0DD
:20198D00C20A90F0CAE0FEA3E0FFC3EC9EED9F5004D20A803A90F0E7E0FCA3E0FD4C60137F
:2019AD00C3EC9EED9F500C90F0EBECF0EDA3F0D20A801C90F0E9E0FCA3E0FD4C6011C3EC75
:2019CD009EED9F500A90F0EBECF0EDA3F0D20A90F0E9E0C0E0A3E0C0E090F0E7E0C0E0A33D
:2019ED00E0C0E090F0EBE0C0E0A3E0C0E090F0E5E0C0E0A3E0C0E0742FC0E0746AC0E01271
:091A0D0059A9E58124F6F58122B6
:2069FE00536C656570696E6720666F7220256C64206D730A0054656D7020256420430A0010
:206A1E00525353492025642C204C51492025640A00426174745620426F6F742025642C20FF
:1A6A3E006E6F772025642C2054782025642C207570646174652025640A00FE
:0500DC00781074FFF232
:201A1600E58620E0FB225390FD00225380FB0022E58620E0FB004390020022E58620E0FB73
:201A3600004380040022121A92E582600790F96CE0F58222121A5CE582600790F970E0F589
:201A560082227582002290F95BE05407FFBF012890F95CE003035403FFBF031C90F95CE0E9
:201A760023235403FFBF031090F95BE023235401FFBF0104758201227582002290F95BE0C9
:201A96005407FFBF012390F95CE003035403FFBF021790F95CE023235403FFBF030B90F943
:201AB6005BE020E6047582012275820022AFF0AE83E58290FA70F0EEA3F0EFA3F090FA707A
:201AD600E0FDA3E0FEA3E0FF90FA6EE0FBA3E0FC79007A00C3E99BEA9C5052E94A6016E9CA
:201AF600540F6002800F7458C0E0746AC0E01259A915811581C003C004E92DF8EA3EFB8F0B
:201B16000488828B838CF0126223F87C00C000C004745AC0E0746AC0E01259A9E58124FC02
:201B3600F58109B900010AD004D00380A77458C0E0746AC0E01259A91581158122AFF0AEE5
:201B560083E5827812F2EE08F2EF08F27815E4F27B017811C3E2F5F0EB95F050227812E2F8
:201B7600FA08E2FC08E2FFEB2AFAE43CFC8A828C838FF0126223FA7815E22AF20B80D378CF
:201B960012E2FD08E2FE08E2FF8D828E838FF0126223FD7815E2B50503D38001C3E433F5EB
:201BB6008222AFF0AE83E5827817F2EE08F2EF08F2781AE4F27B017816C3E2F5F0EB95F076
:201BD60050227817E2FA08E2FC08E2FFEB2AFAE43CFC8A828C838FF0126223FA781AE22A4F
:201BF600F20B80D37817E2FD08E2FE08E2FF8D828E838FF0781AE2025E9AE5812404F5812F
:201C1600AF82C218C00712501FD0078F82124D81C0071250D4D21812501FD0077E01EE24C3
:201C3600FC5003021D3A90F9DB7414F0C007C00612371C90F9ED74EDF090F9DB124F1BD0A1
:201C560006D007124908AA82AB83ACF0FD90FA7374A62AF0740E3BA3F0E43CA3F0E43DA343
:201C7600F0C006124908AA82AB83ACF0FD90FA73E58124FCF8E0F6A3E008F6A3E008F6A34C
:201C9600E008F6E58124FCF8C3EA96EB0896EC0896ED0896D0064003021D36C007C00612E4
:201CB6005031AD82D006D007C374818DF063F08095F050AD90F971E0FDB507A5C007C00662
:201CD600121A3CAD82D006D007BDEE95C007C006121A5CE582D006D00760867408C0E074CB
:201CF60068C0E074F9C0E090F9461245B715811581158190F95EE0FCA3E0FD90F94EECF024
:201D1600EDA3F08F047D00C004C0057460C0E0746AC0E01259A9E58124FCF5818F828020E1
:201D36000E021C348F057E00C005C006746AC0E0746AC0E01259A9E58124FCF5817582008D
:201D5600E58124FCF5812290F9DB742AF012371C90F9ED74E5F090F9F47482F090F0E3E093
:201D760090F9F5F090F0C0E090F9F0F090F0BFE090F9EFF090FAB4E090F9F1F090F0EBE0FC
:201D9600FEA3E0FF90F9F2EEF0EFA3F090F9F6E4F090624F93FE740193FF90F9F7EEF0EF59
:201DB600A3F090F959E090F9F9F090F0C9E090F9FAF078167415F290F9EE75F000121BB8E0
:201DD60090F9DB024F1BD21812501F12195412190C7F00781BE4F2781BE2B40E0040030298
:201DF6001EBAC007121D5DD007124908AA82AB83ACF0FD74882AF52674133BF527E43CF541
:201E160028E43DF529C007124908AC82AD83AEF0FFC3EC9526ED9527EE9528EF9529D007DE
:201E36004003021EADC007125031AE82D007C374818EF063F08095F050CBC007121A3CAE95
:201E560082D007BEE6BF78117411F290F97175F000C007121B53E582D00760A97408C0E0A7
:201E76007468C0E074F9C0E090F9461245B715811581158190F95E75F000126223FDA3128F
:201E96006223FE90F94EEDF0EEA3F090F0E0EFF090F97175F00022781BE22401F2781BE2B3
:201EB600FF021DED90F0E0740EF090000075F00022D21812501F7F00781CE4F2781CE2B49A
:201ED6000E004003021FAE90F9DB7414F090F9ED74E3F0C00712371C90F9DB124F1BD00750
:201EF600124908AA82AB83ACF0FD74882AF52A74133BF52BE43CF52CE43DF52DC0071249A9
:201F160008AC82AD83AEF0FFC3EC952AED952BEE952CEF952DD0075072C007125031AE820A
:201F3600D007C374818EF063F08095F050CEC007121A3CAE82D007BEE6C278117411F290DC
:201F5600F97175F000C007121B53E582D00760AC7408C0E07468C0E074F9C0E090F9461285
:201F760045B715811581158190F95E75F000126223FDA3126223FE90F94EEDF0EEA3F090B0
:201F9600F0E0EFF090F97175F00022781CE22401F2781CE2FF021ED290F0E0740EF09000A5
:201FB6000075F00022AFF0AE83E582781DF2EE08F2EF08F2781DE22402FA08E23400FB083D
:201FD600E2FC8A828B838CF0126223F52E852E2F75300090FA5CE0F531AE317F00E52FC315
:201FF6009EFEE5309FFF7875EEF2EF08F2900063C004C003C002125EB5AE82AF83D002D061
:2020160003D0048E2F8F3090FA77E52FF0E530A3F0781DE22401FD08E23400FE08E2FF8D7F
:20203600828E838FF0126223FD90F91FE0FFEDB50702800122E52E24D5500122C3E52E9525
:20205600315001227463252FFEE43530FFC374239E74089F500122781DE2FD08E2FE08E289
:20207600FF78117466F28D828E838FF0C004C003C002121B53E582D002D003D00470030239
:20209600212F781DE22403FD08E23400FE08E28D2F8E3090FA77E0FEA3E0FFEE24F3FEEF6C
:2020B60034F0FF8E828F837463C0E0E4C0E0C02FC03012457DE58124FCF5818A828B838C75
:2020D600F0126223FA7F00788A7408F2E408F28A828F83C007C00212615EAD82AE83D002F2
:2020F600D007ED2421FDEE34F9FE5302078AF005F07401800225E0D5F0FBF4FA8D828E8316
:20211600E052028D828E83EAF07477C0E0746AC0E01259A915811581227479C0E0746AC0E5
:20213600E01259A91581158122AF82AE83ADF0FC7820EFF2EE08F2ED08F2EC08F290FA5C38
:20215600E0FB7A0090F91FE0FF7E00C003C002C007C006748AC0E0746AC0E01259A9E58167
:2021760024FAF581D21812501F12490885823285833385F034F53578207977E22414F30803
:20219600E2340009F308E2340009F308E2340009F3900019E4F5F0125ED5AA82AB83AEF034
:2021B600FFEA2532F532EB3533F533EE3534F534EF3535F535124908AA82AB83AEF0FFC307
:2021D600EA9532EB9533EE9534EF9535503C125031AF82C374818FF063F08095F050D612FE
:2021F6001A3CAF82BFE8CE90F97175F000121FBB7F00EF2421FDE434F9FE8D828E83E07053
:20221600060FBF060040EBBF06AB7458C0E0746AC0E01259A915811581C21812501F02505C
:20223600D490F972E4F0A3F090F97175F00022742AC0E0E4C0E0C0E090F9DB12451F1581FF
:202256001581158190F9DB742AF090F940E0600890F9F174E4F0800690F9F174E7F07408B0
:20227600C0E07450C0E074F9C0E090F9E91245B71581158115817408C0E07446C0E074F912
:20229600C0E090F9E11245B715811581158190F9DCE054F84401F090F9DCE054C74440F0B4
:2022B60090F9DDE0440C54CF44C0F090F958E0FF04F090F9DEEFF090F94EE0FEA3E0FF909A
:2022D600F9DFEEF0EFA3F07DF27EF98D828E837411C0E07416C0E074F9C0E01245B71581AA
:2022F600158115817DF27EF97F0078167411F28D828E838FF0121BB890F9DB024F1BE58178
:202316002404F581D21812501F1250D47F00BF1E0040030223F7C007122245D00712490833
:20233600AB82AC83ADF0FE90FA7974642BF0749F3CA3F0740B3DA3F0E43EA3F0C00712508B
:2023560031AE82D007C374818EF063F08095F05051C007121A3CAE82D007BEE8028028BEBC
:20237600E9028005BEEC33802978117403F290F97175F000C007121B53E582D00760239068
:20239600F97175F0008063122237AC82AD83AEF0805890000075F000805090000075F0007C
:2023B6008048C007124908C8E58124FCC8A68208A68308A6F008F690FA79E0FAA3E0FDA30A
:2023D600E0FEA3E0FFE58124FCF8C3E69A08E69D08E69E08E69FD00750030223520F02234D
:2023F60024122237AD82AE83AFF0E58124FCF58122741BC0E0E4C0E0C0E090F9DB12451FEE
:2024160015811581158190F9DB7419F090F9F174EAF07408C0E07450C0E074F9C0E090F925
:20243600E91245B71581158115817408C0E07446C0E074F9C0E090F9E11245B715811581A6
:20245600158190F9DCE054F84401F090F9DCE054C74440F090F9DDE0440C54CF44C0F090F9
:20247600F94EE0FEA3E0FF90F9DFEEF0EFA3F090F958E0FF04F090F9DEEFF090F9DB024F28
:202496001BD21812501F7F00BF1000506CC007122407D00712490885823A85833B85F03C23
:2024B600F53D12490885823685833785F038F539E536C3953AFAE537953BFCE538953CFDA0
:2024D600E539953DFEC3EA94A6EC940EED9400EE94005022C007125031AE82D007C37481F5
:2024F6008EF063F08095F050B9C007121A3CAE82D007BEEBAD220F808F22AF82E4FDCD54C6
:2025160003A2E0CD13CD13A2E0CD13CD13CDFCEF0303543F4DFDEF030354C0FE7F00740188
:202536002DFDE43C8F828E838DF022AD82AE83AFF07C007B00BB040040030225D0C0048B3C
:2025560082C007C006C005C003122510A882A983AAF0FCD003D005D006D0077416C0E0E438
:20257600C0E074F3C0E074F0C0E0888289838AF0EC1206E1E58124FCF5817464C0E074FC41
:20259600C0E090F0FB12488A15811581920ED004300E218D008E018F027408C0E0C000C0DE
:2025B6000190F0F312454B158115811581920E50038C82220B8B0402254B7582FF22AF82B5
:2025D6005307F87E007D00BD0400400302265CC0068D82C007C005122510AA82AB83ACF072
:2025F600FED005D0077416C0E0E4C0E074F3C0E074F0C0E08A828B838CF0EE1206E1E5817F
:2026160024FCF5817464C0E074FCC0E090F0FB12488A158115819228D006302823C006909A
:20263600F108E0FC5304F87B008F027E00ECB50206EBB506028004D0068005D0068E82229E
:202656000D8D060225DD7582FF22122510AC82AD83AEF0FF7416C0E0E4C0E074F3C0E0743D
:20267600F0C0E08C828D838EF0EF1206E1E58124FCF58190F108E0F58222AF828F060EEE70
:2026960024FB50027E00EEB507038E82228E82C007C006122510AA82AB83ACF0FDD006D0D9
:2026B600077416C0E0E4C0E074F3C0E074F0C0E08A828B838CF0ED1206E1E58124FCF581CC
:2026D6007464C0E074FCC0E090F0FB12488A15811581922850A890F108E0FD5305F87C00ED
:2026F600BD789BBC00988E8222122510AC82AD83AEF0FF7404C0E0E4C0E08C828D838EF0F4
:20271600EF12092C15811581227F00BF0400500C8F82C0071226FFD0070F80EF22AF828F3B
:20273600057E00C005C0067499C0E0746AC0E01259A9E58124FCF5818F82122510020A6C6A
:202756007825E4F208F208F208F27B00BB040040030227F58B82C00312251085823E858303
:202776003F85F040F541D0037416C0E0E4C0E074F3C0E074F0C0E0853E82853F838540F04C
:20279600E5411206E1E58124FCF5817464C0E074FCC0E090F0FB12488A15811581920F5004
:2027B6003AC00390F104E0FAA3E0FBA3E0FEA3E0FF7825C3E29A08E29B08E29E08E29FD0E4
:2027D60003501890F1047825E0F2A3E008F2A3E008F2A3E008F290F945EBF00B0227627856
:2027F60025E2F58208E2F58308E2F5F008E222AF82AE83D21090F91FE0FD7C007B007A00CE
:202816008C44EBC454F0C544C4C5446544C54454F0C5446544F545EDC4540F4544F544ED64
:20283600C454F0F543754200300D17782FE542F27470254308F2E4354408F2E4354508F282
:2028560080497810E2F582C007C00612251085824685834785F048F549D006D007741625F1
:2028760046F546E43547F547E43548F548E43549F549782FE5462542F2E547354308F2E539
:2028960048354408F2E549354508F290FA807405F090FA5CE4F090F94004F07829EFF20851
:2028B600EEF27406C0E0E4C0E0C0E090F92112451F15811581158190FA80E0FB14F0EB70BE
:2028D60003022C481010030229977829E2FA08E2FB8A828B8378627463F2E408F2125CDE3B
:2028F600AA8290FA7DEAF07829E2FB08E2FF8B828F8378837463F2E408F2C002126021E553
:20291600828583F0D00245F0600690FA7DEA04F090FA7DE024EA500690FA7D7415F090FA80
:202936005CE0FB7A0090FA7DE0FFC3EA9F50528B067F00788A7408F2E408F28E828F83C0BC
:2029560007C006C003C00212615EAC82AD83D002D003D006D007EC2421FCED34F9FD5306F1
:20297600078EF005F07401800225E0D5F0FBFE8C828D83E0FF42068C828D83EEF00B0A8037
:20299600A4122314AA82AB83AFF0EA4B7003F582220ABA00010B8A828B838FF0126223FEFC
:2029B600A3126223FF4E60428E048F05C3EC9423ED9400501A7877EEF2EF08F2E408F208C3
:2029D600F2900019E4F5F0125ED5124969801BEC24F6FCED34FFFD7F007E008C828D838F10
:2029F600F0EE1217BBD21812501F900122E4F5F012213F78337401F290FA5CE0FF7E0090C1
:202A1600FA7DE0FDC3EE9D505E8F047D00788A7408F2E408F28C828D83C007C006C005C0C2
:202A36000412615EAA82AB83D004D005D006D007EA2421F582EB34F9F5835304078CF005E6
:202A5600F07C017D008006EC2CFCED33FDD5F0F7E0FB7A005204EA5205EC4D60067833E4E9
:202A7600F280040F0E80987833E27003022C0D90FA7DE07875F2E408F2900063125EB5AEF0
:202A960082AF83782DEEF2EF08F290FA8174F3F074F0A3F0E4A3F090FA5CE0704B90F0F33A
:202AB600E0FCA3E0FD7829ECF208EDF290F0F5E0FCA3E0FD782BECF208EDF290FA7EE4F029
:202AD600A3F0782DE2FC08E2FDEC24FCFCED34FFFD782DECF2ED08F290FA81740424F3F0CA
:202AF600E434F0A3F0E4A3F07829E2FC08E2FD782DC3E2F5F0EC95F008E2F5F0ED95F05017
:202B16000A7829792DE2F308E209F37829E2FC08E2FD782DD3E29CF4B3FCB308E29DF4FD69
:202B36007829ECF208EDF275820412177690FA81E0F546A3E0F547A3E0F548AA46AF47787C
:202B56002DE2C0E008E2C0E0C002C007782FE2F58208E2F58308E2F5F008E212081CE581E6
:202B760024FCF5817582041217AF782DE2FA08E2FD7E007F00782FE22AF208E23DF208E2C9
:202B96003EF208E23FF2AD46AE47AF48782DE2F54608E2F547AA46AC47154674FFB546025F
:202BB6001547EA4C60368D828E838FF0126223FCA3AD82AE838C4275430090FA7EE0FAA397
:202BD600E0FC8A4A8C4BAB42AC43EB254AFBEC354BFC90FA7EEBF0ECA3F080B990FA7DE03D
:202BF600FF90FA5CE02FF07829E2FE08E2FF4E60067833E4F2D21090F940E4F07833E270C0
:202C1600030228CD782BE2FE08E2FF90FA7EE0FCA3E0FDEEB50406EFB50502801174B3C004
:202C3600E0746AC0E01259A91581158180047582012275820022AFF0AE83E58290FA88F0F0
:202C5600EEA3F0EFA3F090FA88E0FDA3E0FEA3E00DBD00010E8D828E837408C0E07430C0EF
:202C7600E074F9C0E012454B1581158115819211501490F938E0FCA3E0FDA3E0FEA3E0FFC6
:202C9600EC4D4E4F707490F91FE4F090FA88E0FDA3E0FEA3E0FF74012DFAE43EFBC002C0BB
:202CB6000390F91712444D15811581740D2DFAE43EFB8F048A828B838CF0126223FA90F984
:202CD60020F07411C0E0C005C00690F92F1245B71581158115817408C0E0E4C0E0907000F6
:202CF600E4F5F012092C1581158190F938E0FEA3E0FF90FA86EEF0EFA3F090F938E0FCA3B1
:202D1600E0FDA3E0FEA3E0FFEC4D4E4F7003022DA5C3E49C74109DE49EE49F500B90FA84CE
:202D3600E4F07410A3F0800890FA84ECF0EDA3F0D20D90FA84E0FEA3E0FF8E828F831228F7
:202D560005E582604690F91FE0FF0F90F91FEFF090F938E0FCA3E0FDA3E0FEA3E0FF90FA84
:202D760084E0FAA3E0FB8A008B01E4FAFBECC398FCED99FDEE9AFEEF9BFF90F938ECF0ED13
:202D9600A3F0EEA3F0EFA3F0022D107582002275820122AFF0AE83E58290FA8DF0EEA3F056
:202DB600EFA3F090FA8DE0FDA3E0FEA3E0FF74012DFAE43EFB8F048A828B837408C0E0748E
:202DD60030C0E074F9C0E012454B1581158115819212504090F93DE0FC740E2DFDE43EFEFA
:202DF6008D828E838FF0126223FDECB5052690F938E0FCA3E0FDA3E0FEA3E0FFEC4D4E4FC8
:202E1600601274CBC0E0746AC0E01259A915811581022FB375820412177690F9457834E0B5
:202E3600F290FA8DE0FCA3E0FDA3E0FE740E2CFAE43DFB8E078A828B838FF0126223FA54BF
:202E5600FC60317834E2FB7F00C003C00774DEC0E0746AC0E01259A9E58124FCF58190FA33
:202E76006E7411F0E4A3F08C828D838EF0121AC37834E4F290F945E02401F0FFBF04004010
:202E96000590F945E4F090F945E0FF7834E2B507197582041217AF7402C0E0746BC0E012EB
:202EB60059A915811581758201228F82122510AC82AD83AEF0FF7416C0E0E4C0E074F3C08C
:202ED600E074F0C0E08C828D838EF0EF1206E1E58124FCF5817464C0E074FCC0E090F0FB75
:202EF60012488A158115819212500890F108E054F8708190F945E0FF7810F28F821225108B
:202F1600AC82AD83AEF0FF7404C0E0E4C0E08C828D838EF0EF12092C1581158175820412F9
:202F360017AF7810E2FE7F00C006C007740CC0E0746BC0E01259A9E58124FCF58190F91FEA
:202F5600E4F090FA8DE0FDA3E0FEA3E0FF74012DFAE43EFBC002C00390F91712444D158179
:202F76001581740D2DFAE43EFB8F048A828B838CF0126223FA90F920F07411C0E0C005C0E3
:202F96000690F92F1245B715811581158190F938E0FEA3E0FF90FA8BEEF0EFA3F090F93836
:202FB600E0FCA3E0FDA3E0FEA3E0FFEC4D4E4F700302304AC3E49C74109DE49EE49F500B13
:202FD60090FA84E4F07410A3F0800890FA84ECF0EDA3F090FA84E0FEA3E0FF8E828F83124E
:202FF6002805E582604A90F91FE0FF0F90F91FEFF090F938E0F54CA3E0F54DA3E0F54EA350
:20301600E0F54F90FA84E0FAA3E0FBE4FEFFE54CC39AFAE54D9BFBE54E9EFEE54F9FFF90AE
:20303600F938EAF0EBA3F0EEA3F0EFA3F0022FB3758200227582041217767430C0E074F9A6
:20305600C0E090F0F312444D1581158190F0FB7421F07447A3F0744DA3F07447A3F090F9FF
:2030760041E02401F0A3E03400F0A3E03400F0A3E03400F090F941E0FCA3E0FDA3E0FEA3C5
:20309600E0FF90F104ECF0EDA3F0EEA3F0EFA3F090FA8BE0FEA3E0FF7D007C0090F0FFEE7C
:2030B600F0EFA3F0EDA3F0ECA3F090F93CE090F103F090F93DE090F108F07810E2F582125E
:2030D6002510AC82AD83AEF0FF7416C0E0E4C0E074F3C0E074F0C0E08C828D838EF0EF1254
:2030F600081CE58124FCF5817582041217AF75820122AFF0AE83E58290FA91F0EEA3F0EFFB
:20311600A3F0C20D90FA91E0F553A3E0F554A3E0F555740D2553FAE43554FBAC558A828B68
:20313600838CF0126223FCBC02028024BC0303023490BC10028019BC20028014BC210280C3
:203156000FBCA803023383BCAF0302347002350590FA91E0FFA3E0FEA3E0FD7550907551C5
:20317600FA755200740E2FF553E43EF5548D558553828554838555F0126223FB8550828544
:2031960051838552F0125E9A90FA90E020E203023267758204C007C006C005121776D00519
:2031B600D006D00790FA90E0C423541FFB603CBB0F02806C8553828554838555F012622392
:2031D600F582C007C006C0051225D4AB82D005D006D007BBFF0280488B82C007C006C00573
:2031F6001226FFD005D006D007803574012FF553E43EF5548D558553828554838555F0C0D2
:2032160007C006C005122541AB82D005D006D007BBFF02800B12249778357401F202337D05
:20323600758204C007C006C0051217AFD005D006D0078F828E838DF0122DA9E582600B1266
:20325600249778357401F202337D7835E4F202337D74012FF553E43EF5548D5585535085BC
:2032760054518555528550828551837408C0E07427C0E074F9C0E012454B158115811581EF
:203296009213500B12249778357401F202337D758204C007C006C005121776855382855466
:2032B600838555F0122541AC82758204C0041217AFD004D005D006D007BCFF028051C007C3
:2032D600C006C005C004122497D004D005D006D0078F538E548D55AA53AB547411C0E0C0DF
:2032F60002C00390F92F1245B715811581158190F938E4F0A3F0A3F0A3F090FC63ECF090C2
:20331600FA90E054037824F28C82122733803D741AC0E0746BC0E01259A9158115818F8213
:203336008E838DF0122DA9E582601B1224977810E2FB90FC63F090FA90E054037824F28BA4
:203356008212273380067835E4F2801B90F930E0FAA3E0FBC002C00390F92712444D158146
:20337600158178357401F27835E2F5822290F938E0FAA3E0FBA3E0FEA3E0FFEA4B4E4F7007
:203396002F74012553FDE43554FEAF558D828E837408C0E07430C0E074F9C0E012454B154B
:2033B6008115811581921350071224977582012290F91FE4F090FA91E0F550A3E0F551A33F
:2033D600E0F55274012550FAE43551FBC002C00390F91712444D15811581740D2550FDE49C
:2033F6003551FEAF528D828E838FF012622390F920F0AD50AE517411C0E0C005C00690F92E
:203416002F1245B715811581158174092550FDE43551FEAF528D828E838FF0126223FDA369
:20343600126223FE8D828E83122805E582602790F938E4F0A3F0A3F0A3F0758204121776AC
:2034560090F0F775F0001213CB7582041217AF1224977582012275820022122497740E2543
:2034760053FDE43554FEAF558D828E838FF0126223F58212045A75820122758204121776A6
:203496008553828554838555F0122C4CE582605B122497758204121776123520300D1112BC
:2034B6003A8A907019E4F5F01206C112557980567422C0E0746BC0E01259A9158115817557
:2034D60082041217AF90FA5B7401F090F0E374E0F0123B037408C0E0E4C0E0C0E090F92747
:2034F60012451F158115811581801B758200227F00C004C007743FC0E0746BC0E01259A9DA
:20351600E58124FCF58175820022783AE4F208F208F208F2C20D7419C0E0E4C0E074A2C0B4
:20353600E074FDC0E0907000E4F5F01206E1E58124FCF58178367419F2747008F2E408F2DD
:2035560008F290FDAAE0FFBF0102800790F08F7401F022906251E493FD740193FE740293A0
:203576007409C0E0C005C00690FDAB12454B1581158115819214500790F08F7402F02290CD
:20359600FDA8E0FEA3E0FFC3E49E74809F500790F08F7403F02290FDA8E0FEA3E0FF4E70F6
:2035B6000302366890FDA8E0FEA3E0FFC374239E74089F50047E237F08C006C00774F3C07A
:2035D600E074F0C0E07836E2F58208E2F58308E2F5F008E21206E1E58124FCF58190FA94BC
:2035F60074F3F074F0A3F0E4A3F090FA97EEF0EFA3F0783AE2F58208E2F58308E2F5F0082B
:20361600E2C007C006123741783AC0E0E582F2E58308F2E5F008F2D0E008F2D006D0078EDA
:20363600028F037C007D007836E22AF208E23BF208E23CF208E23DF290FDA8E0FCA3E0FD62
:20365600ECC39EFEED9FFF90FDA8EEF0EFA3F00235AC90FDA2E0FCA3E0FDA3E0FEA3E0FF78
:20367600783AE2B5041108E2B5050C08E2B5060708E2B50702800790F08F7404F02290FD25
:20369600A6E0FEA3E0FF90F08DEEF0EFA3F0C006C007745FC0E0746BC0E01259A9E5812484
:2036B600FCF581D20D22122756AC82AD83AEF0FF90F941ECF0EDA3F0EEA3F0EFA3F0227438
:2036D60008C0E07450C0E074F9C0E090FA661245B715811581158190FA5DE054F84421F093
:2036F60090FA5EE054F344C8F090FA607437F07413A3F090FA6274FFF0A3F090FA6474378F
:20371600F07413A3F0227411C0E0745DC0E074FAC0E090F9DC1245B715811581158190F905
:2037360058E0FF04F090F9DEEFF022AC82AD83AEF0FF783EECF4F2EDF408F2EEF408F2EFB7
:20375600F408F290FA94E0F55EA3E0F55FA3E0F56090FA97E0F55AA3E0F55B855A5C855B27
:203776005D155A74FFB55A02155BE55C455D700302383F855E82855F838560F0126223FE6E
:20379600A385825E85835F8E047D007E007B00783EE26CF208E26DF208E26EF208E26BF2CC
:2037B6007846E4F208F27846C3E2940808E26480948050A7783EE25401FA08E25400FB0865
:2037D600E25400FC08E25400FE7842C3E49AF2E49B08F2E49C08F2E49E08F27841E2C31398
:2037F600F56418E213F56318E213F56218E213F5617842E25420FC08E25483FD08E254B86E
:20381600FE08E254EDFA783EEC6561F2ED656208F2EE656308F2EA656408F27846E2240145
:20383600F208E23400F20237BC783EE2F4FB08E2F4FC08E2F4FD08E2F48B828C838DF022A6
:206A58000A002530327820004150206F6E2025640A004E6F204150206F6E2025640A002E68
:206A780000636865636B435243206661696C65640A00524551202564207061727420256488
:206A98000044726177696E6720696D61676520696E20736C6F742025640A00626C6B2066A4
:206AB80061696C65642076616C69646174696F6E210A0072657374617274696E6720696D10
:206AD8006720646C0A004368616E67696E67207374617274696E67536C6F742066726F6D1C
:206AF80020256420746F20300A004E6F20736C6F74730A006E657720646C20746F20256476
:206B18000A00646C20696D670A004F544120696D6167652076616C69646174696F6E206644
:206B380061696C65640A00646174615479706520307825782069676E6F7265640A004368D6
:206B5800726F6D613239004F54412076616C6964617465642C207570646174696E67207415
:0F6B78006F2076657273696F6E202530780A0082
:0575F200FF21474D4799
:20385600E58620E0FB225390FD00225380FB0022E58620E0FB004390020022E58620E0FB15
:2038760000438004002290F09B7438F0E4A3F030050990F09B7430F0E4A3F02290F959E0D3
:20389600704590F0C7E0603FC20490F09F7410F0C4A3F090F0A17406F0E4A3F09071597516
:2038B600F080120D72D20490F09F7418F07401A3F090F0A1740DF0E4A3F090717B75F0800E
:2038D600120D72D2038002C203300A2690F0C6E06020C20490F09F7410F0C4A3F090F0A14E
:2038F6007470F0E4A3F090718575F080120D72D20222C20222123E4474ACC0E07471C0E0B6
:203916001240F31581158174BFC0E07471C0E01240F31581158190F09BE0FEA3E0FF740860
:203936002EFEE43FFF90F09BEEF0EFA3F074D2C0E07471C0E01240F31581158174F5C0E0C3
:203956007471C0E01240F3158115817417C0E07472C0E01240F31581158190F09BE0FEA39D
:20397600E0FF74082EFEE43FFF90F09BEEF0EFA3F090F09DE4F0A3F074A7C0E07471C0E049
:203996001240F3158115810239C0758205123E21E5826001227435C0E07472C0E01259A96B
:2039B6001581158190390B020D4C7436C0E074FCC0E0E4C0E07441C0E07472C0E01240F398
:2039D600E58124FBF5812290624FE493C0E0740193C0E0744DC0E07472C0E01240F3E58122
:2039F60024FCF58122123E44123E60745CC0E07472C0E01240F3158115811239DD90F0E5C1
:203A1600E0C0E0A3E0C0E0746DC0E07472C0E01240F3E58124FCF58190FAB4E0FF3395E0E0
:203A3600FEC007C006747BC0E07472C0E01240F3E58124FCF5810239C0758201123E21E546
:203A5600826001221219549039FB020D4C123E44123E60C20512387C90F08DE0C0E0A3E0CC
:203A7600C0E0748EC0E07472C0E01240F3E58124FCF58122903A63020D4C123E44123E6039
:203A9600D20574A4C0E07472C0E01240F315811581D20490F08FE0FFBF02028018BF0402A6
:203AB6008023BF053074B5C0E07472C0E01240F3158115812274C4C0E07472C0E01240F3D4
:203AD600158115812274D5C0E07472C0E01240F315811581227E00C007C00674E0C0E0740D
:203AF60072C0E01240F3E58124FCF58122903A90020D4C123E44123E6074EFC0E07472C099
:203B1600E01240F3158115817407C0E07473C0E01240F31581158190F09BE0FEA3E0FF9020
:203B3600F0A1EEF0EFA3F090F94CE0FF7E0090F94DE0FD7C00C007C006C005C0047420C0B3
:203B5600E07473C0E01240F3E58124FAF58190F94AE0FF7E0090F94BE0FD7C00C007C006BF
:203B7600C005C0047432C0E07473C0E01240F3E58124FAF58190F948E0FF7E0090F949E0BA
:203B9600FD7C00C007C006C005C0047432C0E07473C0E01240F3E58124FAF58190F946E0C5
:203BB600FF7E0090F947E0FD7C00C007C006C005C0047432C0E07473C0E01240F3E5812497
:203BD600FAF58190F099E0FEA3E0FF8E02EFFB3395E0FCFD7428C39AF50F74019BF510E4D5
:203BF6009CF511E49DF512906EADE493FDE4FC3395E0FBFAE50FC39DFDE5109CFCE5119B7A
:203C1600FBE5129AFA78647402F2E408F208F208F28D828C838BF0EAC007C006125D29AAA0
:203C360082AB83D006D00790F09FEA2EF0EB3FA3F090F0BFE0FF7E0090F0C0E0FD3395E0CC
:203C5600FC90F959E0FB7A00C007C006C005C004C003C002743BC0E07473C0E01240F3E580
:203C76008124F8F581123EE10239DD758203123E21E582600122121954903B09020D4C12BD
:203C96003E44123E607455C0E07473C0E01240F3158115817468C0E07473C0E01240F3151E
:203CB60081158190F099E0FEA3E0FF90FA99EEF0EFA3F090F09BE0FEA3E0FF90F0A1EEF061
:203CD600EFA3F0747DC0E07473C0E01240F31581158190FA99E0FEA3E0FF8E02EFFB3395FE
:203CF600E0FCFD74F0C39AFAE49BFBE49CFCE49DFD78647402F2E408F208F208F28A828BF9
:203D1600838CF0EDC007C006125D29AA82AB83D006D007EA2EFEEB3FFF90F09FEEF0EFA3A7
:203D3600F0EE5407601574075EFC7D00EEC39CFEEF9DFF90F09FEEF0EFA3F0906EAD75F008
:203D560080120D7290F0A1E0FEA3E0FF74082EFEE43FFF90F0A1EEF0EFA3F0D20490703763
:203D760075F080120D72023892758204123E21E582600122903C95020D4C123E44123E6095
:203D960090F09BE0FEA3E0FF74102EFEE43FFF90F09BEEF0EFA3F07491C0E07473C0E01207
:203DB60040F315811581123EE1023892758205123E21E582600122903D90020D4C123E44EE
:203DD600123E6074A1C0E07473C0E01240F31581158174B5C0E07473C0E01240F315811530
:203DF6008190F09F747CF0E4A3F090F09BE0FEA3E0FF90F0A1EEF0EFA3F0D2049070377538
:203E1600F080020D72903DD3020D4CE582C40354F8F5821225D4AF82BFFF02800D7824E4A6
:203E3600F28F821227337582012275820022C206C204C20590F099E4F0A3F090F09DF0A345
:203E5600F090F09BF0A3F0C20922D20490F0A1E4F0A3F0906D2A93FF7E007428C39FFF74CB
:203E7600019EFE90F09FEFF0EEA3F0906D2975F080120D72C204906B88E493FF7E0090F0B7
:203E96009FE0FCA3E0FDECC39FFFED9EFE90F09FEFF0EEA3F0906B8775F080120D72906DC7
:203EB600ECE493FF7E0090F09FE0FCA3E0FDECC39FFFED9EFE90F09FEFF0EEA3F0D20490D6
:203ED6006DEB75F080120D72C2042290F0E9E0FEA3E0FF4E601190F0E7E0FCA3E0FDC3EE1A
:203EF6009CEF9D5002800890F0E7E0FEA3E0FFC006C00774CFC0E07473C0E01240F3E58141
:053F160024FCF58122EE
:206B8700801AFFFFFFFFFFFFFFFFFFFFFFFFFFFFFFFF000000000000000000000000000064
:206BA7000000000000000000000000000000000000000000000000000000000000000000CE
:206BC7000000000000000000000000000000000000001C000000001F9F80000000003870AC
:206BE70001C07F000000001F9FC000000000387001C07F000000001F9FE0000000003870A2
:206C070001C0F7800000001C1CE000000000380001C0E3800000001C1CE000000000380071
:206C270001C0E39DC1C7701F9CE773B871D03873B9C7E39FE3E7F81F9FEFF3FCF9F0387367
:206C4700FDCEE39FE777F81F9FCFF3FDDDF03873FDDCE39CE7F7381C1F8E739DFDC03873E6
:206C67009DF8E39CE7F7381C1C0E739DFDC038739DF8F79CE707381C1C0E739DC1C0387355
:206C87009DDC7F1FE7F7381F9C0FF3FDFDC03F739DDC7F1FE3E7381F9C0FF3FCF9C03F735A
:206CA7009DCE1E1DC1C7381F9C0773B871C03F739DC7001C00000000000003800000000094
:206CC7000000001C0000000000000380000000000000001C0000000000000380000000006F
:206CE7000000001C00000000000003800000000000000000000000000000000000000000EE
:206D0700000000000000000000000000000000000000FFFFFFFFFFFFFFFFFFFFFFFFFFFF7A
:206D2700FFFF800C000882A2AB55BFFFFFFF7DB4622800000010101176FF7BFFFF7FB7A921
:206D470055505100002922966FF7BFFFFFFFEAE622AA08000002542ABF3F7FFFFFFFFD593F
:206D6700B4102000002423B5B5DFFFFFFFFFF6AE48551000008890546AEFFFFFFFFFFBF59A
:206D8700A382000000012DA3B3FFFFFFFFFFF6BE4E5209000490020D55DFFFFFFFFFFDDD3E
:206DA70068A9001000490CFBAB6FFFFFFFFFFEEB955A002000129122BFDFFFFFFFFFFFF5FA
:206DC700658140400028127DEFFFFFFFFFFFFFEFAB28000000420A9775FFFFFFFFFFFFF79B
:206DE7004AC20400800C0008029CDFFFFFFFFFFFFF6A6A8D002000044D72AAFFFFFFFFFF88
:206E0700FFD5D57480000240128EDFFDFFFFFFFFFFAEAA0A11200020525FF57FFFFFFFFF41
:206E2700FF7294AA240000010AAB6F77FFFFFFFFFDAF545488000004804D95EBFFFFFFFFB7
:206E47005B58B5514000000808A6B3F77FFFFFFFFFAD4AA0100000029641DCAEFFFFFFFF51
:206E6700FDBFEA4802000000093EAB75EFFFFFFFFFD4B121080000000AC35DFF7FFFFFFF76
:206E8700EFEF444A64800000A152A6EFEFFFFFFFD6CAF5101800000002154BD5DFFFFFF75F
:206EA700EBD4D885000038380000000000000000000000000000000000000000000000003F
:206EC7000000000000000000000000000000000007C00000000001FFF0000000000FFFF0F6
:206EE700000000007FFFF000000001FFFFF000000007FFFFC00000001FFF80000000007F4C
:206F0700F80000000000FFE00000000001FF000000000007FE00000000000FF80000000087
:206F2700001FE000000000003FC00003E000007F80007FF00000FE0003FFF00001FC000FFF
:206F4700FFF00001F8003FFFF00003F800FFFF800007F001FFE000000FE003FF0000000FC4
:206F6700C00FF80000001F801FF00000001F803FC00000003F003F800000003F007F00003B
:206F870000007E00FE0007E0007E01FC001FF000FC01F8007FF000FC03F001FFF000F803BF
:206FA700F003FFF001F807E007FF0001F807E00FF00001F00FC01FE00001F00FC03F8000E5
:206FC70003F00F803F000003F01F807E000003E01F807E000003E01F00FC01E003E01F00F8
:206FE700FC07F803E01F00F80FFC03E03F00F80FFC03E03F01F81FFE03E03F01F81FFE03F2
:20700700E03F01F81FFE03C03E01F01FFE01C01E00F00FFC00000000000FFC000000000040
:2070270007F8000000000001E000000000000000303000001FF800000000FFFF00000003F1
:20704700FFFFE000000FFFFFF000003FFFFFFC00007FF00FFE0000FF8001FF0001FE00001B
:207067007F8003F800001FC007F000003FE00FE000007FF00FC00000FFF01F800001FFF867
:207087001F000003FFF83F000007FEFC3E00000FFC7C7E00001FF87E7C00003FF03E7C0053
:2070A700007FE03EFC0000FFC03FF80001FF801FF80003FF001FF80007FE001FF8000FFC63
:2070C700001FF8001FF8001FF8003FF0001FF8007FE0001FF800FFC0001FFC01FF80003F0F
:2070E7007C03FF00003E7C07FE00003E7E0FFC00007E3E1FF800007C3F3FF00000FC3F7F0E
:20710700E00000FC1FFFC00001F80FFF800003F00FFF000007F007FE00000FE003FC00003C
:207127001FC001FE00007F8000FF8001FF00007FF00FFE00003FFFFFFC00000FFFFFF0003A
:207147000003FFFFE0000000FFFF000000001FF800001010000000000000000000007C0096
:207167008200000038004407007903811C0103810079000708080063773E1C3E7763101069
:20718700000003C00FF0081008100810081008100810081008100BD00BD008100FF0000099
:2071A7000A000A0A0009084F70656E4550617065724C696E6B0A08006F70656E65706170D2
:2071C70065726C696E6B2E64650A0049276D0920666173742061736C656570202E202E2018
:2071E7002E20746F2077616B65206D653A000A52656D6F7665206261747465726965732CDC
:207207002073686F727420626174746572790A00636F6E74616374732C207265696E7365C1
:207227007274206261747465726965732E004465657020736C6565700A00546167204D41C5
:20724700433A202573004368726F6D613239207625303458005374617274696E67202E20FC
:207267002E202E0A0A000A564261743A202564206D560A0054656D70657261747572653A68
:20728700202564430A0A000C466C617368696E67207625303478202E202E202E000C4F547F
:2072A70041204641494C4544203A280A0A000C4E6F74204F544120696D616765000C5772F2
:2072C7006F6E67204F544120696D616765000C435243206572726F72000C4572726F7220D8
:2072E700436F64652025640057616974696E6720666F722064617461202E202E202E0A007B
:207307000A466F756E642074686520666F6C6C6F77696E672041503A000A4150204D414397
:207327003A202530325825303258002530325825303258000A43683A202564205253534977
:207347003A202564204C51493A2025640A00084E6F20415020666F756E64203A280A080A00
:20736700005765276C6C2074727920616761696E20696E2061000A6C6974746C652077689D
:20738700696C65202E202E202E00087A7A5A5A5A202E202E202E0A080A000C454550524F2B
:2073A7004D204641494C4544203A280A0A000C536C656570696E6720666F726576657220A2
:1573C7002E202E202E0A0A00564261743A202564206D560A0096
:203F1B00C007C006C005C004C00390FAA2E0600302400F90FAA3E0FF24FB500302400CEF32
:203F3B002F2F903F4173023F50023F6E023FEF02400602400C90FAA0744BF0E4A3F090FAA5
:203F5B00A2740BF090FAA37401F090FAA47468F002400F90FA9D124837E582FF6045EF2482
:203F7B00E0FFBF600040027F1F90FAA5E0FE0E90FAA5EEF0C0078E82124361AD82AE83151E
:203F9B008190FAA4E0FC7B002DFDEB3EFE8D828E837467C0E0124832AE82158190FAA4EEA6
:203FBB00F0800B90FAA37402F090FAA4E0FFEF75F002A424DCF582747335F0F583E493FE61
:203FDB00A3E493FF90FAA0EEF0EFA3F090FAA2740BF0802090FAA37403F090FAA074E3F0E3
:203FFB00741AA3F090FAA203F0800990FAA37404F0C3802D90FAA0E0FEA3E0FFEE540124E7
:20401B00FFE433FDEFC313CE13CEFF90FAA0EEF0EFA3F090FAA2E0FF1F90FAA2EFF0ED242F
:0C403B00FFD003D004D005D006D007222F
:2073DC009B01B3013303C90089019101990019013101930013012301CD01D90199039D0194
:2073FC00B90139037302D30193033B017301B7039701A7012703370167016702DB001B03C6
:20741C006303C500D10011038D00B10031028B00A3002302ED008D03B103DD001D037103DA
:20743C0077038B03A303BB003B02BB03D70017034703B7003702C702F70213028F026500D4
:20745C00850169000903A10121034D000D01590019026101610243025300EF024301F102FB
:20747C00E501E901C9033D01790179022F014F014F02DB037B036F03F500C503D103BD0034
:0E749C003D02AF002F02DD03BD03D703AF0397
:20404700C007C006C005C004C001C000AC82AD83AEF0FFBF20005031BF0A030240E68F8262
:20406700C007C006C005C004C003C002C001C000C02512422ED025D000D001D002D003D0AB
:2040870004D005D006D00780567E00EF24E0FFEE34FFFEEF2FFFEE33FEEF242CF582EE341A
:2040A70063F583E493A3E493C4540FFE90F0B3EEF0300507EE2EFE90F0B3F090F0B3E0FFCC
:2040C7003395E0FE0FBF00010E90F099E0FCA3E0FDEF2CFFEE3DFE90F099EFF0EEA3F0D055
:2040E70000D001D004D005D006D00722C007C006C005C004C003C001C000E58124F6FFC0D7
:2041070007C006C005C004C003C002C001C000C0251241E1D025D000D001D002D003D00414
:20412700D005D006D007E58124F6F886050886068D828E83E493FCBC0C7290F099E4F0A302
:20414700F0C007C005C006C0E0C0E0904047125658E58124FBF58190F099E0FDA3E0FE335A
:2041670095E0FCFB7428C39DFD74019EFEE49CFCE49BFB78647402F2E408F208F208F28D29
:20418700828E838CF0EBC007C002C001C000C025125D29AB82AC83ADF0FED025D000D0010A
:2041A700D002D00790F099EBF0ECA3F0C007E58124F5F8E6C0E008E6C0E0E4C0E0C0E090D6
:2041C700109A125658E58124FBF581D000D001D003D004D005D006D00722300625300506F1
:2041E7007E147F0080047E0A7F0090F0B4EEF03005067E207F0080047E107F0090F0B3EE00
:20420700F0223005067E207F0080047E107F0090F0B4EEF03005067E147F0080047E0A7FB3
:204227000090F0B3EEF022AF82BF08028018BF0902804EBF0A028013BF0B028055BF0C014F
:2042470022BF0D568038B2050241E11241E190F0B4E0FE3395E0FD90F09BE0FBA3E0FCEE32
:204267002BFEED3CFD90F09BEEF0EDA3F090F09DE0FDA3E0FE90F099EDF0EEA3F022B204A5
:204287002290F099E0FDA3E0FE90F09DEDF0EEA3F02290F09DE4F0A3F0227E00C007C00630
:1242A70074AAC0E07474C0E01259A9E58124FCF581228D
:1574AA00496E76616C69642063686172203078253032780A0077
:2042B900E58620E0FB225390FD00225380FB0022E58620E0FB004390020022E58620E0FBA8
:2042D90000438004002275FB02228582F9E5F830E1FB53F8FDE5F820E0FB85F9822253F3D7
:2042F900C775FA2275FC0C75F8C043F4C043F102D20B2253F1FD53F43F75FA0075FC31752A
:08431900F84043F338C20B2207
:20432100858283D0F0D0E0D082C082C0E0C0F022C00074FB2581F8E58286820886830886A1
:20434100F0D0002275F008C58213C58233D5F0F7C58222E583A2E713F583E58213F5822285
:20436100D083D0E0D0F0C0F0C0E0C083E582A4F58285F08322C000E58124FDF8E6F8858226
:20438100F0A4F582E8A8F08583F0A428F583E5F03400F5F0E4D00022C000C001C0E0C0F0C0
:2043A10074FA2581F88600E58288F0A4F582A9F0E58388F0A429F583E5F03400F9D0E08878
:2043C100F0A429C5F03400F9D0E0C0F088F0A429D0F0D001D00022C000C001C002E5812448
:2043E100FBF8E6F918E6F88582F0A4C0E0AAF0E58388F0A42AF8E5F03400FAE98582F0A4F2
:2044010028C0E0E5F03AFA74003400F8E98583F0A42AFAE5F0388AF0D083D082D002D001B2
:20442100D00022D0E0D0F0C000C001C002C0F0C0E074F82581F9E7F809E7F922D002D001EE
:20444100D00022C9C583C9C8C582C82212442475F008124444E0A3124444F0A3D5F0F302AB
:20446100443D12442475F008124444E493A3124444F0A3D5F0F202443D124424C375F0080E
:20448100124444E0A3F502124444E03AF0A3D5F0EF02443D12442475F008124444E0A3F590
:2044A10002124444E05AF0A3D5F0EF02443D124424C375F008124444E0A3F502124444E023
:2044C1009AF0A3D5F0EF02443D124424C375F008124444E0A3F502124444E0A39AD5F0F04D
:2044E10002443D12442475F008124444E0A3F502124444E0A36A7007D5F0EED302443DC373
:2045010002443DC8C0E075F008E038F0A3D5F0F9D00022D3E4024504C374FF024504C000A4
:20452100C00174FA2581F8E6F5F0088601496015088600E8F0A374FF25F0F5F074FF39F57E
:204541000145F070EED001D00022C000C001C00274F92581F9E7D3601CF5F0098700098779
:2045610001C3E0F502A3124444E0A31244446A7004D5F0EED3D002D001D00022C000C001CB
:20458100C00274F82581F9E7F5F00987024A601F098700098701124444E0A3124444F0A3BB
:2045A10074FF25F0F5F074FF3AF50245F070E7D002D001D00022C000C001C00274F9258172
:2045C100F9E76015F5F0098700098701124444E0A3124444F0A3D5F0F3D002D001D00022E8
:2045E100C083C082E06003A380FAC3E582D0F095F0F582E583D0F095F0F58322C003C00223
:20460100C001C000C0E0C0F0C083C082A98174F62581F886F0188600750201750300758216
:2046210011A2F74014C3E833F8E5F033F5F0C3EA33FAEB33FB058280E8E4C003C002C0E0CD
:20464100C0E0AA81C0F0C000C0E0C0E0A881C0E0C0E0C0E0C0E0AB81C000C001C3758304C9
:2046610086F018E71995F0D583F6D001D000402BC000C001C375830486F018E795F0F71982
:20468100D583F585020085030175830486F018E745F0F719D583F5D001D00074FC28F8C3C5
:2046A10075830408E613F6D583F9C00074FC2AF8C375830408E613F6D583F9D000D582989D
:2046C10020D508D082D083D0F0D00074F42581F58130D508D082D083D0F0D000E8D000D059
:2046E10001D002D00322C2D50245FDD2D50245FDC003C002C001C000C0E0C0F0C083C08250
:20470100A98174F62581F886F07401758219A2F7400A23C5F023C5F0058280F2C0E0E4C09B
:20472100E0C0E0C0E0AA81C0F0C0E0C0E0C0E0A881C0E0C0E0C0E0C0E0AB81C000C001C384
:2047410075830486F018E71995F0D583F6D001D000402BC000C001C375830486F018E795A5
:20476100F0F719D583F585020085030175830486F018E745F0F719D583F5D001D00074FCC7
:2047810028F8C375830408E613F6D583F9C00074FC2AF8C375830408E613F6D583F9D000C8
:2047A100D58298D082D083D0F0D00074F42581F581E8D000D001D002D00322C006C005C0B5
:2047C10004C003C002C001C00074F72581F886F074017C09A2F7400923C5F023C5F00C8037
:2047E100F3FBE4FAA9F0F88582F0FDFEC3E58298E583994011C3E58298F582E58399F583A3
:20480100EA4DFDEB4EFEC3E913F9E813F8C3EB13FBEA13FADCD620D5048D828E83D000D063
:2048210001D002D003D004D005D00622C2D50247BCD2D50247BCE0C0E02401F0A3E0C0E030
:204841003400F0A3E0D083D0826014B4600AC000A882E2D000F582224009E493F58222E00B
:20486100F58222C000A882E6D000F5822212442475F004D3124444E0FA3400F0EAA3124434
:2048810044F0A3D5F0EE02443D12442475F004C3124444E0FAA3124444E0A36A7004D5F08D
:2048A100EFD302443D124424C3E0A398E0A399E0A39400E0A3940002443D124424C3E0A3CD
:2048C10038E0A339E0A33400E0A3340002443D75F004E07004A3D5F0F9F58222A3A3A3E072
:0248E100332280
:0448E30075C90B2266
:2048E700C0E0C007C006C0D075D000AEDAAFDB74012EF5DAE43FF5DBD0D0D006D007D0E03B
:2049070032C007C006C005C004C000AEDAAFDB784AEEF208EFF27848E5E2F27849E5E3F2F7
:20492700EEB5DAE7EFB5DBE37848E2FC08E2FD08E2FE08E28C828D838EF0D000D004D0053E
:20494700D006D0072285E28222E4F5DAF5DBF5E4F5E5F5E6F5E7F5E275E40543D84043B8FE
:204967000222AF82AE83ADF0FC784CEFF2EE08F2ED08F2EC08F21249087850C0E0E582F293
:20498700E58308F2E5F008F2D0E008F2124908AA82AB83AEF0FF7850D3E29AF4B3FAB30868
:2049A700E29BF4B3FBB308E29EF4B3FEB308E29FF4FF784CC3E29A08E29B08E29E08E29F29
:0349C70050CA22B1
:2049CA0053C07F53A1FE53BEFC3243870122AF82AE83ADF0FC7854EFF2EE08F2ED08F2ECBA
:2049EA0008F290FAA6E4F090FAA7F090FAA874DFF090FAA974BEF090FAAAE054E0F090FA02
:204A0A00AAE0541FF090FAAB7407F090FAACE054E0F090FAACE0549F4420F090FAACE054FE
:204A2A007FF090FAADE054FC4402F090FAADE054FBF090FAADE054F7F090FAADE054CFF08E
:204A4A0090FAADE0543F4440F07854E2F5F008E242F008E242F008E245F0701B7B017513B5
:204A6A006F7514FC85141590FAA6E515F07A6F90FAA7EAF0024B0C7854C3E2943F08E29461
:204A8A000008E2940008E29400500C7854743FF2E408F208F208F27854E225E0F51608E2C9
:204AAA0033F51708E233F51808E233F519E5162516F516E51733F517E51833F518E519336E
:204ACA00F519747DC0E0E4C0E08516828517838518F0E5191246E77854C0E0E582F2E58376
:204AEA0008F2E5F008F2D0E008F2158115817B007D687EFC8E0590FAA6EDF07E6890FAA77C
:204B0A00EEF053C07F53A1FE43A11075A8A0EB70147854E2F5F008E242F008E242F008E254
:204B2A0045F070012253BEFBE5BE30E5FBE5C654384441F5C6E5C630E6FB43BE0453C67F14
:204B4A007854C3E2F5F074F095F008E2F5F074FF95F008E2F5F0E495F008E2F5F0E495F0D5
:204B6A00501B7DF07EFF7854E22410F208E23400F208E234FFF208E234FFF280117854E295
:204B8A00FD08E2FE7854E4F208F208F208F2EB60067A007C0080047A107C008AA175C00065
:204BAA0043D6817AA67CFA8AD48CD575D60175A204E5A570FC75A2028EA48DA3AEA5EEB52E
:204BCA00A50280FA43C702EB60077B0075BE07800375BE06000000E5BE5403600875D7012C
:204BEA00004387010053C7FDE5BE30E5FB75BE00E5BE30E5FB75C679E5BE30E6FB7E007DCD
:1B4C0A0000000DBD80FB0EBE80F575C639E5C620E6FB75C63875BE04024B18DA
:0E75F700060606060606040707070707070430
:204C2500AF8275BB0074304FF5B575B473E5B420E6FBE5B430E7FBAEBA7F00ADBB7C009035
:204C4500FAB2EC4EF0ED4FA3F08FB522C21590FAB2E0FEA3E08E82C4C582C4540F6582C5E2
:204C650082540FC5826582C582F58374E2C0E07404C0E01243D8AC82AD83AEF0FF1581157C
:204C85008190FAB0E0FAA3E0FB74FFC0E07407C0E08A828B831243D8A882A983AAF0FB1587
:204CA500811581ECC398FCED99FDEE9AFEEF9BFF747DC0E08C828D838EF0EF124399AC82CB
:204CC500AD83AEF0FF1581EFC40354F8CEC403CE6ECE54F8CE6EFFEDC40354074EFEEDC438
:204CE5000354F8CCC403CC6CCC54F8CC6CFDEF30E70FD215C3E49CFCE49DFDE49EFEE49F8C
:204D0500FF90FAAEE0C0E0A3E0C0E08C828D838EF0EF1246E7AC82AD83AEF0FF15811581C3
:204D250074FF2CFC74033DFDE43EFEE43FFF74FFC0E07407C0E08C828D838EF0EF1246E7E8
:164D4500AC821581158190FAB4ECF030150790FAB4C3E49CF02205
:204D5B00E58620E0FB225390FD00225380FB0022E58620E0FB004390020022E58620E0FBFB
:204D7B00004380040022C007C006AF82BF64004027BF6A00502290DF097421F090DF0A7462
:204D9B003BF090DF0B7413F08F06EE249CFE90DF0675F003A4F0802F90DF097422F090DF0E
:204DBB000A74BBF090DF0B7413F0BFC8004013BFE100500EEF2438FF90DF0675F00CA4F022
:204DDB00800590DF06E4F0D006D00722C00775E10490DF3BE0B401FCD00722124DE77F0001
:204DFB008F057EDFEFC39074BF938D828E83F00FBF200040EB90DF237488F090DF247431C0
:204E1B00F090DF257409F090DF2E748EF075911075ED00759D0075EF0322C007AF82C3EF3A
:204E3B006480946250047FE2800EC3748A8FF063F08095F050027F0A741E2FC3139074DF4D
:204E5B009390DF2EF0D00722C007C006AE82AF838ED48FD575D6010000000000000000001D
:204E7B00D006D0072275D68100000000000000000022C007C006C005AE82AF83124E808F37
:204E9B000590FC78EDF090FC79EEF07E767FFC8E828F83124E63D005D006D00722C007C0AF
:204EBB0006C005AE82AF83124E808F0590FC7EEDF090FC7FEEF07E7E7FFC8E828F83124E6D
:204EDB0063D005D006D00722301604E5EF700122124DE753C0FE43B801E5ED75F080A4242D
:204EFB00B6F58274FA35F0F583124E8D75E1022253B8FE124E80124DE775D10053C0FE2250
:204F1B00AE82AF837CFF7DFF124F0B8E828F83124EB875E90075E103E5E920E42375820FC5
:204F3B00C005C004124C25D004D00590FAB2E0FEA3E0FFC3EE9CEF9D50DE8E048F0580D880
:204F5B00124E80C005C004124EE3D004D0057423C0E08C828D8312482D15817404C0E01245
:204F7B004376AC82AD83158190F0E7ECF0EDA3F022C025C0E0C0F0C082C083C007C006C07D
:204F9B0005C004C003C002C001C000C0D075D000E5D130E040E5ED75F080A424B6FE74FAAB
:204FBB0035F0FF53D1FE8E828F83E0FD248240200D0DED2EF582E43FF583E0FF30E711E558
:204FDB00ED04FF8FEDBF030375ED00E5EF14F5EF124EE3800F74F4C0E07474C0E01259A9E1
:204FFB001581158153C0FED0D0D000D001D002D003D004D005D006D007D083D082D0F0D0E8
:20501B00E0D02532201806124F0BC21622201605D216024EE322E59D75F080A424B6FE74FB
:20503B00FA35F0FF8E828F83E0FD7403B5EF047582FF228D037C0074022BF9E43CFAE92E2A
:20505B00F582EA3FF583E0FA747F5AD39494F4FABA7F0040047AFF8003EA2AFA90F0BFEA5D
:20507B00F00BBB00010CEB2EF582EC3FF583E0A2E71324B390F0C0F00EBE00010FC005C03B
:20509B0006C00790F95B1245B7158115811581E59D04FF8F9DBF0303759D00D21910AF0240
:2050BB00C219E5EFFF04F5EFA21992AFEF7007C005124EE3D0058D8222D21A10AF02C21A46
:1050DB00AFEF75EF03A21A92AFEF7003024EE3220C
:2074BF00D3917D044522000F0022BB131D3B1373A7650700181E1CC700B0B610EA2A001FAF
:2074DF00030506080B0E191C242527293855408D8A84CAC4C0646D612069727120756E65D4
:0974FF00787065637465640A008D
:10760500DFD900008080131A0000DFD9207E1342E5
:1700E10090FC477456F090FC487412F090FC4903F090FC4A7485F0AA
:2050EB00E58620E0FB225390FD00225380FB0022E58620E0FB004390020022E58620E0FB68
:20510B00004380040022C007C006C005C004C003C002C001C000E582785BF27E00C21C787F
:20512B005CE4F2C006785CE2C0E0901000124376AA82AB831581785DEAF2EB08F2785F74DA
:20514B0004F2E408F2785DE2FA08E2FBE4FCFE7404C0E0E4C0E0744BC0E074FCC0E08A82E5
:20516B008B838CF0EE1206E1E58124FCF5817404C0E07447C0E074FCC0E090FC4B12454BBB
:20518B00158115811581921DD006201D03025275785FE2FB08E2FCC394104003025275C0E7
:2051AB0006785D795FE3C5F0E225F0FB09E3C5F008E235F0FAE4FCFE7402C0E0E4C0E07411
:2051CB004BC0E074FCC0E08B828A838CF0EE1206E1E58124FCF58190FC4BE0F51A74FFB562
:2051EB001A05D006025275D006785BE2B51A5D90FC4CE0FCBC020040531C1C8C06785AC3CB
:20520B00E29C5004785AE2FCC0067B007858E2F51B08E2F51C785DE2FD08E2FF74022DFDC6
:20522B00E43FFF785FE22DFD08E23FFA7E007F00C004C003C01BC01C8D828A838EF0EF1265
:20524B0006E1E58124FCF581D21CD00690FC4CE0FF7D00785FE2FB08E2FCEF2BFBED3CFC94
:20526B00785FEBF2EC08F202519B785CE22401F2785CE2B40A00500302512E301C048E07A1
:20528B0080027FFF8F82D000D001D002D003D004D005D006D00722C007C001C000758204F1
:2052AB00C007C006C005C004C003C002C001C000121776D000D001D002D003D004D005D069
:2052CB0006D00778587461F274FC08F2785A7401F2758223125111E58230E70690FC617439
:2052EB0008F0785874AEF274FA08F2785A7402F2758212125111E58230E70A90FAAE74A6CE
:20530B00F07409A3F0785874B0F274FA08F2785A7402F2758209125111E582FF30E70A906F
:20532B00FAB074F3F07402A3F0C007C006C005C004C003C002C001C00012536C758204125E
:20534B0017AF758200125BB8D000D001D002D003D004D005D006D007D2AFD000D001D007CB
:20536B00227440C0E07401C0E0E4C0E090FDA212451F158115811581785874A2F274FD085B
:20538B00F2785A7407F275822A125111E582FF30E71D785874A2F274FD08F2785A7406F221
:2053AB00758201125111E582FF30E703D21B2290F9577444F090F9567467F090FDA4E0FFA5
:2053CB0090F953F090FDA5E0FE90F952F090FDA6E090F951F090FDA7E090F950F090FDA430
:2053EB00E4F07D007C00C006C005C007C00474A2C0E074FDC0E0E4C0E07408C0E07475C0AF
:20540B00E01259A9E58124F7F58190F950E0FF7E0090F951E0FD7C00C007C006C005C00417
:20542B007416C0E07475C0E01259A9E58124FAF58190FDA2E024BF90F955F090FDA3E024AC
:20544B00BF90F954F090F956E0FF7E0090F957E0FD7C00C007C006C005C0047420C0E07482
:20546B0075C0E07436C0E074FCC0E0125A22E58124F8F58190F954E0FF7E0090F955E0FD37
:20548B007C00C007C006C005C0047420C0E07475C0E0743AC0E074FCC0E0125A22E581243C
:2054AB00F8F58190F952E0FF7E0090F953E0FD7C00C007C006C005C0047420C0E07475C013
:2054CB00E0743EC0E074FCC0E0125A22E58124F8F58190F950E0FF7E0090F951E0FD7C0090
:2054EB00C007C006C005C0047420C0E07475C0E07442C0E074FCC0E0125A22E58124F8F563
:20550B0081229055187479C39582F5F02275F020C2ADC2AC43AE0100E5AE20E7FB05AD0572
:20552B00ADD5F0F09000008583AD8582ACA375AB2275F00275F900E5F830E1FB53F8FDE536
:20554B00F820E0FBC0F9D5F0EB43AE02E5AE20E6FBD0E0D0AFF5AFE5AE20E6FB53AEFDE513
:20556B00AE20E7FBE583B440BE75C90B80FEC007C006C005C004C00312550DAC82AD83AE36
:20558B00F0FF8E03C003C004C00590FDA21245B715811581158175D6FF75A80075C70390FF
:2055AB00FDA2E473D003D004D005D006D00722C007C00675A80075B800759A0075C7007508
:2055CB00BE00E5BE30E5FB75C679E5BE30E6FB7F007E00000EBE80FB0FBF80F575C639E507
:2055EB00C620E6FB75C63875BE04D006D0072243B404E5B4540C600280F8E5BC65BDF58258
:20560B00221255FAC0821255FAC0821255FAC0821255FAD083D0F0D0E022C0008582BC7833
:07562B0061E2F5BCD0002292
:20750800534E20257325303278253032780025303278253032780A00253032582530325846
:017528000062
